{
  "_format": "hh-sol-artifact-1",
  "contractName": "NFTMarketPlace",
  "sourceName": "contracts/NFTMarketPlace.sol",
  "abi": [
    {
      "inputs": [],
      "stateMutability": "nonpayable",
      "type": "constructor"
    },
    {
      "anonymous": false,
      "inputs": [
        {
          "indexed": true,
          "internalType": "address",
          "name": "owner",
          "type": "address"
        },
        {
          "indexed": true,
          "internalType": "address",
          "name": "approved",
          "type": "address"
        },
        {
          "indexed": true,
          "internalType": "uint256",
          "name": "tokenId",
          "type": "uint256"
        }
      ],
      "name": "Approval",
      "type": "event"
    },
    {
      "anonymous": false,
      "inputs": [
        {
          "indexed": true,
          "internalType": "address",
          "name": "owner",
          "type": "address"
        },
        {
          "indexed": true,
          "internalType": "address",
          "name": "operator",
          "type": "address"
        },
        {
          "indexed": false,
          "internalType": "bool",
          "name": "approved",
          "type": "bool"
        }
      ],
      "name": "ApprovalForAll",
      "type": "event"
    },
    {
      "anonymous": false,
      "inputs": [
        {
          "indexed": true,
          "internalType": "uint256",
          "name": "tokenId",
          "type": "uint256"
        },
        {
          "indexed": false,
          "internalType": "address",
          "name": "bidder",
          "type": "address"
        },
        {
          "indexed": false,
          "internalType": "uint256",
          "name": "amount",
          "type": "uint256"
        }
      ],
      "name": "AuctionBidPlaced",
      "type": "event"
    },
    {
      "anonymous": false,
      "inputs": [
        {
          "indexed": true,
          "internalType": "uint256",
          "name": "tokenId",
          "type": "uint256"
        },
        {
          "indexed": false,
          "internalType": "address",
          "name": "winner",
          "type": "address"
        },
        {
          "indexed": false,
          "internalType": "uint256",
          "name": "amount",
          "type": "uint256"
        }
      ],
      "name": "AuctionEnded",
      "type": "event"
    },
    {
      "anonymous": false,
      "inputs": [
        {
          "indexed": false,
          "internalType": "uint256",
          "name": "_fromTokenId",
          "type": "uint256"
        },
        {
          "indexed": false,
          "internalType": "uint256",
          "name": "_toTokenId",
          "type": "uint256"
        }
      ],
      "name": "BatchMetadataUpdate",
      "type": "event"
    },
    {
      "anonymous": false,
      "inputs": [
        {
          "indexed": true,
          "internalType": "uint256",
          "name": "tokenId",
          "type": "uint256"
        },
        {
          "indexed": false,
          "internalType": "address",
          "name": "seller",
          "type": "address"
        },
        {
          "indexed": false,
          "internalType": "address",
          "name": "owner",
          "type": "address"
        },
        {
          "indexed": false,
          "internalType": "uint256",
          "name": "price",
          "type": "uint256"
        },
        {
          "indexed": false,
          "internalType": "bool",
          "name": "sold",
          "type": "bool"
        }
      ],
      "name": "MarketItemCreated",
      "type": "event"
    },
    {
      "anonymous": false,
      "inputs": [
        {
          "indexed": false,
          "internalType": "uint256",
          "name": "_tokenId",
          "type": "uint256"
        }
      ],
      "name": "MetadataUpdate",
      "type": "event"
    },
    {
      "anonymous": false,
      "inputs": [
        {
          "indexed": true,
          "internalType": "address",
          "name": "from",
          "type": "address"
        },
        {
          "indexed": true,
          "internalType": "address",
          "name": "to",
          "type": "address"
        },
        {
          "indexed": true,
          "internalType": "uint256",
          "name": "tokenId",
          "type": "uint256"
        }
      ],
      "name": "Transfer",
      "type": "event"
    },
    {
      "inputs": [
        {
          "internalType": "address",
          "name": "to",
          "type": "address"
        },
        {
          "internalType": "uint256",
          "name": "tokenId",
          "type": "uint256"
        }
      ],
      "name": "approve",
      "outputs": [],
      "stateMutability": "nonpayable",
      "type": "function"
    },
    {
      "inputs": [
        {
          "internalType": "uint256",
          "name": "",
          "type": "uint256"
        }
      ],
      "name": "auctions",
      "outputs": [
        {
          "internalType": "uint256",
          "name": "auctionEndTime",
          "type": "uint256"
        },
        {
          "internalType": "uint256",
          "name": "highestBid",
          "type": "uint256"
        },
        {
          "internalType": "address payable",
          "name": "highestBidder",
          "type": "address"
        },
        {
          "internalType": "string",
          "name": "metadataHash",
          "type": "string"
        }
      ],
      "stateMutability": "view",
      "type": "function"
    },
    {
      "inputs": [
        {
          "internalType": "address",
          "name": "owner",
          "type": "address"
        }
      ],
      "name": "balanceOf",
      "outputs": [
        {
          "internalType": "uint256",
          "name": "",
          "type": "uint256"
        }
      ],
      "stateMutability": "view",
      "type": "function"
    },
    {
      "inputs": [
        {
          "internalType": "uint256",
          "name": "tokenId",
          "type": "uint256"
        }
      ],
      "name": "createMarketSale",
      "outputs": [],
      "stateMutability": "payable",
      "type": "function"
    },
    {
      "inputs": [
        {
          "internalType": "string",
          "name": "tokenURI",
          "type": "string"
        },
        {
          "internalType": "uint256",
          "name": "price",
          "type": "uint256"
        }
      ],
      "name": "createToken",
      "outputs": [
        {
          "internalType": "uint256",
          "name": "",
          "type": "uint256"
        }
      ],
      "stateMutability": "payable",
      "type": "function"
    },
    {
      "inputs": [
        {
          "internalType": "uint256",
          "name": "tokenId",
          "type": "uint256"
        }
      ],
      "name": "endAuction",
      "outputs": [],
      "stateMutability": "nonpayable",
      "type": "function"
    },
    {
      "inputs": [],
      "name": "fetchAuctions",
      "outputs": [
        {
          "components": [
            {
              "internalType": "uint256",
              "name": "tokenId",
              "type": "uint256"
            },
            {
              "internalType": "address payable",
              "name": "seller",
              "type": "address"
            },
            {
              "internalType": "address payable",
              "name": "owner",
              "type": "address"
            },
            {
              "internalType": "uint256",
              "name": "price",
              "type": "uint256"
            },
            {
              "internalType": "bool",
              "name": "sold",
              "type": "bool"
            }
          ],
          "internalType": "struct NFTMarketPlace.MarketItem[]",
          "name": "",
          "type": "tuple[]"
        },
        {
          "components": [
            {
              "internalType": "uint256",
              "name": "auctionEndTime",
              "type": "uint256"
            },
            {
              "internalType": "uint256",
              "name": "highestBid",
              "type": "uint256"
            },
            {
              "internalType": "address payable",
              "name": "highestBidder",
              "type": "address"
            },
            {
              "internalType": "string",
              "name": "metadataHash",
              "type": "string"
            }
          ],
          "internalType": "struct NFTMarketPlace.Auction[]",
          "name": "",
          "type": "tuple[]"
        }
      ],
      "stateMutability": "view",
      "type": "function"
    },
    {
      "inputs": [],
      "name": "fetchItemsListed",
      "outputs": [
        {
          "components": [
            {
              "internalType": "uint256",
              "name": "tokenId",
              "type": "uint256"
            },
            {
              "internalType": "address payable",
              "name": "seller",
              "type": "address"
            },
            {
              "internalType": "address payable",
              "name": "owner",
              "type": "address"
            },
            {
              "internalType": "uint256",
              "name": "price",
              "type": "uint256"
            },
            {
              "internalType": "bool",
              "name": "sold",
              "type": "bool"
            }
          ],
          "internalType": "struct NFTMarketPlace.MarketItem[]",
          "name": "",
          "type": "tuple[]"
        }
      ],
      "stateMutability": "view",
      "type": "function"
    },
    {
      "inputs": [],
      "name": "fetchMarketItems",
      "outputs": [
        {
          "components": [
            {
              "internalType": "uint256",
              "name": "tokenId",
              "type": "uint256"
            },
            {
              "internalType": "address payable",
              "name": "seller",
              "type": "address"
            },
            {
              "internalType": "address payable",
              "name": "owner",
              "type": "address"
            },
            {
              "internalType": "uint256",
              "name": "price",
              "type": "uint256"
            },
            {
              "internalType": "bool",
              "name": "sold",
              "type": "bool"
            }
          ],
          "internalType": "struct NFTMarketPlace.MarketItem[]",
          "name": "",
          "type": "tuple[]"
        }
      ],
      "stateMutability": "view",
      "type": "function"
    },
    {
      "inputs": [],
      "name": "fetchMyNFTs",
      "outputs": [
        {
          "components": [
            {
              "internalType": "uint256",
              "name": "tokenId",
              "type": "uint256"
            },
            {
              "internalType": "address payable",
              "name": "seller",
              "type": "address"
            },
            {
              "internalType": "address payable",
              "name": "owner",
              "type": "address"
            },
            {
              "internalType": "uint256",
              "name": "price",
              "type": "uint256"
            },
            {
              "internalType": "bool",
              "name": "sold",
              "type": "bool"
            }
          ],
          "internalType": "struct NFTMarketPlace.MarketItem[]",
          "name": "",
          "type": "tuple[]"
        }
      ],
      "stateMutability": "view",
      "type": "function"
    },
    {
      "inputs": [
        {
          "internalType": "uint256",
          "name": "tokenId",
          "type": "uint256"
        }
      ],
      "name": "getApproved",
      "outputs": [
        {
          "internalType": "address",
          "name": "",
          "type": "address"
        }
      ],
      "stateMutability": "view",
      "type": "function"
    },
    {
      "inputs": [],
      "name": "getListingPrice",
      "outputs": [
        {
          "internalType": "uint256",
          "name": "",
          "type": "uint256"
        }
      ],
      "stateMutability": "view",
      "type": "function"
    },
    {
      "inputs": [
        {
          "internalType": "address",
          "name": "owner",
          "type": "address"
        },
        {
          "internalType": "address",
          "name": "operator",
          "type": "address"
        }
      ],
      "name": "isApprovedForAll",
      "outputs": [
        {
          "internalType": "bool",
          "name": "",
          "type": "bool"
        }
      ],
      "stateMutability": "view",
      "type": "function"
    },
    {
      "inputs": [
        {
          "internalType": "uint256",
          "name": "",
          "type": "uint256"
        }
      ],
      "name": "items",
      "outputs": [
        {
          "internalType": "address",
          "name": "owner",
          "type": "address"
        },
        {
          "internalType": "address",
          "name": "seller",
          "type": "address"
        },
        {
          "internalType": "bool",
          "name": "sold",
          "type": "bool"
        },
        {
          "internalType": "uint256",
          "name": "price",
          "type": "uint256"
        }
      ],
      "stateMutability": "view",
      "type": "function"
    },
    {
      "inputs": [],
      "name": "name",
      "outputs": [
        {
          "internalType": "string",
          "name": "",
          "type": "string"
        }
      ],
      "stateMutability": "view",
      "type": "function"
    },
    {
      "inputs": [
        {
          "internalType": "uint256",
          "name": "tokenId",
          "type": "uint256"
        }
      ],
      "name": "ownerOf",
      "outputs": [
        {
          "internalType": "address",
          "name": "",
          "type": "address"
        }
      ],
      "stateMutability": "view",
      "type": "function"
    },
    {
      "inputs": [
        {
          "internalType": "uint256",
          "name": "tokenId",
          "type": "uint256"
        }
      ],
      "name": "placeBid",
      "outputs": [],
      "stateMutability": "payable",
      "type": "function"
    },
    {
      "inputs": [
        {
          "internalType": "uint256",
          "name": "tokenId",
          "type": "uint256"
        },
        {
          "internalType": "uint256",
          "name": "price",
          "type": "uint256"
        }
      ],
      "name": "resellToken",
      "outputs": [],
      "stateMutability": "payable",
      "type": "function"
    },
    {
      "inputs": [
        {
          "internalType": "address",
          "name": "from",
          "type": "address"
        },
        {
          "internalType": "address",
          "name": "to",
          "type": "address"
        },
        {
          "internalType": "uint256",
          "name": "tokenId",
          "type": "uint256"
        }
      ],
      "name": "safeTransferFrom",
      "outputs": [],
      "stateMutability": "nonpayable",
      "type": "function"
    },
    {
      "inputs": [
        {
          "internalType": "address",
          "name": "from",
          "type": "address"
        },
        {
          "internalType": "address",
          "name": "to",
          "type": "address"
        },
        {
          "internalType": "uint256",
          "name": "tokenId",
          "type": "uint256"
        },
        {
          "internalType": "bytes",
          "name": "data",
          "type": "bytes"
        }
      ],
      "name": "safeTransferFrom",
      "outputs": [],
      "stateMutability": "nonpayable",
      "type": "function"
    },
    {
      "inputs": [
        {
          "internalType": "address",
          "name": "operator",
          "type": "address"
        },
        {
          "internalType": "bool",
          "name": "approved",
          "type": "bool"
        }
      ],
      "name": "setApprovalForAll",
      "outputs": [],
      "stateMutability": "nonpayable",
      "type": "function"
    },
    {
      "inputs": [
        {
          "internalType": "uint256",
          "name": "tokenId",
          "type": "uint256"
        },
        {
          "internalType": "uint256",
          "name": "startingBid",
          "type": "uint256"
        },
        {
          "internalType": "uint256",
          "name": "duration",
          "type": "uint256"
        },
        {
          "internalType": "string",
          "name": "url",
          "type": "string"
        }
      ],
      "name": "startAuction",
      "outputs": [],
      "stateMutability": "nonpayable",
      "type": "function"
    },
    {
      "inputs": [
        {
          "internalType": "bytes4",
          "name": "interfaceId",
          "type": "bytes4"
        }
      ],
      "name": "supportsInterface",
      "outputs": [
        {
          "internalType": "bool",
          "name": "",
          "type": "bool"
        }
      ],
      "stateMutability": "view",
      "type": "function"
    },
    {
      "inputs": [],
      "name": "symbol",
      "outputs": [
        {
          "internalType": "string",
          "name": "",
          "type": "string"
        }
      ],
      "stateMutability": "view",
      "type": "function"
    },
    {
      "inputs": [
        {
          "internalType": "uint256",
          "name": "tokenId",
          "type": "uint256"
        }
      ],
      "name": "tokenURI",
      "outputs": [
        {
          "internalType": "string",
          "name": "",
          "type": "string"
        }
      ],
      "stateMutability": "view",
      "type": "function"
    },
    {
      "inputs": [
        {
          "internalType": "address",
          "name": "from",
          "type": "address"
        },
        {
          "internalType": "address",
          "name": "to",
          "type": "address"
        },
        {
          "internalType": "uint256",
          "name": "tokenId",
          "type": "uint256"
        }
      ],
      "name": "transferFrom",
      "outputs": [],
      "stateMutability": "nonpayable",
      "type": "function"
    },
    {
      "inputs": [
        {
          "internalType": "uint256",
          "name": "_listingPrice",
          "type": "uint256"
        }
      ],
      "name": "updateListingPrice",
      "outputs": [],
      "stateMutability": "payable",
      "type": "function"
    }
  ],
  "bytecode": "0x60806040526658d15e1762800060095534801561001b57600080fd5b506040518060400160405280601081526020017f4d657461766572736520546f6b656e73000000000000000000000000000000008152506040518060400160405280600481526020017f4d4554540000000000000000000000000000000000000000000000000000000081525081600090816100979190610340565b5080600190816100a79190610340565b50505033600a60006101000a81548173ffffffffffffffffffffffffffffffffffffffff021916908373ffffffffffffffffffffffffffffffffffffffff160217905550610412565b600081519050919050565b7f4e487b7100000000000000000000000000000000000000000000000000000000600052604160045260246000fd5b7f4e487b7100000000000000000000000000000000000000000000000000000000600052602260045260246000fd5b6000600282049050600182168061017157607f821691505b6020821081036101845761018361012a565b5b50919050565b60008190508160005260206000209050919050565b60006020601f8301049050919050565b600082821b905092915050565b6000600883026101ec7fffffffffffffffffffffffffffffffffffffffffffffffffffffffffffffffff826101af565b6101f686836101af565b95508019841693508086168417925050509392505050565b6000819050919050565b6000819050919050565b600061023d6102386102338461020e565b610218565b61020e565b9050919050565b6000819050919050565b61025783610222565b61026b61026382610244565b8484546101bc565b825550505050565b600090565b610280610273565b61028b81848461024e565b505050565b5b818110156102af576102a4600082610278565b600181019050610291565b5050565b601f8211156102f4576102c58161018a565b6102ce8461019f565b810160208510156102dd578190505b6102f16102e98561019f565b830182610290565b50505b505050565b600082821c905092915050565b6000610317600019846008026102f9565b1980831691505092915050565b60006103308383610306565b9150826002028217905092915050565b610349826100f0565b67ffffffffffffffff811115610362576103616100fb565b5b61036c8254610159565b6103778282856102b3565b600060209050601f8311600181146103aa5760008415610398578287015190505b6103a28582610324565b86555061040a565b601f1984166103b88661018a565b60005b828110156103e0578489015182556001820191506020850194506020810190506103bb565b868310156103fd57848901516103f9601f891682610306565b8355505b6001600288020188555050505b505050505050565b6153e7806104216000396000f3fe60806040526004361061019c5760003560e01c8063680ed24f116100ec578063b88d4fde1161008a578063bfb231d211610064578063bfb231d2146105a6578063c87b56dd146105e6578063e219fc7514610623578063e985e9c51461063f5761019c565b8063b88d4fde14610538578063b9a2de3a14610561578063be9af5361461058a5761019c565b806395d89b41116100c657806395d89b41146104ac5780639979ef45146104d7578063a22cb465146104f3578063ae677aa31461051c5761019c565b8063680ed24f1461041657806370a082311461043f57806372b3b6201461047c5761019c565b80631b2fcf481161015957806342842e0e1161013357806342842e0e1461034557806345f8fa801461036e578063571a26a0146103995780636352211e146103d95761019c565b80631b2fcf48146102c5578063202e3740146102f157806323b872dd1461031c5761019c565b806301ffc9a7146101a157806306fdde03146101de578063081812fc14610209578063095ea7b3146102465780630f08efe01461026f57806312e855851461029a575b600080fd5b3480156101ad57600080fd5b506101c860048036038101906101c39190613815565b61067c565b6040516101d5919061385d565b60405180910390f35b3480156101ea57600080fd5b506101f36106dd565b6040516102009190613908565b60405180910390f35b34801561021557600080fd5b50610230600480360381019061022b9190613960565b61076f565b60405161023d91906139ce565b60405180910390f35b34801561025257600080fd5b5061026d60048036038101906102689190613a15565b6107b5565b005b34801561027b57600080fd5b506102846108cc565b6040516102919190613bab565b60405180910390f35b3480156102a657600080fd5b506102af610b2e565b6040516102bc9190613bdc565b60405180910390f35b3480156102d157600080fd5b506102da610b38565b6040516102e8929190613d66565b60405180910390f35b3480156102fd57600080fd5b50610306610eff565b6040516103139190613bab565b60405180910390f35b34801561032857600080fd5b50610343600480360381019061033e9190613d9d565b6111df565b005b34801561035157600080fd5b5061036c60048036038101906103679190613d9d565b61123f565b005b34801561037a57600080fd5b5061038361125f565b6040516103909190613bab565b60405180910390f35b3480156103a557600080fd5b506103c060048036038101906103bb9190613960565b61153f565b6040516103d09493929190613dff565b60405180910390f35b3480156103e557600080fd5b5061040060048036038101906103fb9190613960565b611617565b60405161040d91906139ce565b60405180910390f35b34801561042257600080fd5b5061043d60048036038101906104389190613eb0565b61169d565b005b34801561044b57600080fd5b5061046660048036038101906104619190613f38565b611816565b6040516104739190613bdc565b60405180910390f35b61049660048036038101906104919190614095565b6118cd565b6040516104a39190613bdc565b60405180910390f35b3480156104b857600080fd5b506104c161190f565b6040516104ce9190613908565b60405180910390f35b6104f160048036038101906104ec9190613960565b6119a1565b005b3480156104ff57600080fd5b5061051a6004803603810190610515919061411d565b611a94565b005b61053660048036038101906105319190613960565b611aaa565b005b34801561054457600080fd5b5061055f600480360381019061055a91906141fe565b611b44565b005b34801561056d57600080fd5b5061058860048036038101906105839190613960565b611ba6565b005b6105a4600480360381019061059f9190613960565b611e9b565b005b3480156105b257600080fd5b506105cd60048036038101906105c89190613960565b6120d3565b6040516105dd9493929190614281565b60405180910390f35b3480156105f257600080fd5b5061060d60048036038101906106089190613960565b612150565b60405161061a9190613908565b60405180910390f35b61063d600480360381019061063891906142c6565b612262565b005b34801561064b57600080fd5b5061066660048036038101906106619190614306565b612457565b604051610673919061385d565b60405180910390f35b6000634906490660e01b7bffffffffffffffffffffffffffffffffffffffffffffffffffffffff1916827bffffffffffffffffffffffffffffffffffffffffffffffffffffffff191614806106d657506106d5826124eb565b5b9050919050565b6060600080546106ec90614375565b80601f016020809104026020016040519081016040528092919081815260200182805461071890614375565b80156107655780601f1061073a57610100808354040283529160200191610765565b820191906000526020600020905b81548152906001019060200180831161074857829003601f168201915b5050505050905090565b600061077a826125cd565b6004600083815260200190815260200160002060009054906101000a900473ffffffffffffffffffffffffffffffffffffffff169050919050565b60006107c082611617565b90508073ffffffffffffffffffffffffffffffffffffffff168373ffffffffffffffffffffffffffffffffffffffff1603610830576040517f08c379a000000000000000000000000000000000000000000000000000000000815260040161082790614418565b60405180910390fd5b8073ffffffffffffffffffffffffffffffffffffffff1661084f612618565b73ffffffffffffffffffffffffffffffffffffffff16148061087e575061087d81610878612618565b612457565b5b6108bd576040517f08c379a00000000000000000000000000000000000000000000000000000000081526004016108b4906144aa565b60405180910390fd5b6108c78383612620565b505050565b606060006108da60076126d9565b905060006108e860086126d9565b6108f260076126d9565b6108fc91906144f9565b90506000808267ffffffffffffffff81111561091b5761091a613f6a565b5b60405190808252806020026020018201604052801561095457816020015b6109416136b1565b8152602001906001900390816109395790505b50905060005b84811015610b23573073ffffffffffffffffffffffffffffffffffffffff16600b600060018461098a919061452d565b815260200190815260200160002060020160009054906101000a900473ffffffffffffffffffffffffffffffffffffffff1673ffffffffffffffffffffffffffffffffffffffff1603610b165760006001826109e6919061452d565b90506000600b60008381526020019081526020016000209050806040518060a0016040529081600082015481526020016001820160009054906101000a900473ffffffffffffffffffffffffffffffffffffffff1673ffffffffffffffffffffffffffffffffffffffff1673ffffffffffffffffffffffffffffffffffffffff1681526020016002820160009054906101000a900473ffffffffffffffffffffffffffffffffffffffff1673ffffffffffffffffffffffffffffffffffffffff1673ffffffffffffffffffffffffffffffffffffffff168152602001600382015481526020016004820160009054906101000a900460ff161515151581525050848681518110610af957610af8614561565b5b6020026020010181905250600185610b11919061452d565b945050505b808060010191505061095a565b508094505050505090565b6000600954905090565b6060806000610b4760076126d9565b90506000805b82811015610ba2576000600182610b64919061452d565b905042600c6000838152602001908152602001600020600001541115610b9457600183610b91919061452d565b92505b508080600101915050610b4d565b5060008167ffffffffffffffff811115610bbf57610bbe613f6a565b5b604051908082528060200260200182016040528015610bf857816020015b610be56136b1565b815260200190600190039081610bdd5790505b50905060008267ffffffffffffffff811115610c1757610c16613f6a565b5b604051908082528060200260200182016040528015610c5057816020015b610c3d61370e565b815260200190600190039081610c355790505b5090506000805b85811015610eef576000600182610c6e919061452d565b90506000600c600083815260200190815260200160002090504281600001541115610ee057600b60008381526020019081526020016000206040518060a0016040529081600082015481526020016001820160009054906101000a900473ffffffffffffffffffffffffffffffffffffffff1673ffffffffffffffffffffffffffffffffffffffff1673ffffffffffffffffffffffffffffffffffffffff1681526020016002820160009054906101000a900473ffffffffffffffffffffffffffffffffffffffff1673ffffffffffffffffffffffffffffffffffffffff1673ffffffffffffffffffffffffffffffffffffffff168152602001600382015481526020016004820160009054906101000a900460ff161515151581525050868581518110610d9f57610d9e614561565b5b60200260200101819052508060405180608001604052908160008201548152602001600182015481526020016002820160009054906101000a900473ffffffffffffffffffffffffffffffffffffffff1673ffffffffffffffffffffffffffffffffffffffff1673ffffffffffffffffffffffffffffffffffffffff168152602001600382018054610e3090614375565b80601f0160208091040260200160405190810160405280929190818152602001828054610e5c90614375565b8015610ea95780601f10610e7e57610100808354040283529160200191610ea9565b820191906000526020600020905b815481529060010190602001808311610e8c57829003601f168201915b505050505081525050858581518110610ec557610ec4614561565b5b6020026020010181905250600184610edd919061452d565b93505b50508080600101915050610c57565b5082829650965050505050509091565b60606000610f0d60076126d9565b905060008060005b83811015610faf573373ffffffffffffffffffffffffffffffffffffffff16600b6000600184610f45919061452d565b815260200190815260200160002060020160009054906101000a900473ffffffffffffffffffffffffffffffffffffffff1673ffffffffffffffffffffffffffffffffffffffff1603610fa257600183610f9f919061452d565b92505b8080600101915050610f15565b5060008267ffffffffffffffff811115610fcc57610fcb613f6a565b5b60405190808252806020026020018201604052801561100557816020015b610ff26136b1565b815260200190600190039081610fea5790505b50905060005b848110156111d4573373ffffffffffffffffffffffffffffffffffffffff16600b600060018461103b919061452d565b815260200190815260200160002060020160009054906101000a900473ffffffffffffffffffffffffffffffffffffffff1673ffffffffffffffffffffffffffffffffffffffff16036111c7576000600182611097919061452d565b90506000600b60008381526020019081526020016000209050806040518060a0016040529081600082015481526020016001820160009054906101000a900473ffffffffffffffffffffffffffffffffffffffff1673ffffffffffffffffffffffffffffffffffffffff1673ffffffffffffffffffffffffffffffffffffffff1681526020016002820160009054906101000a900473ffffffffffffffffffffffffffffffffffffffff1673ffffffffffffffffffffffffffffffffffffffff1673ffffffffffffffffffffffffffffffffffffffff168152602001600382015481526020016004820160009054906101000a900460ff1615151515815250508486815181106111aa576111a9614561565b5b60200260200101819052506001856111c2919061452d565b945050505b808060010191505061100b565b508094505050505090565b6111f06111ea612618565b826126e7565b61122f576040517f08c379a000000000000000000000000000000000000000000000000000000000815260040161122690614602565b60405180910390fd5b61123a83838361277c565b505050565b61125a83838360405180602001604052806000815250611b44565b505050565b6060600061126d60076126d9565b905060008060005b8381101561130f573373ffffffffffffffffffffffffffffffffffffffff16600b60006001846112a5919061452d565b815260200190815260200160002060010160009054906101000a900473ffffffffffffffffffffffffffffffffffffffff1673ffffffffffffffffffffffffffffffffffffffff1603611302576001836112ff919061452d565b92505b8080600101915050611275565b5060008267ffffffffffffffff81111561132c5761132b613f6a565b5b60405190808252806020026020018201604052801561136557816020015b6113526136b1565b81526020019060019003908161134a5790505b50905060005b84811015611534573373ffffffffffffffffffffffffffffffffffffffff16600b600060018461139b919061452d565b815260200190815260200160002060010160009054906101000a900473ffffffffffffffffffffffffffffffffffffffff1673ffffffffffffffffffffffffffffffffffffffff16036115275760006001826113f7919061452d565b90506000600b60008381526020019081526020016000209050806040518060a0016040529081600082015481526020016001820160009054906101000a900473ffffffffffffffffffffffffffffffffffffffff1673ffffffffffffffffffffffffffffffffffffffff1673ffffffffffffffffffffffffffffffffffffffff1681526020016002820160009054906101000a900473ffffffffffffffffffffffffffffffffffffffff1673ffffffffffffffffffffffffffffffffffffffff1673ffffffffffffffffffffffffffffffffffffffff168152602001600382015481526020016004820160009054906101000a900460ff16151515158152505084868151811061150a57611509614561565b5b6020026020010181905250600185611522919061452d565b945050505b808060010191505061136b565b508094505050505090565b600c6020528060005260406000206000915090508060000154908060010154908060020160009054906101000a900473ffffffffffffffffffffffffffffffffffffffff169080600301805461159490614375565b80601f01602080910402602001604051908101604052809291908181526020018280546115c090614375565b801561160d5780601f106115e25761010080835404028352916020019161160d565b820191906000526020600020905b8154815290600101906020018083116115f057829003601f168201915b5050505050905084565b60008061162383612a75565b9050600073ffffffffffffffffffffffffffffffffffffffff168173ffffffffffffffffffffffffffffffffffffffff1603611694576040517f08c379a000000000000000000000000000000000000000000000000000000000815260040161168b9061466e565b60405180910390fd5b80915050919050565b600d600086815260200190815260200160002060010160149054906101000a900460ff1615611701576040517f08c379a00000000000000000000000000000000000000000000000000000000081526004016116f8906146da565b60405180910390fd5b60405180608001604052808442611718919061452d565b8152602001858152602001600073ffffffffffffffffffffffffffffffffffffffff16815260200183838080601f016020809104026020016040519081016040528093929190818152602001838380828437600081840152601f19601f82011690508083019250505050505050815250600c6000878152602001908152602001600020600082015181600001556020820151816001015560408201518160020160006101000a81548173ffffffffffffffffffffffffffffffffffffffff021916908373ffffffffffffffffffffffffffffffffffffffff160217905550606082015181600301908161180b91906148a6565b509050505050505050565b60008073ffffffffffffffffffffffffffffffffffffffff168273ffffffffffffffffffffffffffffffffffffffff1603611886576040517f08c379a000000000000000000000000000000000000000000000000000000000815260040161187d906149ea565b60405180910390fd5b600360008373ffffffffffffffffffffffffffffffffffffffff1673ffffffffffffffffffffffffffffffffffffffff168152602001908152602001600020549050919050565b60006118d96007612ab2565b60006118e560076126d9565b90506118f13382612ac8565b6118fb8185612ce5565b6119058184612d89565b8091505092915050565b60606001805461191e90614375565b80601f016020809104026020016040519081016040528092919081815260200182805461194a90614375565b80156119975780601f1061196c57610100808354040283529160200191611997565b820191906000526020600020905b81548152906001019060200180831161197a57829003601f168201915b5050505050905090565b6000600c60008381526020019081526020016000209050806000015442106119fe576040517f08c379a00000000000000000000000000000000000000000000000000000000081526004016119f590614a56565b60405180910390fd5b80600101543411611a44576040517f08c379a0000000000000000000000000000000000000000000000000000000008152600401611a3b90614ac2565b60405180910390fd5b348160010181905550338160020160006101000a81548173ffffffffffffffffffffffffffffffffffffffff021916908373ffffffffffffffffffffffffffffffffffffffff1602179055505050565b611aa6611a9f612618565b8383612f8c565b5050565b3373ffffffffffffffffffffffffffffffffffffffff16600a60009054906101000a900473ffffffffffffffffffffffffffffffffffffffff1673ffffffffffffffffffffffffffffffffffffffff1614611b3a576040517f08c379a0000000000000000000000000000000000000000000000000000000008152600401611b3190614b54565b60405180910390fd5b8060098190555050565b611b55611b4f612618565b836126e7565b611b94576040517f08c379a0000000000000000000000000000000000000000000000000000000008152600401611b8b90614602565b60405180910390fd5b611ba0848484846130f8565b50505050565b6000600c60008381526020019081526020016000209050600081600101549050600b600084815260200190815260200160002060040160009054906101000a900460ff1615611c2a576040517f08c379a0000000000000000000000000000000000000000000000000000000008152600401611c2190614bc0565b60405180910390fd5b6000600b600085815260200190815260200160002060010160009054906101000a900473ffffffffffffffffffffffffffffffffffffffff169050600b600085815260200190815260200160002060010160009054906101000a900473ffffffffffffffffffffffffffffffffffffffff1673ffffffffffffffffffffffffffffffffffffffff166108fc84600101549081150290604051600060405180830381858888f19350505050158015611ce5573d6000803e3d6000fd5b508260020160009054906101000a900473ffffffffffffffffffffffffffffffffffffffff16600b600086815260200190815260200160002060020160006101000a81548173ffffffffffffffffffffffffffffffffffffffff021916908373ffffffffffffffffffffffffffffffffffffffff1602179055506001600b600086815260200190815260200160002060040160006101000a81548160ff0219169083151502179055506000600b600086815260200190815260200160002060010160006101000a81548173ffffffffffffffffffffffffffffffffffffffff021916908373ffffffffffffffffffffffffffffffffffffffff16021790555081600b600086815260200190815260200160002060030181905550611e096008612ab2565b611e38308460020160009054906101000a900473ffffffffffffffffffffffffffffffffffffffff168661277c565b600c600085815260200190815260200160002060008082016000905560018201600090556002820160006101000a81549073ffffffffffffffffffffffffffffffffffffffff0219169055600382016000611e93919061374c565b505050505050565b6000600b6000838152602001908152602001600020600301549050803414611ef8576040517f08c379a0000000000000000000000000000000000000000000000000000000008152600401611eef90614c52565b60405180910390fd5b600a60009054906101000a900473ffffffffffffffffffffffffffffffffffffffff1673ffffffffffffffffffffffffffffffffffffffff166108fc6009549081150290604051600060405180830381858888f19350505050158015611f62573d6000803e3d6000fd5b50600b600083815260200190815260200160002060010160009054906101000a900473ffffffffffffffffffffffffffffffffffffffff1673ffffffffffffffffffffffffffffffffffffffff166108fc349081150290604051600060405180830381858888f19350505050158015611fdf573d6000803e3d6000fd5b5033600b600084815260200190815260200160002060020160006101000a81548173ffffffffffffffffffffffffffffffffffffffff021916908373ffffffffffffffffffffffffffffffffffffffff1602179055506001600b600084815260200190815260200160002060040160006101000a81548160ff0219169083151502179055506000600b600084815260200190815260200160002060010160006101000a81548173ffffffffffffffffffffffffffffffffffffffff021916908373ffffffffffffffffffffffffffffffffffffffff1602179055506120c46008612ab2565b6120cf30338461277c565b5050565b600d6020528060005260406000206000915090508060000160009054906101000a900473ffffffffffffffffffffffffffffffffffffffff16908060010160009054906101000a900473ffffffffffffffffffffffffffffffffffffffff16908060010160149054906101000a900460ff16908060020154905084565b606061215b826125cd565b600060066000848152602001908152602001600020805461217b90614375565b80601f01602080910402602001604051908101604052809291908181526020018280546121a790614375565b80156121f45780601f106121c9576101008083540402835291602001916121f4565b820191906000526020600020905b8154815290600101906020018083116121d757829003601f168201915b505050505090506000612205613154565b9050600081510361221a57819250505061225d565b60008251111561224f578082604051602001612237929190614cae565b6040516020818303038152906040529250505061225d565b6122588461316b565b925050505b919050565b3373ffffffffffffffffffffffffffffffffffffffff16600b600084815260200190815260200160002060020160009054906101000a900473ffffffffffffffffffffffffffffffffffffffff1673ffffffffffffffffffffffffffffffffffffffff1614612306576040517f08c379a00000000000000000000000000000000000000000000000000000000081526004016122fd90614d44565b60405180910390fd5b600954341461234a576040517f08c379a000000000000000000000000000000000000000000000000000000000815260040161234190614dd6565b60405180910390fd5b6000600b600084815260200190815260200160002060040160006101000a81548160ff02191690831515021790555080600b60008481526020019081526020016000206003018190555033600b600084815260200190815260200160002060010160006101000a81548173ffffffffffffffffffffffffffffffffffffffff021916908373ffffffffffffffffffffffffffffffffffffffff16021790555030600b600084815260200190815260200160002060020160006101000a81548173ffffffffffffffffffffffffffffffffffffffff021916908373ffffffffffffffffffffffffffffffffffffffff16021790555061244860086131d3565b61245333308461277c565b5050565b6000600560008473ffffffffffffffffffffffffffffffffffffffff1673ffffffffffffffffffffffffffffffffffffffff16815260200190815260200160002060008373ffffffffffffffffffffffffffffffffffffffff1673ffffffffffffffffffffffffffffffffffffffff16815260200190815260200160002060009054906101000a900460ff16905092915050565b60007f80ac58cd000000000000000000000000000000000000000000000000000000007bffffffffffffffffffffffffffffffffffffffffffffffffffffffff1916827bffffffffffffffffffffffffffffffffffffffffffffffffffffffff191614806125b657507f5b5e139f000000000000000000000000000000000000000000000000000000007bffffffffffffffffffffffffffffffffffffffffffffffffffffffff1916827bffffffffffffffffffffffffffffffffffffffffffffffffffffffff1916145b806125c657506125c58261322f565b5b9050919050565b6125d681613299565b612615576040517f08c379a000000000000000000000000000000000000000000000000000000000815260040161260c9061466e565b60405180910390fd5b50565b600033905090565b816004600083815260200190815260200160002060006101000a81548173ffffffffffffffffffffffffffffffffffffffff021916908373ffffffffffffffffffffffffffffffffffffffff160217905550808273ffffffffffffffffffffffffffffffffffffffff1661269383611617565b73ffffffffffffffffffffffffffffffffffffffff167f8c5be1e5ebec7d5bd14f71427d1e84f3dd0314c0f7b2291e5b200ac8c7c3b92560405160405180910390a45050565b600081600001549050919050565b6000806126f383611617565b90508073ffffffffffffffffffffffffffffffffffffffff168473ffffffffffffffffffffffffffffffffffffffff16148061273557506127348185612457565b5b8061277357508373ffffffffffffffffffffffffffffffffffffffff1661275b8461076f565b73ffffffffffffffffffffffffffffffffffffffff16145b91505092915050565b8273ffffffffffffffffffffffffffffffffffffffff1661279c82611617565b73ffffffffffffffffffffffffffffffffffffffff16146127f2576040517f08c379a00000000000000000000000000000000000000000000000000000000081526004016127e990614e68565b60405180910390fd5b600073ffffffffffffffffffffffffffffffffffffffff168273ffffffffffffffffffffffffffffffffffffffff1603612861576040517f08c379a000000000000000000000000000000000000000000000000000000000815260040161285890614efa565b60405180910390fd5b61286e83838360016132da565b8273ffffffffffffffffffffffffffffffffffffffff1661288e82611617565b73ffffffffffffffffffffffffffffffffffffffff16146128e4576040517f08c379a00000000000000000000000000000000000000000000000000000000081526004016128db90614e68565b60405180910390fd5b6004600082815260200190815260200160002060006101000a81549073ffffffffffffffffffffffffffffffffffffffff02191690556001600360008573ffffffffffffffffffffffffffffffffffffffff1673ffffffffffffffffffffffffffffffffffffffff168152602001908152602001600020600082825403925050819055506001600360008473ffffffffffffffffffffffffffffffffffffffff1673ffffffffffffffffffffffffffffffffffffffff16815260200190815260200160002060008282540192505081905550816002600083815260200190815260200160002060006101000a81548173ffffffffffffffffffffffffffffffffffffffff021916908373ffffffffffffffffffffffffffffffffffffffff160217905550808273ffffffffffffffffffffffffffffffffffffffff168473ffffffffffffffffffffffffffffffffffffffff167fddf252ad1be2c89b69c2b068fc378daa952ba7f163c4a11628f55a4df523b3ef60405160405180910390a4612a7083838360016132e0565b505050565b60006002600083815260200190815260200160002060009054906101000a900473ffffffffffffffffffffffffffffffffffffffff169050919050565b6001816000016000828254019250508190555050565b600073ffffffffffffffffffffffffffffffffffffffff168273ffffffffffffffffffffffffffffffffffffffff1603612b37576040517f08c379a0000000000000000000000000000000000000000000000000000000008152600401612b2e90614f66565b60405180910390fd5b612b4081613299565b15612b80576040517f08c379a0000000000000000000000000000000000000000000000000000000008152600401612b7790614fd2565b60405180910390fd5b612b8e6000838360016132da565b612b9781613299565b15612bd7576040517f08c379a0000000000000000000000000000000000000000000000000000000008152600401612bce90614fd2565b60405180910390fd5b6001600360008473ffffffffffffffffffffffffffffffffffffffff1673ffffffffffffffffffffffffffffffffffffffff16815260200190815260200160002060008282540192505081905550816002600083815260200190815260200160002060006101000a81548173ffffffffffffffffffffffffffffffffffffffff021916908373ffffffffffffffffffffffffffffffffffffffff160217905550808273ffffffffffffffffffffffffffffffffffffffff16600073ffffffffffffffffffffffffffffffffffffffff167fddf252ad1be2c89b69c2b068fc378daa952ba7f163c4a11628f55a4df523b3ef60405160405180910390a4612ce16000838360016132e0565b5050565b612cee82613299565b612d2d576040517f08c379a0000000000000000000000000000000000000000000000000000000008152600401612d2490615064565b60405180910390fd5b80600660008481526020019081526020016000209081612d4d91906148a6565b507ff8e1a15aba9398e019f0b49df1a4fde98ee17ae345cb5f6b5e2c27f5033e8ce782604051612d7d9190613bdc565b60405180910390a15050565b60008111612dcc576040517f08c379a0000000000000000000000000000000000000000000000000000000008152600401612dc3906150d0565b60405180910390fd5b6009543414612e10576040517f08c379a0000000000000000000000000000000000000000000000000000000008152600401612e0790614dd6565b60405180910390fd5b6040518060a001604052808381526020013373ffffffffffffffffffffffffffffffffffffffff1681526020013073ffffffffffffffffffffffffffffffffffffffff16815260200182815260200160001515815250600b60008481526020019081526020016000206000820151816000015560208201518160010160006101000a81548173ffffffffffffffffffffffffffffffffffffffff021916908373ffffffffffffffffffffffffffffffffffffffff16021790555060408201518160020160006101000a81548173ffffffffffffffffffffffffffffffffffffffff021916908373ffffffffffffffffffffffffffffffffffffffff1602179055506060820151816003015560808201518160040160006101000a81548160ff021916908315150217905550905050612f4933308461277c565b817fb640004f1d14576d0c209e240cad0410e0d8c0c33a09375861fbadae2588a98d3330846000604051612f8094939291906150f0565b60405180910390a25050565b8173ffffffffffffffffffffffffffffffffffffffff168373ffffffffffffffffffffffffffffffffffffffff1603612ffa576040517f08c379a0000000000000000000000000000000000000000000000000000000008152600401612ff190615181565b60405180910390fd5b80600560008573ffffffffffffffffffffffffffffffffffffffff1673ffffffffffffffffffffffffffffffffffffffff16815260200190815260200160002060008473ffffffffffffffffffffffffffffffffffffffff1673ffffffffffffffffffffffffffffffffffffffff16815260200190815260200160002060006101000a81548160ff0219169083151502179055508173ffffffffffffffffffffffffffffffffffffffff168373ffffffffffffffffffffffffffffffffffffffff167f17307eab39ab6107e8899845ad3d59bd9653f200f220920489ca2b5937696c31836040516130eb919061385d565b60405180910390a3505050565b61310384848461277c565b61310f848484846132e6565b61314e576040517f08c379a000000000000000000000000000000000000000000000000000000000815260040161314590615213565b60405180910390fd5b50505050565b606060405180602001604052806000815250905090565b6060613176826125cd565b6000613180613154565b905060008151116131a057604051806020016040528060008152506131cb565b806131aa8461346d565b6040516020016131bb929190614cae565b6040516020818303038152906040525b915050919050565b6000816000015490506000811161321f576040517f08c379a00000000000000000000000000000000000000000000000000000000081526004016132169061527f565b60405180910390fd5b6001810382600001819055505050565b60007f01ffc9a7000000000000000000000000000000000000000000000000000000007bffffffffffffffffffffffffffffffffffffffffffffffffffffffff1916827bffffffffffffffffffffffffffffffffffffffffffffffffffffffff1916149050919050565b60008073ffffffffffffffffffffffffffffffffffffffff166132bb83612a75565b73ffffffffffffffffffffffffffffffffffffffff1614159050919050565b50505050565b50505050565b60006133078473ffffffffffffffffffffffffffffffffffffffff1661353b565b15613460578373ffffffffffffffffffffffffffffffffffffffff1663150b7a02613330612618565b8786866040518563ffffffff1660e01b815260040161335294939291906152f4565b6020604051808303816000875af192505050801561338e57506040513d601f19601f8201168201806040525081019061338b9190615355565b60015b613410573d80600081146133be576040519150601f19603f3d011682016040523d82523d6000602084013e6133c3565b606091505b506000815103613408576040517f08c379a00000000000000000000000000000000000000000000000000000000081526004016133ff90615213565b60405180910390fd5b805181602001fd5b63150b7a0260e01b7bffffffffffffffffffffffffffffffffffffffffffffffffffffffff1916817bffffffffffffffffffffffffffffffffffffffffffffffffffffffff191614915050613465565b600190505b949350505050565b60606000600161347c8461355e565b01905060008167ffffffffffffffff81111561349b5761349a613f6a565b5b6040519080825280601f01601f1916602001820160405280156134cd5781602001600182028036833780820191505090505b509050600082602001820190505b600115613530578080600190039150507f3031323334353637383961626364656600000000000000000000000000000000600a86061a8153600a858161352457613523615382565b5b049450600085036134db575b819350505050919050565b6000808273ffffffffffffffffffffffffffffffffffffffff163b119050919050565b600080600090507a184f03e93ff9f4daa797ed6e38ed64bf6a1f01000000000000000083106135bc577a184f03e93ff9f4daa797ed6e38ed64bf6a1f01000000000000000083816135b2576135b1615382565b5b0492506040810190505b6d04ee2d6d415b85acef810000000083106135f9576d04ee2d6d415b85acef810000000083816135ef576135ee615382565b5b0492506020810190505b662386f26fc10000831061362857662386f26fc10000838161361e5761361d615382565b5b0492506010810190505b6305f5e1008310613651576305f5e100838161364757613646615382565b5b0492506008810190505b612710831061367657612710838161366c5761366b615382565b5b0492506004810190505b60648310613699576064838161368f5761368e615382565b5b0492506002810190505b600a83106136a8576001810190505b80915050919050565b6040518060a0016040528060008152602001600073ffffffffffffffffffffffffffffffffffffffff168152602001600073ffffffffffffffffffffffffffffffffffffffff168152602001600081526020016000151581525090565b60405180608001604052806000815260200160008152602001600073ffffffffffffffffffffffffffffffffffffffff168152602001606081525090565b50805461375890614375565b6000825580601f1061376a5750613789565b601f016020900490600052602060002090810190613788919061378c565b5b50565b5b808211156137a557600081600090555060010161378d565b5090565b6000604051905090565b600080fd5b600080fd5b60007fffffffff0000000000000000000000000000000000000000000000000000000082169050919050565b6137f2816137bd565b81146137fd57600080fd5b50565b60008135905061380f816137e9565b92915050565b60006020828403121561382b5761382a6137b3565b5b600061383984828501613800565b91505092915050565b60008115159050919050565b61385781613842565b82525050565b6000602082019050613872600083018461384e565b92915050565b600081519050919050565b600082825260208201905092915050565b60005b838110156138b2578082015181840152602081019050613897565b60008484015250505050565b6000601f19601f8301169050919050565b60006138da82613878565b6138e48185613883565b93506138f4818560208601613894565b6138fd816138be565b840191505092915050565b6000602082019050818103600083015261392281846138cf565b905092915050565b6000819050919050565b61393d8161392a565b811461394857600080fd5b50565b60008135905061395a81613934565b92915050565b600060208284031215613976576139756137b3565b5b60006139848482850161394b565b91505092915050565b600073ffffffffffffffffffffffffffffffffffffffff82169050919050565b60006139b88261398d565b9050919050565b6139c8816139ad565b82525050565b60006020820190506139e360008301846139bf565b92915050565b6139f2816139ad565b81146139fd57600080fd5b50565b600081359050613a0f816139e9565b92915050565b60008060408385031215613a2c57613a2b6137b3565b5b6000613a3a85828601613a00565b9250506020613a4b8582860161394b565b9150509250929050565b600081519050919050565b600082825260208201905092915050565b6000819050602082019050919050565b613a8a8161392a565b82525050565b6000613a9b8261398d565b9050919050565b613aab81613a90565b82525050565b613aba81613842565b82525050565b60a082016000820151613ad66000850182613a81565b506020820151613ae96020850182613aa2565b506040820151613afc6040850182613aa2565b506060820151613b0f6060850182613a81565b506080820151613b226080850182613ab1565b50505050565b6000613b348383613ac0565b60a08301905092915050565b6000602082019050919050565b6000613b5882613a55565b613b628185613a60565b9350613b6d83613a71565b8060005b83811015613b9e578151613b858882613b28565b9750613b9083613b40565b925050600181019050613b71565b5085935050505092915050565b60006020820190508181036000830152613bc58184613b4d565b905092915050565b613bd68161392a565b82525050565b6000602082019050613bf16000830184613bcd565b92915050565b600081519050919050565b600082825260208201905092915050565b6000819050602082019050919050565b600082825260208201905092915050565b6000613c3f82613878565b613c498185613c23565b9350613c59818560208601613894565b613c62816138be565b840191505092915050565b6000608083016000830151613c856000860182613a81565b506020830151613c986020860182613a81565b506040830151613cab6040860182613aa2565b5060608301518482036060860152613cc38282613c34565b9150508091505092915050565b6000613cdc8383613c6d565b905092915050565b6000602082019050919050565b6000613cfc82613bf7565b613d068185613c02565b935083602082028501613d1885613c13565b8060005b85811015613d545784840389528151613d358582613cd0565b9450613d4083613ce4565b925060208a01995050600181019050613d1c565b50829750879550505050505092915050565b60006040820190508181036000830152613d808185613b4d565b90508181036020830152613d948184613cf1565b90509392505050565b600080600060608486031215613db657613db56137b3565b5b6000613dc486828701613a00565b9350506020613dd586828701613a00565b9250506040613de68682870161394b565b9150509250925092565b613df981613a90565b82525050565b6000608082019050613e146000830187613bcd565b613e216020830186613bcd565b613e2e6040830185613df0565b8181036060830152613e4081846138cf565b905095945050505050565b600080fd5b600080fd5b600080fd5b60008083601f840112613e7057613e6f613e4b565b5b8235905067ffffffffffffffff811115613e8d57613e8c613e50565b5b602083019150836001820283011115613ea957613ea8613e55565b5b9250929050565b600080600080600060808688031215613ecc57613ecb6137b3565b5b6000613eda8882890161394b565b9550506020613eeb8882890161394b565b9450506040613efc8882890161394b565b935050606086013567ffffffffffffffff811115613f1d57613f1c6137b8565b5b613f2988828901613e5a565b92509250509295509295909350565b600060208284031215613f4e57613f4d6137b3565b5b6000613f5c84828501613a00565b91505092915050565b600080fd5b7f4e487b7100000000000000000000000000000000000000000000000000000000600052604160045260246000fd5b613fa2826138be565b810181811067ffffffffffffffff82111715613fc157613fc0613f6a565b5b80604052505050565b6000613fd46137a9565b9050613fe08282613f99565b919050565b600067ffffffffffffffff82111561400057613fff613f6a565b5b614009826138be565b9050602081019050919050565b82818337600083830152505050565b600061403861403384613fe5565b613fca565b90508281526020810184848401111561405457614053613f65565b5b61405f848285614016565b509392505050565b600082601f83011261407c5761407b613e4b565b5b813561408c848260208601614025565b91505092915050565b600080604083850312156140ac576140ab6137b3565b5b600083013567ffffffffffffffff8111156140ca576140c96137b8565b5b6140d685828601614067565b92505060206140e78582860161394b565b9150509250929050565b6140fa81613842565b811461410557600080fd5b50565b600081359050614117816140f1565b92915050565b60008060408385031215614134576141336137b3565b5b600061414285828601613a00565b925050602061415385828601614108565b9150509250929050565b600067ffffffffffffffff82111561417857614177613f6a565b5b614181826138be565b9050602081019050919050565b60006141a161419c8461415d565b613fca565b9050828152602081018484840111156141bd576141bc613f65565b5b6141c8848285614016565b509392505050565b600082601f8301126141e5576141e4613e4b565b5b81356141f584826020860161418e565b91505092915050565b60008060008060808587031215614218576142176137b3565b5b600061422687828801613a00565b945050602061423787828801613a00565b93505060406142488782880161394b565b925050606085013567ffffffffffffffff811115614269576142686137b8565b5b614275878288016141d0565b91505092959194509250565b600060808201905061429660008301876139bf565b6142a360208301866139bf565b6142b0604083018561384e565b6142bd6060830184613bcd565b95945050505050565b600080604083850312156142dd576142dc6137b3565b5b60006142eb8582860161394b565b92505060206142fc8582860161394b565b9150509250929050565b6000806040838503121561431d5761431c6137b3565b5b600061432b85828601613a00565b925050602061433c85828601613a00565b9150509250929050565b7f4e487b7100000000000000000000000000000000000000000000000000000000600052602260045260246000fd5b6000600282049050600182168061438d57607f821691505b6020821081036143a05761439f614346565b5b50919050565b7f4552433732313a20617070726f76616c20746f2063757272656e74206f776e6560008201527f7200000000000000000000000000000000000000000000000000000000000000602082015250565b6000614402602183613883565b915061440d826143a6565b604082019050919050565b60006020820190508181036000830152614431816143f5565b9050919050565b7f4552433732313a20617070726f76652063616c6c6572206973206e6f7420746f60008201527f6b656e206f776e6572206f7220617070726f76656420666f7220616c6c000000602082015250565b6000614494603d83613883565b915061449f82614438565b604082019050919050565b600060208201905081810360008301526144c381614487565b9050919050565b7f4e487b7100000000000000000000000000000000000000000000000000000000600052601160045260246000fd5b60006145048261392a565b915061450f8361392a565b9250828203905081811115614527576145266144ca565b5b92915050565b60006145388261392a565b91506145438361392a565b925082820190508082111561455b5761455a6144ca565b5b92915050565b7f4e487b7100000000000000000000000000000000000000000000000000000000600052603260045260246000fd5b7f4552433732313a2063616c6c6572206973206e6f7420746f6b656e206f776e6560008201527f72206f7220617070726f76656400000000000000000000000000000000000000602082015250565b60006145ec602d83613883565b91506145f782614590565b604082019050919050565b6000602082019050818103600083015261461b816145df565b9050919050565b7f4552433732313a20696e76616c696420746f6b656e2049440000000000000000600082015250565b6000614658601883613883565b915061466382614622565b602082019050919050565b600060208201905081810360008301526146878161464b565b9050919050565b7f4974656d20616c726561647920736f6c64000000000000000000000000000000600082015250565b60006146c4601183613883565b91506146cf8261468e565b602082019050919050565b600060208201905081810360008301526146f3816146b7565b9050919050565b60008190508160005260206000209050919050565b60006020601f8301049050919050565b600082821b905092915050565b60006008830261475c7fffffffffffffffffffffffffffffffffffffffffffffffffffffffffffffffff8261471f565b614766868361471f565b95508019841693508086168417925050509392505050565b6000819050919050565b60006147a361479e6147998461392a565b61477e565b61392a565b9050919050565b6000819050919050565b6147bd83614788565b6147d16147c9826147aa565b84845461472c565b825550505050565b600090565b6147e66147d9565b6147f18184846147b4565b505050565b5b818110156148155761480a6000826147de565b6001810190506147f7565b5050565b601f82111561485a5761482b816146fa565b6148348461470f565b81016020851015614843578190505b61485761484f8561470f565b8301826147f6565b50505b505050565b600082821c905092915050565b600061487d6000198460080261485f565b1980831691505092915050565b6000614896838361486c565b9150826002028217905092915050565b6148af82613878565b67ffffffffffffffff8111156148c8576148c7613f6a565b5b6148d28254614375565b6148dd828285614819565b600060209050601f83116001811461491057600084156148fe578287015190505b614908858261488a565b865550614970565b601f19841661491e866146fa565b60005b8281101561494657848901518255600182019150602085019450602081019050614921565b86831015614963578489015161495f601f89168261486c565b8355505b6001600288020188555050505b505050505050565b7f4552433732313a2061646472657373207a65726f206973206e6f74206120766160008201527f6c6964206f776e65720000000000000000000000000000000000000000000000602082015250565b60006149d4602983613883565b91506149df82614978565b604082019050919050565b60006020820190508181036000830152614a03816149c7565b9050919050565b7f41756374696f6e20656e64656400000000000000000000000000000000000000600082015250565b6000614a40600d83613883565b9150614a4b82614a0a565b602082019050919050565b60006020820190508181036000830152614a6f81614a33565b9050919050565b7f546865726520616c726561647920697320612068696768657220626964000000600082015250565b6000614aac601d83613883565b9150614ab782614a76565b602082019050919050565b60006020820190508181036000830152614adb81614a9f565b9050919050565b7f4f6e6c79206d61726b6574706c616365206f776e65722063616e20757064617460008201527f65206c697374696e672070726963652e00000000000000000000000000000000602082015250565b6000614b3e603083613883565b9150614b4982614ae2565b604082019050919050565b60006020820190508181036000830152614b6d81614b31565b9050919050565b7f41756374696f6e2068617320616c726561647920656e64656400000000000000600082015250565b6000614baa601983613883565b9150614bb582614b74565b602082019050919050565b60006020820190508181036000830152614bd981614b9d565b9050919050565b7f506c65617365207375626d6974207468652061736b696e67207072696365206960008201527f6e206f7264657220746f20636f6d706c65746520746865207075726368617365602082015250565b6000614c3c604083613883565b9150614c4782614be0565b604082019050919050565b60006020820190508181036000830152614c6b81614c2f565b9050919050565b600081905092915050565b6000614c8882613878565b614c928185614c72565b9350614ca2818560208601613894565b80840191505092915050565b6000614cba8285614c7d565b9150614cc68284614c7d565b91508190509392505050565b7f4f6e6c79206974656d206f776e65722063616e20706572666f726d207468697360008201527f206f7065726174696f6e00000000000000000000000000000000000000000000602082015250565b6000614d2e602a83613883565b9150614d3982614cd2565b604082019050919050565b60006020820190508181036000830152614d5d81614d21565b9050919050565b7f5072696365206d75737420626520657175616c20746f206c697374696e67207060008201527f7269636500000000000000000000000000000000000000000000000000000000602082015250565b6000614dc0602483613883565b9150614dcb82614d64565b604082019050919050565b60006020820190508181036000830152614def81614db3565b9050919050565b7f4552433732313a207472616e736665722066726f6d20696e636f72726563742060008201527f6f776e6572000000000000000000000000000000000000000000000000000000602082015250565b6000614e52602583613883565b9150614e5d82614df6565b604082019050919050565b60006020820190508181036000830152614e8181614e45565b9050919050565b7f4552433732313a207472616e7366657220746f20746865207a65726f2061646460008201527f7265737300000000000000000000000000000000000000000000000000000000602082015250565b6000614ee4602483613883565b9150614eef82614e88565b604082019050919050565b60006020820190508181036000830152614f1381614ed7565b9050919050565b7f4552433732313a206d696e7420746f20746865207a65726f2061646472657373600082015250565b6000614f50602083613883565b9150614f5b82614f1a565b602082019050919050565b60006020820190508181036000830152614f7f81614f43565b9050919050565b7f4552433732313a20746f6b656e20616c7265616479206d696e74656400000000600082015250565b6000614fbc601c83613883565b9150614fc782614f86565b602082019050919050565b60006020820190508181036000830152614feb81614faf565b9050919050565b7f45524337323155524953746f726167653a2055524920736574206f66206e6f6e60008201527f6578697374656e7420746f6b656e000000000000000000000000000000000000602082015250565b600061504e602e83613883565b915061505982614ff2565b604082019050919050565b6000602082019050818103600083015261507d81615041565b9050919050565b7f5072696365206d757374206265206174206c6561737420312077656900000000600082015250565b60006150ba601c83613883565b91506150c582615084565b602082019050919050565b600060208201905081810360008301526150e9816150ad565b9050919050565b600060808201905061510560008301876139bf565b61511260208301866139bf565b61511f6040830185613bcd565b61512c606083018461384e565b95945050505050565b7f4552433732313a20617070726f766520746f2063616c6c657200000000000000600082015250565b600061516b601983613883565b915061517682615135565b602082019050919050565b6000602082019050818103600083015261519a8161515e565b9050919050565b7f4552433732313a207472616e7366657220746f206e6f6e20455243373231526560008201527f63656976657220696d706c656d656e7465720000000000000000000000000000602082015250565b60006151fd603283613883565b9150615208826151a1565b604082019050919050565b6000602082019050818103600083015261522c816151f0565b9050919050565b7f436f756e7465723a2064656372656d656e74206f766572666c6f770000000000600082015250565b6000615269601b83613883565b915061527482615233565b602082019050919050565b600060208201905081810360008301526152988161525c565b9050919050565b600081519050919050565b600082825260208201905092915050565b60006152c68261529f565b6152d081856152aa565b93506152e0818560208601613894565b6152e9816138be565b840191505092915050565b600060808201905061530960008301876139bf565b61531660208301866139bf565b6153236040830185613bcd565b818103606083015261533581846152bb565b905095945050505050565b60008151905061534f816137e9565b92915050565b60006020828403121561536b5761536a6137b3565b5b600061537984828501615340565b91505092915050565b7f4e487b7100000000000000000000000000000000000000000000000000000000600052601260045260246000fdfea26469706673582212201e19b0a0256d015b1641b7ad7f095e27d1981e9823386c1de42739c8d4bbcda064736f6c634300081c0033",
  "linkReferences": {},
  "deployedLinkReferences": {}
}