{
  "_format": "hh-sol-artifact-1",
  "contractName": "NFTMarketPlace",
  "sourceName": "contracts/NFTMarketPlace.sol",
  "abi": [
    {
      "inputs": [],
      "stateMutability": "nonpayable",
      "type": "constructor"
    },
    {
      "anonymous": false,
      "inputs": [
        {
          "indexed": true,
          "internalType": "address",
          "name": "owner",
          "type": "address"
        },
        {
          "indexed": true,
          "internalType": "address",
          "name": "approved",
          "type": "address"
        },
        {
          "indexed": true,
          "internalType": "uint256",
          "name": "tokenId",
          "type": "uint256"
        }
      ],
      "name": "Approval",
      "type": "event"
    },
    {
      "anonymous": false,
      "inputs": [
        {
          "indexed": true,
          "internalType": "address",
          "name": "owner",
          "type": "address"
        },
        {
          "indexed": true,
          "internalType": "address",
          "name": "operator",
          "type": "address"
        },
        {
          "indexed": false,
          "internalType": "bool",
          "name": "approved",
          "type": "bool"
        }
      ],
      "name": "ApprovalForAll",
      "type": "event"
    },
    {
      "anonymous": false,
      "inputs": [
        {
          "indexed": true,
          "internalType": "uint256",
          "name": "tokenId",
          "type": "uint256"
        },
        {
          "indexed": false,
          "internalType": "address",
          "name": "bidder",
          "type": "address"
        },
        {
          "indexed": false,
          "internalType": "uint256",
          "name": "amount",
          "type": "uint256"
        }
      ],
      "name": "AuctionBidPlaced",
      "type": "event"
    },
    {
      "anonymous": false,
      "inputs": [
        {
          "indexed": true,
          "internalType": "uint256",
          "name": "tokenId",
          "type": "uint256"
        },
        {
          "indexed": false,
          "internalType": "address",
          "name": "winner",
          "type": "address"
        },
        {
          "indexed": false,
          "internalType": "uint256",
          "name": "amount",
          "type": "uint256"
        }
      ],
      "name": "AuctionEnded",
      "type": "event"
    },
    {
      "anonymous": false,
      "inputs": [
        {
          "indexed": false,
          "internalType": "uint256",
          "name": "_fromTokenId",
          "type": "uint256"
        },
        {
          "indexed": false,
          "internalType": "uint256",
          "name": "_toTokenId",
          "type": "uint256"
        }
      ],
      "name": "BatchMetadataUpdate",
      "type": "event"
    },
    {
      "anonymous": false,
      "inputs": [
        {
          "indexed": true,
          "internalType": "uint256",
          "name": "tokenId",
          "type": "uint256"
        },
        {
          "indexed": false,
          "internalType": "address",
          "name": "seller",
          "type": "address"
        },
        {
          "indexed": false,
          "internalType": "address",
          "name": "owner",
          "type": "address"
        },
        {
          "indexed": false,
          "internalType": "uint256",
          "name": "price",
          "type": "uint256"
        },
        {
          "indexed": false,
          "internalType": "bool",
          "name": "sold",
          "type": "bool"
        }
      ],
      "name": "MarketItemCreated",
      "type": "event"
    },
    {
      "anonymous": false,
      "inputs": [
        {
          "indexed": false,
          "internalType": "uint256",
          "name": "_tokenId",
          "type": "uint256"
        }
      ],
      "name": "MetadataUpdate",
      "type": "event"
    },
    {
      "anonymous": false,
      "inputs": [
        {
          "indexed": true,
          "internalType": "address",
          "name": "from",
          "type": "address"
        },
        {
          "indexed": true,
          "internalType": "address",
          "name": "to",
          "type": "address"
        },
        {
          "indexed": true,
          "internalType": "uint256",
          "name": "tokenId",
          "type": "uint256"
        }
      ],
      "name": "Transfer",
      "type": "event"
    },
    {
      "inputs": [
        {
          "internalType": "address",
          "name": "to",
          "type": "address"
        },
        {
          "internalType": "uint256",
          "name": "tokenId",
          "type": "uint256"
        }
      ],
      "name": "approve",
      "outputs": [],
      "stateMutability": "nonpayable",
      "type": "function"
    },
    {
      "inputs": [
        {
          "internalType": "uint256",
          "name": "",
          "type": "uint256"
        }
      ],
      "name": "auctions",
      "outputs": [
        {
          "internalType": "uint256",
          "name": "auctionEndTime",
          "type": "uint256"
        },
        {
          "internalType": "uint256",
          "name": "highestBid",
          "type": "uint256"
        },
        {
          "internalType": "address payable",
          "name": "highestBidder",
          "type": "address"
        },
        {
          "internalType": "string",
          "name": "metadataHash",
          "type": "string"
        }
      ],
      "stateMutability": "view",
      "type": "function"
    },
    {
      "inputs": [
        {
          "internalType": "address",
          "name": "owner",
          "type": "address"
        }
      ],
      "name": "balanceOf",
      "outputs": [
        {
          "internalType": "uint256",
          "name": "",
          "type": "uint256"
        }
      ],
      "stateMutability": "view",
      "type": "function"
    },
    {
      "inputs": [
        {
          "internalType": "uint256",
          "name": "tokenId",
          "type": "uint256"
        }
      ],
      "name": "createMarketSale",
      "outputs": [],
      "stateMutability": "payable",
      "type": "function"
    },
    {
      "inputs": [
        {
          "internalType": "string",
          "name": "tokenURI",
          "type": "string"
        },
        {
          "internalType": "uint256",
          "name": "price",
          "type": "uint256"
        }
      ],
      "name": "createToken",
      "outputs": [
        {
          "internalType": "uint256",
          "name": "",
          "type": "uint256"
        }
      ],
      "stateMutability": "payable",
      "type": "function"
    },
    {
      "inputs": [
        {
          "internalType": "uint256",
          "name": "tokenId",
          "type": "uint256"
        }
      ],
      "name": "endAuction",
      "outputs": [],
      "stateMutability": "nonpayable",
      "type": "function"
    },
    {
      "inputs": [],
      "name": "fetchAuctions",
      "outputs": [
        {
          "components": [
            {
              "internalType": "uint256",
              "name": "tokenId",
              "type": "uint256"
            },
            {
              "internalType": "address payable",
              "name": "seller",
              "type": "address"
            },
            {
              "internalType": "address payable",
              "name": "owner",
              "type": "address"
            },
            {
              "internalType": "uint256",
              "name": "price",
              "type": "uint256"
            },
            {
              "internalType": "bool",
              "name": "sold",
              "type": "bool"
            }
          ],
          "internalType": "struct NFTMarketPlace.MarketItem[]",
          "name": "",
          "type": "tuple[]"
        },
        {
          "components": [
            {
              "internalType": "uint256",
              "name": "auctionEndTime",
              "type": "uint256"
            },
            {
              "internalType": "uint256",
              "name": "highestBid",
              "type": "uint256"
            },
            {
              "internalType": "address payable",
              "name": "highestBidder",
              "type": "address"
            },
            {
              "internalType": "string",
              "name": "metadataHash",
              "type": "string"
            }
          ],
          "internalType": "struct NFTMarketPlace.Auction[]",
          "name": "",
          "type": "tuple[]"
        }
      ],
      "stateMutability": "view",
      "type": "function"
    },
    {
      "inputs": [],
      "name": "fetchItemsListed",
      "outputs": [
        {
          "components": [
            {
              "internalType": "uint256",
              "name": "tokenId",
              "type": "uint256"
            },
            {
              "internalType": "address payable",
              "name": "seller",
              "type": "address"
            },
            {
              "internalType": "address payable",
              "name": "owner",
              "type": "address"
            },
            {
              "internalType": "uint256",
              "name": "price",
              "type": "uint256"
            },
            {
              "internalType": "bool",
              "name": "sold",
              "type": "bool"
            }
          ],
          "internalType": "struct NFTMarketPlace.MarketItem[]",
          "name": "",
          "type": "tuple[]"
        }
      ],
      "stateMutability": "view",
      "type": "function"
    },
    {
      "inputs": [],
      "name": "fetchMarketItems",
      "outputs": [
        {
          "components": [
            {
              "internalType": "uint256",
              "name": "tokenId",
              "type": "uint256"
            },
            {
              "internalType": "address payable",
              "name": "seller",
              "type": "address"
            },
            {
              "internalType": "address payable",
              "name": "owner",
              "type": "address"
            },
            {
              "internalType": "uint256",
              "name": "price",
              "type": "uint256"
            },
            {
              "internalType": "bool",
              "name": "sold",
              "type": "bool"
            }
          ],
          "internalType": "struct NFTMarketPlace.MarketItem[]",
          "name": "",
          "type": "tuple[]"
        }
      ],
      "stateMutability": "view",
      "type": "function"
    },
    {
      "inputs": [],
      "name": "fetchMyNFTs",
      "outputs": [
        {
          "components": [
            {
              "internalType": "uint256",
              "name": "tokenId",
              "type": "uint256"
            },
            {
              "internalType": "address payable",
              "name": "seller",
              "type": "address"
            },
            {
              "internalType": "address payable",
              "name": "owner",
              "type": "address"
            },
            {
              "internalType": "uint256",
              "name": "price",
              "type": "uint256"
            },
            {
              "internalType": "bool",
              "name": "sold",
              "type": "bool"
            }
          ],
          "internalType": "struct NFTMarketPlace.MarketItem[]",
          "name": "",
          "type": "tuple[]"
        }
      ],
      "stateMutability": "view",
      "type": "function"
    },
    {
      "inputs": [
        {
          "internalType": "uint256",
          "name": "tokenId",
          "type": "uint256"
        }
      ],
      "name": "getApproved",
      "outputs": [
        {
          "internalType": "address",
          "name": "",
          "type": "address"
        }
      ],
      "stateMutability": "view",
      "type": "function"
    },
    {
      "inputs": [],
      "name": "getListingPrice",
      "outputs": [
        {
          "internalType": "uint256",
          "name": "",
          "type": "uint256"
        }
      ],
      "stateMutability": "view",
      "type": "function"
    },
    {
      "inputs": [
        {
          "internalType": "address",
          "name": "owner",
          "type": "address"
        },
        {
          "internalType": "address",
          "name": "operator",
          "type": "address"
        }
      ],
      "name": "isApprovedForAll",
      "outputs": [
        {
          "internalType": "bool",
          "name": "",
          "type": "bool"
        }
      ],
      "stateMutability": "view",
      "type": "function"
    },
    {
      "inputs": [
        {
          "internalType": "uint256",
          "name": "",
          "type": "uint256"
        }
      ],
      "name": "items",
      "outputs": [
        {
          "internalType": "address",
          "name": "owner",
          "type": "address"
        },
        {
          "internalType": "address",
          "name": "seller",
          "type": "address"
        },
        {
          "internalType": "bool",
          "name": "sold",
          "type": "bool"
        },
        {
          "internalType": "uint256",
          "name": "price",
          "type": "uint256"
        }
      ],
      "stateMutability": "view",
      "type": "function"
    },
    {
      "inputs": [],
      "name": "name",
      "outputs": [
        {
          "internalType": "string",
          "name": "",
          "type": "string"
        }
      ],
      "stateMutability": "view",
      "type": "function"
    },
    {
      "inputs": [
        {
          "internalType": "uint256",
          "name": "tokenId",
          "type": "uint256"
        }
      ],
      "name": "ownerOf",
      "outputs": [
        {
          "internalType": "address",
          "name": "",
          "type": "address"
        }
      ],
      "stateMutability": "view",
      "type": "function"
    },
    {
      "inputs": [
        {
          "internalType": "uint256",
          "name": "tokenId",
          "type": "uint256"
        }
      ],
      "name": "placeBid",
      "outputs": [],
      "stateMutability": "payable",
      "type": "function"
    },
    {
      "inputs": [
        {
          "internalType": "uint256",
          "name": "tokenId",
          "type": "uint256"
        },
        {
          "internalType": "uint256",
          "name": "price",
          "type": "uint256"
        }
      ],
      "name": "resellToken",
      "outputs": [],
      "stateMutability": "payable",
      "type": "function"
    },
    {
      "inputs": [
        {
          "internalType": "address",
          "name": "from",
          "type": "address"
        },
        {
          "internalType": "address",
          "name": "to",
          "type": "address"
        },
        {
          "internalType": "uint256",
          "name": "tokenId",
          "type": "uint256"
        }
      ],
      "name": "safeTransferFrom",
      "outputs": [],
      "stateMutability": "nonpayable",
      "type": "function"
    },
    {
      "inputs": [
        {
          "internalType": "address",
          "name": "from",
          "type": "address"
        },
        {
          "internalType": "address",
          "name": "to",
          "type": "address"
        },
        {
          "internalType": "uint256",
          "name": "tokenId",
          "type": "uint256"
        },
        {
          "internalType": "bytes",
          "name": "data",
          "type": "bytes"
        }
      ],
      "name": "safeTransferFrom",
      "outputs": [],
      "stateMutability": "nonpayable",
      "type": "function"
    },
    {
      "inputs": [
        {
          "internalType": "address",
          "name": "operator",
          "type": "address"
        },
        {
          "internalType": "bool",
          "name": "approved",
          "type": "bool"
        }
      ],
      "name": "setApprovalForAll",
      "outputs": [],
      "stateMutability": "nonpayable",
      "type": "function"
    },
    {
      "inputs": [
        {
          "internalType": "uint256",
          "name": "tokenId",
          "type": "uint256"
        },
        {
          "internalType": "uint256",
          "name": "startingBid",
          "type": "uint256"
        },
        {
          "internalType": "uint256",
          "name": "duration",
          "type": "uint256"
        },
        {
          "internalType": "string",
          "name": "url",
          "type": "string"
        }
      ],
      "name": "startAuction",
      "outputs": [],
      "stateMutability": "nonpayable",
      "type": "function"
    },
    {
      "inputs": [
        {
          "internalType": "bytes4",
          "name": "interfaceId",
          "type": "bytes4"
        }
      ],
      "name": "supportsInterface",
      "outputs": [
        {
          "internalType": "bool",
          "name": "",
          "type": "bool"
        }
      ],
      "stateMutability": "view",
      "type": "function"
    },
    {
      "inputs": [],
      "name": "symbol",
      "outputs": [
        {
          "internalType": "string",
          "name": "",
          "type": "string"
        }
      ],
      "stateMutability": "view",
      "type": "function"
    },
    {
      "inputs": [
        {
          "internalType": "uint256",
          "name": "tokenId",
          "type": "uint256"
        }
      ],
      "name": "tokenURI",
      "outputs": [
        {
          "internalType": "string",
          "name": "",
          "type": "string"
        }
      ],
      "stateMutability": "view",
      "type": "function"
    },
    {
      "inputs": [
        {
          "internalType": "address",
          "name": "from",
          "type": "address"
        },
        {
          "internalType": "address",
          "name": "to",
          "type": "address"
        },
        {
          "internalType": "uint256",
          "name": "tokenId",
          "type": "uint256"
        }
      ],
      "name": "transferFrom",
      "outputs": [],
      "stateMutability": "nonpayable",
      "type": "function"
    },
    {
      "inputs": [
        {
          "internalType": "uint256",
          "name": "tokenId",
          "type": "uint256"
        },
        {
          "internalType": "address",
          "name": "recvAdd",
          "type": "address"
        }
      ],
      "name": "transferNFT",
      "outputs": [],
      "stateMutability": "nonpayable",
      "type": "function"
    },
    {
      "inputs": [
        {
          "internalType": "uint256",
          "name": "_listingPrice",
          "type": "uint256"
        }
      ],
      "name": "updateListingPrice",
      "outputs": [],
      "stateMutability": "payable",
      "type": "function"
    }
  ],
  "bytecode": "0x60806040526658d15e1762800060095534801561001b57600080fd5b506040518060400160405280601081526020017f4d657461766572736520546f6b656e73000000000000000000000000000000008152506040518060400160405280600481526020017f4d4554540000000000000000000000000000000000000000000000000000000081525081600090816100979190610340565b5080600190816100a79190610340565b50505033600a60006101000a81548173ffffffffffffffffffffffffffffffffffffffff021916908373ffffffffffffffffffffffffffffffffffffffff160217905550610412565b600081519050919050565b7f4e487b7100000000000000000000000000000000000000000000000000000000600052604160045260246000fd5b7f4e487b7100000000000000000000000000000000000000000000000000000000600052602260045260246000fd5b6000600282049050600182168061017157607f821691505b6020821081036101845761018361012a565b5b50919050565b60008190508160005260206000209050919050565b60006020601f8301049050919050565b600082821b905092915050565b6000600883026101ec7fffffffffffffffffffffffffffffffffffffffffffffffffffffffffffffffff826101af565b6101f686836101af565b95508019841693508086168417925050509392505050565b6000819050919050565b6000819050919050565b600061023d6102386102338461020e565b610218565b61020e565b9050919050565b6000819050919050565b61025783610222565b61026b61026382610244565b8484546101bc565b825550505050565b600090565b610280610273565b61028b81848461024e565b505050565b5b818110156102af576102a4600082610278565b600181019050610291565b5050565b601f8211156102f4576102c58161018a565b6102ce8461019f565b810160208510156102dd578190505b6102f16102e98561019f565b830182610290565b50505b505050565b600082821c905092915050565b6000610317600019846008026102f9565b1980831691505092915050565b60006103308383610306565b9150826002028217905092915050565b610349826100f0565b67ffffffffffffffff811115610362576103616100fb565b5b61036c8254610159565b6103778282856102b3565b600060209050601f8311600181146103aa5760008415610398578287015190505b6103a28582610324565b86555061040a565b601f1984166103b88661018a565b60005b828110156103e0578489015182556001820191506020850194506020810190506103bb565b868310156103fd57848901516103f9601f891682610306565b8355505b6001600288020188555050505b505050505050565b61555e806104216000396000f3fe6080604052600436106101b75760003560e01c806370a08231116100ec578063b88d4fde1161008a578063bfb231d211610064578063bfb231d2146105ea578063c87b56dd1461062a578063e219fc7514610667578063e985e9c514610683576101b7565b8063b88d4fde1461057c578063b9a2de3a146105a5578063be9af536146105ce576101b7565b806395d89b41116100c657806395d89b41146104f05780639979ef451461051b578063a22cb46514610537578063ae677aa314610560576101b7565b806370a082311461045a57806372b3b620146104975780639036c050146104c7576101b7565b8063202e37401161015957806345f8fa801161013357806345f8fa8014610389578063571a26a0146103b45780636352211e146103f4578063680ed24f14610431576101b7565b8063202e37401461030c57806323b872dd1461033757806342842e0e14610360576101b7565b8063095ea7b311610195578063095ea7b3146102615780630f08efe01461028a57806312e85585146102b55780631b2fcf48146102e0576101b7565b806301ffc9a7146101bc57806306fdde03146101f9578063081812fc14610224575b600080fd5b3480156101c857600080fd5b506101e360048036038101906101de919061394c565b6106c0565b6040516101f09190613994565b60405180910390f35b34801561020557600080fd5b5061020e610721565b60405161021b9190613a3f565b60405180910390f35b34801561023057600080fd5b5061024b60048036038101906102469190613a97565b6107b3565b6040516102589190613b05565b60405180910390f35b34801561026d57600080fd5b5061028860048036038101906102839190613b4c565b6107f9565b005b34801561029657600080fd5b5061029f610910565b6040516102ac9190613ce2565b60405180910390f35b3480156102c157600080fd5b506102ca610b72565b6040516102d79190613d13565b60405180910390f35b3480156102ec57600080fd5b506102f5610b7c565b604051610303929190613e9d565b60405180910390f35b34801561031857600080fd5b50610321610f43565b60405161032e9190613ce2565b60405180910390f35b34801561034357600080fd5b5061035e60048036038101906103599190613ed4565b611223565b005b34801561036c57600080fd5b5061038760048036038101906103829190613ed4565b611283565b005b34801561039557600080fd5b5061039e6112a3565b6040516103ab9190613ce2565b60405180910390f35b3480156103c057600080fd5b506103db60048036038101906103d69190613a97565b611583565b6040516103eb9493929190613f36565b60405180910390f35b34801561040057600080fd5b5061041b60048036038101906104169190613a97565b61165b565b6040516104289190613b05565b60405180910390f35b34801561043d57600080fd5b5061045860048036038101906104539190613fe7565b6116e1565b005b34801561046657600080fd5b50610481600480360381019061047c919061406f565b61185a565b60405161048e9190613d13565b60405180910390f35b6104b160048036038101906104ac91906141cc565b611911565b6040516104be9190613d13565b60405180910390f35b3480156104d357600080fd5b506104ee60048036038101906104e99190614228565b611953565b005b3480156104fc57600080fd5b50610505611a46565b6040516105129190613a3f565b60405180910390f35b61053560048036038101906105309190613a97565b611ad8565b005b34801561054357600080fd5b5061055e60048036038101906105599190614294565b611bcb565b005b61057a60048036038101906105759190613a97565b611be1565b005b34801561058857600080fd5b506105a3600480360381019061059e9190614375565b611c7b565b005b3480156105b157600080fd5b506105cc60048036038101906105c79190613a97565b611cdd565b005b6105e860048036038101906105e39190613a97565b611fd2565b005b3480156105f657600080fd5b50610611600480360381019061060c9190613a97565b61220a565b60405161062194939291906143f8565b60405180910390f35b34801561063657600080fd5b50610651600480360381019061064c9190613a97565b612287565b60405161065e9190613a3f565b60405180910390f35b610681600480360381019061067c919061443d565b612399565b005b34801561068f57600080fd5b506106aa60048036038101906106a5919061447d565b61258e565b6040516106b79190613994565b60405180910390f35b6000634906490660e01b7bffffffffffffffffffffffffffffffffffffffffffffffffffffffff1916827bffffffffffffffffffffffffffffffffffffffffffffffffffffffff1916148061071a575061071982612622565b5b9050919050565b606060008054610730906144ec565b80601f016020809104026020016040519081016040528092919081815260200182805461075c906144ec565b80156107a95780601f1061077e576101008083540402835291602001916107a9565b820191906000526020600020905b81548152906001019060200180831161078c57829003601f168201915b5050505050905090565b60006107be82612704565b6004600083815260200190815260200160002060009054906101000a900473ffffffffffffffffffffffffffffffffffffffff169050919050565b60006108048261165b565b90508073ffffffffffffffffffffffffffffffffffffffff168373ffffffffffffffffffffffffffffffffffffffff1603610874576040517f08c379a000000000000000000000000000000000000000000000000000000000815260040161086b9061458f565b60405180910390fd5b8073ffffffffffffffffffffffffffffffffffffffff1661089361274f565b73ffffffffffffffffffffffffffffffffffffffff1614806108c257506108c1816108bc61274f565b61258e565b5b610901576040517f08c379a00000000000000000000000000000000000000000000000000000000081526004016108f890614621565b60405180910390fd5b61090b8383612757565b505050565b6060600061091e6007612810565b9050600061092c6008612810565b6109366007612810565b6109409190614670565b90506000808267ffffffffffffffff81111561095f5761095e6140a1565b5b60405190808252806020026020018201604052801561099857816020015b6109856137e8565b81526020019060019003908161097d5790505b50905060005b84811015610b67573073ffffffffffffffffffffffffffffffffffffffff16600b60006001846109ce91906146a4565b815260200190815260200160002060020160009054906101000a900473ffffffffffffffffffffffffffffffffffffffff1673ffffffffffffffffffffffffffffffffffffffff1603610b5a576000600182610a2a91906146a4565b90506000600b60008381526020019081526020016000209050806040518060a0016040529081600082015481526020016001820160009054906101000a900473ffffffffffffffffffffffffffffffffffffffff1673ffffffffffffffffffffffffffffffffffffffff1673ffffffffffffffffffffffffffffffffffffffff1681526020016002820160009054906101000a900473ffffffffffffffffffffffffffffffffffffffff1673ffffffffffffffffffffffffffffffffffffffff1673ffffffffffffffffffffffffffffffffffffffff168152602001600382015481526020016004820160009054906101000a900460ff161515151581525050848681518110610b3d57610b3c6146d8565b5b6020026020010181905250600185610b5591906146a4565b945050505b808060010191505061099e565b508094505050505090565b6000600954905090565b6060806000610b8b6007612810565b90506000805b82811015610be6576000600182610ba891906146a4565b905042600c6000838152602001908152602001600020600001541115610bd857600183610bd591906146a4565b92505b508080600101915050610b91565b5060008167ffffffffffffffff811115610c0357610c026140a1565b5b604051908082528060200260200182016040528015610c3c57816020015b610c296137e8565b815260200190600190039081610c215790505b50905060008267ffffffffffffffff811115610c5b57610c5a6140a1565b5b604051908082528060200260200182016040528015610c9457816020015b610c81613845565b815260200190600190039081610c795790505b5090506000805b85811015610f33576000600182610cb291906146a4565b90506000600c600083815260200190815260200160002090504281600001541115610f2457600b60008381526020019081526020016000206040518060a0016040529081600082015481526020016001820160009054906101000a900473ffffffffffffffffffffffffffffffffffffffff1673ffffffffffffffffffffffffffffffffffffffff1673ffffffffffffffffffffffffffffffffffffffff1681526020016002820160009054906101000a900473ffffffffffffffffffffffffffffffffffffffff1673ffffffffffffffffffffffffffffffffffffffff1673ffffffffffffffffffffffffffffffffffffffff168152602001600382015481526020016004820160009054906101000a900460ff161515151581525050868581518110610de357610de26146d8565b5b60200260200101819052508060405180608001604052908160008201548152602001600182015481526020016002820160009054906101000a900473ffffffffffffffffffffffffffffffffffffffff1673ffffffffffffffffffffffffffffffffffffffff1673ffffffffffffffffffffffffffffffffffffffff168152602001600382018054610e74906144ec565b80601f0160208091040260200160405190810160405280929190818152602001828054610ea0906144ec565b8015610eed5780601f10610ec257610100808354040283529160200191610eed565b820191906000526020600020905b815481529060010190602001808311610ed057829003601f168201915b505050505081525050858581518110610f0957610f086146d8565b5b6020026020010181905250600184610f2191906146a4565b93505b50508080600101915050610c9b565b5082829650965050505050509091565b60606000610f516007612810565b905060008060005b83811015610ff3573373ffffffffffffffffffffffffffffffffffffffff16600b6000600184610f8991906146a4565b815260200190815260200160002060020160009054906101000a900473ffffffffffffffffffffffffffffffffffffffff1673ffffffffffffffffffffffffffffffffffffffff1603610fe657600183610fe391906146a4565b92505b8080600101915050610f59565b5060008267ffffffffffffffff8111156110105761100f6140a1565b5b60405190808252806020026020018201604052801561104957816020015b6110366137e8565b81526020019060019003908161102e5790505b50905060005b84811015611218573373ffffffffffffffffffffffffffffffffffffffff16600b600060018461107f91906146a4565b815260200190815260200160002060020160009054906101000a900473ffffffffffffffffffffffffffffffffffffffff1673ffffffffffffffffffffffffffffffffffffffff160361120b5760006001826110db91906146a4565b90506000600b60008381526020019081526020016000209050806040518060a0016040529081600082015481526020016001820160009054906101000a900473ffffffffffffffffffffffffffffffffffffffff1673ffffffffffffffffffffffffffffffffffffffff1673ffffffffffffffffffffffffffffffffffffffff1681526020016002820160009054906101000a900473ffffffffffffffffffffffffffffffffffffffff1673ffffffffffffffffffffffffffffffffffffffff1673ffffffffffffffffffffffffffffffffffffffff168152602001600382015481526020016004820160009054906101000a900460ff1615151515815250508486815181106111ee576111ed6146d8565b5b602002602001018190525060018561120691906146a4565b945050505b808060010191505061104f565b508094505050505090565b61123461122e61274f565b8261281e565b611273576040517f08c379a000000000000000000000000000000000000000000000000000000000815260040161126a90614779565b60405180910390fd5b61127e8383836128b3565b505050565b61129e83838360405180602001604052806000815250611c7b565b505050565b606060006112b16007612810565b905060008060005b83811015611353573373ffffffffffffffffffffffffffffffffffffffff16600b60006001846112e991906146a4565b815260200190815260200160002060010160009054906101000a900473ffffffffffffffffffffffffffffffffffffffff1673ffffffffffffffffffffffffffffffffffffffff16036113465760018361134391906146a4565b92505b80806001019150506112b9565b5060008267ffffffffffffffff8111156113705761136f6140a1565b5b6040519080825280602002602001820160405280156113a957816020015b6113966137e8565b81526020019060019003908161138e5790505b50905060005b84811015611578573373ffffffffffffffffffffffffffffffffffffffff16600b60006001846113df91906146a4565b815260200190815260200160002060010160009054906101000a900473ffffffffffffffffffffffffffffffffffffffff1673ffffffffffffffffffffffffffffffffffffffff160361156b57600060018261143b91906146a4565b90506000600b60008381526020019081526020016000209050806040518060a0016040529081600082015481526020016001820160009054906101000a900473ffffffffffffffffffffffffffffffffffffffff1673ffffffffffffffffffffffffffffffffffffffff1673ffffffffffffffffffffffffffffffffffffffff1681526020016002820160009054906101000a900473ffffffffffffffffffffffffffffffffffffffff1673ffffffffffffffffffffffffffffffffffffffff1673ffffffffffffffffffffffffffffffffffffffff168152602001600382015481526020016004820160009054906101000a900460ff16151515158152505084868151811061154e5761154d6146d8565b5b602002602001018190525060018561156691906146a4565b945050505b80806001019150506113af565b508094505050505090565b600c6020528060005260406000206000915090508060000154908060010154908060020160009054906101000a900473ffffffffffffffffffffffffffffffffffffffff16908060030180546115d8906144ec565b80601f0160208091040260200160405190810160405280929190818152602001828054611604906144ec565b80156116515780601f1061162657610100808354040283529160200191611651565b820191906000526020600020905b81548152906001019060200180831161163457829003601f168201915b5050505050905084565b60008061166783612bac565b9050600073ffffffffffffffffffffffffffffffffffffffff168173ffffffffffffffffffffffffffffffffffffffff16036116d8576040517f08c379a00000000000000000000000000000000000000000000000000000000081526004016116cf906147e5565b60405180910390fd5b80915050919050565b600d600086815260200190815260200160002060010160149054906101000a900460ff1615611745576040517f08c379a000000000000000000000000000000000000000000000000000000000815260040161173c90614851565b60405180910390fd5b6040518060800160405280844261175c91906146a4565b8152602001858152602001600073ffffffffffffffffffffffffffffffffffffffff16815260200183838080601f016020809104026020016040519081016040528093929190818152602001838380828437600081840152601f19601f82011690508083019250505050505050815250600c6000878152602001908152602001600020600082015181600001556020820151816001015560408201518160020160006101000a81548173ffffffffffffffffffffffffffffffffffffffff021916908373ffffffffffffffffffffffffffffffffffffffff160217905550606082015181600301908161184f9190614a1d565b509050505050505050565b60008073ffffffffffffffffffffffffffffffffffffffff168273ffffffffffffffffffffffffffffffffffffffff16036118ca576040517f08c379a00000000000000000000000000000000000000000000000000000000081526004016118c190614b61565b60405180910390fd5b600360008373ffffffffffffffffffffffffffffffffffffffff1673ffffffffffffffffffffffffffffffffffffffff168152602001908152602001600020549050919050565b600061191d6007612be9565b60006119296007612810565b90506119353382612bff565b61193f8185612e1c565b6119498184612ec0565b8091505092915050565b80600b600084815260200190815260200160002060020160006101000a81548173ffffffffffffffffffffffffffffffffffffffff021916908373ffffffffffffffffffffffffffffffffffffffff1602179055506001600b600084815260200190815260200160002060040160006101000a81548160ff0219169083151502179055506000600b600084815260200190815260200160002060010160006101000a81548173ffffffffffffffffffffffffffffffffffffffff021916908373ffffffffffffffffffffffffffffffffffffffff160217905550611a376008612be9565b611a423082846128b3565b5050565b606060018054611a55906144ec565b80601f0160208091040260200160405190810160405280929190818152602001828054611a81906144ec565b8015611ace5780601f10611aa357610100808354040283529160200191611ace565b820191906000526020600020905b815481529060010190602001808311611ab157829003601f168201915b5050505050905090565b6000600c6000838152602001908152602001600020905080600001544210611b35576040517f08c379a0000000000000000000000000000000000000000000000000000000008152600401611b2c90614bcd565b60405180910390fd5b80600101543411611b7b576040517f08c379a0000000000000000000000000000000000000000000000000000000008152600401611b7290614c39565b60405180910390fd5b348160010181905550338160020160006101000a81548173ffffffffffffffffffffffffffffffffffffffff021916908373ffffffffffffffffffffffffffffffffffffffff1602179055505050565b611bdd611bd661274f565b83836130c3565b5050565b3373ffffffffffffffffffffffffffffffffffffffff16600a60009054906101000a900473ffffffffffffffffffffffffffffffffffffffff1673ffffffffffffffffffffffffffffffffffffffff1614611c71576040517f08c379a0000000000000000000000000000000000000000000000000000000008152600401611c6890614ccb565b60405180910390fd5b8060098190555050565b611c8c611c8661274f565b8361281e565b611ccb576040517f08c379a0000000000000000000000000000000000000000000000000000000008152600401611cc290614779565b60405180910390fd5b611cd78484848461322f565b50505050565b6000600c60008381526020019081526020016000209050600081600101549050600b600084815260200190815260200160002060040160009054906101000a900460ff1615611d61576040517f08c379a0000000000000000000000000000000000000000000000000000000008152600401611d5890614d37565b60405180910390fd5b6000600b600085815260200190815260200160002060010160009054906101000a900473ffffffffffffffffffffffffffffffffffffffff169050600b600085815260200190815260200160002060010160009054906101000a900473ffffffffffffffffffffffffffffffffffffffff1673ffffffffffffffffffffffffffffffffffffffff166108fc84600101549081150290604051600060405180830381858888f19350505050158015611e1c573d6000803e3d6000fd5b508260020160009054906101000a900473ffffffffffffffffffffffffffffffffffffffff16600b600086815260200190815260200160002060020160006101000a81548173ffffffffffffffffffffffffffffffffffffffff021916908373ffffffffffffffffffffffffffffffffffffffff1602179055506001600b600086815260200190815260200160002060040160006101000a81548160ff0219169083151502179055506000600b600086815260200190815260200160002060010160006101000a81548173ffffffffffffffffffffffffffffffffffffffff021916908373ffffffffffffffffffffffffffffffffffffffff16021790555081600b600086815260200190815260200160002060030181905550611f406008612be9565b611f6f308460020160009054906101000a900473ffffffffffffffffffffffffffffffffffffffff16866128b3565b600c600085815260200190815260200160002060008082016000905560018201600090556002820160006101000a81549073ffffffffffffffffffffffffffffffffffffffff0219169055600382016000611fca9190613883565b505050505050565b6000600b600083815260200190815260200160002060030154905080341461202f576040517f08c379a000000000000000000000000000000000000000000000000000000000815260040161202690614dc9565b60405180910390fd5b600a60009054906101000a900473ffffffffffffffffffffffffffffffffffffffff1673ffffffffffffffffffffffffffffffffffffffff166108fc6009549081150290604051600060405180830381858888f19350505050158015612099573d6000803e3d6000fd5b50600b600083815260200190815260200160002060010160009054906101000a900473ffffffffffffffffffffffffffffffffffffffff1673ffffffffffffffffffffffffffffffffffffffff166108fc349081150290604051600060405180830381858888f19350505050158015612116573d6000803e3d6000fd5b5033600b600084815260200190815260200160002060020160006101000a81548173ffffffffffffffffffffffffffffffffffffffff021916908373ffffffffffffffffffffffffffffffffffffffff1602179055506001600b600084815260200190815260200160002060040160006101000a81548160ff0219169083151502179055506000600b600084815260200190815260200160002060010160006101000a81548173ffffffffffffffffffffffffffffffffffffffff021916908373ffffffffffffffffffffffffffffffffffffffff1602179055506121fb6008612be9565b6122063033846128b3565b5050565b600d6020528060005260406000206000915090508060000160009054906101000a900473ffffffffffffffffffffffffffffffffffffffff16908060010160009054906101000a900473ffffffffffffffffffffffffffffffffffffffff16908060010160149054906101000a900460ff16908060020154905084565b606061229282612704565b60006006600084815260200190815260200160002080546122b2906144ec565b80601f01602080910402602001604051908101604052809291908181526020018280546122de906144ec565b801561232b5780601f106123005761010080835404028352916020019161232b565b820191906000526020600020905b81548152906001019060200180831161230e57829003601f168201915b50505050509050600061233c61328b565b90506000815103612351578192505050612394565b60008251111561238657808260405160200161236e929190614e25565b60405160208183030381529060405292505050612394565b61238f846132a2565b925050505b919050565b3373ffffffffffffffffffffffffffffffffffffffff16600b600084815260200190815260200160002060020160009054906101000a900473ffffffffffffffffffffffffffffffffffffffff1673ffffffffffffffffffffffffffffffffffffffff161461243d576040517f08c379a000000000000000000000000000000000000000000000000000000000815260040161243490614ebb565b60405180910390fd5b6009543414612481576040517f08c379a000000000000000000000000000000000000000000000000000000000815260040161247890614f4d565b60405180910390fd5b6000600b600084815260200190815260200160002060040160006101000a81548160ff02191690831515021790555080600b60008481526020019081526020016000206003018190555033600b600084815260200190815260200160002060010160006101000a81548173ffffffffffffffffffffffffffffffffffffffff021916908373ffffffffffffffffffffffffffffffffffffffff16021790555030600b600084815260200190815260200160002060020160006101000a81548173ffffffffffffffffffffffffffffffffffffffff021916908373ffffffffffffffffffffffffffffffffffffffff16021790555061257f600861330a565b61258a3330846128b3565b5050565b6000600560008473ffffffffffffffffffffffffffffffffffffffff1673ffffffffffffffffffffffffffffffffffffffff16815260200190815260200160002060008373ffffffffffffffffffffffffffffffffffffffff1673ffffffffffffffffffffffffffffffffffffffff16815260200190815260200160002060009054906101000a900460ff16905092915050565b60007f80ac58cd000000000000000000000000000000000000000000000000000000007bffffffffffffffffffffffffffffffffffffffffffffffffffffffff1916827bffffffffffffffffffffffffffffffffffffffffffffffffffffffff191614806126ed57507f5b5e139f000000000000000000000000000000000000000000000000000000007bffffffffffffffffffffffffffffffffffffffffffffffffffffffff1916827bffffffffffffffffffffffffffffffffffffffffffffffffffffffff1916145b806126fd57506126fc82613366565b5b9050919050565b61270d816133d0565b61274c576040517f08c379a0000000000000000000000000000000000000000000000000000000008152600401612743906147e5565b60405180910390fd5b50565b600033905090565b816004600083815260200190815260200160002060006101000a81548173ffffffffffffffffffffffffffffffffffffffff021916908373ffffffffffffffffffffffffffffffffffffffff160217905550808273ffffffffffffffffffffffffffffffffffffffff166127ca8361165b565b73ffffffffffffffffffffffffffffffffffffffff167f8c5be1e5ebec7d5bd14f71427d1e84f3dd0314c0f7b2291e5b200ac8c7c3b92560405160405180910390a45050565b600081600001549050919050565b60008061282a8361165b565b90508073ffffffffffffffffffffffffffffffffffffffff168473ffffffffffffffffffffffffffffffffffffffff16148061286c575061286b818561258e565b5b806128aa57508373ffffffffffffffffffffffffffffffffffffffff16612892846107b3565b73ffffffffffffffffffffffffffffffffffffffff16145b91505092915050565b8273ffffffffffffffffffffffffffffffffffffffff166128d38261165b565b73ffffffffffffffffffffffffffffffffffffffff1614612929576040517f08c379a000000000000000000000000000000000000000000000000000000000815260040161292090614fdf565b60405180910390fd5b600073ffffffffffffffffffffffffffffffffffffffff168273ffffffffffffffffffffffffffffffffffffffff1603612998576040517f08c379a000000000000000000000000000000000000000000000000000000000815260040161298f90615071565b60405180910390fd5b6129a58383836001613411565b8273ffffffffffffffffffffffffffffffffffffffff166129c58261165b565b73ffffffffffffffffffffffffffffffffffffffff1614612a1b576040517f08c379a0000000000000000000000000000000000000000000000000000000008152600401612a1290614fdf565b60405180910390fd5b6004600082815260200190815260200160002060006101000a81549073ffffffffffffffffffffffffffffffffffffffff02191690556001600360008573ffffffffffffffffffffffffffffffffffffffff1673ffffffffffffffffffffffffffffffffffffffff168152602001908152602001600020600082825403925050819055506001600360008473ffffffffffffffffffffffffffffffffffffffff1673ffffffffffffffffffffffffffffffffffffffff16815260200190815260200160002060008282540192505081905550816002600083815260200190815260200160002060006101000a81548173ffffffffffffffffffffffffffffffffffffffff021916908373ffffffffffffffffffffffffffffffffffffffff160217905550808273ffffffffffffffffffffffffffffffffffffffff168473ffffffffffffffffffffffffffffffffffffffff167fddf252ad1be2c89b69c2b068fc378daa952ba7f163c4a11628f55a4df523b3ef60405160405180910390a4612ba78383836001613417565b505050565b60006002600083815260200190815260200160002060009054906101000a900473ffffffffffffffffffffffffffffffffffffffff169050919050565b6001816000016000828254019250508190555050565b600073ffffffffffffffffffffffffffffffffffffffff168273ffffffffffffffffffffffffffffffffffffffff1603612c6e576040517f08c379a0000000000000000000000000000000000000000000000000000000008152600401612c65906150dd565b60405180910390fd5b612c77816133d0565b15612cb7576040517f08c379a0000000000000000000000000000000000000000000000000000000008152600401612cae90615149565b60405180910390fd5b612cc5600083836001613411565b612cce816133d0565b15612d0e576040517f08c379a0000000000000000000000000000000000000000000000000000000008152600401612d0590615149565b60405180910390fd5b6001600360008473ffffffffffffffffffffffffffffffffffffffff1673ffffffffffffffffffffffffffffffffffffffff16815260200190815260200160002060008282540192505081905550816002600083815260200190815260200160002060006101000a81548173ffffffffffffffffffffffffffffffffffffffff021916908373ffffffffffffffffffffffffffffffffffffffff160217905550808273ffffffffffffffffffffffffffffffffffffffff16600073ffffffffffffffffffffffffffffffffffffffff167fddf252ad1be2c89b69c2b068fc378daa952ba7f163c4a11628f55a4df523b3ef60405160405180910390a4612e18600083836001613417565b5050565b612e25826133d0565b612e64576040517f08c379a0000000000000000000000000000000000000000000000000000000008152600401612e5b906151db565b60405180910390fd5b80600660008481526020019081526020016000209081612e849190614a1d565b507ff8e1a15aba9398e019f0b49df1a4fde98ee17ae345cb5f6b5e2c27f5033e8ce782604051612eb49190613d13565b60405180910390a15050565b60008111612f03576040517f08c379a0000000000000000000000000000000000000000000000000000000008152600401612efa90615247565b60405180910390fd5b6009543414612f47576040517f08c379a0000000000000000000000000000000000000000000000000000000008152600401612f3e90614f4d565b60405180910390fd5b6040518060a001604052808381526020013373ffffffffffffffffffffffffffffffffffffffff1681526020013073ffffffffffffffffffffffffffffffffffffffff16815260200182815260200160001515815250600b60008481526020019081526020016000206000820151816000015560208201518160010160006101000a81548173ffffffffffffffffffffffffffffffffffffffff021916908373ffffffffffffffffffffffffffffffffffffffff16021790555060408201518160020160006101000a81548173ffffffffffffffffffffffffffffffffffffffff021916908373ffffffffffffffffffffffffffffffffffffffff1602179055506060820151816003015560808201518160040160006101000a81548160ff0219169083151502179055509050506130803330846128b3565b817fb640004f1d14576d0c209e240cad0410e0d8c0c33a09375861fbadae2588a98d33308460006040516130b79493929190615267565b60405180910390a25050565b8173ffffffffffffffffffffffffffffffffffffffff168373ffffffffffffffffffffffffffffffffffffffff1603613131576040517f08c379a0000000000000000000000000000000000000000000000000000000008152600401613128906152f8565b60405180910390fd5b80600560008573ffffffffffffffffffffffffffffffffffffffff1673ffffffffffffffffffffffffffffffffffffffff16815260200190815260200160002060008473ffffffffffffffffffffffffffffffffffffffff1673ffffffffffffffffffffffffffffffffffffffff16815260200190815260200160002060006101000a81548160ff0219169083151502179055508173ffffffffffffffffffffffffffffffffffffffff168373ffffffffffffffffffffffffffffffffffffffff167f17307eab39ab6107e8899845ad3d59bd9653f200f220920489ca2b5937696c31836040516132229190613994565b60405180910390a3505050565b61323a8484846128b3565b6132468484848461341d565b613285576040517f08c379a000000000000000000000000000000000000000000000000000000000815260040161327c9061538a565b60405180910390fd5b50505050565b606060405180602001604052806000815250905090565b60606132ad82612704565b60006132b761328b565b905060008151116132d75760405180602001604052806000815250613302565b806132e1846135a4565b6040516020016132f2929190614e25565b6040516020818303038152906040525b915050919050565b60008160000154905060008111613356576040517f08c379a000000000000000000000000000000000000000000000000000000000815260040161334d906153f6565b60405180910390fd5b6001810382600001819055505050565b60007f01ffc9a7000000000000000000000000000000000000000000000000000000007bffffffffffffffffffffffffffffffffffffffffffffffffffffffff1916827bffffffffffffffffffffffffffffffffffffffffffffffffffffffff1916149050919050565b60008073ffffffffffffffffffffffffffffffffffffffff166133f283612bac565b73ffffffffffffffffffffffffffffffffffffffff1614159050919050565b50505050565b50505050565b600061343e8473ffffffffffffffffffffffffffffffffffffffff16613672565b15613597578373ffffffffffffffffffffffffffffffffffffffff1663150b7a0261346761274f565b8786866040518563ffffffff1660e01b8152600401613489949392919061546b565b6020604051808303816000875af19250505080156134c557506040513d601f19601f820116820180604052508101906134c291906154cc565b60015b613547573d80600081146134f5576040519150601f19603f3d011682016040523d82523d6000602084013e6134fa565b606091505b50600081510361353f576040517f08c379a00000000000000000000000000000000000000000000000000000000081526004016135369061538a565b60405180910390fd5b805181602001fd5b63150b7a0260e01b7bffffffffffffffffffffffffffffffffffffffffffffffffffffffff1916817bffffffffffffffffffffffffffffffffffffffffffffffffffffffff19161491505061359c565b600190505b949350505050565b6060600060016135b384613695565b01905060008167ffffffffffffffff8111156135d2576135d16140a1565b5b6040519080825280601f01601f1916602001820160405280156136045781602001600182028036833780820191505090505b509050600082602001820190505b600115613667578080600190039150507f3031323334353637383961626364656600000000000000000000000000000000600a86061a8153600a858161365b5761365a6154f9565b5b04945060008503613612575b819350505050919050565b6000808273ffffffffffffffffffffffffffffffffffffffff163b119050919050565b600080600090507a184f03e93ff9f4daa797ed6e38ed64bf6a1f01000000000000000083106136f3577a184f03e93ff9f4daa797ed6e38ed64bf6a1f01000000000000000083816136e9576136e86154f9565b5b0492506040810190505b6d04ee2d6d415b85acef81000000008310613730576d04ee2d6d415b85acef81000000008381613726576137256154f9565b5b0492506020810190505b662386f26fc10000831061375f57662386f26fc100008381613755576137546154f9565b5b0492506010810190505b6305f5e1008310613788576305f5e100838161377e5761377d6154f9565b5b0492506008810190505b61271083106137ad5761271083816137a3576137a26154f9565b5b0492506004810190505b606483106137d057606483816137c6576137c56154f9565b5b0492506002810190505b600a83106137df576001810190505b80915050919050565b6040518060a0016040528060008152602001600073ffffffffffffffffffffffffffffffffffffffff168152602001600073ffffffffffffffffffffffffffffffffffffffff168152602001600081526020016000151581525090565b60405180608001604052806000815260200160008152602001600073ffffffffffffffffffffffffffffffffffffffff168152602001606081525090565b50805461388f906144ec565b6000825580601f106138a157506138c0565b601f0160209004906000526020600020908101906138bf91906138c3565b5b50565b5b808211156138dc5760008160009055506001016138c4565b5090565b6000604051905090565b600080fd5b600080fd5b60007fffffffff0000000000000000000000000000000000000000000000000000000082169050919050565b613929816138f4565b811461393457600080fd5b50565b60008135905061394681613920565b92915050565b600060208284031215613962576139616138ea565b5b600061397084828501613937565b91505092915050565b60008115159050919050565b61398e81613979565b82525050565b60006020820190506139a96000830184613985565b92915050565b600081519050919050565b600082825260208201905092915050565b60005b838110156139e95780820151818401526020810190506139ce565b60008484015250505050565b6000601f19601f8301169050919050565b6000613a11826139af565b613a1b81856139ba565b9350613a2b8185602086016139cb565b613a34816139f5565b840191505092915050565b60006020820190508181036000830152613a598184613a06565b905092915050565b6000819050919050565b613a7481613a61565b8114613a7f57600080fd5b50565b600081359050613a9181613a6b565b92915050565b600060208284031215613aad57613aac6138ea565b5b6000613abb84828501613a82565b91505092915050565b600073ffffffffffffffffffffffffffffffffffffffff82169050919050565b6000613aef82613ac4565b9050919050565b613aff81613ae4565b82525050565b6000602082019050613b1a6000830184613af6565b92915050565b613b2981613ae4565b8114613b3457600080fd5b50565b600081359050613b4681613b20565b92915050565b60008060408385031215613b6357613b626138ea565b5b6000613b7185828601613b37565b9250506020613b8285828601613a82565b9150509250929050565b600081519050919050565b600082825260208201905092915050565b6000819050602082019050919050565b613bc181613a61565b82525050565b6000613bd282613ac4565b9050919050565b613be281613bc7565b82525050565b613bf181613979565b82525050565b60a082016000820151613c0d6000850182613bb8565b506020820151613c206020850182613bd9565b506040820151613c336040850182613bd9565b506060820151613c466060850182613bb8565b506080820151613c596080850182613be8565b50505050565b6000613c6b8383613bf7565b60a08301905092915050565b6000602082019050919050565b6000613c8f82613b8c565b613c998185613b97565b9350613ca483613ba8565b8060005b83811015613cd5578151613cbc8882613c5f565b9750613cc783613c77565b925050600181019050613ca8565b5085935050505092915050565b60006020820190508181036000830152613cfc8184613c84565b905092915050565b613d0d81613a61565b82525050565b6000602082019050613d286000830184613d04565b92915050565b600081519050919050565b600082825260208201905092915050565b6000819050602082019050919050565b600082825260208201905092915050565b6000613d76826139af565b613d808185613d5a565b9350613d908185602086016139cb565b613d99816139f5565b840191505092915050565b6000608083016000830151613dbc6000860182613bb8565b506020830151613dcf6020860182613bb8565b506040830151613de26040860182613bd9565b5060608301518482036060860152613dfa8282613d6b565b9150508091505092915050565b6000613e138383613da4565b905092915050565b6000602082019050919050565b6000613e3382613d2e565b613e3d8185613d39565b935083602082028501613e4f85613d4a565b8060005b85811015613e8b5784840389528151613e6c8582613e07565b9450613e7783613e1b565b925060208a01995050600181019050613e53565b50829750879550505050505092915050565b60006040820190508181036000830152613eb78185613c84565b90508181036020830152613ecb8184613e28565b90509392505050565b600080600060608486031215613eed57613eec6138ea565b5b6000613efb86828701613b37565b9350506020613f0c86828701613b37565b9250506040613f1d86828701613a82565b9150509250925092565b613f3081613bc7565b82525050565b6000608082019050613f4b6000830187613d04565b613f586020830186613d04565b613f656040830185613f27565b8181036060830152613f778184613a06565b905095945050505050565b600080fd5b600080fd5b600080fd5b60008083601f840112613fa757613fa6613f82565b5b8235905067ffffffffffffffff811115613fc457613fc3613f87565b5b602083019150836001820283011115613fe057613fdf613f8c565b5b9250929050565b600080600080600060808688031215614003576140026138ea565b5b600061401188828901613a82565b955050602061402288828901613a82565b945050604061403388828901613a82565b935050606086013567ffffffffffffffff811115614054576140536138ef565b5b61406088828901613f91565b92509250509295509295909350565b600060208284031215614085576140846138ea565b5b600061409384828501613b37565b91505092915050565b600080fd5b7f4e487b7100000000000000000000000000000000000000000000000000000000600052604160045260246000fd5b6140d9826139f5565b810181811067ffffffffffffffff821117156140f8576140f76140a1565b5b80604052505050565b600061410b6138e0565b905061411782826140d0565b919050565b600067ffffffffffffffff821115614137576141366140a1565b5b614140826139f5565b9050602081019050919050565b82818337600083830152505050565b600061416f61416a8461411c565b614101565b90508281526020810184848401111561418b5761418a61409c565b5b61419684828561414d565b509392505050565b600082601f8301126141b3576141b2613f82565b5b81356141c384826020860161415c565b91505092915050565b600080604083850312156141e3576141e26138ea565b5b600083013567ffffffffffffffff811115614201576142006138ef565b5b61420d8582860161419e565b925050602061421e85828601613a82565b9150509250929050565b6000806040838503121561423f5761423e6138ea565b5b600061424d85828601613a82565b925050602061425e85828601613b37565b9150509250929050565b61427181613979565b811461427c57600080fd5b50565b60008135905061428e81614268565b92915050565b600080604083850312156142ab576142aa6138ea565b5b60006142b985828601613b37565b92505060206142ca8582860161427f565b9150509250929050565b600067ffffffffffffffff8211156142ef576142ee6140a1565b5b6142f8826139f5565b9050602081019050919050565b6000614318614313846142d4565b614101565b9050828152602081018484840111156143345761433361409c565b5b61433f84828561414d565b509392505050565b600082601f83011261435c5761435b613f82565b5b813561436c848260208601614305565b91505092915050565b6000806000806080858703121561438f5761438e6138ea565b5b600061439d87828801613b37565b94505060206143ae87828801613b37565b93505060406143bf87828801613a82565b925050606085013567ffffffffffffffff8111156143e0576143df6138ef565b5b6143ec87828801614347565b91505092959194509250565b600060808201905061440d6000830187613af6565b61441a6020830186613af6565b6144276040830185613985565b6144346060830184613d04565b95945050505050565b60008060408385031215614454576144536138ea565b5b600061446285828601613a82565b925050602061447385828601613a82565b9150509250929050565b60008060408385031215614494576144936138ea565b5b60006144a285828601613b37565b92505060206144b385828601613b37565b9150509250929050565b7f4e487b7100000000000000000000000000000000000000000000000000000000600052602260045260246000fd5b6000600282049050600182168061450457607f821691505b602082108103614517576145166144bd565b5b50919050565b7f4552433732313a20617070726f76616c20746f2063757272656e74206f776e6560008201527f7200000000000000000000000000000000000000000000000000000000000000602082015250565b60006145796021836139ba565b91506145848261451d565b604082019050919050565b600060208201905081810360008301526145a88161456c565b9050919050565b7f4552433732313a20617070726f76652063616c6c6572206973206e6f7420746f60008201527f6b656e206f776e6572206f7220617070726f76656420666f7220616c6c000000602082015250565b600061460b603d836139ba565b9150614616826145af565b604082019050919050565b6000602082019050818103600083015261463a816145fe565b9050919050565b7f4e487b7100000000000000000000000000000000000000000000000000000000600052601160045260246000fd5b600061467b82613a61565b915061468683613a61565b925082820390508181111561469e5761469d614641565b5b92915050565b60006146af82613a61565b91506146ba83613a61565b92508282019050808211156146d2576146d1614641565b5b92915050565b7f4e487b7100000000000000000000000000000000000000000000000000000000600052603260045260246000fd5b7f4552433732313a2063616c6c6572206973206e6f7420746f6b656e206f776e6560008201527f72206f7220617070726f76656400000000000000000000000000000000000000602082015250565b6000614763602d836139ba565b915061476e82614707565b604082019050919050565b6000602082019050818103600083015261479281614756565b9050919050565b7f4552433732313a20696e76616c696420746f6b656e2049440000000000000000600082015250565b60006147cf6018836139ba565b91506147da82614799565b602082019050919050565b600060208201905081810360008301526147fe816147c2565b9050919050565b7f4974656d20616c726561647920736f6c64000000000000000000000000000000600082015250565b600061483b6011836139ba565b915061484682614805565b602082019050919050565b6000602082019050818103600083015261486a8161482e565b9050919050565b60008190508160005260206000209050919050565b60006020601f8301049050919050565b600082821b905092915050565b6000600883026148d37fffffffffffffffffffffffffffffffffffffffffffffffffffffffffffffffff82614896565b6148dd8683614896565b95508019841693508086168417925050509392505050565b6000819050919050565b600061491a61491561491084613a61565b6148f5565b613a61565b9050919050565b6000819050919050565b614934836148ff565b61494861494082614921565b8484546148a3565b825550505050565b600090565b61495d614950565b61496881848461492b565b505050565b5b8181101561498c57614981600082614955565b60018101905061496e565b5050565b601f8211156149d1576149a281614871565b6149ab84614886565b810160208510156149ba578190505b6149ce6149c685614886565b83018261496d565b50505b505050565b600082821c905092915050565b60006149f4600019846008026149d6565b1980831691505092915050565b6000614a0d83836149e3565b9150826002028217905092915050565b614a26826139af565b67ffffffffffffffff811115614a3f57614a3e6140a1565b5b614a4982546144ec565b614a54828285614990565b600060209050601f831160018114614a875760008415614a75578287015190505b614a7f8582614a01565b865550614ae7565b601f198416614a9586614871565b60005b82811015614abd57848901518255600182019150602085019450602081019050614a98565b86831015614ada5784890151614ad6601f8916826149e3565b8355505b6001600288020188555050505b505050505050565b7f4552433732313a2061646472657373207a65726f206973206e6f74206120766160008201527f6c6964206f776e65720000000000000000000000000000000000000000000000602082015250565b6000614b4b6029836139ba565b9150614b5682614aef565b604082019050919050565b60006020820190508181036000830152614b7a81614b3e565b9050919050565b7f41756374696f6e20656e64656400000000000000000000000000000000000000600082015250565b6000614bb7600d836139ba565b9150614bc282614b81565b602082019050919050565b60006020820190508181036000830152614be681614baa565b9050919050565b7f546865726520616c726561647920697320612068696768657220626964000000600082015250565b6000614c23601d836139ba565b9150614c2e82614bed565b602082019050919050565b60006020820190508181036000830152614c5281614c16565b9050919050565b7f4f6e6c79206d61726b6574706c616365206f776e65722063616e20757064617460008201527f65206c697374696e672070726963652e00000000000000000000000000000000602082015250565b6000614cb56030836139ba565b9150614cc082614c59565b604082019050919050565b60006020820190508181036000830152614ce481614ca8565b9050919050565b7f41756374696f6e2068617320616c726561647920656e64656400000000000000600082015250565b6000614d216019836139ba565b9150614d2c82614ceb565b602082019050919050565b60006020820190508181036000830152614d5081614d14565b9050919050565b7f506c65617365207375626d6974207468652061736b696e67207072696365206960008201527f6e206f7264657220746f20636f6d706c65746520746865207075726368617365602082015250565b6000614db36040836139ba565b9150614dbe82614d57565b604082019050919050565b60006020820190508181036000830152614de281614da6565b9050919050565b600081905092915050565b6000614dff826139af565b614e098185614de9565b9350614e198185602086016139cb565b80840191505092915050565b6000614e318285614df4565b9150614e3d8284614df4565b91508190509392505050565b7f4f6e6c79206974656d206f776e65722063616e20706572666f726d207468697360008201527f206f7065726174696f6e00000000000000000000000000000000000000000000602082015250565b6000614ea5602a836139ba565b9150614eb082614e49565b604082019050919050565b60006020820190508181036000830152614ed481614e98565b9050919050565b7f5072696365206d75737420626520657175616c20746f206c697374696e67207060008201527f7269636500000000000000000000000000000000000000000000000000000000602082015250565b6000614f376024836139ba565b9150614f4282614edb565b604082019050919050565b60006020820190508181036000830152614f6681614f2a565b9050919050565b7f4552433732313a207472616e736665722066726f6d20696e636f72726563742060008201527f6f776e6572000000000000000000000000000000000000000000000000000000602082015250565b6000614fc96025836139ba565b9150614fd482614f6d565b604082019050919050565b60006020820190508181036000830152614ff881614fbc565b9050919050565b7f4552433732313a207472616e7366657220746f20746865207a65726f2061646460008201527f7265737300000000000000000000000000000000000000000000000000000000602082015250565b600061505b6024836139ba565b915061506682614fff565b604082019050919050565b6000602082019050818103600083015261508a8161504e565b9050919050565b7f4552433732313a206d696e7420746f20746865207a65726f2061646472657373600082015250565b60006150c76020836139ba565b91506150d282615091565b602082019050919050565b600060208201905081810360008301526150f6816150ba565b9050919050565b7f4552433732313a20746f6b656e20616c7265616479206d696e74656400000000600082015250565b6000615133601c836139ba565b915061513e826150fd565b602082019050919050565b6000602082019050818103600083015261516281615126565b9050919050565b7f45524337323155524953746f726167653a2055524920736574206f66206e6f6e60008201527f6578697374656e7420746f6b656e000000000000000000000000000000000000602082015250565b60006151c5602e836139ba565b91506151d082615169565b604082019050919050565b600060208201905081810360008301526151f4816151b8565b9050919050565b7f5072696365206d757374206265206174206c6561737420312077656900000000600082015250565b6000615231601c836139ba565b915061523c826151fb565b602082019050919050565b6000602082019050818103600083015261526081615224565b9050919050565b600060808201905061527c6000830187613af6565b6152896020830186613af6565b6152966040830185613d04565b6152a36060830184613985565b95945050505050565b7f4552433732313a20617070726f766520746f2063616c6c657200000000000000600082015250565b60006152e26019836139ba565b91506152ed826152ac565b602082019050919050565b60006020820190508181036000830152615311816152d5565b9050919050565b7f4552433732313a207472616e7366657220746f206e6f6e20455243373231526560008201527f63656976657220696d706c656d656e7465720000000000000000000000000000602082015250565b60006153746032836139ba565b915061537f82615318565b604082019050919050565b600060208201905081810360008301526153a381615367565b9050919050565b7f436f756e7465723a2064656372656d656e74206f766572666c6f770000000000600082015250565b60006153e0601b836139ba565b91506153eb826153aa565b602082019050919050565b6000602082019050818103600083015261540f816153d3565b9050919050565b600081519050919050565b600082825260208201905092915050565b600061543d82615416565b6154478185615421565b93506154578185602086016139cb565b615460816139f5565b840191505092915050565b60006080820190506154806000830187613af6565b61548d6020830186613af6565b61549a6040830185613d04565b81810360608301526154ac8184615432565b905095945050505050565b6000815190506154c681613920565b92915050565b6000602082840312156154e2576154e16138ea565b5b60006154f0848285016154b7565b91505092915050565b7f4e487b7100000000000000000000000000000000000000000000000000000000600052601260045260246000fdfea26469706673582212208a3825e86850034a06acddf093849971b50e1ac93e8a7c77b3b50e9952d378ef64736f6c634300081c0033",
  "linkReferences": {},
  "deployedLinkReferences": {}
}