{
  "_format": "hh-sol-artifact-1",
  "contractName": "NFTMarketPlace",
  "sourceName": "contracts/NFTMarketPlace.sol",
  "abi": [
    {
      "inputs": [],
      "stateMutability": "nonpayable",
      "type": "constructor"
    },
    {
      "anonymous": false,
      "inputs": [
        {
          "indexed": true,
          "internalType": "address",
          "name": "owner",
          "type": "address"
        },
        {
          "indexed": true,
          "internalType": "address",
          "name": "approved",
          "type": "address"
        },
        {
          "indexed": true,
          "internalType": "uint256",
          "name": "tokenId",
          "type": "uint256"
        }
      ],
      "name": "Approval",
      "type": "event"
    },
    {
      "anonymous": false,
      "inputs": [
        {
          "indexed": true,
          "internalType": "address",
          "name": "owner",
          "type": "address"
        },
        {
          "indexed": true,
          "internalType": "address",
          "name": "operator",
          "type": "address"
        },
        {
          "indexed": false,
          "internalType": "bool",
          "name": "approved",
          "type": "bool"
        }
      ],
      "name": "ApprovalForAll",
      "type": "event"
    },
    {
      "anonymous": false,
      "inputs": [
        {
          "indexed": true,
          "internalType": "uint256",
          "name": "tokenId",
          "type": "uint256"
        },
        {
          "indexed": false,
          "internalType": "address",
          "name": "bidder",
          "type": "address"
        },
        {
          "indexed": false,
          "internalType": "uint256",
          "name": "amount",
          "type": "uint256"
        }
      ],
      "name": "AuctionBidPlaced",
      "type": "event"
    },
    {
      "anonymous": false,
      "inputs": [
        {
          "indexed": true,
          "internalType": "uint256",
          "name": "tokenId",
          "type": "uint256"
        },
        {
          "indexed": false,
          "internalType": "address",
          "name": "winner",
          "type": "address"
        },
        {
          "indexed": false,
          "internalType": "uint256",
          "name": "amount",
          "type": "uint256"
        }
      ],
      "name": "AuctionEnded",
      "type": "event"
    },
    {
      "anonymous": false,
      "inputs": [
        {
          "indexed": false,
          "internalType": "uint256",
          "name": "_fromTokenId",
          "type": "uint256"
        },
        {
          "indexed": false,
          "internalType": "uint256",
          "name": "_toTokenId",
          "type": "uint256"
        }
      ],
      "name": "BatchMetadataUpdate",
      "type": "event"
    },
    {
      "anonymous": false,
      "inputs": [
        {
          "indexed": true,
          "internalType": "uint256",
          "name": "tokenId",
          "type": "uint256"
        },
        {
          "indexed": false,
          "internalType": "address",
          "name": "seller",
          "type": "address"
        },
        {
          "indexed": false,
          "internalType": "address",
          "name": "owner",
          "type": "address"
        },
        {
          "indexed": false,
          "internalType": "uint256",
          "name": "price",
          "type": "uint256"
        },
        {
          "indexed": false,
          "internalType": "bool",
          "name": "sold",
          "type": "bool"
        }
      ],
      "name": "MarketItemCreated",
      "type": "event"
    },
    {
      "anonymous": false,
      "inputs": [
        {
          "indexed": false,
          "internalType": "uint256",
          "name": "_tokenId",
          "type": "uint256"
        }
      ],
      "name": "MetadataUpdate",
      "type": "event"
    },
    {
      "anonymous": false,
      "inputs": [
        {
          "indexed": true,
          "internalType": "address",
          "name": "from",
          "type": "address"
        },
        {
          "indexed": true,
          "internalType": "address",
          "name": "to",
          "type": "address"
        },
        {
          "indexed": true,
          "internalType": "uint256",
          "name": "tokenId",
          "type": "uint256"
        }
      ],
      "name": "Transfer",
      "type": "event"
    },
    {
      "inputs": [
        {
          "internalType": "address",
          "name": "to",
          "type": "address"
        },
        {
          "internalType": "uint256",
          "name": "tokenId",
          "type": "uint256"
        }
      ],
      "name": "approve",
      "outputs": [],
      "stateMutability": "nonpayable",
      "type": "function"
    },
    {
      "inputs": [
        {
          "internalType": "uint256",
          "name": "",
          "type": "uint256"
        }
      ],
      "name": "auctions",
      "outputs": [
        {
          "internalType": "uint256",
          "name": "auctionEndTime",
          "type": "uint256"
        },
        {
          "internalType": "uint256",
          "name": "highestBid",
          "type": "uint256"
        },
        {
          "internalType": "address payable",
          "name": "highestBidder",
          "type": "address"
        },
        {
          "internalType": "string",
          "name": "metadataHash",
          "type": "string"
        }
      ],
      "stateMutability": "view",
      "type": "function"
    },
    {
      "inputs": [
        {
          "internalType": "address",
          "name": "owner",
          "type": "address"
        }
      ],
      "name": "balanceOf",
      "outputs": [
        {
          "internalType": "uint256",
          "name": "",
          "type": "uint256"
        }
      ],
      "stateMutability": "view",
      "type": "function"
    },
    {
      "inputs": [
        {
          "internalType": "uint256",
          "name": "tokenId",
          "type": "uint256"
        }
      ],
      "name": "createMarketSale",
      "outputs": [],
      "stateMutability": "payable",
      "type": "function"
    },
    {
      "inputs": [
        {
          "internalType": "string",
          "name": "tokenURI",
          "type": "string"
        },
        {
          "internalType": "uint256",
          "name": "price",
          "type": "uint256"
        }
      ],
      "name": "createToken",
      "outputs": [
        {
          "internalType": "uint256",
          "name": "",
          "type": "uint256"
        }
      ],
      "stateMutability": "payable",
      "type": "function"
    },
    {
      "inputs": [
        {
          "internalType": "uint256",
          "name": "tokenId",
          "type": "uint256"
        }
      ],
      "name": "endAuction",
      "outputs": [],
      "stateMutability": "nonpayable",
      "type": "function"
    },
    {
      "inputs": [],
      "name": "fetchAuctions",
      "outputs": [
        {
          "components": [
            {
              "internalType": "uint256",
              "name": "tokenId",
              "type": "uint256"
            },
            {
              "internalType": "address payable",
              "name": "seller",
              "type": "address"
            },
            {
              "internalType": "address payable",
              "name": "owner",
              "type": "address"
            },
            {
              "internalType": "uint256",
              "name": "price",
              "type": "uint256"
            },
            {
              "internalType": "bool",
              "name": "sold",
              "type": "bool"
            }
          ],
          "internalType": "struct NFTMarketPlace.MarketItem[]",
          "name": "",
          "type": "tuple[]"
        },
        {
          "components": [
            {
              "internalType": "uint256",
              "name": "auctionEndTime",
              "type": "uint256"
            },
            {
              "internalType": "uint256",
              "name": "highestBid",
              "type": "uint256"
            },
            {
              "internalType": "address payable",
              "name": "highestBidder",
              "type": "address"
            },
            {
              "internalType": "string",
              "name": "metadataHash",
              "type": "string"
            }
          ],
          "internalType": "struct NFTMarketPlace.Auction[]",
          "name": "",
          "type": "tuple[]"
        }
      ],
      "stateMutability": "view",
      "type": "function"
    },
    {
      "inputs": [],
      "name": "fetchItemsListed",
      "outputs": [
        {
          "components": [
            {
              "internalType": "uint256",
              "name": "tokenId",
              "type": "uint256"
            },
            {
              "internalType": "address payable",
              "name": "seller",
              "type": "address"
            },
            {
              "internalType": "address payable",
              "name": "owner",
              "type": "address"
            },
            {
              "internalType": "uint256",
              "name": "price",
              "type": "uint256"
            },
            {
              "internalType": "bool",
              "name": "sold",
              "type": "bool"
            }
          ],
          "internalType": "struct NFTMarketPlace.MarketItem[]",
          "name": "",
          "type": "tuple[]"
        }
      ],
      "stateMutability": "view",
      "type": "function"
    },
    {
      "inputs": [],
      "name": "fetchMarketItems",
      "outputs": [
        {
          "components": [
            {
              "internalType": "uint256",
              "name": "tokenId",
              "type": "uint256"
            },
            {
              "internalType": "address payable",
              "name": "seller",
              "type": "address"
            },
            {
              "internalType": "address payable",
              "name": "owner",
              "type": "address"
            },
            {
              "internalType": "uint256",
              "name": "price",
              "type": "uint256"
            },
            {
              "internalType": "bool",
              "name": "sold",
              "type": "bool"
            }
          ],
          "internalType": "struct NFTMarketPlace.MarketItem[]",
          "name": "",
          "type": "tuple[]"
        }
      ],
      "stateMutability": "view",
      "type": "function"
    },
    {
      "inputs": [],
      "name": "fetchMyNFTs",
      "outputs": [
        {
          "components": [
            {
              "internalType": "uint256",
              "name": "tokenId",
              "type": "uint256"
            },
            {
              "internalType": "address payable",
              "name": "seller",
              "type": "address"
            },
            {
              "internalType": "address payable",
              "name": "owner",
              "type": "address"
            },
            {
              "internalType": "uint256",
              "name": "price",
              "type": "uint256"
            },
            {
              "internalType": "bool",
              "name": "sold",
              "type": "bool"
            }
          ],
          "internalType": "struct NFTMarketPlace.MarketItem[]",
          "name": "",
          "type": "tuple[]"
        }
      ],
      "stateMutability": "view",
      "type": "function"
    },
    {
      "inputs": [
        {
          "internalType": "uint256",
          "name": "tokenId",
          "type": "uint256"
        }
      ],
      "name": "getApproved",
      "outputs": [
        {
          "internalType": "address",
          "name": "",
          "type": "address"
        }
      ],
      "stateMutability": "view",
      "type": "function"
    },
    {
      "inputs": [],
      "name": "getListingPrice",
      "outputs": [
        {
          "internalType": "uint256",
          "name": "",
          "type": "uint256"
        }
      ],
      "stateMutability": "view",
      "type": "function"
    },
    {
      "inputs": [
        {
          "internalType": "address",
          "name": "owner",
          "type": "address"
        },
        {
          "internalType": "address",
          "name": "operator",
          "type": "address"
        }
      ],
      "name": "isApprovedForAll",
      "outputs": [
        {
          "internalType": "bool",
          "name": "",
          "type": "bool"
        }
      ],
      "stateMutability": "view",
      "type": "function"
    },
    {
      "inputs": [
        {
          "internalType": "uint256",
          "name": "",
          "type": "uint256"
        }
      ],
      "name": "items",
      "outputs": [
        {
          "internalType": "address",
          "name": "owner",
          "type": "address"
        },
        {
          "internalType": "address",
          "name": "seller",
          "type": "address"
        },
        {
          "internalType": "bool",
          "name": "sold",
          "type": "bool"
        },
        {
          "internalType": "uint256",
          "name": "price",
          "type": "uint256"
        }
      ],
      "stateMutability": "view",
      "type": "function"
    },
    {
      "inputs": [],
      "name": "name",
      "outputs": [
        {
          "internalType": "string",
          "name": "",
          "type": "string"
        }
      ],
      "stateMutability": "view",
      "type": "function"
    },
    {
      "inputs": [
        {
          "internalType": "uint256",
          "name": "tokenId",
          "type": "uint256"
        }
      ],
      "name": "ownerOf",
      "outputs": [
        {
          "internalType": "address",
          "name": "",
          "type": "address"
        }
      ],
      "stateMutability": "view",
      "type": "function"
    },
    {
      "inputs": [
        {
          "internalType": "uint256",
          "name": "tokenId",
          "type": "uint256"
        }
      ],
      "name": "placeBid",
      "outputs": [],
      "stateMutability": "payable",
      "type": "function"
    },
    {
      "inputs": [
        {
          "internalType": "uint256",
          "name": "tokenId",
          "type": "uint256"
        },
        {
          "internalType": "uint256",
          "name": "price",
          "type": "uint256"
        }
      ],
      "name": "resellToken",
      "outputs": [],
      "stateMutability": "payable",
      "type": "function"
    },
    {
      "inputs": [
        {
          "internalType": "address",
          "name": "from",
          "type": "address"
        },
        {
          "internalType": "address",
          "name": "to",
          "type": "address"
        },
        {
          "internalType": "uint256",
          "name": "tokenId",
          "type": "uint256"
        }
      ],
      "name": "safeTransferFrom",
      "outputs": [],
      "stateMutability": "nonpayable",
      "type": "function"
    },
    {
      "inputs": [
        {
          "internalType": "address",
          "name": "from",
          "type": "address"
        },
        {
          "internalType": "address",
          "name": "to",
          "type": "address"
        },
        {
          "internalType": "uint256",
          "name": "tokenId",
          "type": "uint256"
        },
        {
          "internalType": "bytes",
          "name": "data",
          "type": "bytes"
        }
      ],
      "name": "safeTransferFrom",
      "outputs": [],
      "stateMutability": "nonpayable",
      "type": "function"
    },
    {
      "inputs": [
        {
          "internalType": "address",
          "name": "operator",
          "type": "address"
        },
        {
          "internalType": "bool",
          "name": "approved",
          "type": "bool"
        }
      ],
      "name": "setApprovalForAll",
      "outputs": [],
      "stateMutability": "nonpayable",
      "type": "function"
    },
    {
      "inputs": [
        {
          "internalType": "uint256",
          "name": "tokenId",
          "type": "uint256"
        },
        {
          "internalType": "uint256",
          "name": "startingBid",
          "type": "uint256"
        },
        {
          "internalType": "uint256",
          "name": "duration",
          "type": "uint256"
        },
        {
          "internalType": "string",
          "name": "url",
          "type": "string"
        }
      ],
      "name": "startAuction",
      "outputs": [],
      "stateMutability": "nonpayable",
      "type": "function"
    },
    {
      "inputs": [
        {
          "internalType": "bytes4",
          "name": "interfaceId",
          "type": "bytes4"
        }
      ],
      "name": "supportsInterface",
      "outputs": [
        {
          "internalType": "bool",
          "name": "",
          "type": "bool"
        }
      ],
      "stateMutability": "view",
      "type": "function"
    },
    {
      "inputs": [],
      "name": "symbol",
      "outputs": [
        {
          "internalType": "string",
          "name": "",
          "type": "string"
        }
      ],
      "stateMutability": "view",
      "type": "function"
    },
    {
      "inputs": [
        {
          "internalType": "uint256",
          "name": "tokenId",
          "type": "uint256"
        }
      ],
      "name": "tokenURI",
      "outputs": [
        {
          "internalType": "string",
          "name": "",
          "type": "string"
        }
      ],
      "stateMutability": "view",
      "type": "function"
    },
    {
      "inputs": [
        {
          "internalType": "address",
          "name": "add1",
          "type": "address"
        },
        {
          "internalType": "uint256",
          "name": "token1",
          "type": "uint256"
        },
        {
          "internalType": "address",
          "name": "add2",
          "type": "address"
        },
        {
          "internalType": "uint256",
          "name": "token2",
          "type": "uint256"
        }
      ],
      "name": "tradeNFT",
      "outputs": [],
      "stateMutability": "nonpayable",
      "type": "function"
    },
    {
      "inputs": [
        {
          "internalType": "address",
          "name": "from",
          "type": "address"
        },
        {
          "internalType": "address",
          "name": "to",
          "type": "address"
        },
        {
          "internalType": "uint256",
          "name": "tokenId",
          "type": "uint256"
        }
      ],
      "name": "transferFrom",
      "outputs": [],
      "stateMutability": "nonpayable",
      "type": "function"
    },
    {
      "inputs": [
        {
          "internalType": "uint256",
          "name": "tokenId",
          "type": "uint256"
        },
        {
          "internalType": "address",
          "name": "sender",
          "type": "address"
        },
        {
          "internalType": "address",
          "name": "recvAdd",
          "type": "address"
        }
      ],
      "name": "transferNFT",
      "outputs": [],
      "stateMutability": "nonpayable",
      "type": "function"
    },
    {
      "inputs": [
        {
          "internalType": "uint256",
          "name": "_listingPrice",
          "type": "uint256"
        }
      ],
      "name": "updateListingPrice",
      "outputs": [],
      "stateMutability": "payable",
      "type": "function"
    }
  ],
  "bytecode": "0x60806040526658d15e1762800060095534801561001b57600080fd5b506040518060400160405280601081526020017f4d657461766572736520546f6b656e73000000000000000000000000000000008152506040518060400160405280600481526020017f4d4554540000000000000000000000000000000000000000000000000000000081525081600090816100979190610340565b5080600190816100a79190610340565b50505033600a60006101000a81548173ffffffffffffffffffffffffffffffffffffffff021916908373ffffffffffffffffffffffffffffffffffffffff160217905550610412565b600081519050919050565b7f4e487b7100000000000000000000000000000000000000000000000000000000600052604160045260246000fd5b7f4e487b7100000000000000000000000000000000000000000000000000000000600052602260045260246000fd5b6000600282049050600182168061017157607f821691505b6020821081036101845761018361012a565b5b50919050565b60008190508160005260206000209050919050565b60006020601f8301049050919050565b600082821b905092915050565b6000600883026101ec7fffffffffffffffffffffffffffffffffffffffffffffffffffffffffffffffff826101af565b6101f686836101af565b95508019841693508086168417925050509392505050565b6000819050919050565b6000819050919050565b600061023d6102386102338461020e565b610218565b61020e565b9050919050565b6000819050919050565b61025783610222565b61026b61026382610244565b8484546101bc565b825550505050565b600090565b610280610273565b61028b81848461024e565b505050565b5b818110156102af576102a4600082610278565b600181019050610291565b5050565b601f8211156102f4576102c58161018a565b6102ce8461019f565b810160208510156102dd578190505b6102f16102e98561019f565b830182610290565b50505b505050565b600082821c905092915050565b6000610317600019846008026102f9565b1980831691505092915050565b60006103308383610306565b9150826002028217905092915050565b610349826100f0565b67ffffffffffffffff811115610362576103616100fb565b5b61036c8254610159565b6103778282856102b3565b600060209050601f8311600181146103aa5760008415610398578287015190505b6103a28582610324565b86555061040a565b601f1984166103b88661018a565b60005b828110156103e0578489015182556001820191506020850194506020810190506103bb565b868310156103fd57848901516103f9601f891682610306565b8355505b6001600288020188555050505b505050505050565b6157dd806104216000396000f3fe6080604052600436106101c25760003560e01c80636352211e116100f7578063ae677aa311610095578063bfb231d211610064578063bfb231d21461061e578063c87b56dd1461065e578063e219fc751461069b578063e985e9c5146106b7576101c2565b8063ae677aa314610594578063b88d4fde146105b0578063b9a2de3a146105d9578063be9af53614610602576101c2565b806372b3b620116100d157806372b3b620146104f457806395d89b41146105245780639979ef451461054f578063a22cb4651461056b576101c2565b80636352211e14610451578063680ed24f1461048e57806370a08231146104b7576101c2565b8063202e37401161016457806339ef8e871161013e57806339ef8e871461039457806342842e0e146103bd57806345f8fa80146103e6578063571a26a014610411576101c2565b8063202e37401461031757806323b872dd146103425780632aafe1321461036b576101c2565b8063095ea7b3116101a0578063095ea7b31461026c5780630f08efe01461029557806312e85585146102c05780631b2fcf48146102eb576101c2565b806301ffc9a7146101c757806306fdde0314610204578063081812fc1461022f575b600080fd5b3480156101d357600080fd5b506101ee60048036038101906101e99190613b51565b6106f4565b6040516101fb9190613b99565b60405180910390f35b34801561021057600080fd5b50610219610755565b6040516102269190613c44565b60405180910390f35b34801561023b57600080fd5b5061025660048036038101906102519190613c9c565b6107e7565b6040516102639190613d0a565b60405180910390f35b34801561027857600080fd5b50610293600480360381019061028e9190613d51565b61082d565b005b3480156102a157600080fd5b506102aa610944565b6040516102b79190613ee7565b60405180910390f35b3480156102cc57600080fd5b506102d5610ba6565b6040516102e29190613f18565b60405180910390f35b3480156102f757600080fd5b50610300610bb0565b60405161030e9291906140a2565b60405180910390f35b34801561032357600080fd5b5061032c610f77565b6040516103399190613ee7565b60405180910390f35b34801561034e57600080fd5b50610369600480360381019061036491906140d9565b611257565b005b34801561037757600080fd5b50610392600480360381019061038d919061412c565b6112b7565b005b3480156103a057600080fd5b506103bb60048036038101906103b6919061417f565b6113ab565b005b3480156103c957600080fd5b506103e460048036038101906103df91906140d9565b61157b565b005b3480156103f257600080fd5b506103fb61159b565b6040516104089190613ee7565b60405180910390f35b34801561041d57600080fd5b5061043860048036038101906104339190613c9c565b61187b565b60405161044894939291906141f5565b60405180910390f35b34801561045d57600080fd5b5061047860048036038101906104739190613c9c565b611953565b6040516104859190613d0a565b60405180910390f35b34801561049a57600080fd5b506104b560048036038101906104b091906142a6565b6119d9565b005b3480156104c357600080fd5b506104de60048036038101906104d9919061432e565b611b52565b6040516104eb9190613f18565b60405180910390f35b61050e6004803603810190610509919061448b565b611c09565b60405161051b9190613f18565b60405180910390f35b34801561053057600080fd5b50610539611c4b565b6040516105469190613c44565b60405180910390f35b61056960048036038101906105649190613c9c565b611cdd565b005b34801561057757600080fd5b50610592600480360381019061058d9190614513565b611dd0565b005b6105ae60048036038101906105a99190613c9c565b611de6565b005b3480156105bc57600080fd5b506105d760048036038101906105d291906145f4565b611e80565b005b3480156105e557600080fd5b5061060060048036038101906105fb9190613c9c565b611ee2565b005b61061c60048036038101906106179190613c9c565b6121d7565b005b34801561062a57600080fd5b5061064560048036038101906106409190613c9c565b61240f565b6040516106559493929190614677565b60405180910390f35b34801561066a57600080fd5b5061068560048036038101906106809190613c9c565b61248c565b6040516106929190613c44565b60405180910390f35b6106b560048036038101906106b091906146bc565b61259e565b005b3480156106c357600080fd5b506106de60048036038101906106d991906146fc565b612793565b6040516106eb9190613b99565b60405180910390f35b6000634906490660e01b7bffffffffffffffffffffffffffffffffffffffffffffffffffffffff1916827bffffffffffffffffffffffffffffffffffffffffffffffffffffffff1916148061074e575061074d82612827565b5b9050919050565b6060600080546107649061476b565b80601f01602080910402602001604051908101604052809291908181526020018280546107909061476b565b80156107dd5780601f106107b2576101008083540402835291602001916107dd565b820191906000526020600020905b8154815290600101906020018083116107c057829003601f168201915b5050505050905090565b60006107f282612909565b6004600083815260200190815260200160002060009054906101000a900473ffffffffffffffffffffffffffffffffffffffff169050919050565b600061083882611953565b90508073ffffffffffffffffffffffffffffffffffffffff168373ffffffffffffffffffffffffffffffffffffffff16036108a8576040517f08c379a000000000000000000000000000000000000000000000000000000000815260040161089f9061480e565b60405180910390fd5b8073ffffffffffffffffffffffffffffffffffffffff166108c7612954565b73ffffffffffffffffffffffffffffffffffffffff1614806108f657506108f5816108f0612954565b612793565b5b610935576040517f08c379a000000000000000000000000000000000000000000000000000000000815260040161092c906148a0565b60405180910390fd5b61093f838361295c565b505050565b606060006109526007612a15565b905060006109606008612a15565b61096a6007612a15565b61097491906148ef565b90506000808267ffffffffffffffff81111561099357610992614360565b5b6040519080825280602002602001820160405280156109cc57816020015b6109b96139ed565b8152602001906001900390816109b15790505b50905060005b84811015610b9b573073ffffffffffffffffffffffffffffffffffffffff16600b6000600184610a029190614923565b815260200190815260200160002060020160009054906101000a900473ffffffffffffffffffffffffffffffffffffffff1673ffffffffffffffffffffffffffffffffffffffff1603610b8e576000600182610a5e9190614923565b90506000600b60008381526020019081526020016000209050806040518060a0016040529081600082015481526020016001820160009054906101000a900473ffffffffffffffffffffffffffffffffffffffff1673ffffffffffffffffffffffffffffffffffffffff1673ffffffffffffffffffffffffffffffffffffffff1681526020016002820160009054906101000a900473ffffffffffffffffffffffffffffffffffffffff1673ffffffffffffffffffffffffffffffffffffffff1673ffffffffffffffffffffffffffffffffffffffff168152602001600382015481526020016004820160009054906101000a900460ff161515151581525050848681518110610b7157610b70614957565b5b6020026020010181905250600185610b899190614923565b945050505b80806001019150506109d2565b508094505050505090565b6000600954905090565b6060806000610bbf6007612a15565b90506000805b82811015610c1a576000600182610bdc9190614923565b905042600c6000838152602001908152602001600020600001541115610c0c57600183610c099190614923565b92505b508080600101915050610bc5565b5060008167ffffffffffffffff811115610c3757610c36614360565b5b604051908082528060200260200182016040528015610c7057816020015b610c5d6139ed565b815260200190600190039081610c555790505b50905060008267ffffffffffffffff811115610c8f57610c8e614360565b5b604051908082528060200260200182016040528015610cc857816020015b610cb5613a4a565b815260200190600190039081610cad5790505b5090506000805b85811015610f67576000600182610ce69190614923565b90506000600c600083815260200190815260200160002090504281600001541115610f5857600b60008381526020019081526020016000206040518060a0016040529081600082015481526020016001820160009054906101000a900473ffffffffffffffffffffffffffffffffffffffff1673ffffffffffffffffffffffffffffffffffffffff1673ffffffffffffffffffffffffffffffffffffffff1681526020016002820160009054906101000a900473ffffffffffffffffffffffffffffffffffffffff1673ffffffffffffffffffffffffffffffffffffffff1673ffffffffffffffffffffffffffffffffffffffff168152602001600382015481526020016004820160009054906101000a900460ff161515151581525050868581518110610e1757610e16614957565b5b60200260200101819052508060405180608001604052908160008201548152602001600182015481526020016002820160009054906101000a900473ffffffffffffffffffffffffffffffffffffffff1673ffffffffffffffffffffffffffffffffffffffff1673ffffffffffffffffffffffffffffffffffffffff168152602001600382018054610ea89061476b565b80601f0160208091040260200160405190810160405280929190818152602001828054610ed49061476b565b8015610f215780601f10610ef657610100808354040283529160200191610f21565b820191906000526020600020905b815481529060010190602001808311610f0457829003601f168201915b505050505081525050858581518110610f3d57610f3c614957565b5b6020026020010181905250600184610f559190614923565b93505b50508080600101915050610ccf565b5082829650965050505050509091565b60606000610f856007612a15565b905060008060005b83811015611027573373ffffffffffffffffffffffffffffffffffffffff16600b6000600184610fbd9190614923565b815260200190815260200160002060020160009054906101000a900473ffffffffffffffffffffffffffffffffffffffff1673ffffffffffffffffffffffffffffffffffffffff160361101a576001836110179190614923565b92505b8080600101915050610f8d565b5060008267ffffffffffffffff81111561104457611043614360565b5b60405190808252806020026020018201604052801561107d57816020015b61106a6139ed565b8152602001906001900390816110625790505b50905060005b8481101561124c573373ffffffffffffffffffffffffffffffffffffffff16600b60006001846110b39190614923565b815260200190815260200160002060020160009054906101000a900473ffffffffffffffffffffffffffffffffffffffff1673ffffffffffffffffffffffffffffffffffffffff160361123f57600060018261110f9190614923565b90506000600b60008381526020019081526020016000209050806040518060a0016040529081600082015481526020016001820160009054906101000a900473ffffffffffffffffffffffffffffffffffffffff1673ffffffffffffffffffffffffffffffffffffffff1673ffffffffffffffffffffffffffffffffffffffff1681526020016002820160009054906101000a900473ffffffffffffffffffffffffffffffffffffffff1673ffffffffffffffffffffffffffffffffffffffff1673ffffffffffffffffffffffffffffffffffffffff168152602001600382015481526020016004820160009054906101000a900460ff16151515158152505084868151811061122257611221614957565b5b602002602001018190525060018561123a9190614923565b945050505b8080600101915050611083565b508094505050505090565b611268611262612954565b82612a23565b6112a7576040517f08c379a000000000000000000000000000000000000000000000000000000000815260040161129e906149f8565b60405180910390fd5b6112b2838383612ab8565b505050565b80600b600085815260200190815260200160002060020160006101000a81548173ffffffffffffffffffffffffffffffffffffffff021916908373ffffffffffffffffffffffffffffffffffffffff1602179055506001600b600085815260200190815260200160002060040160006101000a81548160ff0219169083151502179055506000600b600085815260200190815260200160002060010160006101000a81548173ffffffffffffffffffffffffffffffffffffffff021916908373ffffffffffffffffffffffffffffffffffffffff16021790555061139b6008612db1565b6113a6828285612ab8565b505050565b81600b600085815260200190815260200160002060020160006101000a81548173ffffffffffffffffffffffffffffffffffffffff021916908373ffffffffffffffffffffffffffffffffffffffff1602179055506001600b600085815260200190815260200160002060040160006101000a81548160ff0219169083151502179055506000600b600085815260200190815260200160002060010160006101000a81548173ffffffffffffffffffffffffffffffffffffffff021916908373ffffffffffffffffffffffffffffffffffffffff160217905550611490848385612ab8565b83600b600083815260200190815260200160002060020160006101000a81548173ffffffffffffffffffffffffffffffffffffffff021916908373ffffffffffffffffffffffffffffffffffffffff1602179055506001600b600083815260200190815260200160002060040160006101000a81548160ff0219169083151502179055506000600b600083815260200190815260200160002060010160006101000a81548173ffffffffffffffffffffffffffffffffffffffff021916908373ffffffffffffffffffffffffffffffffffffffff160217905550611575828583612ab8565b50505050565b61159683838360405180602001604052806000815250611e80565b505050565b606060006115a96007612a15565b905060008060005b8381101561164b573373ffffffffffffffffffffffffffffffffffffffff16600b60006001846115e19190614923565b815260200190815260200160002060010160009054906101000a900473ffffffffffffffffffffffffffffffffffffffff1673ffffffffffffffffffffffffffffffffffffffff160361163e5760018361163b9190614923565b92505b80806001019150506115b1565b5060008267ffffffffffffffff81111561166857611667614360565b5b6040519080825280602002602001820160405280156116a157816020015b61168e6139ed565b8152602001906001900390816116865790505b50905060005b84811015611870573373ffffffffffffffffffffffffffffffffffffffff16600b60006001846116d79190614923565b815260200190815260200160002060010160009054906101000a900473ffffffffffffffffffffffffffffffffffffffff1673ffffffffffffffffffffffffffffffffffffffff16036118635760006001826117339190614923565b90506000600b60008381526020019081526020016000209050806040518060a0016040529081600082015481526020016001820160009054906101000a900473ffffffffffffffffffffffffffffffffffffffff1673ffffffffffffffffffffffffffffffffffffffff1673ffffffffffffffffffffffffffffffffffffffff1681526020016002820160009054906101000a900473ffffffffffffffffffffffffffffffffffffffff1673ffffffffffffffffffffffffffffffffffffffff1673ffffffffffffffffffffffffffffffffffffffff168152602001600382015481526020016004820160009054906101000a900460ff16151515158152505084868151811061184657611845614957565b5b602002602001018190525060018561185e9190614923565b945050505b80806001019150506116a7565b508094505050505090565b600c6020528060005260406000206000915090508060000154908060010154908060020160009054906101000a900473ffffffffffffffffffffffffffffffffffffffff16908060030180546118d09061476b565b80601f01602080910402602001604051908101604052809291908181526020018280546118fc9061476b565b80156119495780601f1061191e57610100808354040283529160200191611949565b820191906000526020600020905b81548152906001019060200180831161192c57829003601f168201915b5050505050905084565b60008061195f83612dc7565b9050600073ffffffffffffffffffffffffffffffffffffffff168173ffffffffffffffffffffffffffffffffffffffff16036119d0576040517f08c379a00000000000000000000000000000000000000000000000000000000081526004016119c790614a64565b60405180910390fd5b80915050919050565b600d600086815260200190815260200160002060010160149054906101000a900460ff1615611a3d576040517f08c379a0000000000000000000000000000000000000000000000000000000008152600401611a3490614ad0565b60405180910390fd5b60405180608001604052808442611a549190614923565b8152602001858152602001600073ffffffffffffffffffffffffffffffffffffffff16815260200183838080601f016020809104026020016040519081016040528093929190818152602001838380828437600081840152601f19601f82011690508083019250505050505050815250600c6000878152602001908152602001600020600082015181600001556020820151816001015560408201518160020160006101000a81548173ffffffffffffffffffffffffffffffffffffffff021916908373ffffffffffffffffffffffffffffffffffffffff1602179055506060820151816003019081611b479190614c9c565b509050505050505050565b60008073ffffffffffffffffffffffffffffffffffffffff168273ffffffffffffffffffffffffffffffffffffffff1603611bc2576040517f08c379a0000000000000000000000000000000000000000000000000000000008152600401611bb990614de0565b60405180910390fd5b600360008373ffffffffffffffffffffffffffffffffffffffff1673ffffffffffffffffffffffffffffffffffffffff168152602001908152602001600020549050919050565b6000611c156007612db1565b6000611c216007612a15565b9050611c2d3382612e04565b611c378185613021565b611c4181846130c5565b8091505092915050565b606060018054611c5a9061476b565b80601f0160208091040260200160405190810160405280929190818152602001828054611c869061476b565b8015611cd35780601f10611ca857610100808354040283529160200191611cd3565b820191906000526020600020905b815481529060010190602001808311611cb657829003601f168201915b5050505050905090565b6000600c6000838152602001908152602001600020905080600001544210611d3a576040517f08c379a0000000000000000000000000000000000000000000000000000000008152600401611d3190614e4c565b60405180910390fd5b80600101543411611d80576040517f08c379a0000000000000000000000000000000000000000000000000000000008152600401611d7790614eb8565b60405180910390fd5b348160010181905550338160020160006101000a81548173ffffffffffffffffffffffffffffffffffffffff021916908373ffffffffffffffffffffffffffffffffffffffff1602179055505050565b611de2611ddb612954565b83836132c8565b5050565b3373ffffffffffffffffffffffffffffffffffffffff16600a60009054906101000a900473ffffffffffffffffffffffffffffffffffffffff1673ffffffffffffffffffffffffffffffffffffffff1614611e76576040517f08c379a0000000000000000000000000000000000000000000000000000000008152600401611e6d90614f4a565b60405180910390fd5b8060098190555050565b611e91611e8b612954565b83612a23565b611ed0576040517f08c379a0000000000000000000000000000000000000000000000000000000008152600401611ec7906149f8565b60405180910390fd5b611edc84848484613434565b50505050565b6000600c60008381526020019081526020016000209050600081600101549050600b600084815260200190815260200160002060040160009054906101000a900460ff1615611f66576040517f08c379a0000000000000000000000000000000000000000000000000000000008152600401611f5d90614fb6565b60405180910390fd5b6000600b600085815260200190815260200160002060010160009054906101000a900473ffffffffffffffffffffffffffffffffffffffff169050600b600085815260200190815260200160002060010160009054906101000a900473ffffffffffffffffffffffffffffffffffffffff1673ffffffffffffffffffffffffffffffffffffffff166108fc84600101549081150290604051600060405180830381858888f19350505050158015612021573d6000803e3d6000fd5b508260020160009054906101000a900473ffffffffffffffffffffffffffffffffffffffff16600b600086815260200190815260200160002060020160006101000a81548173ffffffffffffffffffffffffffffffffffffffff021916908373ffffffffffffffffffffffffffffffffffffffff1602179055506001600b600086815260200190815260200160002060040160006101000a81548160ff0219169083151502179055506000600b600086815260200190815260200160002060010160006101000a81548173ffffffffffffffffffffffffffffffffffffffff021916908373ffffffffffffffffffffffffffffffffffffffff16021790555081600b6000868152602001908152602001600020600301819055506121456008612db1565b612174308460020160009054906101000a900473ffffffffffffffffffffffffffffffffffffffff1686612ab8565b600c600085815260200190815260200160002060008082016000905560018201600090556002820160006101000a81549073ffffffffffffffffffffffffffffffffffffffff02191690556003820160006121cf9190613a88565b505050505050565b6000600b6000838152602001908152602001600020600301549050803414612234576040517f08c379a000000000000000000000000000000000000000000000000000000000815260040161222b90615048565b60405180910390fd5b600a60009054906101000a900473ffffffffffffffffffffffffffffffffffffffff1673ffffffffffffffffffffffffffffffffffffffff166108fc6009549081150290604051600060405180830381858888f1935050505015801561229e573d6000803e3d6000fd5b50600b600083815260200190815260200160002060010160009054906101000a900473ffffffffffffffffffffffffffffffffffffffff1673ffffffffffffffffffffffffffffffffffffffff166108fc349081150290604051600060405180830381858888f1935050505015801561231b573d6000803e3d6000fd5b5033600b600084815260200190815260200160002060020160006101000a81548173ffffffffffffffffffffffffffffffffffffffff021916908373ffffffffffffffffffffffffffffffffffffffff1602179055506001600b600084815260200190815260200160002060040160006101000a81548160ff0219169083151502179055506000600b600084815260200190815260200160002060010160006101000a81548173ffffffffffffffffffffffffffffffffffffffff021916908373ffffffffffffffffffffffffffffffffffffffff1602179055506124006008612db1565b61240b303384612ab8565b5050565b600d6020528060005260406000206000915090508060000160009054906101000a900473ffffffffffffffffffffffffffffffffffffffff16908060010160009054906101000a900473ffffffffffffffffffffffffffffffffffffffff16908060010160149054906101000a900460ff16908060020154905084565b606061249782612909565b60006006600084815260200190815260200160002080546124b79061476b565b80601f01602080910402602001604051908101604052809291908181526020018280546124e39061476b565b80156125305780601f1061250557610100808354040283529160200191612530565b820191906000526020600020905b81548152906001019060200180831161251357829003601f168201915b505050505090506000612541613490565b90506000815103612556578192505050612599565b60008251111561258b5780826040516020016125739291906150a4565b60405160208183030381529060405292505050612599565b612594846134a7565b925050505b919050565b3373ffffffffffffffffffffffffffffffffffffffff16600b600084815260200190815260200160002060020160009054906101000a900473ffffffffffffffffffffffffffffffffffffffff1673ffffffffffffffffffffffffffffffffffffffff1614612642576040517f08c379a00000000000000000000000000000000000000000000000000000000081526004016126399061513a565b60405180910390fd5b6009543414612686576040517f08c379a000000000000000000000000000000000000000000000000000000000815260040161267d906151cc565b60405180910390fd5b6000600b600084815260200190815260200160002060040160006101000a81548160ff02191690831515021790555080600b60008481526020019081526020016000206003018190555033600b600084815260200190815260200160002060010160006101000a81548173ffffffffffffffffffffffffffffffffffffffff021916908373ffffffffffffffffffffffffffffffffffffffff16021790555030600b600084815260200190815260200160002060020160006101000a81548173ffffffffffffffffffffffffffffffffffffffff021916908373ffffffffffffffffffffffffffffffffffffffff160217905550612784600861350f565b61278f333084612ab8565b5050565b6000600560008473ffffffffffffffffffffffffffffffffffffffff1673ffffffffffffffffffffffffffffffffffffffff16815260200190815260200160002060008373ffffffffffffffffffffffffffffffffffffffff1673ffffffffffffffffffffffffffffffffffffffff16815260200190815260200160002060009054906101000a900460ff16905092915050565b60007f80ac58cd000000000000000000000000000000000000000000000000000000007bffffffffffffffffffffffffffffffffffffffffffffffffffffffff1916827bffffffffffffffffffffffffffffffffffffffffffffffffffffffff191614806128f257507f5b5e139f000000000000000000000000000000000000000000000000000000007bffffffffffffffffffffffffffffffffffffffffffffffffffffffff1916827bffffffffffffffffffffffffffffffffffffffffffffffffffffffff1916145b8061290257506129018261356b565b5b9050919050565b612912816135d5565b612951576040517f08c379a000000000000000000000000000000000000000000000000000000000815260040161294890614a64565b60405180910390fd5b50565b600033905090565b816004600083815260200190815260200160002060006101000a81548173ffffffffffffffffffffffffffffffffffffffff021916908373ffffffffffffffffffffffffffffffffffffffff160217905550808273ffffffffffffffffffffffffffffffffffffffff166129cf83611953565b73ffffffffffffffffffffffffffffffffffffffff167f8c5be1e5ebec7d5bd14f71427d1e84f3dd0314c0f7b2291e5b200ac8c7c3b92560405160405180910390a45050565b600081600001549050919050565b600080612a2f83611953565b90508073ffffffffffffffffffffffffffffffffffffffff168473ffffffffffffffffffffffffffffffffffffffff161480612a715750612a708185612793565b5b80612aaf57508373ffffffffffffffffffffffffffffffffffffffff16612a97846107e7565b73ffffffffffffffffffffffffffffffffffffffff16145b91505092915050565b8273ffffffffffffffffffffffffffffffffffffffff16612ad882611953565b73ffffffffffffffffffffffffffffffffffffffff1614612b2e576040517f08c379a0000000000000000000000000000000000000000000000000000000008152600401612b259061525e565b60405180910390fd5b600073ffffffffffffffffffffffffffffffffffffffff168273ffffffffffffffffffffffffffffffffffffffff1603612b9d576040517f08c379a0000000000000000000000000000000000000000000000000000000008152600401612b94906152f0565b60405180910390fd5b612baa8383836001613616565b8273ffffffffffffffffffffffffffffffffffffffff16612bca82611953565b73ffffffffffffffffffffffffffffffffffffffff1614612c20576040517f08c379a0000000000000000000000000000000000000000000000000000000008152600401612c179061525e565b60405180910390fd5b6004600082815260200190815260200160002060006101000a81549073ffffffffffffffffffffffffffffffffffffffff02191690556001600360008573ffffffffffffffffffffffffffffffffffffffff1673ffffffffffffffffffffffffffffffffffffffff168152602001908152602001600020600082825403925050819055506001600360008473ffffffffffffffffffffffffffffffffffffffff1673ffffffffffffffffffffffffffffffffffffffff16815260200190815260200160002060008282540192505081905550816002600083815260200190815260200160002060006101000a81548173ffffffffffffffffffffffffffffffffffffffff021916908373ffffffffffffffffffffffffffffffffffffffff160217905550808273ffffffffffffffffffffffffffffffffffffffff168473ffffffffffffffffffffffffffffffffffffffff167fddf252ad1be2c89b69c2b068fc378daa952ba7f163c4a11628f55a4df523b3ef60405160405180910390a4612dac838383600161361c565b505050565b6001816000016000828254019250508190555050565b60006002600083815260200190815260200160002060009054906101000a900473ffffffffffffffffffffffffffffffffffffffff169050919050565b600073ffffffffffffffffffffffffffffffffffffffff168273ffffffffffffffffffffffffffffffffffffffff1603612e73576040517f08c379a0000000000000000000000000000000000000000000000000000000008152600401612e6a9061535c565b60405180910390fd5b612e7c816135d5565b15612ebc576040517f08c379a0000000000000000000000000000000000000000000000000000000008152600401612eb3906153c8565b60405180910390fd5b612eca600083836001613616565b612ed3816135d5565b15612f13576040517f08c379a0000000000000000000000000000000000000000000000000000000008152600401612f0a906153c8565b60405180910390fd5b6001600360008473ffffffffffffffffffffffffffffffffffffffff1673ffffffffffffffffffffffffffffffffffffffff16815260200190815260200160002060008282540192505081905550816002600083815260200190815260200160002060006101000a81548173ffffffffffffffffffffffffffffffffffffffff021916908373ffffffffffffffffffffffffffffffffffffffff160217905550808273ffffffffffffffffffffffffffffffffffffffff16600073ffffffffffffffffffffffffffffffffffffffff167fddf252ad1be2c89b69c2b068fc378daa952ba7f163c4a11628f55a4df523b3ef60405160405180910390a461301d60008383600161361c565b5050565b61302a826135d5565b613069576040517f08c379a00000000000000000000000000000000000000000000000000000000081526004016130609061545a565b60405180910390fd5b806006600084815260200190815260200160002090816130899190614c9c565b507ff8e1a15aba9398e019f0b49df1a4fde98ee17ae345cb5f6b5e2c27f5033e8ce7826040516130b99190613f18565b60405180910390a15050565b60008111613108576040517f08c379a00000000000000000000000000000000000000000000000000000000081526004016130ff906154c6565b60405180910390fd5b600954341461314c576040517f08c379a0000000000000000000000000000000000000000000000000000000008152600401613143906151cc565b60405180910390fd5b6040518060a001604052808381526020013373ffffffffffffffffffffffffffffffffffffffff1681526020013073ffffffffffffffffffffffffffffffffffffffff16815260200182815260200160001515815250600b60008481526020019081526020016000206000820151816000015560208201518160010160006101000a81548173ffffffffffffffffffffffffffffffffffffffff021916908373ffffffffffffffffffffffffffffffffffffffff16021790555060408201518160020160006101000a81548173ffffffffffffffffffffffffffffffffffffffff021916908373ffffffffffffffffffffffffffffffffffffffff1602179055506060820151816003015560808201518160040160006101000a81548160ff021916908315150217905550905050613285333084612ab8565b817fb640004f1d14576d0c209e240cad0410e0d8c0c33a09375861fbadae2588a98d33308460006040516132bc94939291906154e6565b60405180910390a25050565b8173ffffffffffffffffffffffffffffffffffffffff168373ffffffffffffffffffffffffffffffffffffffff1603613336576040517f08c379a000000000000000000000000000000000000000000000000000000000815260040161332d90615577565b60405180910390fd5b80600560008573ffffffffffffffffffffffffffffffffffffffff1673ffffffffffffffffffffffffffffffffffffffff16815260200190815260200160002060008473ffffffffffffffffffffffffffffffffffffffff1673ffffffffffffffffffffffffffffffffffffffff16815260200190815260200160002060006101000a81548160ff0219169083151502179055508173ffffffffffffffffffffffffffffffffffffffff168373ffffffffffffffffffffffffffffffffffffffff167f17307eab39ab6107e8899845ad3d59bd9653f200f220920489ca2b5937696c31836040516134279190613b99565b60405180910390a3505050565b61343f848484612ab8565b61344b84848484613622565b61348a576040517f08c379a000000000000000000000000000000000000000000000000000000000815260040161348190615609565b60405180910390fd5b50505050565b606060405180602001604052806000815250905090565b60606134b282612909565b60006134bc613490565b905060008151116134dc5760405180602001604052806000815250613507565b806134e6846137a9565b6040516020016134f79291906150a4565b6040516020818303038152906040525b915050919050565b6000816000015490506000811161355b576040517f08c379a000000000000000000000000000000000000000000000000000000000815260040161355290615675565b60405180910390fd5b6001810382600001819055505050565b60007f01ffc9a7000000000000000000000000000000000000000000000000000000007bffffffffffffffffffffffffffffffffffffffffffffffffffffffff1916827bffffffffffffffffffffffffffffffffffffffffffffffffffffffff1916149050919050565b60008073ffffffffffffffffffffffffffffffffffffffff166135f783612dc7565b73ffffffffffffffffffffffffffffffffffffffff1614159050919050565b50505050565b50505050565b60006136438473ffffffffffffffffffffffffffffffffffffffff16613877565b1561379c578373ffffffffffffffffffffffffffffffffffffffff1663150b7a0261366c612954565b8786866040518563ffffffff1660e01b815260040161368e94939291906156ea565b6020604051808303816000875af19250505080156136ca57506040513d601f19601f820116820180604052508101906136c7919061574b565b60015b61374c573d80600081146136fa576040519150601f19603f3d011682016040523d82523d6000602084013e6136ff565b606091505b506000815103613744576040517f08c379a000000000000000000000000000000000000000000000000000000000815260040161373b90615609565b60405180910390fd5b805181602001fd5b63150b7a0260e01b7bffffffffffffffffffffffffffffffffffffffffffffffffffffffff1916817bffffffffffffffffffffffffffffffffffffffffffffffffffffffff1916149150506137a1565b600190505b949350505050565b6060600060016137b88461389a565b01905060008167ffffffffffffffff8111156137d7576137d6614360565b5b6040519080825280601f01601f1916602001820160405280156138095781602001600182028036833780820191505090505b509050600082602001820190505b60011561386c578080600190039150507f3031323334353637383961626364656600000000000000000000000000000000600a86061a8153600a85816138605761385f615778565b5b04945060008503613817575b819350505050919050565b6000808273ffffffffffffffffffffffffffffffffffffffff163b119050919050565b600080600090507a184f03e93ff9f4daa797ed6e38ed64bf6a1f01000000000000000083106138f8577a184f03e93ff9f4daa797ed6e38ed64bf6a1f01000000000000000083816138ee576138ed615778565b5b0492506040810190505b6d04ee2d6d415b85acef81000000008310613935576d04ee2d6d415b85acef8100000000838161392b5761392a615778565b5b0492506020810190505b662386f26fc10000831061396457662386f26fc10000838161395a57613959615778565b5b0492506010810190505b6305f5e100831061398d576305f5e100838161398357613982615778565b5b0492506008810190505b61271083106139b25761271083816139a8576139a7615778565b5b0492506004810190505b606483106139d557606483816139cb576139ca615778565b5b0492506002810190505b600a83106139e4576001810190505b80915050919050565b6040518060a0016040528060008152602001600073ffffffffffffffffffffffffffffffffffffffff168152602001600073ffffffffffffffffffffffffffffffffffffffff168152602001600081526020016000151581525090565b60405180608001604052806000815260200160008152602001600073ffffffffffffffffffffffffffffffffffffffff168152602001606081525090565b508054613a949061476b565b6000825580601f10613aa65750613ac5565b601f016020900490600052602060002090810190613ac49190613ac8565b5b50565b5b80821115613ae1576000816000905550600101613ac9565b5090565b6000604051905090565b600080fd5b600080fd5b60007fffffffff0000000000000000000000000000000000000000000000000000000082169050919050565b613b2e81613af9565b8114613b3957600080fd5b50565b600081359050613b4b81613b25565b92915050565b600060208284031215613b6757613b66613aef565b5b6000613b7584828501613b3c565b91505092915050565b60008115159050919050565b613b9381613b7e565b82525050565b6000602082019050613bae6000830184613b8a565b92915050565b600081519050919050565b600082825260208201905092915050565b60005b83811015613bee578082015181840152602081019050613bd3565b60008484015250505050565b6000601f19601f8301169050919050565b6000613c1682613bb4565b613c208185613bbf565b9350613c30818560208601613bd0565b613c3981613bfa565b840191505092915050565b60006020820190508181036000830152613c5e8184613c0b565b905092915050565b6000819050919050565b613c7981613c66565b8114613c8457600080fd5b50565b600081359050613c9681613c70565b92915050565b600060208284031215613cb257613cb1613aef565b5b6000613cc084828501613c87565b91505092915050565b600073ffffffffffffffffffffffffffffffffffffffff82169050919050565b6000613cf482613cc9565b9050919050565b613d0481613ce9565b82525050565b6000602082019050613d1f6000830184613cfb565b92915050565b613d2e81613ce9565b8114613d3957600080fd5b50565b600081359050613d4b81613d25565b92915050565b60008060408385031215613d6857613d67613aef565b5b6000613d7685828601613d3c565b9250506020613d8785828601613c87565b9150509250929050565b600081519050919050565b600082825260208201905092915050565b6000819050602082019050919050565b613dc681613c66565b82525050565b6000613dd782613cc9565b9050919050565b613de781613dcc565b82525050565b613df681613b7e565b82525050565b60a082016000820151613e126000850182613dbd565b506020820151613e256020850182613dde565b506040820151613e386040850182613dde565b506060820151613e4b6060850182613dbd565b506080820151613e5e6080850182613ded565b50505050565b6000613e708383613dfc565b60a08301905092915050565b6000602082019050919050565b6000613e9482613d91565b613e9e8185613d9c565b9350613ea983613dad565b8060005b83811015613eda578151613ec18882613e64565b9750613ecc83613e7c565b925050600181019050613ead565b5085935050505092915050565b60006020820190508181036000830152613f018184613e89565b905092915050565b613f1281613c66565b82525050565b6000602082019050613f2d6000830184613f09565b92915050565b600081519050919050565b600082825260208201905092915050565b6000819050602082019050919050565b600082825260208201905092915050565b6000613f7b82613bb4565b613f858185613f5f565b9350613f95818560208601613bd0565b613f9e81613bfa565b840191505092915050565b6000608083016000830151613fc16000860182613dbd565b506020830151613fd46020860182613dbd565b506040830151613fe76040860182613dde565b5060608301518482036060860152613fff8282613f70565b9150508091505092915050565b60006140188383613fa9565b905092915050565b6000602082019050919050565b600061403882613f33565b6140428185613f3e565b93508360208202850161405485613f4f565b8060005b858110156140905784840389528151614071858261400c565b945061407c83614020565b925060208a01995050600181019050614058565b50829750879550505050505092915050565b600060408201905081810360008301526140bc8185613e89565b905081810360208301526140d0818461402d565b90509392505050565b6000806000606084860312156140f2576140f1613aef565b5b600061410086828701613d3c565b935050602061411186828701613d3c565b925050604061412286828701613c87565b9150509250925092565b60008060006060848603121561414557614144613aef565b5b600061415386828701613c87565b935050602061416486828701613d3c565b925050604061417586828701613d3c565b9150509250925092565b6000806000806080858703121561419957614198613aef565b5b60006141a787828801613d3c565b94505060206141b887828801613c87565b93505060406141c987828801613d3c565b92505060606141da87828801613c87565b91505092959194509250565b6141ef81613dcc565b82525050565b600060808201905061420a6000830187613f09565b6142176020830186613f09565b61422460408301856141e6565b81810360608301526142368184613c0b565b905095945050505050565b600080fd5b600080fd5b600080fd5b60008083601f84011261426657614265614241565b5b8235905067ffffffffffffffff81111561428357614282614246565b5b60208301915083600182028301111561429f5761429e61424b565b5b9250929050565b6000806000806000608086880312156142c2576142c1613aef565b5b60006142d088828901613c87565b95505060206142e188828901613c87565b94505060406142f288828901613c87565b935050606086013567ffffffffffffffff81111561431357614312613af4565b5b61431f88828901614250565b92509250509295509295909350565b60006020828403121561434457614343613aef565b5b600061435284828501613d3c565b91505092915050565b600080fd5b7f4e487b7100000000000000000000000000000000000000000000000000000000600052604160045260246000fd5b61439882613bfa565b810181811067ffffffffffffffff821117156143b7576143b6614360565b5b80604052505050565b60006143ca613ae5565b90506143d6828261438f565b919050565b600067ffffffffffffffff8211156143f6576143f5614360565b5b6143ff82613bfa565b9050602081019050919050565b82818337600083830152505050565b600061442e614429846143db565b6143c0565b90508281526020810184848401111561444a5761444961435b565b5b61445584828561440c565b509392505050565b600082601f83011261447257614471614241565b5b813561448284826020860161441b565b91505092915050565b600080604083850312156144a2576144a1613aef565b5b600083013567ffffffffffffffff8111156144c0576144bf613af4565b5b6144cc8582860161445d565b92505060206144dd85828601613c87565b9150509250929050565b6144f081613b7e565b81146144fb57600080fd5b50565b60008135905061450d816144e7565b92915050565b6000806040838503121561452a57614529613aef565b5b600061453885828601613d3c565b9250506020614549858286016144fe565b9150509250929050565b600067ffffffffffffffff82111561456e5761456d614360565b5b61457782613bfa565b9050602081019050919050565b600061459761459284614553565b6143c0565b9050828152602081018484840111156145b3576145b261435b565b5b6145be84828561440c565b509392505050565b600082601f8301126145db576145da614241565b5b81356145eb848260208601614584565b91505092915050565b6000806000806080858703121561460e5761460d613aef565b5b600061461c87828801613d3c565b945050602061462d87828801613d3c565b935050604061463e87828801613c87565b925050606085013567ffffffffffffffff81111561465f5761465e613af4565b5b61466b878288016145c6565b91505092959194509250565b600060808201905061468c6000830187613cfb565b6146996020830186613cfb565b6146a66040830185613b8a565b6146b36060830184613f09565b95945050505050565b600080604083850312156146d3576146d2613aef565b5b60006146e185828601613c87565b92505060206146f285828601613c87565b9150509250929050565b6000806040838503121561471357614712613aef565b5b600061472185828601613d3c565b925050602061473285828601613d3c565b9150509250929050565b7f4e487b7100000000000000000000000000000000000000000000000000000000600052602260045260246000fd5b6000600282049050600182168061478357607f821691505b6020821081036147965761479561473c565b5b50919050565b7f4552433732313a20617070726f76616c20746f2063757272656e74206f776e6560008201527f7200000000000000000000000000000000000000000000000000000000000000602082015250565b60006147f8602183613bbf565b91506148038261479c565b604082019050919050565b60006020820190508181036000830152614827816147eb565b9050919050565b7f4552433732313a20617070726f76652063616c6c6572206973206e6f7420746f60008201527f6b656e206f776e6572206f7220617070726f76656420666f7220616c6c000000602082015250565b600061488a603d83613bbf565b91506148958261482e565b604082019050919050565b600060208201905081810360008301526148b98161487d565b9050919050565b7f4e487b7100000000000000000000000000000000000000000000000000000000600052601160045260246000fd5b60006148fa82613c66565b915061490583613c66565b925082820390508181111561491d5761491c6148c0565b5b92915050565b600061492e82613c66565b915061493983613c66565b9250828201905080821115614951576149506148c0565b5b92915050565b7f4e487b7100000000000000000000000000000000000000000000000000000000600052603260045260246000fd5b7f4552433732313a2063616c6c6572206973206e6f7420746f6b656e206f776e6560008201527f72206f7220617070726f76656400000000000000000000000000000000000000602082015250565b60006149e2602d83613bbf565b91506149ed82614986565b604082019050919050565b60006020820190508181036000830152614a11816149d5565b9050919050565b7f4552433732313a20696e76616c696420746f6b656e2049440000000000000000600082015250565b6000614a4e601883613bbf565b9150614a5982614a18565b602082019050919050565b60006020820190508181036000830152614a7d81614a41565b9050919050565b7f4974656d20616c726561647920736f6c64000000000000000000000000000000600082015250565b6000614aba601183613bbf565b9150614ac582614a84565b602082019050919050565b60006020820190508181036000830152614ae981614aad565b9050919050565b60008190508160005260206000209050919050565b60006020601f8301049050919050565b600082821b905092915050565b600060088302614b527fffffffffffffffffffffffffffffffffffffffffffffffffffffffffffffffff82614b15565b614b5c8683614b15565b95508019841693508086168417925050509392505050565b6000819050919050565b6000614b99614b94614b8f84613c66565b614b74565b613c66565b9050919050565b6000819050919050565b614bb383614b7e565b614bc7614bbf82614ba0565b848454614b22565b825550505050565b600090565b614bdc614bcf565b614be7818484614baa565b505050565b5b81811015614c0b57614c00600082614bd4565b600181019050614bed565b5050565b601f821115614c5057614c2181614af0565b614c2a84614b05565b81016020851015614c39578190505b614c4d614c4585614b05565b830182614bec565b50505b505050565b600082821c905092915050565b6000614c7360001984600802614c55565b1980831691505092915050565b6000614c8c8383614c62565b9150826002028217905092915050565b614ca582613bb4565b67ffffffffffffffff811115614cbe57614cbd614360565b5b614cc8825461476b565b614cd3828285614c0f565b600060209050601f831160018114614d065760008415614cf4578287015190505b614cfe8582614c80565b865550614d66565b601f198416614d1486614af0565b60005b82811015614d3c57848901518255600182019150602085019450602081019050614d17565b86831015614d595784890151614d55601f891682614c62565b8355505b6001600288020188555050505b505050505050565b7f4552433732313a2061646472657373207a65726f206973206e6f74206120766160008201527f6c6964206f776e65720000000000000000000000000000000000000000000000602082015250565b6000614dca602983613bbf565b9150614dd582614d6e565b604082019050919050565b60006020820190508181036000830152614df981614dbd565b9050919050565b7f41756374696f6e20656e64656400000000000000000000000000000000000000600082015250565b6000614e36600d83613bbf565b9150614e4182614e00565b602082019050919050565b60006020820190508181036000830152614e6581614e29565b9050919050565b7f546865726520616c726561647920697320612068696768657220626964000000600082015250565b6000614ea2601d83613bbf565b9150614ead82614e6c565b602082019050919050565b60006020820190508181036000830152614ed181614e95565b9050919050565b7f4f6e6c79206d61726b6574706c616365206f776e65722063616e20757064617460008201527f65206c697374696e672070726963652e00000000000000000000000000000000602082015250565b6000614f34603083613bbf565b9150614f3f82614ed8565b604082019050919050565b60006020820190508181036000830152614f6381614f27565b9050919050565b7f41756374696f6e2068617320616c726561647920656e64656400000000000000600082015250565b6000614fa0601983613bbf565b9150614fab82614f6a565b602082019050919050565b60006020820190508181036000830152614fcf81614f93565b9050919050565b7f506c65617365207375626d6974207468652061736b696e67207072696365206960008201527f6e206f7264657220746f20636f6d706c65746520746865207075726368617365602082015250565b6000615032604083613bbf565b915061503d82614fd6565b604082019050919050565b6000602082019050818103600083015261506181615025565b9050919050565b600081905092915050565b600061507e82613bb4565b6150888185615068565b9350615098818560208601613bd0565b80840191505092915050565b60006150b08285615073565b91506150bc8284615073565b91508190509392505050565b7f4f6e6c79206974656d206f776e65722063616e20706572666f726d207468697360008201527f206f7065726174696f6e00000000000000000000000000000000000000000000602082015250565b6000615124602a83613bbf565b915061512f826150c8565b604082019050919050565b6000602082019050818103600083015261515381615117565b9050919050565b7f5072696365206d75737420626520657175616c20746f206c697374696e67207060008201527f7269636500000000000000000000000000000000000000000000000000000000602082015250565b60006151b6602483613bbf565b91506151c18261515a565b604082019050919050565b600060208201905081810360008301526151e5816151a9565b9050919050565b7f4552433732313a207472616e736665722066726f6d20696e636f72726563742060008201527f6f776e6572000000000000000000000000000000000000000000000000000000602082015250565b6000615248602583613bbf565b9150615253826151ec565b604082019050919050565b600060208201905081810360008301526152778161523b565b9050919050565b7f4552433732313a207472616e7366657220746f20746865207a65726f2061646460008201527f7265737300000000000000000000000000000000000000000000000000000000602082015250565b60006152da602483613bbf565b91506152e58261527e565b604082019050919050565b60006020820190508181036000830152615309816152cd565b9050919050565b7f4552433732313a206d696e7420746f20746865207a65726f2061646472657373600082015250565b6000615346602083613bbf565b915061535182615310565b602082019050919050565b6000602082019050818103600083015261537581615339565b9050919050565b7f4552433732313a20746f6b656e20616c7265616479206d696e74656400000000600082015250565b60006153b2601c83613bbf565b91506153bd8261537c565b602082019050919050565b600060208201905081810360008301526153e1816153a5565b9050919050565b7f45524337323155524953746f726167653a2055524920736574206f66206e6f6e60008201527f6578697374656e7420746f6b656e000000000000000000000000000000000000602082015250565b6000615444602e83613bbf565b915061544f826153e8565b604082019050919050565b6000602082019050818103600083015261547381615437565b9050919050565b7f5072696365206d757374206265206174206c6561737420312077656900000000600082015250565b60006154b0601c83613bbf565b91506154bb8261547a565b602082019050919050565b600060208201905081810360008301526154df816154a3565b9050919050565b60006080820190506154fb6000830187613cfb565b6155086020830186613cfb565b6155156040830185613f09565b6155226060830184613b8a565b95945050505050565b7f4552433732313a20617070726f766520746f2063616c6c657200000000000000600082015250565b6000615561601983613bbf565b915061556c8261552b565b602082019050919050565b6000602082019050818103600083015261559081615554565b9050919050565b7f4552433732313a207472616e7366657220746f206e6f6e20455243373231526560008201527f63656976657220696d706c656d656e7465720000000000000000000000000000602082015250565b60006155f3603283613bbf565b91506155fe82615597565b604082019050919050565b60006020820190508181036000830152615622816155e6565b9050919050565b7f436f756e7465723a2064656372656d656e74206f766572666c6f770000000000600082015250565b600061565f601b83613bbf565b915061566a82615629565b602082019050919050565b6000602082019050818103600083015261568e81615652565b9050919050565b600081519050919050565b600082825260208201905092915050565b60006156bc82615695565b6156c681856156a0565b93506156d6818560208601613bd0565b6156df81613bfa565b840191505092915050565b60006080820190506156ff6000830187613cfb565b61570c6020830186613cfb565b6157196040830185613f09565b818103606083015261572b81846156b1565b905095945050505050565b60008151905061574581613b25565b92915050565b60006020828403121561576157615760613aef565b5b600061576f84828501615736565b91505092915050565b7f4e487b7100000000000000000000000000000000000000000000000000000000600052601260045260246000fdfea2646970667358221220ef2873a6884e374f85423c447f2ad78a0ab073486a6a61aa4f20a9b9d12ba78f64736f6c634300081c0033",
  "linkReferences": {},
  "deployedLinkReferences": {}
}