{
  "_format": "hh-sol-artifact-1",
  "contractName": "NFTMarketPlace",
  "sourceName": "contracts/NFTMarketPlace.sol",
  "abi": [
    {
      "inputs": [],
      "stateMutability": "nonpayable",
      "type": "constructor"
    },
    {
      "anonymous": false,
      "inputs": [
        {
          "indexed": true,
          "internalType": "address",
          "name": "owner",
          "type": "address"
        },
        {
          "indexed": true,
          "internalType": "address",
          "name": "approved",
          "type": "address"
        },
        {
          "indexed": true,
          "internalType": "uint256",
          "name": "tokenId",
          "type": "uint256"
        }
      ],
      "name": "Approval",
      "type": "event"
    },
    {
      "anonymous": false,
      "inputs": [
        {
          "indexed": true,
          "internalType": "address",
          "name": "owner",
          "type": "address"
        },
        {
          "indexed": true,
          "internalType": "address",
          "name": "operator",
          "type": "address"
        },
        {
          "indexed": false,
          "internalType": "bool",
          "name": "approved",
          "type": "bool"
        }
      ],
      "name": "ApprovalForAll",
      "type": "event"
    },
    {
      "anonymous": false,
      "inputs": [
        {
          "indexed": true,
          "internalType": "uint256",
          "name": "tokenId",
          "type": "uint256"
        },
        {
          "indexed": false,
          "internalType": "address",
          "name": "bidder",
          "type": "address"
        },
        {
          "indexed": false,
          "internalType": "uint256",
          "name": "amount",
          "type": "uint256"
        }
      ],
      "name": "AuctionBidPlaced",
      "type": "event"
    },
    {
      "anonymous": false,
      "inputs": [
        {
          "indexed": true,
          "internalType": "uint256",
          "name": "tokenId",
          "type": "uint256"
        },
        {
          "indexed": false,
          "internalType": "address",
          "name": "winner",
          "type": "address"
        },
        {
          "indexed": false,
          "internalType": "uint256",
          "name": "amount",
          "type": "uint256"
        }
      ],
      "name": "AuctionEnded",
      "type": "event"
    },
    {
      "anonymous": false,
      "inputs": [
        {
          "indexed": false,
          "internalType": "uint256",
          "name": "_fromTokenId",
          "type": "uint256"
        },
        {
          "indexed": false,
          "internalType": "uint256",
          "name": "_toTokenId",
          "type": "uint256"
        }
      ],
      "name": "BatchMetadataUpdate",
      "type": "event"
    },
    {
      "anonymous": false,
      "inputs": [
        {
          "indexed": true,
          "internalType": "uint256",
          "name": "tokenId",
          "type": "uint256"
        },
        {
          "indexed": false,
          "internalType": "address",
          "name": "seller",
          "type": "address"
        },
        {
          "indexed": false,
          "internalType": "address",
          "name": "owner",
          "type": "address"
        },
        {
          "indexed": false,
          "internalType": "uint256",
          "name": "price",
          "type": "uint256"
        },
        {
          "indexed": false,
          "internalType": "bool",
          "name": "sold",
          "type": "bool"
        }
      ],
      "name": "MarketItemCreated",
      "type": "event"
    },
    {
      "anonymous": false,
      "inputs": [
        {
          "indexed": false,
          "internalType": "uint256",
          "name": "_tokenId",
          "type": "uint256"
        }
      ],
      "name": "MetadataUpdate",
      "type": "event"
    },
    {
      "anonymous": false,
      "inputs": [
        {
          "indexed": true,
          "internalType": "address",
          "name": "from",
          "type": "address"
        },
        {
          "indexed": true,
          "internalType": "address",
          "name": "to",
          "type": "address"
        },
        {
          "indexed": true,
          "internalType": "uint256",
          "name": "tokenId",
          "type": "uint256"
        }
      ],
      "name": "Transfer",
      "type": "event"
    },
    {
      "inputs": [
        {
          "internalType": "address",
          "name": "to",
          "type": "address"
        },
        {
          "internalType": "uint256",
          "name": "tokenId",
          "type": "uint256"
        }
      ],
      "name": "approve",
      "outputs": [],
      "stateMutability": "nonpayable",
      "type": "function"
    },
    {
      "inputs": [
        {
          "internalType": "uint256",
          "name": "",
          "type": "uint256"
        }
      ],
      "name": "auctions",
      "outputs": [
        {
          "internalType": "uint256",
          "name": "auctionEndTime",
          "type": "uint256"
        },
        {
          "internalType": "uint256",
          "name": "highestBid",
          "type": "uint256"
        },
        {
          "internalType": "address payable",
          "name": "highestBidder",
          "type": "address"
        }
      ],
      "stateMutability": "view",
      "type": "function"
    },
    {
      "inputs": [
        {
          "internalType": "address",
          "name": "owner",
          "type": "address"
        }
      ],
      "name": "balanceOf",
      "outputs": [
        {
          "internalType": "uint256",
          "name": "",
          "type": "uint256"
        }
      ],
      "stateMutability": "view",
      "type": "function"
    },
    {
      "inputs": [
        {
          "internalType": "uint256",
          "name": "tokenId",
          "type": "uint256"
        }
      ],
      "name": "createMarketSale",
      "outputs": [],
      "stateMutability": "payable",
      "type": "function"
    },
    {
      "inputs": [
        {
          "internalType": "string",
          "name": "tokenURI",
          "type": "string"
        },
        {
          "internalType": "uint256",
          "name": "price",
          "type": "uint256"
        }
      ],
      "name": "createToken",
      "outputs": [
        {
          "internalType": "uint256",
          "name": "",
          "type": "uint256"
        }
      ],
      "stateMutability": "payable",
      "type": "function"
    },
    {
      "inputs": [
        {
          "internalType": "uint256",
          "name": "tokenId",
          "type": "uint256"
        }
      ],
      "name": "endAuction",
      "outputs": [],
      "stateMutability": "nonpayable",
      "type": "function"
    },
    {
      "inputs": [],
      "name": "fetchAuctions",
      "outputs": [
        {
          "components": [
            {
              "internalType": "uint256",
              "name": "tokenId",
              "type": "uint256"
            },
            {
              "internalType": "address payable",
              "name": "seller",
              "type": "address"
            },
            {
              "internalType": "address payable",
              "name": "owner",
              "type": "address"
            },
            {
              "internalType": "uint256",
              "name": "price",
              "type": "uint256"
            },
            {
              "internalType": "bool",
              "name": "sold",
              "type": "bool"
            }
          ],
          "internalType": "struct NFTMarketPlace.MarketItem[]",
          "name": "",
          "type": "tuple[]"
        },
        {
          "components": [
            {
              "internalType": "uint256",
              "name": "auctionEndTime",
              "type": "uint256"
            },
            {
              "internalType": "uint256",
              "name": "highestBid",
              "type": "uint256"
            },
            {
              "internalType": "address payable",
              "name": "highestBidder",
              "type": "address"
            }
          ],
          "internalType": "struct NFTMarketPlace.Auction[]",
          "name": "",
          "type": "tuple[]"
        }
      ],
      "stateMutability": "view",
      "type": "function"
    },
    {
      "inputs": [],
      "name": "fetchItemsListed",
      "outputs": [
        {
          "components": [
            {
              "internalType": "uint256",
              "name": "tokenId",
              "type": "uint256"
            },
            {
              "internalType": "address payable",
              "name": "seller",
              "type": "address"
            },
            {
              "internalType": "address payable",
              "name": "owner",
              "type": "address"
            },
            {
              "internalType": "uint256",
              "name": "price",
              "type": "uint256"
            },
            {
              "internalType": "bool",
              "name": "sold",
              "type": "bool"
            }
          ],
          "internalType": "struct NFTMarketPlace.MarketItem[]",
          "name": "",
          "type": "tuple[]"
        }
      ],
      "stateMutability": "view",
      "type": "function"
    },
    {
      "inputs": [],
      "name": "fetchMarketItems",
      "outputs": [
        {
          "components": [
            {
              "internalType": "uint256",
              "name": "tokenId",
              "type": "uint256"
            },
            {
              "internalType": "address payable",
              "name": "seller",
              "type": "address"
            },
            {
              "internalType": "address payable",
              "name": "owner",
              "type": "address"
            },
            {
              "internalType": "uint256",
              "name": "price",
              "type": "uint256"
            },
            {
              "internalType": "bool",
              "name": "sold",
              "type": "bool"
            }
          ],
          "internalType": "struct NFTMarketPlace.MarketItem[]",
          "name": "",
          "type": "tuple[]"
        }
      ],
      "stateMutability": "view",
      "type": "function"
    },
    {
      "inputs": [],
      "name": "fetchMyNFTs",
      "outputs": [
        {
          "components": [
            {
              "internalType": "uint256",
              "name": "tokenId",
              "type": "uint256"
            },
            {
              "internalType": "address payable",
              "name": "seller",
              "type": "address"
            },
            {
              "internalType": "address payable",
              "name": "owner",
              "type": "address"
            },
            {
              "internalType": "uint256",
              "name": "price",
              "type": "uint256"
            },
            {
              "internalType": "bool",
              "name": "sold",
              "type": "bool"
            }
          ],
          "internalType": "struct NFTMarketPlace.MarketItem[]",
          "name": "",
          "type": "tuple[]"
        }
      ],
      "stateMutability": "view",
      "type": "function"
    },
    {
      "inputs": [
        {
          "internalType": "uint256",
          "name": "tokenId",
          "type": "uint256"
        }
      ],
      "name": "getApproved",
      "outputs": [
        {
          "internalType": "address",
          "name": "",
          "type": "address"
        }
      ],
      "stateMutability": "view",
      "type": "function"
    },
    {
      "inputs": [],
      "name": "getListingPrice",
      "outputs": [
        {
          "internalType": "uint256",
          "name": "",
          "type": "uint256"
        }
      ],
      "stateMutability": "view",
      "type": "function"
    },
    {
      "inputs": [
        {
          "internalType": "address",
          "name": "owner",
          "type": "address"
        },
        {
          "internalType": "address",
          "name": "operator",
          "type": "address"
        }
      ],
      "name": "isApprovedForAll",
      "outputs": [
        {
          "internalType": "bool",
          "name": "",
          "type": "bool"
        }
      ],
      "stateMutability": "view",
      "type": "function"
    },
    {
      "inputs": [
        {
          "internalType": "uint256",
          "name": "",
          "type": "uint256"
        }
      ],
      "name": "items",
      "outputs": [
        {
          "internalType": "address",
          "name": "owner",
          "type": "address"
        },
        {
          "internalType": "address",
          "name": "seller",
          "type": "address"
        },
        {
          "internalType": "bool",
          "name": "sold",
          "type": "bool"
        },
        {
          "internalType": "uint256",
          "name": "price",
          "type": "uint256"
        }
      ],
      "stateMutability": "view",
      "type": "function"
    },
    {
      "inputs": [],
      "name": "name",
      "outputs": [
        {
          "internalType": "string",
          "name": "",
          "type": "string"
        }
      ],
      "stateMutability": "view",
      "type": "function"
    },
    {
      "inputs": [
        {
          "internalType": "uint256",
          "name": "tokenId",
          "type": "uint256"
        }
      ],
      "name": "ownerOf",
      "outputs": [
        {
          "internalType": "address",
          "name": "",
          "type": "address"
        }
      ],
      "stateMutability": "view",
      "type": "function"
    },
    {
      "inputs": [
        {
          "internalType": "uint256",
          "name": "tokenId",
          "type": "uint256"
        }
      ],
      "name": "placeBid",
      "outputs": [],
      "stateMutability": "payable",
      "type": "function"
    },
    {
      "inputs": [
        {
          "internalType": "uint256",
          "name": "tokenId",
          "type": "uint256"
        },
        {
          "internalType": "uint256",
          "name": "price",
          "type": "uint256"
        }
      ],
      "name": "resellToken",
      "outputs": [],
      "stateMutability": "payable",
      "type": "function"
    },
    {
      "inputs": [
        {
          "internalType": "address",
          "name": "from",
          "type": "address"
        },
        {
          "internalType": "address",
          "name": "to",
          "type": "address"
        },
        {
          "internalType": "uint256",
          "name": "tokenId",
          "type": "uint256"
        }
      ],
      "name": "safeTransferFrom",
      "outputs": [],
      "stateMutability": "nonpayable",
      "type": "function"
    },
    {
      "inputs": [
        {
          "internalType": "address",
          "name": "from",
          "type": "address"
        },
        {
          "internalType": "address",
          "name": "to",
          "type": "address"
        },
        {
          "internalType": "uint256",
          "name": "tokenId",
          "type": "uint256"
        },
        {
          "internalType": "bytes",
          "name": "data",
          "type": "bytes"
        }
      ],
      "name": "safeTransferFrom",
      "outputs": [],
      "stateMutability": "nonpayable",
      "type": "function"
    },
    {
      "inputs": [
        {
          "internalType": "address",
          "name": "operator",
          "type": "address"
        },
        {
          "internalType": "bool",
          "name": "approved",
          "type": "bool"
        }
      ],
      "name": "setApprovalForAll",
      "outputs": [],
      "stateMutability": "nonpayable",
      "type": "function"
    },
    {
      "inputs": [
        {
          "internalType": "uint256",
          "name": "tokenId",
          "type": "uint256"
        },
        {
          "internalType": "uint256",
          "name": "startingBid",
          "type": "uint256"
        },
        {
          "internalType": "uint256",
          "name": "duration",
          "type": "uint256"
        }
      ],
      "name": "startAuction",
      "outputs": [],
      "stateMutability": "nonpayable",
      "type": "function"
    },
    {
      "inputs": [
        {
          "internalType": "bytes4",
          "name": "interfaceId",
          "type": "bytes4"
        }
      ],
      "name": "supportsInterface",
      "outputs": [
        {
          "internalType": "bool",
          "name": "",
          "type": "bool"
        }
      ],
      "stateMutability": "view",
      "type": "function"
    },
    {
      "inputs": [],
      "name": "symbol",
      "outputs": [
        {
          "internalType": "string",
          "name": "",
          "type": "string"
        }
      ],
      "stateMutability": "view",
      "type": "function"
    },
    {
      "inputs": [
        {
          "internalType": "uint256",
          "name": "tokenId",
          "type": "uint256"
        }
      ],
      "name": "tokenURI",
      "outputs": [
        {
          "internalType": "string",
          "name": "",
          "type": "string"
        }
      ],
      "stateMutability": "view",
      "type": "function"
    },
    {
      "inputs": [
        {
          "internalType": "address",
          "name": "from",
          "type": "address"
        },
        {
          "internalType": "address",
          "name": "to",
          "type": "address"
        },
        {
          "internalType": "uint256",
          "name": "tokenId",
          "type": "uint256"
        }
      ],
      "name": "transferFrom",
      "outputs": [],
      "stateMutability": "nonpayable",
      "type": "function"
    },
    {
      "inputs": [
        {
          "internalType": "uint256",
          "name": "_listingPrice",
          "type": "uint256"
        }
      ],
      "name": "updateListingPrice",
      "outputs": [],
      "stateMutability": "payable",
      "type": "function"
    }
  ],
  "bytecode": "0x60806040526658d15e1762800060095534801561001b57600080fd5b506040518060400160405280601081526020017f4d657461766572736520546f6b656e73000000000000000000000000000000008152506040518060400160405280600481526020017f4d4554540000000000000000000000000000000000000000000000000000000081525081600090816100979190610340565b5080600190816100a79190610340565b50505033600a60006101000a81548173ffffffffffffffffffffffffffffffffffffffff021916908373ffffffffffffffffffffffffffffffffffffffff160217905550610412565b600081519050919050565b7f4e487b7100000000000000000000000000000000000000000000000000000000600052604160045260246000fd5b7f4e487b7100000000000000000000000000000000000000000000000000000000600052602260045260246000fd5b6000600282049050600182168061017157607f821691505b6020821081036101845761018361012a565b5b50919050565b60008190508160005260206000209050919050565b60006020601f8301049050919050565b600082821b905092915050565b6000600883026101ec7fffffffffffffffffffffffffffffffffffffffffffffffffffffffffffffffff826101af565b6101f686836101af565b95508019841693508086168417925050509392505050565b6000819050919050565b6000819050919050565b600061023d6102386102338461020e565b610218565b61020e565b9050919050565b6000819050919050565b61025783610222565b61026b61026382610244565b8484546101bc565b825550505050565b600090565b610280610273565b61028b81848461024e565b505050565b5b818110156102af576102a4600082610278565b600181019050610291565b5050565b601f8211156102f4576102c58161018a565b6102ce8461019f565b810160208510156102dd578190505b6102f16102e98561019f565b830182610290565b50505b505050565b600082821c905092915050565b6000610317600019846008026102f9565b1980831691505092915050565b60006103308383610306565b9150826002028217905092915050565b610349826100f0565b67ffffffffffffffff811115610362576103616100fb565b5b61036c8254610159565b6103778282856102b3565b600060209050601f8311600181146103aa5760008415610398578287015190505b6103a28582610324565b86555061040a565b601f1984166103b88661018a565b60005b828110156103e0578489015182556001820191506020850194506020810190506103bb565b868310156103fd57848901516103f9601f891682610306565b8355505b6001600288020188555050505b505050505050565b6150c8806104216000396000f3fe60806040526004361061019c5760003560e01c806370a08231116100ec578063b88d4fde1161008a578063bfb231d211610064578063bfb231d2146105a5578063c87b56dd146105e5578063e219fc7514610622578063e985e9c51461063e5761019c565b8063b88d4fde14610537578063b9a2de3a14610560578063be9af536146105895761019c565b806395d89b41116100c657806395d89b41146104ab5780639979ef45146104d6578063a22cb465146104f2578063ae677aa31461051b5761019c565b806370a082311461041557806372b3b6201461045257806391e078bb146104825761019c565b80631b2fcf481161015957806342842e0e1161013357806342842e0e1461034557806345f8fa801461036e578063571a26a0146103995780636352211e146103d85761019c565b80631b2fcf48146102c5578063202e3740146102f157806323b872dd1461031c5761019c565b806301ffc9a7146101a157806306fdde03146101de578063081812fc14610209578063095ea7b3146102465780630f08efe01461026f57806312e855851461029a575b600080fd5b3480156101ad57600080fd5b506101c860048036038101906101c3919061361e565b61067b565b6040516101d59190613666565b60405180910390f35b3480156101ea57600080fd5b506101f36106dc565b6040516102009190613711565b60405180910390f35b34801561021557600080fd5b50610230600480360381019061022b9190613769565b61076e565b60405161023d91906137d7565b60405180910390f35b34801561025257600080fd5b5061026d6004803603810190610268919061381e565b6107b4565b005b34801561027b57600080fd5b506102846108cb565b60405161029191906139b4565b60405180910390f35b3480156102a657600080fd5b506102af610b2d565b6040516102bc91906139e5565b60405180910390f35b3480156102d157600080fd5b506102da610b37565b6040516102e8929190613af1565b60405180910390f35b3480156102fd57600080fd5b50610306610e6c565b60405161031391906139b4565b60405180910390f35b34801561032857600080fd5b50610343600480360381019061033e9190613b28565b61114c565b005b34801561035157600080fd5b5061036c60048036038101906103679190613b28565b6111ac565b005b34801561037a57600080fd5b506103836111cc565b60405161039091906139b4565b60405180910390f35b3480156103a557600080fd5b506103c060048036038101906103bb9190613769565b6114ac565b6040516103cf93929190613b8a565b60405180910390f35b3480156103e457600080fd5b506103ff60048036038101906103fa9190613769565b6114f6565b60405161040c91906137d7565b60405180910390f35b34801561042157600080fd5b5061043c60048036038101906104379190613bc1565b61157c565b60405161044991906139e5565b60405180910390f35b61046c60048036038101906104679190613d23565b611633565b60405161047991906139e5565b60405180910390f35b34801561048e57600080fd5b506104a960048036038101906104a49190613d7f565b611675565b005b3480156104b757600080fd5b506104c061178c565b6040516104cd9190613711565b60405180910390f35b6104f060048036038101906104eb9190613769565b61181e565b005b3480156104fe57600080fd5b5061051960048036038101906105149190613dfe565b611911565b005b61053560048036038101906105309190613769565b611927565b005b34801561054357600080fd5b5061055e60048036038101906105599190613edf565b6119c1565b005b34801561056c57600080fd5b5061058760048036038101906105829190613769565b611a23565b005b6105a3600480360381019061059e9190613769565b611d08565b005b3480156105b157600080fd5b506105cc60048036038101906105c79190613769565b611f40565b6040516105dc9493929190613f62565b60405180910390f35b3480156105f157600080fd5b5061060c60048036038101906106079190613769565b611fbd565b6040516106199190613711565b60405180910390f35b61063c60048036038101906106379190613fa7565b6120cf565b005b34801561064a57600080fd5b5061066560048036038101906106609190613fe7565b6122c4565b6040516106729190613666565b60405180910390f35b6000634906490660e01b7bffffffffffffffffffffffffffffffffffffffffffffffffffffffff1916827bffffffffffffffffffffffffffffffffffffffffffffffffffffffff191614806106d557506106d482612358565b5b9050919050565b6060600080546106eb90614056565b80601f016020809104026020016040519081016040528092919081815260200182805461071790614056565b80156107645780601f1061073957610100808354040283529160200191610764565b820191906000526020600020905b81548152906001019060200180831161074757829003601f168201915b5050505050905090565b60006107798261243a565b6004600083815260200190815260200160002060009054906101000a900473ffffffffffffffffffffffffffffffffffffffff169050919050565b60006107bf826114f6565b90508073ffffffffffffffffffffffffffffffffffffffff168373ffffffffffffffffffffffffffffffffffffffff160361082f576040517f08c379a0000000000000000000000000000000000000000000000000000000008152600401610826906140f9565b60405180910390fd5b8073ffffffffffffffffffffffffffffffffffffffff1661084e612485565b73ffffffffffffffffffffffffffffffffffffffff16148061087d575061087c81610877612485565b6122c4565b5b6108bc576040517f08c379a00000000000000000000000000000000000000000000000000000000081526004016108b39061418b565b60405180910390fd5b6108c6838361248d565b505050565b606060006108d96007612546565b905060006108e76008612546565b6108f16007612546565b6108fb91906141da565b90506000808267ffffffffffffffff81111561091a57610919613bf8565b5b60405190808252806020026020018201604052801561095357816020015b61094061351e565b8152602001906001900390816109385790505b50905060005b84811015610b22573073ffffffffffffffffffffffffffffffffffffffff16600b6000600184610989919061420e565b815260200190815260200160002060020160009054906101000a900473ffffffffffffffffffffffffffffffffffffffff1673ffffffffffffffffffffffffffffffffffffffff1603610b155760006001826109e5919061420e565b90506000600b60008381526020019081526020016000209050806040518060a0016040529081600082015481526020016001820160009054906101000a900473ffffffffffffffffffffffffffffffffffffffff1673ffffffffffffffffffffffffffffffffffffffff1673ffffffffffffffffffffffffffffffffffffffff1681526020016002820160009054906101000a900473ffffffffffffffffffffffffffffffffffffffff1673ffffffffffffffffffffffffffffffffffffffff1673ffffffffffffffffffffffffffffffffffffffff168152602001600382015481526020016004820160009054906101000a900460ff161515151581525050848681518110610af857610af7614242565b5b6020026020010181905250600185610b10919061420e565b945050505b8080600101915050610959565b508094505050505090565b6000600954905090565b6060806000610b466007612546565b90506000805b82811015610ba1576000600182610b63919061420e565b905042600c6000838152602001908152602001600020600001541115610b9357600183610b90919061420e565b92505b508080600101915050610b4c565b5060008167ffffffffffffffff811115610bbe57610bbd613bf8565b5b604051908082528060200260200182016040528015610bf757816020015b610be461351e565b815260200190600190039081610bdc5790505b50905060008267ffffffffffffffff811115610c1657610c15613bf8565b5b604051908082528060200260200182016040528015610c4f57816020015b610c3c61357b565b815260200190600190039081610c345790505b5090506000805b85811015610e5c576000600182610c6d919061420e565b90506000600c600083815260200190815260200160002090504281600001541115610e4d57600b60008381526020019081526020016000206040518060a0016040529081600082015481526020016001820160009054906101000a900473ffffffffffffffffffffffffffffffffffffffff1673ffffffffffffffffffffffffffffffffffffffff1673ffffffffffffffffffffffffffffffffffffffff1681526020016002820160009054906101000a900473ffffffffffffffffffffffffffffffffffffffff1673ffffffffffffffffffffffffffffffffffffffff1673ffffffffffffffffffffffffffffffffffffffff168152602001600382015481526020016004820160009054906101000a900460ff161515151581525050868581518110610d9e57610d9d614242565b5b60200260200101819052508060405180606001604052908160008201548152602001600182015481526020016002820160009054906101000a900473ffffffffffffffffffffffffffffffffffffffff1673ffffffffffffffffffffffffffffffffffffffff1673ffffffffffffffffffffffffffffffffffffffff1681525050858581518110610e3257610e31614242565b5b6020026020010181905250600184610e4a919061420e565b93505b50508080600101915050610c56565b5082829650965050505050509091565b60606000610e7a6007612546565b905060008060005b83811015610f1c573373ffffffffffffffffffffffffffffffffffffffff16600b6000600184610eb2919061420e565b815260200190815260200160002060020160009054906101000a900473ffffffffffffffffffffffffffffffffffffffff1673ffffffffffffffffffffffffffffffffffffffff1603610f0f57600183610f0c919061420e565b92505b8080600101915050610e82565b5060008267ffffffffffffffff811115610f3957610f38613bf8565b5b604051908082528060200260200182016040528015610f7257816020015b610f5f61351e565b815260200190600190039081610f575790505b50905060005b84811015611141573373ffffffffffffffffffffffffffffffffffffffff16600b6000600184610fa8919061420e565b815260200190815260200160002060020160009054906101000a900473ffffffffffffffffffffffffffffffffffffffff1673ffffffffffffffffffffffffffffffffffffffff1603611134576000600182611004919061420e565b90506000600b60008381526020019081526020016000209050806040518060a0016040529081600082015481526020016001820160009054906101000a900473ffffffffffffffffffffffffffffffffffffffff1673ffffffffffffffffffffffffffffffffffffffff1673ffffffffffffffffffffffffffffffffffffffff1681526020016002820160009054906101000a900473ffffffffffffffffffffffffffffffffffffffff1673ffffffffffffffffffffffffffffffffffffffff1673ffffffffffffffffffffffffffffffffffffffff168152602001600382015481526020016004820160009054906101000a900460ff16151515158152505084868151811061111757611116614242565b5b602002602001018190525060018561112f919061420e565b945050505b8080600101915050610f78565b508094505050505090565b61115d611157612485565b82612554565b61119c576040517f08c379a0000000000000000000000000000000000000000000000000000000008152600401611193906142e3565b60405180910390fd5b6111a78383836125e9565b505050565b6111c7838383604051806020016040528060008152506119c1565b505050565b606060006111da6007612546565b905060008060005b8381101561127c573373ffffffffffffffffffffffffffffffffffffffff16600b6000600184611212919061420e565b815260200190815260200160002060010160009054906101000a900473ffffffffffffffffffffffffffffffffffffffff1673ffffffffffffffffffffffffffffffffffffffff160361126f5760018361126c919061420e565b92505b80806001019150506111e2565b5060008267ffffffffffffffff81111561129957611298613bf8565b5b6040519080825280602002602001820160405280156112d257816020015b6112bf61351e565b8152602001906001900390816112b75790505b50905060005b848110156114a1573373ffffffffffffffffffffffffffffffffffffffff16600b6000600184611308919061420e565b815260200190815260200160002060010160009054906101000a900473ffffffffffffffffffffffffffffffffffffffff1673ffffffffffffffffffffffffffffffffffffffff1603611494576000600182611364919061420e565b90506000600b60008381526020019081526020016000209050806040518060a0016040529081600082015481526020016001820160009054906101000a900473ffffffffffffffffffffffffffffffffffffffff1673ffffffffffffffffffffffffffffffffffffffff1673ffffffffffffffffffffffffffffffffffffffff1681526020016002820160009054906101000a900473ffffffffffffffffffffffffffffffffffffffff1673ffffffffffffffffffffffffffffffffffffffff1673ffffffffffffffffffffffffffffffffffffffff168152602001600382015481526020016004820160009054906101000a900460ff16151515158152505084868151811061147757611476614242565b5b602002602001018190525060018561148f919061420e565b945050505b80806001019150506112d8565b508094505050505090565b600c6020528060005260406000206000915090508060000154908060010154908060020160009054906101000a900473ffffffffffffffffffffffffffffffffffffffff16905083565b600080611502836128e2565b9050600073ffffffffffffffffffffffffffffffffffffffff168173ffffffffffffffffffffffffffffffffffffffff1603611573576040517f08c379a000000000000000000000000000000000000000000000000000000000815260040161156a9061434f565b60405180910390fd5b80915050919050565b60008073ffffffffffffffffffffffffffffffffffffffff168273ffffffffffffffffffffffffffffffffffffffff16036115ec576040517f08c379a00000000000000000000000000000000000000000000000000000000081526004016115e3906143e1565b60405180910390fd5b600360008373ffffffffffffffffffffffffffffffffffffffff1673ffffffffffffffffffffffffffffffffffffffff168152602001908152602001600020549050919050565b600061163f600761291f565b600061164b6007612546565b90506116573382612935565b6116618185612b52565b61166b8184612bf6565b8091505092915050565b600d600084815260200190815260200160002060010160149054906101000a900460ff16156116d9576040517f08c379a00000000000000000000000000000000000000000000000000000000081526004016116d09061444d565b60405180910390fd5b604051806060016040528082426116f0919061420e565b8152602001838152602001600073ffffffffffffffffffffffffffffffffffffffff16815250600c6000858152602001908152602001600020600082015181600001556020820151816001015560408201518160020160006101000a81548173ffffffffffffffffffffffffffffffffffffffff021916908373ffffffffffffffffffffffffffffffffffffffff160217905550905050505050565b60606001805461179b90614056565b80601f01602080910402602001604051908101604052809291908181526020018280546117c790614056565b80156118145780601f106117e957610100808354040283529160200191611814565b820191906000526020600020905b8154815290600101906020018083116117f757829003601f168201915b5050505050905090565b6000600c600083815260200190815260200160002090508060000154421061187b576040517f08c379a0000000000000000000000000000000000000000000000000000000008152600401611872906144b9565b60405180910390fd5b806001015434116118c1576040517f08c379a00000000000000000000000000000000000000000000000000000000081526004016118b890614525565b60405180910390fd5b348160010181905550338160020160006101000a81548173ffffffffffffffffffffffffffffffffffffffff021916908373ffffffffffffffffffffffffffffffffffffffff1602179055505050565b61192361191c612485565b8383612df9565b5050565b3373ffffffffffffffffffffffffffffffffffffffff16600a60009054906101000a900473ffffffffffffffffffffffffffffffffffffffff1673ffffffffffffffffffffffffffffffffffffffff16146119b7576040517f08c379a00000000000000000000000000000000000000000000000000000000081526004016119ae906145b7565b60405180910390fd5b8060098190555050565b6119d26119cc612485565b83612554565b611a11576040517f08c379a0000000000000000000000000000000000000000000000000000000008152600401611a08906142e3565b60405180910390fd5b611a1d84848484612f65565b50505050565b6000600c60008381526020019081526020016000209050600081600101549050600b600084815260200190815260200160002060040160009054906101000a900460ff1615611aa7576040517f08c379a0000000000000000000000000000000000000000000000000000000008152600401611a9e90614623565b60405180910390fd5b6000600b600085815260200190815260200160002060010160009054906101000a900473ffffffffffffffffffffffffffffffffffffffff169050600b600085815260200190815260200160002060010160009054906101000a900473ffffffffffffffffffffffffffffffffffffffff1673ffffffffffffffffffffffffffffffffffffffff166108fc84600101549081150290604051600060405180830381858888f19350505050158015611b62573d6000803e3d6000fd5b508260020160009054906101000a900473ffffffffffffffffffffffffffffffffffffffff16600b600086815260200190815260200160002060020160006101000a81548173ffffffffffffffffffffffffffffffffffffffff021916908373ffffffffffffffffffffffffffffffffffffffff1602179055506001600b600086815260200190815260200160002060040160006101000a81548160ff0219169083151502179055506000600b600086815260200190815260200160002060010160006101000a81548173ffffffffffffffffffffffffffffffffffffffff021916908373ffffffffffffffffffffffffffffffffffffffff16021790555081600b600086815260200190815260200160002060030181905550611c86600861291f565b611cb5308460020160009054906101000a900473ffffffffffffffffffffffffffffffffffffffff16866125e9565b600c600085815260200190815260200160002060008082016000905560018201600090556002820160006101000a81549073ffffffffffffffffffffffffffffffffffffffff0219169055505050505050565b6000600b6000838152602001908152602001600020600301549050803414611d65576040517f08c379a0000000000000000000000000000000000000000000000000000000008152600401611d5c906146b5565b60405180910390fd5b600a60009054906101000a900473ffffffffffffffffffffffffffffffffffffffff1673ffffffffffffffffffffffffffffffffffffffff166108fc6009549081150290604051600060405180830381858888f19350505050158015611dcf573d6000803e3d6000fd5b50600b600083815260200190815260200160002060010160009054906101000a900473ffffffffffffffffffffffffffffffffffffffff1673ffffffffffffffffffffffffffffffffffffffff166108fc349081150290604051600060405180830381858888f19350505050158015611e4c573d6000803e3d6000fd5b5033600b600084815260200190815260200160002060020160006101000a81548173ffffffffffffffffffffffffffffffffffffffff021916908373ffffffffffffffffffffffffffffffffffffffff1602179055506001600b600084815260200190815260200160002060040160006101000a81548160ff0219169083151502179055506000600b600084815260200190815260200160002060010160006101000a81548173ffffffffffffffffffffffffffffffffffffffff021916908373ffffffffffffffffffffffffffffffffffffffff160217905550611f31600861291f565b611f3c3033846125e9565b5050565b600d6020528060005260406000206000915090508060000160009054906101000a900473ffffffffffffffffffffffffffffffffffffffff16908060010160009054906101000a900473ffffffffffffffffffffffffffffffffffffffff16908060010160149054906101000a900460ff16908060020154905084565b6060611fc88261243a565b6000600660008481526020019081526020016000208054611fe890614056565b80601f016020809104026020016040519081016040528092919081815260200182805461201490614056565b80156120615780601f1061203657610100808354040283529160200191612061565b820191906000526020600020905b81548152906001019060200180831161204457829003601f168201915b505050505090506000612072612fc1565b905060008151036120875781925050506120ca565b6000825111156120bc5780826040516020016120a4929190614711565b604051602081830303815290604052925050506120ca565b6120c584612fd8565b925050505b919050565b3373ffffffffffffffffffffffffffffffffffffffff16600b600084815260200190815260200160002060020160009054906101000a900473ffffffffffffffffffffffffffffffffffffffff1673ffffffffffffffffffffffffffffffffffffffff1614612173576040517f08c379a000000000000000000000000000000000000000000000000000000000815260040161216a906147a7565b60405180910390fd5b60095434146121b7576040517f08c379a00000000000000000000000000000000000000000000000000000000081526004016121ae90614839565b60405180910390fd5b6000600b600084815260200190815260200160002060040160006101000a81548160ff02191690831515021790555080600b60008481526020019081526020016000206003018190555033600b600084815260200190815260200160002060010160006101000a81548173ffffffffffffffffffffffffffffffffffffffff021916908373ffffffffffffffffffffffffffffffffffffffff16021790555030600b600084815260200190815260200160002060020160006101000a81548173ffffffffffffffffffffffffffffffffffffffff021916908373ffffffffffffffffffffffffffffffffffffffff1602179055506122b56008613040565b6122c03330846125e9565b5050565b6000600560008473ffffffffffffffffffffffffffffffffffffffff1673ffffffffffffffffffffffffffffffffffffffff16815260200190815260200160002060008373ffffffffffffffffffffffffffffffffffffffff1673ffffffffffffffffffffffffffffffffffffffff16815260200190815260200160002060009054906101000a900460ff16905092915050565b60007f80ac58cd000000000000000000000000000000000000000000000000000000007bffffffffffffffffffffffffffffffffffffffffffffffffffffffff1916827bffffffffffffffffffffffffffffffffffffffffffffffffffffffff1916148061242357507f5b5e139f000000000000000000000000000000000000000000000000000000007bffffffffffffffffffffffffffffffffffffffffffffffffffffffff1916827bffffffffffffffffffffffffffffffffffffffffffffffffffffffff1916145b8061243357506124328261309c565b5b9050919050565b61244381613106565b612482576040517f08c379a00000000000000000000000000000000000000000000000000000000081526004016124799061434f565b60405180910390fd5b50565b600033905090565b816004600083815260200190815260200160002060006101000a81548173ffffffffffffffffffffffffffffffffffffffff021916908373ffffffffffffffffffffffffffffffffffffffff160217905550808273ffffffffffffffffffffffffffffffffffffffff16612500836114f6565b73ffffffffffffffffffffffffffffffffffffffff167f8c5be1e5ebec7d5bd14f71427d1e84f3dd0314c0f7b2291e5b200ac8c7c3b92560405160405180910390a45050565b600081600001549050919050565b600080612560836114f6565b90508073ffffffffffffffffffffffffffffffffffffffff168473ffffffffffffffffffffffffffffffffffffffff1614806125a257506125a181856122c4565b5b806125e057508373ffffffffffffffffffffffffffffffffffffffff166125c88461076e565b73ffffffffffffffffffffffffffffffffffffffff16145b91505092915050565b8273ffffffffffffffffffffffffffffffffffffffff16612609826114f6565b73ffffffffffffffffffffffffffffffffffffffff161461265f576040517f08c379a0000000000000000000000000000000000000000000000000000000008152600401612656906148cb565b60405180910390fd5b600073ffffffffffffffffffffffffffffffffffffffff168273ffffffffffffffffffffffffffffffffffffffff16036126ce576040517f08c379a00000000000000000000000000000000000000000000000000000000081526004016126c59061495d565b60405180910390fd5b6126db8383836001613147565b8273ffffffffffffffffffffffffffffffffffffffff166126fb826114f6565b73ffffffffffffffffffffffffffffffffffffffff1614612751576040517f08c379a0000000000000000000000000000000000000000000000000000000008152600401612748906148cb565b60405180910390fd5b6004600082815260200190815260200160002060006101000a81549073ffffffffffffffffffffffffffffffffffffffff02191690556001600360008573ffffffffffffffffffffffffffffffffffffffff1673ffffffffffffffffffffffffffffffffffffffff168152602001908152602001600020600082825403925050819055506001600360008473ffffffffffffffffffffffffffffffffffffffff1673ffffffffffffffffffffffffffffffffffffffff16815260200190815260200160002060008282540192505081905550816002600083815260200190815260200160002060006101000a81548173ffffffffffffffffffffffffffffffffffffffff021916908373ffffffffffffffffffffffffffffffffffffffff160217905550808273ffffffffffffffffffffffffffffffffffffffff168473ffffffffffffffffffffffffffffffffffffffff167fddf252ad1be2c89b69c2b068fc378daa952ba7f163c4a11628f55a4df523b3ef60405160405180910390a46128dd838383600161314d565b505050565b60006002600083815260200190815260200160002060009054906101000a900473ffffffffffffffffffffffffffffffffffffffff169050919050565b6001816000016000828254019250508190555050565b600073ffffffffffffffffffffffffffffffffffffffff168273ffffffffffffffffffffffffffffffffffffffff16036129a4576040517f08c379a000000000000000000000000000000000000000000000000000000000815260040161299b906149c9565b60405180910390fd5b6129ad81613106565b156129ed576040517f08c379a00000000000000000000000000000000000000000000000000000000081526004016129e490614a35565b60405180910390fd5b6129fb600083836001613147565b612a0481613106565b15612a44576040517f08c379a0000000000000000000000000000000000000000000000000000000008152600401612a3b90614a35565b60405180910390fd5b6001600360008473ffffffffffffffffffffffffffffffffffffffff1673ffffffffffffffffffffffffffffffffffffffff16815260200190815260200160002060008282540192505081905550816002600083815260200190815260200160002060006101000a81548173ffffffffffffffffffffffffffffffffffffffff021916908373ffffffffffffffffffffffffffffffffffffffff160217905550808273ffffffffffffffffffffffffffffffffffffffff16600073ffffffffffffffffffffffffffffffffffffffff167fddf252ad1be2c89b69c2b068fc378daa952ba7f163c4a11628f55a4df523b3ef60405160405180910390a4612b4e60008383600161314d565b5050565b612b5b82613106565b612b9a576040517f08c379a0000000000000000000000000000000000000000000000000000000008152600401612b9190614ac7565b60405180910390fd5b80600660008481526020019081526020016000209081612bba9190614c93565b507ff8e1a15aba9398e019f0b49df1a4fde98ee17ae345cb5f6b5e2c27f5033e8ce782604051612bea91906139e5565b60405180910390a15050565b60008111612c39576040517f08c379a0000000000000000000000000000000000000000000000000000000008152600401612c3090614db1565b60405180910390fd5b6009543414612c7d576040517f08c379a0000000000000000000000000000000000000000000000000000000008152600401612c7490614839565b60405180910390fd5b6040518060a001604052808381526020013373ffffffffffffffffffffffffffffffffffffffff1681526020013073ffffffffffffffffffffffffffffffffffffffff16815260200182815260200160001515815250600b60008481526020019081526020016000206000820151816000015560208201518160010160006101000a81548173ffffffffffffffffffffffffffffffffffffffff021916908373ffffffffffffffffffffffffffffffffffffffff16021790555060408201518160020160006101000a81548173ffffffffffffffffffffffffffffffffffffffff021916908373ffffffffffffffffffffffffffffffffffffffff1602179055506060820151816003015560808201518160040160006101000a81548160ff021916908315150217905550905050612db63330846125e9565b817fb640004f1d14576d0c209e240cad0410e0d8c0c33a09375861fbadae2588a98d3330846000604051612ded9493929190614dd1565b60405180910390a25050565b8173ffffffffffffffffffffffffffffffffffffffff168373ffffffffffffffffffffffffffffffffffffffff1603612e67576040517f08c379a0000000000000000000000000000000000000000000000000000000008152600401612e5e90614e62565b60405180910390fd5b80600560008573ffffffffffffffffffffffffffffffffffffffff1673ffffffffffffffffffffffffffffffffffffffff16815260200190815260200160002060008473ffffffffffffffffffffffffffffffffffffffff1673ffffffffffffffffffffffffffffffffffffffff16815260200190815260200160002060006101000a81548160ff0219169083151502179055508173ffffffffffffffffffffffffffffffffffffffff168373ffffffffffffffffffffffffffffffffffffffff167f17307eab39ab6107e8899845ad3d59bd9653f200f220920489ca2b5937696c3183604051612f589190613666565b60405180910390a3505050565b612f708484846125e9565b612f7c84848484613153565b612fbb576040517f08c379a0000000000000000000000000000000000000000000000000000000008152600401612fb290614ef4565b60405180910390fd5b50505050565b606060405180602001604052806000815250905090565b6060612fe38261243a565b6000612fed612fc1565b9050600081511161300d5760405180602001604052806000815250613038565b80613017846132da565b604051602001613028929190614711565b6040516020818303038152906040525b915050919050565b6000816000015490506000811161308c576040517f08c379a000000000000000000000000000000000000000000000000000000000815260040161308390614f60565b60405180910390fd5b6001810382600001819055505050565b60007f01ffc9a7000000000000000000000000000000000000000000000000000000007bffffffffffffffffffffffffffffffffffffffffffffffffffffffff1916827bffffffffffffffffffffffffffffffffffffffffffffffffffffffff1916149050919050565b60008073ffffffffffffffffffffffffffffffffffffffff16613128836128e2565b73ffffffffffffffffffffffffffffffffffffffff1614159050919050565b50505050565b50505050565b60006131748473ffffffffffffffffffffffffffffffffffffffff166133a8565b156132cd578373ffffffffffffffffffffffffffffffffffffffff1663150b7a0261319d612485565b8786866040518563ffffffff1660e01b81526004016131bf9493929190614fd5565b6020604051808303816000875af19250505080156131fb57506040513d601f19601f820116820180604052508101906131f89190615036565b60015b61327d573d806000811461322b576040519150601f19603f3d011682016040523d82523d6000602084013e613230565b606091505b506000815103613275576040517f08c379a000000000000000000000000000000000000000000000000000000000815260040161326c90614ef4565b60405180910390fd5b805181602001fd5b63150b7a0260e01b7bffffffffffffffffffffffffffffffffffffffffffffffffffffffff1916817bffffffffffffffffffffffffffffffffffffffffffffffffffffffff1916149150506132d2565b600190505b949350505050565b6060600060016132e9846133cb565b01905060008167ffffffffffffffff81111561330857613307613bf8565b5b6040519080825280601f01601f19166020018201604052801561333a5781602001600182028036833780820191505090505b509050600082602001820190505b60011561339d578080600190039150507f3031323334353637383961626364656600000000000000000000000000000000600a86061a8153600a858161339157613390615063565b5b04945060008503613348575b819350505050919050565b6000808273ffffffffffffffffffffffffffffffffffffffff163b119050919050565b600080600090507a184f03e93ff9f4daa797ed6e38ed64bf6a1f0100000000000000008310613429577a184f03e93ff9f4daa797ed6e38ed64bf6a1f010000000000000000838161341f5761341e615063565b5b0492506040810190505b6d04ee2d6d415b85acef81000000008310613466576d04ee2d6d415b85acef8100000000838161345c5761345b615063565b5b0492506020810190505b662386f26fc10000831061349557662386f26fc10000838161348b5761348a615063565b5b0492506010810190505b6305f5e10083106134be576305f5e10083816134b4576134b3615063565b5b0492506008810190505b61271083106134e35761271083816134d9576134d8615063565b5b0492506004810190505b6064831061350657606483816134fc576134fb615063565b5b0492506002810190505b600a8310613515576001810190505b80915050919050565b6040518060a0016040528060008152602001600073ffffffffffffffffffffffffffffffffffffffff168152602001600073ffffffffffffffffffffffffffffffffffffffff168152602001600081526020016000151581525090565b60405180606001604052806000815260200160008152602001600073ffffffffffffffffffffffffffffffffffffffff1681525090565b6000604051905090565b600080fd5b600080fd5b60007fffffffff0000000000000000000000000000000000000000000000000000000082169050919050565b6135fb816135c6565b811461360657600080fd5b50565b600081359050613618816135f2565b92915050565b600060208284031215613634576136336135bc565b5b600061364284828501613609565b91505092915050565b60008115159050919050565b6136608161364b565b82525050565b600060208201905061367b6000830184613657565b92915050565b600081519050919050565b600082825260208201905092915050565b60005b838110156136bb5780820151818401526020810190506136a0565b60008484015250505050565b6000601f19601f8301169050919050565b60006136e382613681565b6136ed818561368c565b93506136fd81856020860161369d565b613706816136c7565b840191505092915050565b6000602082019050818103600083015261372b81846136d8565b905092915050565b6000819050919050565b61374681613733565b811461375157600080fd5b50565b6000813590506137638161373d565b92915050565b60006020828403121561377f5761377e6135bc565b5b600061378d84828501613754565b91505092915050565b600073ffffffffffffffffffffffffffffffffffffffff82169050919050565b60006137c182613796565b9050919050565b6137d1816137b6565b82525050565b60006020820190506137ec60008301846137c8565b92915050565b6137fb816137b6565b811461380657600080fd5b50565b600081359050613818816137f2565b92915050565b60008060408385031215613835576138346135bc565b5b600061384385828601613809565b925050602061385485828601613754565b9150509250929050565b600081519050919050565b600082825260208201905092915050565b6000819050602082019050919050565b61389381613733565b82525050565b60006138a482613796565b9050919050565b6138b481613899565b82525050565b6138c38161364b565b82525050565b60a0820160008201516138df600085018261388a565b5060208201516138f260208501826138ab565b50604082015161390560408501826138ab565b506060820151613918606085018261388a565b50608082015161392b60808501826138ba565b50505050565b600061393d83836138c9565b60a08301905092915050565b6000602082019050919050565b60006139618261385e565b61396b8185613869565b93506139768361387a565b8060005b838110156139a757815161398e8882613931565b975061399983613949565b92505060018101905061397a565b5085935050505092915050565b600060208201905081810360008301526139ce8184613956565b905092915050565b6139df81613733565b82525050565b60006020820190506139fa60008301846139d6565b92915050565b600081519050919050565b600082825260208201905092915050565b6000819050602082019050919050565b606082016000820151613a42600085018261388a565b506020820151613a55602085018261388a565b506040820151613a6860408501826138ab565b50505050565b6000613a7a8383613a2c565b60608301905092915050565b6000602082019050919050565b6000613a9e82613a00565b613aa88185613a0b565b9350613ab383613a1c565b8060005b83811015613ae4578151613acb8882613a6e565b9750613ad683613a86565b925050600181019050613ab7565b5085935050505092915050565b60006040820190508181036000830152613b0b8185613956565b90508181036020830152613b1f8184613a93565b90509392505050565b600080600060608486031215613b4157613b406135bc565b5b6000613b4f86828701613809565b9350506020613b6086828701613809565b9250506040613b7186828701613754565b9150509250925092565b613b8481613899565b82525050565b6000606082019050613b9f60008301866139d6565b613bac60208301856139d6565b613bb96040830184613b7b565b949350505050565b600060208284031215613bd757613bd66135bc565b5b6000613be584828501613809565b91505092915050565b600080fd5b600080fd5b7f4e487b7100000000000000000000000000000000000000000000000000000000600052604160045260246000fd5b613c30826136c7565b810181811067ffffffffffffffff82111715613c4f57613c4e613bf8565b5b80604052505050565b6000613c626135b2565b9050613c6e8282613c27565b919050565b600067ffffffffffffffff821115613c8e57613c8d613bf8565b5b613c97826136c7565b9050602081019050919050565b82818337600083830152505050565b6000613cc6613cc184613c73565b613c58565b905082815260208101848484011115613ce257613ce1613bf3565b5b613ced848285613ca4565b509392505050565b600082601f830112613d0a57613d09613bee565b5b8135613d1a848260208601613cb3565b91505092915050565b60008060408385031215613d3a57613d396135bc565b5b600083013567ffffffffffffffff811115613d5857613d576135c1565b5b613d6485828601613cf5565b9250506020613d7585828601613754565b9150509250929050565b600080600060608486031215613d9857613d976135bc565b5b6000613da686828701613754565b9350506020613db786828701613754565b9250506040613dc886828701613754565b9150509250925092565b613ddb8161364b565b8114613de657600080fd5b50565b600081359050613df881613dd2565b92915050565b60008060408385031215613e1557613e146135bc565b5b6000613e2385828601613809565b9250506020613e3485828601613de9565b9150509250929050565b600067ffffffffffffffff821115613e5957613e58613bf8565b5b613e62826136c7565b9050602081019050919050565b6000613e82613e7d84613e3e565b613c58565b905082815260208101848484011115613e9e57613e9d613bf3565b5b613ea9848285613ca4565b509392505050565b600082601f830112613ec657613ec5613bee565b5b8135613ed6848260208601613e6f565b91505092915050565b60008060008060808587031215613ef957613ef86135bc565b5b6000613f0787828801613809565b9450506020613f1887828801613809565b9350506040613f2987828801613754565b925050606085013567ffffffffffffffff811115613f4a57613f496135c1565b5b613f5687828801613eb1565b91505092959194509250565b6000608082019050613f7760008301876137c8565b613f8460208301866137c8565b613f916040830185613657565b613f9e60608301846139d6565b95945050505050565b60008060408385031215613fbe57613fbd6135bc565b5b6000613fcc85828601613754565b9250506020613fdd85828601613754565b9150509250929050565b60008060408385031215613ffe57613ffd6135bc565b5b600061400c85828601613809565b925050602061401d85828601613809565b9150509250929050565b7f4e487b7100000000000000000000000000000000000000000000000000000000600052602260045260246000fd5b6000600282049050600182168061406e57607f821691505b60208210810361408157614080614027565b5b50919050565b7f4552433732313a20617070726f76616c20746f2063757272656e74206f776e6560008201527f7200000000000000000000000000000000000000000000000000000000000000602082015250565b60006140e360218361368c565b91506140ee82614087565b604082019050919050565b60006020820190508181036000830152614112816140d6565b9050919050565b7f4552433732313a20617070726f76652063616c6c6572206973206e6f7420746f60008201527f6b656e206f776e6572206f7220617070726f76656420666f7220616c6c000000602082015250565b6000614175603d8361368c565b915061418082614119565b604082019050919050565b600060208201905081810360008301526141a481614168565b9050919050565b7f4e487b7100000000000000000000000000000000000000000000000000000000600052601160045260246000fd5b60006141e582613733565b91506141f083613733565b9250828203905081811115614208576142076141ab565b5b92915050565b600061421982613733565b915061422483613733565b925082820190508082111561423c5761423b6141ab565b5b92915050565b7f4e487b7100000000000000000000000000000000000000000000000000000000600052603260045260246000fd5b7f4552433732313a2063616c6c6572206973206e6f7420746f6b656e206f776e6560008201527f72206f7220617070726f76656400000000000000000000000000000000000000602082015250565b60006142cd602d8361368c565b91506142d882614271565b604082019050919050565b600060208201905081810360008301526142fc816142c0565b9050919050565b7f4552433732313a20696e76616c696420746f6b656e2049440000000000000000600082015250565b600061433960188361368c565b915061434482614303565b602082019050919050565b600060208201905081810360008301526143688161432c565b9050919050565b7f4552433732313a2061646472657373207a65726f206973206e6f74206120766160008201527f6c6964206f776e65720000000000000000000000000000000000000000000000602082015250565b60006143cb60298361368c565b91506143d68261436f565b604082019050919050565b600060208201905081810360008301526143fa816143be565b9050919050565b7f4974656d20616c726561647920736f6c64000000000000000000000000000000600082015250565b600061443760118361368c565b915061444282614401565b602082019050919050565b600060208201905081810360008301526144668161442a565b9050919050565b7f41756374696f6e20656e64656400000000000000000000000000000000000000600082015250565b60006144a3600d8361368c565b91506144ae8261446d565b602082019050919050565b600060208201905081810360008301526144d281614496565b9050919050565b7f546865726520616c726561647920697320612068696768657220626964000000600082015250565b600061450f601d8361368c565b915061451a826144d9565b602082019050919050565b6000602082019050818103600083015261453e81614502565b9050919050565b7f4f6e6c79206d61726b6574706c616365206f776e65722063616e20757064617460008201527f65206c697374696e672070726963652e00000000000000000000000000000000602082015250565b60006145a160308361368c565b91506145ac82614545565b604082019050919050565b600060208201905081810360008301526145d081614594565b9050919050565b7f41756374696f6e2068617320616c726561647920656e64656400000000000000600082015250565b600061460d60198361368c565b9150614618826145d7565b602082019050919050565b6000602082019050818103600083015261463c81614600565b9050919050565b7f506c65617365207375626d6974207468652061736b696e67207072696365206960008201527f6e206f7264657220746f20636f6d706c65746520746865207075726368617365602082015250565b600061469f60408361368c565b91506146aa82614643565b604082019050919050565b600060208201905081810360008301526146ce81614692565b9050919050565b600081905092915050565b60006146eb82613681565b6146f581856146d5565b935061470581856020860161369d565b80840191505092915050565b600061471d82856146e0565b915061472982846146e0565b91508190509392505050565b7f4f6e6c79206974656d206f776e65722063616e20706572666f726d207468697360008201527f206f7065726174696f6e00000000000000000000000000000000000000000000602082015250565b6000614791602a8361368c565b915061479c82614735565b604082019050919050565b600060208201905081810360008301526147c081614784565b9050919050565b7f5072696365206d75737420626520657175616c20746f206c697374696e67207060008201527f7269636500000000000000000000000000000000000000000000000000000000602082015250565b600061482360248361368c565b915061482e826147c7565b604082019050919050565b6000602082019050818103600083015261485281614816565b9050919050565b7f4552433732313a207472616e736665722066726f6d20696e636f72726563742060008201527f6f776e6572000000000000000000000000000000000000000000000000000000602082015250565b60006148b560258361368c565b91506148c082614859565b604082019050919050565b600060208201905081810360008301526148e4816148a8565b9050919050565b7f4552433732313a207472616e7366657220746f20746865207a65726f2061646460008201527f7265737300000000000000000000000000000000000000000000000000000000602082015250565b600061494760248361368c565b9150614952826148eb565b604082019050919050565b600060208201905081810360008301526149768161493a565b9050919050565b7f4552433732313a206d696e7420746f20746865207a65726f2061646472657373600082015250565b60006149b360208361368c565b91506149be8261497d565b602082019050919050565b600060208201905081810360008301526149e2816149a6565b9050919050565b7f4552433732313a20746f6b656e20616c7265616479206d696e74656400000000600082015250565b6000614a1f601c8361368c565b9150614a2a826149e9565b602082019050919050565b60006020820190508181036000830152614a4e81614a12565b9050919050565b7f45524337323155524953746f726167653a2055524920736574206f66206e6f6e60008201527f6578697374656e7420746f6b656e000000000000000000000000000000000000602082015250565b6000614ab1602e8361368c565b9150614abc82614a55565b604082019050919050565b60006020820190508181036000830152614ae081614aa4565b9050919050565b60008190508160005260206000209050919050565b60006020601f8301049050919050565b600082821b905092915050565b600060088302614b497fffffffffffffffffffffffffffffffffffffffffffffffffffffffffffffffff82614b0c565b614b538683614b0c565b95508019841693508086168417925050509392505050565b6000819050919050565b6000614b90614b8b614b8684613733565b614b6b565b613733565b9050919050565b6000819050919050565b614baa83614b75565b614bbe614bb682614b97565b848454614b19565b825550505050565b600090565b614bd3614bc6565b614bde818484614ba1565b505050565b5b81811015614c0257614bf7600082614bcb565b600181019050614be4565b5050565b601f821115614c4757614c1881614ae7565b614c2184614afc565b81016020851015614c30578190505b614c44614c3c85614afc565b830182614be3565b50505b505050565b600082821c905092915050565b6000614c6a60001984600802614c4c565b1980831691505092915050565b6000614c838383614c59565b9150826002028217905092915050565b614c9c82613681565b67ffffffffffffffff811115614cb557614cb4613bf8565b5b614cbf8254614056565b614cca828285614c06565b600060209050601f831160018114614cfd5760008415614ceb578287015190505b614cf58582614c77565b865550614d5d565b601f198416614d0b86614ae7565b60005b82811015614d3357848901518255600182019150602085019450602081019050614d0e565b86831015614d505784890151614d4c601f891682614c59565b8355505b6001600288020188555050505b505050505050565b7f5072696365206d757374206265206174206c6561737420312077656900000000600082015250565b6000614d9b601c8361368c565b9150614da682614d65565b602082019050919050565b60006020820190508181036000830152614dca81614d8e565b9050919050565b6000608082019050614de660008301876137c8565b614df360208301866137c8565b614e0060408301856139d6565b614e0d6060830184613657565b95945050505050565b7f4552433732313a20617070726f766520746f2063616c6c657200000000000000600082015250565b6000614e4c60198361368c565b9150614e5782614e16565b602082019050919050565b60006020820190508181036000830152614e7b81614e3f565b9050919050565b7f4552433732313a207472616e7366657220746f206e6f6e20455243373231526560008201527f63656976657220696d706c656d656e7465720000000000000000000000000000602082015250565b6000614ede60328361368c565b9150614ee982614e82565b604082019050919050565b60006020820190508181036000830152614f0d81614ed1565b9050919050565b7f436f756e7465723a2064656372656d656e74206f766572666c6f770000000000600082015250565b6000614f4a601b8361368c565b9150614f5582614f14565b602082019050919050565b60006020820190508181036000830152614f7981614f3d565b9050919050565b600081519050919050565b600082825260208201905092915050565b6000614fa782614f80565b614fb18185614f8b565b9350614fc181856020860161369d565b614fca816136c7565b840191505092915050565b6000608082019050614fea60008301876137c8565b614ff760208301866137c8565b61500460408301856139d6565b81810360608301526150168184614f9c565b905095945050505050565b600081519050615030816135f2565b92915050565b60006020828403121561504c5761504b6135bc565b5b600061505a84828501615021565b91505092915050565b7f4e487b7100000000000000000000000000000000000000000000000000000000600052601260045260246000fdfea26469706673582212205d6e57c0960e86506359d9412982a36c083ade9a7e4507637f5f0bd4c11c7fee64736f6c634300081c0033",
  "linkReferences": {},
  "deployedLinkReferences": {}
}