{
  "_format": "hh-sol-artifact-1",
  "contractName": "NFTMarketPlace",
  "sourceName": "contracts/NFTMarketPlace.sol",
  "abi": [
    {
      "inputs": [],
      "stateMutability": "nonpayable",
      "type": "constructor"
    },
    {
      "anonymous": false,
      "inputs": [
        {
          "indexed": true,
          "internalType": "address",
          "name": "owner",
          "type": "address"
        },
        {
          "indexed": true,
          "internalType": "address",
          "name": "approved",
          "type": "address"
        },
        {
          "indexed": true,
          "internalType": "uint256",
          "name": "tokenId",
          "type": "uint256"
        }
      ],
      "name": "Approval",
      "type": "event"
    },
    {
      "anonymous": false,
      "inputs": [
        {
          "indexed": true,
          "internalType": "address",
          "name": "owner",
          "type": "address"
        },
        {
          "indexed": true,
          "internalType": "address",
          "name": "operator",
          "type": "address"
        },
        {
          "indexed": false,
          "internalType": "bool",
          "name": "approved",
          "type": "bool"
        }
      ],
      "name": "ApprovalForAll",
      "type": "event"
    },
    {
      "anonymous": false,
      "inputs": [
        {
          "indexed": true,
          "internalType": "uint256",
          "name": "tokenId",
          "type": "uint256"
        },
        {
          "indexed": false,
          "internalType": "address",
          "name": "bidder",
          "type": "address"
        },
        {
          "indexed": false,
          "internalType": "uint256",
          "name": "amount",
          "type": "uint256"
        }
      ],
      "name": "AuctionBidPlaced",
      "type": "event"
    },
    {
      "anonymous": false,
      "inputs": [
        {
          "indexed": true,
          "internalType": "uint256",
          "name": "tokenId",
          "type": "uint256"
        },
        {
          "indexed": false,
          "internalType": "address",
          "name": "winner",
          "type": "address"
        },
        {
          "indexed": false,
          "internalType": "uint256",
          "name": "amount",
          "type": "uint256"
        }
      ],
      "name": "AuctionEnded",
      "type": "event"
    },
    {
      "anonymous": false,
      "inputs": [
        {
          "indexed": false,
          "internalType": "uint256",
          "name": "_fromTokenId",
          "type": "uint256"
        },
        {
          "indexed": false,
          "internalType": "uint256",
          "name": "_toTokenId",
          "type": "uint256"
        }
      ],
      "name": "BatchMetadataUpdate",
      "type": "event"
    },
    {
      "anonymous": false,
      "inputs": [
        {
          "indexed": true,
          "internalType": "uint256",
          "name": "tokenId",
          "type": "uint256"
        },
        {
          "indexed": false,
          "internalType": "address",
          "name": "seller",
          "type": "address"
        },
        {
          "indexed": false,
          "internalType": "address",
          "name": "owner",
          "type": "address"
        },
        {
          "indexed": false,
          "internalType": "uint256",
          "name": "price",
          "type": "uint256"
        },
        {
          "indexed": false,
          "internalType": "bool",
          "name": "sold",
          "type": "bool"
        }
      ],
      "name": "MarketItemCreated",
      "type": "event"
    },
    {
      "anonymous": false,
      "inputs": [
        {
          "indexed": false,
          "internalType": "uint256",
          "name": "_tokenId",
          "type": "uint256"
        }
      ],
      "name": "MetadataUpdate",
      "type": "event"
    },
    {
      "anonymous": false,
      "inputs": [
        {
          "indexed": true,
          "internalType": "address",
          "name": "from",
          "type": "address"
        },
        {
          "indexed": true,
          "internalType": "address",
          "name": "to",
          "type": "address"
        },
        {
          "indexed": true,
          "internalType": "uint256",
          "name": "tokenId",
          "type": "uint256"
        }
      ],
      "name": "Transfer",
      "type": "event"
    },
    {
      "inputs": [
        {
          "internalType": "address",
          "name": "to",
          "type": "address"
        },
        {
          "internalType": "uint256",
          "name": "tokenId",
          "type": "uint256"
        }
      ],
      "name": "approve",
      "outputs": [],
      "stateMutability": "nonpayable",
      "type": "function"
    },
    {
      "inputs": [
        {
          "internalType": "uint256",
          "name": "",
          "type": "uint256"
        }
      ],
      "name": "auctions",
      "outputs": [
        {
          "internalType": "uint256",
          "name": "auctionEndTime",
          "type": "uint256"
        },
        {
          "internalType": "uint256",
          "name": "highestBid",
          "type": "uint256"
        },
        {
          "internalType": "address payable",
          "name": "highestBidder",
          "type": "address"
        },
        {
          "internalType": "string",
          "name": "metadataHash",
          "type": "string"
        }
      ],
      "stateMutability": "view",
      "type": "function"
    },
    {
      "inputs": [
        {
          "internalType": "address",
          "name": "owner",
          "type": "address"
        }
      ],
      "name": "balanceOf",
      "outputs": [
        {
          "internalType": "uint256",
          "name": "",
          "type": "uint256"
        }
      ],
      "stateMutability": "view",
      "type": "function"
    },
    {
      "inputs": [
        {
          "internalType": "uint256",
          "name": "tokenId",
          "type": "uint256"
        }
      ],
      "name": "createMarketSale",
      "outputs": [],
      "stateMutability": "payable",
      "type": "function"
    },
    {
      "inputs": [
        {
          "internalType": "string",
          "name": "tokenURI",
          "type": "string"
        },
        {
          "internalType": "uint256",
          "name": "price",
          "type": "uint256"
        }
      ],
      "name": "createToken",
      "outputs": [
        {
          "internalType": "uint256",
          "name": "",
          "type": "uint256"
        }
      ],
      "stateMutability": "payable",
      "type": "function"
    },
    {
      "inputs": [
        {
          "internalType": "uint256",
          "name": "tokenId",
          "type": "uint256"
        }
      ],
      "name": "endAuction",
      "outputs": [],
      "stateMutability": "nonpayable",
      "type": "function"
    },
    {
      "inputs": [],
      "name": "fetchAuctions",
      "outputs": [
        {
          "components": [
            {
              "internalType": "uint256",
              "name": "tokenId",
              "type": "uint256"
            },
            {
              "internalType": "address payable",
              "name": "seller",
              "type": "address"
            },
            {
              "internalType": "address payable",
              "name": "owner",
              "type": "address"
            },
            {
              "internalType": "uint256",
              "name": "price",
              "type": "uint256"
            },
            {
              "internalType": "bool",
              "name": "sold",
              "type": "bool"
            }
          ],
          "internalType": "struct NFTMarketPlace.MarketItem[]",
          "name": "",
          "type": "tuple[]"
        },
        {
          "components": [
            {
              "internalType": "uint256",
              "name": "auctionEndTime",
              "type": "uint256"
            },
            {
              "internalType": "uint256",
              "name": "highestBid",
              "type": "uint256"
            },
            {
              "internalType": "address payable",
              "name": "highestBidder",
              "type": "address"
            },
            {
              "internalType": "string",
              "name": "metadataHash",
              "type": "string"
            }
          ],
          "internalType": "struct NFTMarketPlace.Auction[]",
          "name": "",
          "type": "tuple[]"
        }
      ],
      "stateMutability": "view",
      "type": "function"
    },
    {
      "inputs": [],
      "name": "fetchItemsListed",
      "outputs": [
        {
          "components": [
            {
              "internalType": "uint256",
              "name": "tokenId",
              "type": "uint256"
            },
            {
              "internalType": "address payable",
              "name": "seller",
              "type": "address"
            },
            {
              "internalType": "address payable",
              "name": "owner",
              "type": "address"
            },
            {
              "internalType": "uint256",
              "name": "price",
              "type": "uint256"
            },
            {
              "internalType": "bool",
              "name": "sold",
              "type": "bool"
            }
          ],
          "internalType": "struct NFTMarketPlace.MarketItem[]",
          "name": "",
          "type": "tuple[]"
        }
      ],
      "stateMutability": "view",
      "type": "function"
    },
    {
      "inputs": [],
      "name": "fetchMarketItems",
      "outputs": [
        {
          "components": [
            {
              "internalType": "uint256",
              "name": "tokenId",
              "type": "uint256"
            },
            {
              "internalType": "address payable",
              "name": "seller",
              "type": "address"
            },
            {
              "internalType": "address payable",
              "name": "owner",
              "type": "address"
            },
            {
              "internalType": "uint256",
              "name": "price",
              "type": "uint256"
            },
            {
              "internalType": "bool",
              "name": "sold",
              "type": "bool"
            }
          ],
          "internalType": "struct NFTMarketPlace.MarketItem[]",
          "name": "",
          "type": "tuple[]"
        }
      ],
      "stateMutability": "view",
      "type": "function"
    },
    {
      "inputs": [],
      "name": "fetchMyNFTs",
      "outputs": [
        {
          "components": [
            {
              "internalType": "uint256",
              "name": "tokenId",
              "type": "uint256"
            },
            {
              "internalType": "address payable",
              "name": "seller",
              "type": "address"
            },
            {
              "internalType": "address payable",
              "name": "owner",
              "type": "address"
            },
            {
              "internalType": "uint256",
              "name": "price",
              "type": "uint256"
            },
            {
              "internalType": "bool",
              "name": "sold",
              "type": "bool"
            }
          ],
          "internalType": "struct NFTMarketPlace.MarketItem[]",
          "name": "",
          "type": "tuple[]"
        }
      ],
      "stateMutability": "view",
      "type": "function"
    },
    {
      "inputs": [
        {
          "internalType": "uint256",
          "name": "tokenId",
          "type": "uint256"
        }
      ],
      "name": "getApproved",
      "outputs": [
        {
          "internalType": "address",
          "name": "",
          "type": "address"
        }
      ],
      "stateMutability": "view",
      "type": "function"
    },
    {
      "inputs": [],
      "name": "getListingPrice",
      "outputs": [
        {
          "internalType": "uint256",
          "name": "",
          "type": "uint256"
        }
      ],
      "stateMutability": "view",
      "type": "function"
    },
    {
      "inputs": [
        {
          "internalType": "address",
          "name": "owner",
          "type": "address"
        },
        {
          "internalType": "address",
          "name": "operator",
          "type": "address"
        }
      ],
      "name": "isApprovedForAll",
      "outputs": [
        {
          "internalType": "bool",
          "name": "",
          "type": "bool"
        }
      ],
      "stateMutability": "view",
      "type": "function"
    },
    {
      "inputs": [
        {
          "internalType": "uint256",
          "name": "",
          "type": "uint256"
        }
      ],
      "name": "items",
      "outputs": [
        {
          "internalType": "address",
          "name": "owner",
          "type": "address"
        },
        {
          "internalType": "address",
          "name": "seller",
          "type": "address"
        },
        {
          "internalType": "bool",
          "name": "sold",
          "type": "bool"
        },
        {
          "internalType": "uint256",
          "name": "price",
          "type": "uint256"
        }
      ],
      "stateMutability": "view",
      "type": "function"
    },
    {
      "inputs": [],
      "name": "name",
      "outputs": [
        {
          "internalType": "string",
          "name": "",
          "type": "string"
        }
      ],
      "stateMutability": "view",
      "type": "function"
    },
    {
      "inputs": [
        {
          "internalType": "uint256",
          "name": "tokenId",
          "type": "uint256"
        }
      ],
      "name": "ownerOf",
      "outputs": [
        {
          "internalType": "address",
          "name": "",
          "type": "address"
        }
      ],
      "stateMutability": "view",
      "type": "function"
    },
    {
      "inputs": [
        {
          "internalType": "uint256",
          "name": "tokenId",
          "type": "uint256"
        }
      ],
      "name": "placeBid",
      "outputs": [],
      "stateMutability": "payable",
      "type": "function"
    },
    {
      "inputs": [
        {
          "internalType": "uint256",
          "name": "tokenId",
          "type": "uint256"
        },
        {
          "internalType": "uint256",
          "name": "price",
          "type": "uint256"
        }
      ],
      "name": "resellToken",
      "outputs": [],
      "stateMutability": "payable",
      "type": "function"
    },
    {
      "inputs": [
        {
          "internalType": "address",
          "name": "from",
          "type": "address"
        },
        {
          "internalType": "address",
          "name": "to",
          "type": "address"
        },
        {
          "internalType": "uint256",
          "name": "tokenId",
          "type": "uint256"
        }
      ],
      "name": "safeTransferFrom",
      "outputs": [],
      "stateMutability": "nonpayable",
      "type": "function"
    },
    {
      "inputs": [
        {
          "internalType": "address",
          "name": "from",
          "type": "address"
        },
        {
          "internalType": "address",
          "name": "to",
          "type": "address"
        },
        {
          "internalType": "uint256",
          "name": "tokenId",
          "type": "uint256"
        },
        {
          "internalType": "bytes",
          "name": "data",
          "type": "bytes"
        }
      ],
      "name": "safeTransferFrom",
      "outputs": [],
      "stateMutability": "nonpayable",
      "type": "function"
    },
    {
      "inputs": [
        {
          "internalType": "address",
          "name": "operator",
          "type": "address"
        },
        {
          "internalType": "bool",
          "name": "approved",
          "type": "bool"
        }
      ],
      "name": "setApprovalForAll",
      "outputs": [],
      "stateMutability": "nonpayable",
      "type": "function"
    },
    {
      "inputs": [
        {
          "internalType": "uint256",
          "name": "tokenId",
          "type": "uint256"
        },
        {
          "internalType": "uint256",
          "name": "startingBid",
          "type": "uint256"
        },
        {
          "internalType": "uint256",
          "name": "duration",
          "type": "uint256"
        },
        {
          "internalType": "string",
          "name": "url",
          "type": "string"
        }
      ],
      "name": "startAuction",
      "outputs": [],
      "stateMutability": "nonpayable",
      "type": "function"
    },
    {
      "inputs": [
        {
          "internalType": "bytes4",
          "name": "interfaceId",
          "type": "bytes4"
        }
      ],
      "name": "supportsInterface",
      "outputs": [
        {
          "internalType": "bool",
          "name": "",
          "type": "bool"
        }
      ],
      "stateMutability": "view",
      "type": "function"
    },
    {
      "inputs": [],
      "name": "symbol",
      "outputs": [
        {
          "internalType": "string",
          "name": "",
          "type": "string"
        }
      ],
      "stateMutability": "view",
      "type": "function"
    },
    {
      "inputs": [
        {
          "internalType": "uint256",
          "name": "tokenId",
          "type": "uint256"
        }
      ],
      "name": "tokenURI",
      "outputs": [
        {
          "internalType": "string",
          "name": "",
          "type": "string"
        }
      ],
      "stateMutability": "view",
      "type": "function"
    },
    {
      "inputs": [
        {
          "internalType": "address",
          "name": "add1",
          "type": "address"
        },
        {
          "internalType": "uint256",
          "name": "token1",
          "type": "uint256"
        },
        {
          "internalType": "address",
          "name": "add2",
          "type": "address"
        },
        {
          "internalType": "uint256",
          "name": "token2",
          "type": "uint256"
        }
      ],
      "name": "tradeNFT",
      "outputs": [],
      "stateMutability": "nonpayable",
      "type": "function"
    },
    {
      "inputs": [
        {
          "internalType": "address",
          "name": "from",
          "type": "address"
        },
        {
          "internalType": "address",
          "name": "to",
          "type": "address"
        },
        {
          "internalType": "uint256",
          "name": "tokenId",
          "type": "uint256"
        }
      ],
      "name": "transferFrom",
      "outputs": [],
      "stateMutability": "nonpayable",
      "type": "function"
    },
    {
      "inputs": [
        {
          "internalType": "uint256",
          "name": "tokenId",
          "type": "uint256"
        },
        {
          "internalType": "address",
          "name": "recvAdd",
          "type": "address"
        }
      ],
      "name": "transferNFT",
      "outputs": [],
      "stateMutability": "nonpayable",
      "type": "function"
    },
    {
      "inputs": [
        {
          "internalType": "uint256",
          "name": "_listingPrice",
          "type": "uint256"
        }
      ],
      "name": "updateListingPrice",
      "outputs": [],
      "stateMutability": "payable",
      "type": "function"
    }
  ],
  "bytecode": "0x60806040526658d15e1762800060095534801561001b57600080fd5b506040518060400160405280601081526020017f4d657461766572736520546f6b656e73000000000000000000000000000000008152506040518060400160405280600481526020017f4d4554540000000000000000000000000000000000000000000000000000000081525081600090816100979190610340565b5080600190816100a79190610340565b50505033600a60006101000a81548173ffffffffffffffffffffffffffffffffffffffff021916908373ffffffffffffffffffffffffffffffffffffffff160217905550610412565b600081519050919050565b7f4e487b7100000000000000000000000000000000000000000000000000000000600052604160045260246000fd5b7f4e487b7100000000000000000000000000000000000000000000000000000000600052602260045260246000fd5b6000600282049050600182168061017157607f821691505b6020821081036101845761018361012a565b5b50919050565b60008190508160005260206000209050919050565b60006020601f8301049050919050565b600082821b905092915050565b6000600883026101ec7fffffffffffffffffffffffffffffffffffffffffffffffffffffffffffffffff826101af565b6101f686836101af565b95508019841693508086168417925050509392505050565b6000819050919050565b6000819050919050565b600061023d6102386102338461020e565b610218565b61020e565b9050919050565b6000819050919050565b61025783610222565b61026b61026382610244565b8484546101bc565b825550505050565b600090565b610280610273565b61028b81848461024e565b505050565b5b818110156102af576102a4600082610278565b600181019050610291565b5050565b601f8211156102f4576102c58161018a565b6102ce8461019f565b810160208510156102dd578190505b6102f16102e98561019f565b830182610290565b50505b505050565b600082821c905092915050565b6000610317600019846008026102f9565b1980831691505092915050565b60006103308383610306565b9150826002028217905092915050565b610349826100f0565b67ffffffffffffffff811115610362576103616100fb565b5b61036c8254610159565b6103778282856102b3565b600060209050601f8311600181146103aa5760008415610398578287015190505b6103a28582610324565b86555061040a565b601f1984166103b88661018a565b60005b828110156103e0578489015182556001820191506020850194506020810190506103bb565b868310156103fd57848901516103f9601f891682610306565b8355505b6001600288020188555050505b505050505050565b6157c9806104216000396000f3fe6080604052600436106101c25760003560e01c8063680ed24f116100f7578063ae677aa311610095578063bfb231d211610064578063bfb231d21461061e578063c87b56dd1461065e578063e219fc751461069b578063e985e9c5146106b7576101c2565b8063ae677aa314610594578063b88d4fde146105b0578063b9a2de3a146105d9578063be9af53614610602576101c2565b80639036c050116100d15780639036c050146104fb57806395d89b41146105245780639979ef451461054f578063a22cb4651461056b576101c2565b8063680ed24f1461046557806370a082311461048e57806372b3b620146104cb576101c2565b8063202e37401161016457806342842e0e1161013e57806342842e0e1461039457806345f8fa80146103bd578063571a26a0146103e85780636352211e14610428576101c2565b8063202e37401461031757806323b872dd1461034257806339ef8e871461036b576101c2565b8063095ea7b3116101a0578063095ea7b31461026c5780630f08efe01461029557806312e85585146102c05780631b2fcf48146102eb576101c2565b806301ffc9a7146101c757806306fdde0314610204578063081812fc1461022f575b600080fd5b3480156101d357600080fd5b506101ee60048036038101906101e99190613b50565b6106f4565b6040516101fb9190613b98565b60405180910390f35b34801561021057600080fd5b50610219610755565b6040516102269190613c43565b60405180910390f35b34801561023b57600080fd5b5061025660048036038101906102519190613c9b565b6107e7565b6040516102639190613d09565b60405180910390f35b34801561027857600080fd5b50610293600480360381019061028e9190613d50565b61082d565b005b3480156102a157600080fd5b506102aa610944565b6040516102b79190613ee6565b60405180910390f35b3480156102cc57600080fd5b506102d5610ba6565b6040516102e29190613f17565b60405180910390f35b3480156102f757600080fd5b50610300610bb0565b60405161030e9291906140a1565b60405180910390f35b34801561032357600080fd5b5061032c610f77565b6040516103399190613ee6565b60405180910390f35b34801561034e57600080fd5b50610369600480360381019061036491906140d8565b611257565b005b34801561037757600080fd5b50610392600480360381019061038d919061412b565b6112b7565b005b3480156103a057600080fd5b506103bb60048036038101906103b691906140d8565b611487565b005b3480156103c957600080fd5b506103d26114a7565b6040516103df9190613ee6565b60405180910390f35b3480156103f457600080fd5b5061040f600480360381019061040a9190613c9b565b611787565b60405161041f94939291906141a1565b60405180910390f35b34801561043457600080fd5b5061044f600480360381019061044a9190613c9b565b61185f565b60405161045c9190613d09565b60405180910390f35b34801561047157600080fd5b5061048c60048036038101906104879190614252565b6118e5565b005b34801561049a57600080fd5b506104b560048036038101906104b091906142da565b611a5e565b6040516104c29190613f17565b60405180910390f35b6104e560048036038101906104e09190614437565b611b15565b6040516104f29190613f17565b60405180910390f35b34801561050757600080fd5b50610522600480360381019061051d9190614493565b611b57565b005b34801561053057600080fd5b50610539611c4a565b6040516105469190613c43565b60405180910390f35b61056960048036038101906105649190613c9b565b611cdc565b005b34801561057757600080fd5b50610592600480360381019061058d91906144ff565b611dcf565b005b6105ae60048036038101906105a99190613c9b565b611de5565b005b3480156105bc57600080fd5b506105d760048036038101906105d291906145e0565b611e7f565b005b3480156105e557600080fd5b5061060060048036038101906105fb9190613c9b565b611ee1565b005b61061c60048036038101906106179190613c9b565b6121d6565b005b34801561062a57600080fd5b5061064560048036038101906106409190613c9b565b61240e565b6040516106559493929190614663565b60405180910390f35b34801561066a57600080fd5b5061068560048036038101906106809190613c9b565b61248b565b6040516106929190613c43565b60405180910390f35b6106b560048036038101906106b091906146a8565b61259d565b005b3480156106c357600080fd5b506106de60048036038101906106d991906146e8565b612792565b6040516106eb9190613b98565b60405180910390f35b6000634906490660e01b7bffffffffffffffffffffffffffffffffffffffffffffffffffffffff1916827bffffffffffffffffffffffffffffffffffffffffffffffffffffffff1916148061074e575061074d82612826565b5b9050919050565b60606000805461076490614757565b80601f016020809104026020016040519081016040528092919081815260200182805461079090614757565b80156107dd5780601f106107b2576101008083540402835291602001916107dd565b820191906000526020600020905b8154815290600101906020018083116107c057829003601f168201915b5050505050905090565b60006107f282612908565b6004600083815260200190815260200160002060009054906101000a900473ffffffffffffffffffffffffffffffffffffffff169050919050565b60006108388261185f565b90508073ffffffffffffffffffffffffffffffffffffffff168373ffffffffffffffffffffffffffffffffffffffff16036108a8576040517f08c379a000000000000000000000000000000000000000000000000000000000815260040161089f906147fa565b60405180910390fd5b8073ffffffffffffffffffffffffffffffffffffffff166108c7612953565b73ffffffffffffffffffffffffffffffffffffffff1614806108f657506108f5816108f0612953565b612792565b5b610935576040517f08c379a000000000000000000000000000000000000000000000000000000000815260040161092c9061488c565b60405180910390fd5b61093f838361295b565b505050565b606060006109526007612a14565b905060006109606008612a14565b61096a6007612a14565b61097491906148db565b90506000808267ffffffffffffffff8111156109935761099261430c565b5b6040519080825280602002602001820160405280156109cc57816020015b6109b96139ec565b8152602001906001900390816109b15790505b50905060005b84811015610b9b573073ffffffffffffffffffffffffffffffffffffffff16600b6000600184610a02919061490f565b815260200190815260200160002060020160009054906101000a900473ffffffffffffffffffffffffffffffffffffffff1673ffffffffffffffffffffffffffffffffffffffff1603610b8e576000600182610a5e919061490f565b90506000600b60008381526020019081526020016000209050806040518060a0016040529081600082015481526020016001820160009054906101000a900473ffffffffffffffffffffffffffffffffffffffff1673ffffffffffffffffffffffffffffffffffffffff1673ffffffffffffffffffffffffffffffffffffffff1681526020016002820160009054906101000a900473ffffffffffffffffffffffffffffffffffffffff1673ffffffffffffffffffffffffffffffffffffffff1673ffffffffffffffffffffffffffffffffffffffff168152602001600382015481526020016004820160009054906101000a900460ff161515151581525050848681518110610b7157610b70614943565b5b6020026020010181905250600185610b89919061490f565b945050505b80806001019150506109d2565b508094505050505090565b6000600954905090565b6060806000610bbf6007612a14565b90506000805b82811015610c1a576000600182610bdc919061490f565b905042600c6000838152602001908152602001600020600001541115610c0c57600183610c09919061490f565b92505b508080600101915050610bc5565b5060008167ffffffffffffffff811115610c3757610c3661430c565b5b604051908082528060200260200182016040528015610c7057816020015b610c5d6139ec565b815260200190600190039081610c555790505b50905060008267ffffffffffffffff811115610c8f57610c8e61430c565b5b604051908082528060200260200182016040528015610cc857816020015b610cb5613a49565b815260200190600190039081610cad5790505b5090506000805b85811015610f67576000600182610ce6919061490f565b90506000600c600083815260200190815260200160002090504281600001541115610f5857600b60008381526020019081526020016000206040518060a0016040529081600082015481526020016001820160009054906101000a900473ffffffffffffffffffffffffffffffffffffffff1673ffffffffffffffffffffffffffffffffffffffff1673ffffffffffffffffffffffffffffffffffffffff1681526020016002820160009054906101000a900473ffffffffffffffffffffffffffffffffffffffff1673ffffffffffffffffffffffffffffffffffffffff1673ffffffffffffffffffffffffffffffffffffffff168152602001600382015481526020016004820160009054906101000a900460ff161515151581525050868581518110610e1757610e16614943565b5b60200260200101819052508060405180608001604052908160008201548152602001600182015481526020016002820160009054906101000a900473ffffffffffffffffffffffffffffffffffffffff1673ffffffffffffffffffffffffffffffffffffffff1673ffffffffffffffffffffffffffffffffffffffff168152602001600382018054610ea890614757565b80601f0160208091040260200160405190810160405280929190818152602001828054610ed490614757565b8015610f215780601f10610ef657610100808354040283529160200191610f21565b820191906000526020600020905b815481529060010190602001808311610f0457829003601f168201915b505050505081525050858581518110610f3d57610f3c614943565b5b6020026020010181905250600184610f55919061490f565b93505b50508080600101915050610ccf565b5082829650965050505050509091565b60606000610f856007612a14565b905060008060005b83811015611027573373ffffffffffffffffffffffffffffffffffffffff16600b6000600184610fbd919061490f565b815260200190815260200160002060020160009054906101000a900473ffffffffffffffffffffffffffffffffffffffff1673ffffffffffffffffffffffffffffffffffffffff160361101a57600183611017919061490f565b92505b8080600101915050610f8d565b5060008267ffffffffffffffff8111156110445761104361430c565b5b60405190808252806020026020018201604052801561107d57816020015b61106a6139ec565b8152602001906001900390816110625790505b50905060005b8481101561124c573373ffffffffffffffffffffffffffffffffffffffff16600b60006001846110b3919061490f565b815260200190815260200160002060020160009054906101000a900473ffffffffffffffffffffffffffffffffffffffff1673ffffffffffffffffffffffffffffffffffffffff160361123f57600060018261110f919061490f565b90506000600b60008381526020019081526020016000209050806040518060a0016040529081600082015481526020016001820160009054906101000a900473ffffffffffffffffffffffffffffffffffffffff1673ffffffffffffffffffffffffffffffffffffffff1673ffffffffffffffffffffffffffffffffffffffff1681526020016002820160009054906101000a900473ffffffffffffffffffffffffffffffffffffffff1673ffffffffffffffffffffffffffffffffffffffff1673ffffffffffffffffffffffffffffffffffffffff168152602001600382015481526020016004820160009054906101000a900460ff16151515158152505084868151811061122257611221614943565b5b602002602001018190525060018561123a919061490f565b945050505b8080600101915050611083565b508094505050505090565b611268611262612953565b82612a22565b6112a7576040517f08c379a000000000000000000000000000000000000000000000000000000000815260040161129e906149e4565b60405180910390fd5b6112b2838383612ab7565b505050565b81600b600085815260200190815260200160002060020160006101000a81548173ffffffffffffffffffffffffffffffffffffffff021916908373ffffffffffffffffffffffffffffffffffffffff1602179055506001600b600085815260200190815260200160002060040160006101000a81548160ff0219169083151502179055506000600b600085815260200190815260200160002060010160006101000a81548173ffffffffffffffffffffffffffffffffffffffff021916908373ffffffffffffffffffffffffffffffffffffffff16021790555061139c848385612ab7565b83600b600083815260200190815260200160002060020160006101000a81548173ffffffffffffffffffffffffffffffffffffffff021916908373ffffffffffffffffffffffffffffffffffffffff1602179055506001600b600083815260200190815260200160002060040160006101000a81548160ff0219169083151502179055506000600b600083815260200190815260200160002060010160006101000a81548173ffffffffffffffffffffffffffffffffffffffff021916908373ffffffffffffffffffffffffffffffffffffffff160217905550611481828583612ab7565b50505050565b6114a283838360405180602001604052806000815250611e7f565b505050565b606060006114b56007612a14565b905060008060005b83811015611557573373ffffffffffffffffffffffffffffffffffffffff16600b60006001846114ed919061490f565b815260200190815260200160002060010160009054906101000a900473ffffffffffffffffffffffffffffffffffffffff1673ffffffffffffffffffffffffffffffffffffffff160361154a57600183611547919061490f565b92505b80806001019150506114bd565b5060008267ffffffffffffffff8111156115745761157361430c565b5b6040519080825280602002602001820160405280156115ad57816020015b61159a6139ec565b8152602001906001900390816115925790505b50905060005b8481101561177c573373ffffffffffffffffffffffffffffffffffffffff16600b60006001846115e3919061490f565b815260200190815260200160002060010160009054906101000a900473ffffffffffffffffffffffffffffffffffffffff1673ffffffffffffffffffffffffffffffffffffffff160361176f57600060018261163f919061490f565b90506000600b60008381526020019081526020016000209050806040518060a0016040529081600082015481526020016001820160009054906101000a900473ffffffffffffffffffffffffffffffffffffffff1673ffffffffffffffffffffffffffffffffffffffff1673ffffffffffffffffffffffffffffffffffffffff1681526020016002820160009054906101000a900473ffffffffffffffffffffffffffffffffffffffff1673ffffffffffffffffffffffffffffffffffffffff1673ffffffffffffffffffffffffffffffffffffffff168152602001600382015481526020016004820160009054906101000a900460ff16151515158152505084868151811061175257611751614943565b5b602002602001018190525060018561176a919061490f565b945050505b80806001019150506115b3565b508094505050505090565b600c6020528060005260406000206000915090508060000154908060010154908060020160009054906101000a900473ffffffffffffffffffffffffffffffffffffffff16908060030180546117dc90614757565b80601f016020809104026020016040519081016040528092919081815260200182805461180890614757565b80156118555780601f1061182a57610100808354040283529160200191611855565b820191906000526020600020905b81548152906001019060200180831161183857829003601f168201915b5050505050905084565b60008061186b83612db0565b9050600073ffffffffffffffffffffffffffffffffffffffff168173ffffffffffffffffffffffffffffffffffffffff16036118dc576040517f08c379a00000000000000000000000000000000000000000000000000000000081526004016118d390614a50565b60405180910390fd5b80915050919050565b600d600086815260200190815260200160002060010160149054906101000a900460ff1615611949576040517f08c379a000000000000000000000000000000000000000000000000000000000815260040161194090614abc565b60405180910390fd5b60405180608001604052808442611960919061490f565b8152602001858152602001600073ffffffffffffffffffffffffffffffffffffffff16815260200183838080601f016020809104026020016040519081016040528093929190818152602001838380828437600081840152601f19601f82011690508083019250505050505050815250600c6000878152602001908152602001600020600082015181600001556020820151816001015560408201518160020160006101000a81548173ffffffffffffffffffffffffffffffffffffffff021916908373ffffffffffffffffffffffffffffffffffffffff1602179055506060820151816003019081611a539190614c88565b509050505050505050565b60008073ffffffffffffffffffffffffffffffffffffffff168273ffffffffffffffffffffffffffffffffffffffff1603611ace576040517f08c379a0000000000000000000000000000000000000000000000000000000008152600401611ac590614dcc565b60405180910390fd5b600360008373ffffffffffffffffffffffffffffffffffffffff1673ffffffffffffffffffffffffffffffffffffffff168152602001908152602001600020549050919050565b6000611b216007612ded565b6000611b2d6007612a14565b9050611b393382612e03565b611b438185613020565b611b4d81846130c4565b8091505092915050565b80600b600084815260200190815260200160002060020160006101000a81548173ffffffffffffffffffffffffffffffffffffffff021916908373ffffffffffffffffffffffffffffffffffffffff1602179055506001600b600084815260200190815260200160002060040160006101000a81548160ff0219169083151502179055506000600b600084815260200190815260200160002060010160006101000a81548173ffffffffffffffffffffffffffffffffffffffff021916908373ffffffffffffffffffffffffffffffffffffffff160217905550611c3b6008612ded565b611c46308284612ab7565b5050565b606060018054611c5990614757565b80601f0160208091040260200160405190810160405280929190818152602001828054611c8590614757565b8015611cd25780601f10611ca757610100808354040283529160200191611cd2565b820191906000526020600020905b815481529060010190602001808311611cb557829003601f168201915b5050505050905090565b6000600c6000838152602001908152602001600020905080600001544210611d39576040517f08c379a0000000000000000000000000000000000000000000000000000000008152600401611d3090614e38565b60405180910390fd5b80600101543411611d7f576040517f08c379a0000000000000000000000000000000000000000000000000000000008152600401611d7690614ea4565b60405180910390fd5b348160010181905550338160020160006101000a81548173ffffffffffffffffffffffffffffffffffffffff021916908373ffffffffffffffffffffffffffffffffffffffff1602179055505050565b611de1611dda612953565b83836132c7565b5050565b3373ffffffffffffffffffffffffffffffffffffffff16600a60009054906101000a900473ffffffffffffffffffffffffffffffffffffffff1673ffffffffffffffffffffffffffffffffffffffff1614611e75576040517f08c379a0000000000000000000000000000000000000000000000000000000008152600401611e6c90614f36565b60405180910390fd5b8060098190555050565b611e90611e8a612953565b83612a22565b611ecf576040517f08c379a0000000000000000000000000000000000000000000000000000000008152600401611ec6906149e4565b60405180910390fd5b611edb84848484613433565b50505050565b6000600c60008381526020019081526020016000209050600081600101549050600b600084815260200190815260200160002060040160009054906101000a900460ff1615611f65576040517f08c379a0000000000000000000000000000000000000000000000000000000008152600401611f5c90614fa2565b60405180910390fd5b6000600b600085815260200190815260200160002060010160009054906101000a900473ffffffffffffffffffffffffffffffffffffffff169050600b600085815260200190815260200160002060010160009054906101000a900473ffffffffffffffffffffffffffffffffffffffff1673ffffffffffffffffffffffffffffffffffffffff166108fc84600101549081150290604051600060405180830381858888f19350505050158015612020573d6000803e3d6000fd5b508260020160009054906101000a900473ffffffffffffffffffffffffffffffffffffffff16600b600086815260200190815260200160002060020160006101000a81548173ffffffffffffffffffffffffffffffffffffffff021916908373ffffffffffffffffffffffffffffffffffffffff1602179055506001600b600086815260200190815260200160002060040160006101000a81548160ff0219169083151502179055506000600b600086815260200190815260200160002060010160006101000a81548173ffffffffffffffffffffffffffffffffffffffff021916908373ffffffffffffffffffffffffffffffffffffffff16021790555081600b6000868152602001908152602001600020600301819055506121446008612ded565b612173308460020160009054906101000a900473ffffffffffffffffffffffffffffffffffffffff1686612ab7565b600c600085815260200190815260200160002060008082016000905560018201600090556002820160006101000a81549073ffffffffffffffffffffffffffffffffffffffff02191690556003820160006121ce9190613a87565b505050505050565b6000600b6000838152602001908152602001600020600301549050803414612233576040517f08c379a000000000000000000000000000000000000000000000000000000000815260040161222a90615034565b60405180910390fd5b600a60009054906101000a900473ffffffffffffffffffffffffffffffffffffffff1673ffffffffffffffffffffffffffffffffffffffff166108fc6009549081150290604051600060405180830381858888f1935050505015801561229d573d6000803e3d6000fd5b50600b600083815260200190815260200160002060010160009054906101000a900473ffffffffffffffffffffffffffffffffffffffff1673ffffffffffffffffffffffffffffffffffffffff166108fc349081150290604051600060405180830381858888f1935050505015801561231a573d6000803e3d6000fd5b5033600b600084815260200190815260200160002060020160006101000a81548173ffffffffffffffffffffffffffffffffffffffff021916908373ffffffffffffffffffffffffffffffffffffffff1602179055506001600b600084815260200190815260200160002060040160006101000a81548160ff0219169083151502179055506000600b600084815260200190815260200160002060010160006101000a81548173ffffffffffffffffffffffffffffffffffffffff021916908373ffffffffffffffffffffffffffffffffffffffff1602179055506123ff6008612ded565b61240a303384612ab7565b5050565b600d6020528060005260406000206000915090508060000160009054906101000a900473ffffffffffffffffffffffffffffffffffffffff16908060010160009054906101000a900473ffffffffffffffffffffffffffffffffffffffff16908060010160149054906101000a900460ff16908060020154905084565b606061249682612908565b60006006600084815260200190815260200160002080546124b690614757565b80601f01602080910402602001604051908101604052809291908181526020018280546124e290614757565b801561252f5780601f106125045761010080835404028352916020019161252f565b820191906000526020600020905b81548152906001019060200180831161251257829003601f168201915b50505050509050600061254061348f565b90506000815103612555578192505050612598565b60008251111561258a578082604051602001612572929190615090565b60405160208183030381529060405292505050612598565b612593846134a6565b925050505b919050565b3373ffffffffffffffffffffffffffffffffffffffff16600b600084815260200190815260200160002060020160009054906101000a900473ffffffffffffffffffffffffffffffffffffffff1673ffffffffffffffffffffffffffffffffffffffff1614612641576040517f08c379a000000000000000000000000000000000000000000000000000000000815260040161263890615126565b60405180910390fd5b6009543414612685576040517f08c379a000000000000000000000000000000000000000000000000000000000815260040161267c906151b8565b60405180910390fd5b6000600b600084815260200190815260200160002060040160006101000a81548160ff02191690831515021790555080600b60008481526020019081526020016000206003018190555033600b600084815260200190815260200160002060010160006101000a81548173ffffffffffffffffffffffffffffffffffffffff021916908373ffffffffffffffffffffffffffffffffffffffff16021790555030600b600084815260200190815260200160002060020160006101000a81548173ffffffffffffffffffffffffffffffffffffffff021916908373ffffffffffffffffffffffffffffffffffffffff160217905550612783600861350e565b61278e333084612ab7565b5050565b6000600560008473ffffffffffffffffffffffffffffffffffffffff1673ffffffffffffffffffffffffffffffffffffffff16815260200190815260200160002060008373ffffffffffffffffffffffffffffffffffffffff1673ffffffffffffffffffffffffffffffffffffffff16815260200190815260200160002060009054906101000a900460ff16905092915050565b60007f80ac58cd000000000000000000000000000000000000000000000000000000007bffffffffffffffffffffffffffffffffffffffffffffffffffffffff1916827bffffffffffffffffffffffffffffffffffffffffffffffffffffffff191614806128f157507f5b5e139f000000000000000000000000000000000000000000000000000000007bffffffffffffffffffffffffffffffffffffffffffffffffffffffff1916827bffffffffffffffffffffffffffffffffffffffffffffffffffffffff1916145b8061290157506129008261356a565b5b9050919050565b612911816135d4565b612950576040517f08c379a000000000000000000000000000000000000000000000000000000000815260040161294790614a50565b60405180910390fd5b50565b600033905090565b816004600083815260200190815260200160002060006101000a81548173ffffffffffffffffffffffffffffffffffffffff021916908373ffffffffffffffffffffffffffffffffffffffff160217905550808273ffffffffffffffffffffffffffffffffffffffff166129ce8361185f565b73ffffffffffffffffffffffffffffffffffffffff167f8c5be1e5ebec7d5bd14f71427d1e84f3dd0314c0f7b2291e5b200ac8c7c3b92560405160405180910390a45050565b600081600001549050919050565b600080612a2e8361185f565b90508073ffffffffffffffffffffffffffffffffffffffff168473ffffffffffffffffffffffffffffffffffffffff161480612a705750612a6f8185612792565b5b80612aae57508373ffffffffffffffffffffffffffffffffffffffff16612a96846107e7565b73ffffffffffffffffffffffffffffffffffffffff16145b91505092915050565b8273ffffffffffffffffffffffffffffffffffffffff16612ad78261185f565b73ffffffffffffffffffffffffffffffffffffffff1614612b2d576040517f08c379a0000000000000000000000000000000000000000000000000000000008152600401612b249061524a565b60405180910390fd5b600073ffffffffffffffffffffffffffffffffffffffff168273ffffffffffffffffffffffffffffffffffffffff1603612b9c576040517f08c379a0000000000000000000000000000000000000000000000000000000008152600401612b93906152dc565b60405180910390fd5b612ba98383836001613615565b8273ffffffffffffffffffffffffffffffffffffffff16612bc98261185f565b73ffffffffffffffffffffffffffffffffffffffff1614612c1f576040517f08c379a0000000000000000000000000000000000000000000000000000000008152600401612c169061524a565b60405180910390fd5b6004600082815260200190815260200160002060006101000a81549073ffffffffffffffffffffffffffffffffffffffff02191690556001600360008573ffffffffffffffffffffffffffffffffffffffff1673ffffffffffffffffffffffffffffffffffffffff168152602001908152602001600020600082825403925050819055506001600360008473ffffffffffffffffffffffffffffffffffffffff1673ffffffffffffffffffffffffffffffffffffffff16815260200190815260200160002060008282540192505081905550816002600083815260200190815260200160002060006101000a81548173ffffffffffffffffffffffffffffffffffffffff021916908373ffffffffffffffffffffffffffffffffffffffff160217905550808273ffffffffffffffffffffffffffffffffffffffff168473ffffffffffffffffffffffffffffffffffffffff167fddf252ad1be2c89b69c2b068fc378daa952ba7f163c4a11628f55a4df523b3ef60405160405180910390a4612dab838383600161361b565b505050565b60006002600083815260200190815260200160002060009054906101000a900473ffffffffffffffffffffffffffffffffffffffff169050919050565b6001816000016000828254019250508190555050565b600073ffffffffffffffffffffffffffffffffffffffff168273ffffffffffffffffffffffffffffffffffffffff1603612e72576040517f08c379a0000000000000000000000000000000000000000000000000000000008152600401612e6990615348565b60405180910390fd5b612e7b816135d4565b15612ebb576040517f08c379a0000000000000000000000000000000000000000000000000000000008152600401612eb2906153b4565b60405180910390fd5b612ec9600083836001613615565b612ed2816135d4565b15612f12576040517f08c379a0000000000000000000000000000000000000000000000000000000008152600401612f09906153b4565b60405180910390fd5b6001600360008473ffffffffffffffffffffffffffffffffffffffff1673ffffffffffffffffffffffffffffffffffffffff16815260200190815260200160002060008282540192505081905550816002600083815260200190815260200160002060006101000a81548173ffffffffffffffffffffffffffffffffffffffff021916908373ffffffffffffffffffffffffffffffffffffffff160217905550808273ffffffffffffffffffffffffffffffffffffffff16600073ffffffffffffffffffffffffffffffffffffffff167fddf252ad1be2c89b69c2b068fc378daa952ba7f163c4a11628f55a4df523b3ef60405160405180910390a461301c60008383600161361b565b5050565b613029826135d4565b613068576040517f08c379a000000000000000000000000000000000000000000000000000000000815260040161305f90615446565b60405180910390fd5b806006600084815260200190815260200160002090816130889190614c88565b507ff8e1a15aba9398e019f0b49df1a4fde98ee17ae345cb5f6b5e2c27f5033e8ce7826040516130b89190613f17565b60405180910390a15050565b60008111613107576040517f08c379a00000000000000000000000000000000000000000000000000000000081526004016130fe906154b2565b60405180910390fd5b600954341461314b576040517f08c379a0000000000000000000000000000000000000000000000000000000008152600401613142906151b8565b60405180910390fd5b6040518060a001604052808381526020013373ffffffffffffffffffffffffffffffffffffffff1681526020013073ffffffffffffffffffffffffffffffffffffffff16815260200182815260200160001515815250600b60008481526020019081526020016000206000820151816000015560208201518160010160006101000a81548173ffffffffffffffffffffffffffffffffffffffff021916908373ffffffffffffffffffffffffffffffffffffffff16021790555060408201518160020160006101000a81548173ffffffffffffffffffffffffffffffffffffffff021916908373ffffffffffffffffffffffffffffffffffffffff1602179055506060820151816003015560808201518160040160006101000a81548160ff021916908315150217905550905050613284333084612ab7565b817fb640004f1d14576d0c209e240cad0410e0d8c0c33a09375861fbadae2588a98d33308460006040516132bb94939291906154d2565b60405180910390a25050565b8173ffffffffffffffffffffffffffffffffffffffff168373ffffffffffffffffffffffffffffffffffffffff1603613335576040517f08c379a000000000000000000000000000000000000000000000000000000000815260040161332c90615563565b60405180910390fd5b80600560008573ffffffffffffffffffffffffffffffffffffffff1673ffffffffffffffffffffffffffffffffffffffff16815260200190815260200160002060008473ffffffffffffffffffffffffffffffffffffffff1673ffffffffffffffffffffffffffffffffffffffff16815260200190815260200160002060006101000a81548160ff0219169083151502179055508173ffffffffffffffffffffffffffffffffffffffff168373ffffffffffffffffffffffffffffffffffffffff167f17307eab39ab6107e8899845ad3d59bd9653f200f220920489ca2b5937696c31836040516134269190613b98565b60405180910390a3505050565b61343e848484612ab7565b61344a84848484613621565b613489576040517f08c379a0000000000000000000000000000000000000000000000000000000008152600401613480906155f5565b60405180910390fd5b50505050565b606060405180602001604052806000815250905090565b60606134b182612908565b60006134bb61348f565b905060008151116134db5760405180602001604052806000815250613506565b806134e5846137a8565b6040516020016134f6929190615090565b6040516020818303038152906040525b915050919050565b6000816000015490506000811161355a576040517f08c379a000000000000000000000000000000000000000000000000000000000815260040161355190615661565b60405180910390fd5b6001810382600001819055505050565b60007f01ffc9a7000000000000000000000000000000000000000000000000000000007bffffffffffffffffffffffffffffffffffffffffffffffffffffffff1916827bffffffffffffffffffffffffffffffffffffffffffffffffffffffff1916149050919050565b60008073ffffffffffffffffffffffffffffffffffffffff166135f683612db0565b73ffffffffffffffffffffffffffffffffffffffff1614159050919050565b50505050565b50505050565b60006136428473ffffffffffffffffffffffffffffffffffffffff16613876565b1561379b578373ffffffffffffffffffffffffffffffffffffffff1663150b7a0261366b612953565b8786866040518563ffffffff1660e01b815260040161368d94939291906156d6565b6020604051808303816000875af19250505080156136c957506040513d601f19601f820116820180604052508101906136c69190615737565b60015b61374b573d80600081146136f9576040519150601f19603f3d011682016040523d82523d6000602084013e6136fe565b606091505b506000815103613743576040517f08c379a000000000000000000000000000000000000000000000000000000000815260040161373a906155f5565b60405180910390fd5b805181602001fd5b63150b7a0260e01b7bffffffffffffffffffffffffffffffffffffffffffffffffffffffff1916817bffffffffffffffffffffffffffffffffffffffffffffffffffffffff1916149150506137a0565b600190505b949350505050565b6060600060016137b784613899565b01905060008167ffffffffffffffff8111156137d6576137d561430c565b5b6040519080825280601f01601f1916602001820160405280156138085781602001600182028036833780820191505090505b509050600082602001820190505b60011561386b578080600190039150507f3031323334353637383961626364656600000000000000000000000000000000600a86061a8153600a858161385f5761385e615764565b5b04945060008503613816575b819350505050919050565b6000808273ffffffffffffffffffffffffffffffffffffffff163b119050919050565b600080600090507a184f03e93ff9f4daa797ed6e38ed64bf6a1f01000000000000000083106138f7577a184f03e93ff9f4daa797ed6e38ed64bf6a1f01000000000000000083816138ed576138ec615764565b5b0492506040810190505b6d04ee2d6d415b85acef81000000008310613934576d04ee2d6d415b85acef8100000000838161392a57613929615764565b5b0492506020810190505b662386f26fc10000831061396357662386f26fc10000838161395957613958615764565b5b0492506010810190505b6305f5e100831061398c576305f5e100838161398257613981615764565b5b0492506008810190505b61271083106139b15761271083816139a7576139a6615764565b5b0492506004810190505b606483106139d457606483816139ca576139c9615764565b5b0492506002810190505b600a83106139e3576001810190505b80915050919050565b6040518060a0016040528060008152602001600073ffffffffffffffffffffffffffffffffffffffff168152602001600073ffffffffffffffffffffffffffffffffffffffff168152602001600081526020016000151581525090565b60405180608001604052806000815260200160008152602001600073ffffffffffffffffffffffffffffffffffffffff168152602001606081525090565b508054613a9390614757565b6000825580601f10613aa55750613ac4565b601f016020900490600052602060002090810190613ac39190613ac7565b5b50565b5b80821115613ae0576000816000905550600101613ac8565b5090565b6000604051905090565b600080fd5b600080fd5b60007fffffffff0000000000000000000000000000000000000000000000000000000082169050919050565b613b2d81613af8565b8114613b3857600080fd5b50565b600081359050613b4a81613b24565b92915050565b600060208284031215613b6657613b65613aee565b5b6000613b7484828501613b3b565b91505092915050565b60008115159050919050565b613b9281613b7d565b82525050565b6000602082019050613bad6000830184613b89565b92915050565b600081519050919050565b600082825260208201905092915050565b60005b83811015613bed578082015181840152602081019050613bd2565b60008484015250505050565b6000601f19601f8301169050919050565b6000613c1582613bb3565b613c1f8185613bbe565b9350613c2f818560208601613bcf565b613c3881613bf9565b840191505092915050565b60006020820190508181036000830152613c5d8184613c0a565b905092915050565b6000819050919050565b613c7881613c65565b8114613c8357600080fd5b50565b600081359050613c9581613c6f565b92915050565b600060208284031215613cb157613cb0613aee565b5b6000613cbf84828501613c86565b91505092915050565b600073ffffffffffffffffffffffffffffffffffffffff82169050919050565b6000613cf382613cc8565b9050919050565b613d0381613ce8565b82525050565b6000602082019050613d1e6000830184613cfa565b92915050565b613d2d81613ce8565b8114613d3857600080fd5b50565b600081359050613d4a81613d24565b92915050565b60008060408385031215613d6757613d66613aee565b5b6000613d7585828601613d3b565b9250506020613d8685828601613c86565b9150509250929050565b600081519050919050565b600082825260208201905092915050565b6000819050602082019050919050565b613dc581613c65565b82525050565b6000613dd682613cc8565b9050919050565b613de681613dcb565b82525050565b613df581613b7d565b82525050565b60a082016000820151613e116000850182613dbc565b506020820151613e246020850182613ddd565b506040820151613e376040850182613ddd565b506060820151613e4a6060850182613dbc565b506080820151613e5d6080850182613dec565b50505050565b6000613e6f8383613dfb565b60a08301905092915050565b6000602082019050919050565b6000613e9382613d90565b613e9d8185613d9b565b9350613ea883613dac565b8060005b83811015613ed9578151613ec08882613e63565b9750613ecb83613e7b565b925050600181019050613eac565b5085935050505092915050565b60006020820190508181036000830152613f008184613e88565b905092915050565b613f1181613c65565b82525050565b6000602082019050613f2c6000830184613f08565b92915050565b600081519050919050565b600082825260208201905092915050565b6000819050602082019050919050565b600082825260208201905092915050565b6000613f7a82613bb3565b613f848185613f5e565b9350613f94818560208601613bcf565b613f9d81613bf9565b840191505092915050565b6000608083016000830151613fc06000860182613dbc565b506020830151613fd36020860182613dbc565b506040830151613fe66040860182613ddd565b5060608301518482036060860152613ffe8282613f6f565b9150508091505092915050565b60006140178383613fa8565b905092915050565b6000602082019050919050565b600061403782613f32565b6140418185613f3d565b93508360208202850161405385613f4e565b8060005b8581101561408f5784840389528151614070858261400b565b945061407b8361401f565b925060208a01995050600181019050614057565b50829750879550505050505092915050565b600060408201905081810360008301526140bb8185613e88565b905081810360208301526140cf818461402c565b90509392505050565b6000806000606084860312156140f1576140f0613aee565b5b60006140ff86828701613d3b565b935050602061411086828701613d3b565b925050604061412186828701613c86565b9150509250925092565b6000806000806080858703121561414557614144613aee565b5b600061415387828801613d3b565b945050602061416487828801613c86565b935050604061417587828801613d3b565b925050606061418687828801613c86565b91505092959194509250565b61419b81613dcb565b82525050565b60006080820190506141b66000830187613f08565b6141c36020830186613f08565b6141d06040830185614192565b81810360608301526141e28184613c0a565b905095945050505050565b600080fd5b600080fd5b600080fd5b60008083601f840112614212576142116141ed565b5b8235905067ffffffffffffffff81111561422f5761422e6141f2565b5b60208301915083600182028301111561424b5761424a6141f7565b5b9250929050565b60008060008060006080868803121561426e5761426d613aee565b5b600061427c88828901613c86565b955050602061428d88828901613c86565b945050604061429e88828901613c86565b935050606086013567ffffffffffffffff8111156142bf576142be613af3565b5b6142cb888289016141fc565b92509250509295509295909350565b6000602082840312156142f0576142ef613aee565b5b60006142fe84828501613d3b565b91505092915050565b600080fd5b7f4e487b7100000000000000000000000000000000000000000000000000000000600052604160045260246000fd5b61434482613bf9565b810181811067ffffffffffffffff821117156143635761436261430c565b5b80604052505050565b6000614376613ae4565b9050614382828261433b565b919050565b600067ffffffffffffffff8211156143a2576143a161430c565b5b6143ab82613bf9565b9050602081019050919050565b82818337600083830152505050565b60006143da6143d584614387565b61436c565b9050828152602081018484840111156143f6576143f5614307565b5b6144018482856143b8565b509392505050565b600082601f83011261441e5761441d6141ed565b5b813561442e8482602086016143c7565b91505092915050565b6000806040838503121561444e5761444d613aee565b5b600083013567ffffffffffffffff81111561446c5761446b613af3565b5b61447885828601614409565b925050602061448985828601613c86565b9150509250929050565b600080604083850312156144aa576144a9613aee565b5b60006144b885828601613c86565b92505060206144c985828601613d3b565b9150509250929050565b6144dc81613b7d565b81146144e757600080fd5b50565b6000813590506144f9816144d3565b92915050565b6000806040838503121561451657614515613aee565b5b600061452485828601613d3b565b9250506020614535858286016144ea565b9150509250929050565b600067ffffffffffffffff82111561455a5761455961430c565b5b61456382613bf9565b9050602081019050919050565b600061458361457e8461453f565b61436c565b90508281526020810184848401111561459f5761459e614307565b5b6145aa8482856143b8565b509392505050565b600082601f8301126145c7576145c66141ed565b5b81356145d7848260208601614570565b91505092915050565b600080600080608085870312156145fa576145f9613aee565b5b600061460887828801613d3b565b945050602061461987828801613d3b565b935050604061462a87828801613c86565b925050606085013567ffffffffffffffff81111561464b5761464a613af3565b5b614657878288016145b2565b91505092959194509250565b60006080820190506146786000830187613cfa565b6146856020830186613cfa565b6146926040830185613b89565b61469f6060830184613f08565b95945050505050565b600080604083850312156146bf576146be613aee565b5b60006146cd85828601613c86565b92505060206146de85828601613c86565b9150509250929050565b600080604083850312156146ff576146fe613aee565b5b600061470d85828601613d3b565b925050602061471e85828601613d3b565b9150509250929050565b7f4e487b7100000000000000000000000000000000000000000000000000000000600052602260045260246000fd5b6000600282049050600182168061476f57607f821691505b60208210810361478257614781614728565b5b50919050565b7f4552433732313a20617070726f76616c20746f2063757272656e74206f776e6560008201527f7200000000000000000000000000000000000000000000000000000000000000602082015250565b60006147e4602183613bbe565b91506147ef82614788565b604082019050919050565b60006020820190508181036000830152614813816147d7565b9050919050565b7f4552433732313a20617070726f76652063616c6c6572206973206e6f7420746f60008201527f6b656e206f776e6572206f7220617070726f76656420666f7220616c6c000000602082015250565b6000614876603d83613bbe565b91506148818261481a565b604082019050919050565b600060208201905081810360008301526148a581614869565b9050919050565b7f4e487b7100000000000000000000000000000000000000000000000000000000600052601160045260246000fd5b60006148e682613c65565b91506148f183613c65565b9250828203905081811115614909576149086148ac565b5b92915050565b600061491a82613c65565b915061492583613c65565b925082820190508082111561493d5761493c6148ac565b5b92915050565b7f4e487b7100000000000000000000000000000000000000000000000000000000600052603260045260246000fd5b7f4552433732313a2063616c6c6572206973206e6f7420746f6b656e206f776e6560008201527f72206f7220617070726f76656400000000000000000000000000000000000000602082015250565b60006149ce602d83613bbe565b91506149d982614972565b604082019050919050565b600060208201905081810360008301526149fd816149c1565b9050919050565b7f4552433732313a20696e76616c696420746f6b656e2049440000000000000000600082015250565b6000614a3a601883613bbe565b9150614a4582614a04565b602082019050919050565b60006020820190508181036000830152614a6981614a2d565b9050919050565b7f4974656d20616c726561647920736f6c64000000000000000000000000000000600082015250565b6000614aa6601183613bbe565b9150614ab182614a70565b602082019050919050565b60006020820190508181036000830152614ad581614a99565b9050919050565b60008190508160005260206000209050919050565b60006020601f8301049050919050565b600082821b905092915050565b600060088302614b3e7fffffffffffffffffffffffffffffffffffffffffffffffffffffffffffffffff82614b01565b614b488683614b01565b95508019841693508086168417925050509392505050565b6000819050919050565b6000614b85614b80614b7b84613c65565b614b60565b613c65565b9050919050565b6000819050919050565b614b9f83614b6a565b614bb3614bab82614b8c565b848454614b0e565b825550505050565b600090565b614bc8614bbb565b614bd3818484614b96565b505050565b5b81811015614bf757614bec600082614bc0565b600181019050614bd9565b5050565b601f821115614c3c57614c0d81614adc565b614c1684614af1565b81016020851015614c25578190505b614c39614c3185614af1565b830182614bd8565b50505b505050565b600082821c905092915050565b6000614c5f60001984600802614c41565b1980831691505092915050565b6000614c788383614c4e565b9150826002028217905092915050565b614c9182613bb3565b67ffffffffffffffff811115614caa57614ca961430c565b5b614cb48254614757565b614cbf828285614bfb565b600060209050601f831160018114614cf25760008415614ce0578287015190505b614cea8582614c6c565b865550614d52565b601f198416614d0086614adc565b60005b82811015614d2857848901518255600182019150602085019450602081019050614d03565b86831015614d455784890151614d41601f891682614c4e565b8355505b6001600288020188555050505b505050505050565b7f4552433732313a2061646472657373207a65726f206973206e6f74206120766160008201527f6c6964206f776e65720000000000000000000000000000000000000000000000602082015250565b6000614db6602983613bbe565b9150614dc182614d5a565b604082019050919050565b60006020820190508181036000830152614de581614da9565b9050919050565b7f41756374696f6e20656e64656400000000000000000000000000000000000000600082015250565b6000614e22600d83613bbe565b9150614e2d82614dec565b602082019050919050565b60006020820190508181036000830152614e5181614e15565b9050919050565b7f546865726520616c726561647920697320612068696768657220626964000000600082015250565b6000614e8e601d83613bbe565b9150614e9982614e58565b602082019050919050565b60006020820190508181036000830152614ebd81614e81565b9050919050565b7f4f6e6c79206d61726b6574706c616365206f776e65722063616e20757064617460008201527f65206c697374696e672070726963652e00000000000000000000000000000000602082015250565b6000614f20603083613bbe565b9150614f2b82614ec4565b604082019050919050565b60006020820190508181036000830152614f4f81614f13565b9050919050565b7f41756374696f6e2068617320616c726561647920656e64656400000000000000600082015250565b6000614f8c601983613bbe565b9150614f9782614f56565b602082019050919050565b60006020820190508181036000830152614fbb81614f7f565b9050919050565b7f506c65617365207375626d6974207468652061736b696e67207072696365206960008201527f6e206f7264657220746f20636f6d706c65746520746865207075726368617365602082015250565b600061501e604083613bbe565b915061502982614fc2565b604082019050919050565b6000602082019050818103600083015261504d81615011565b9050919050565b600081905092915050565b600061506a82613bb3565b6150748185615054565b9350615084818560208601613bcf565b80840191505092915050565b600061509c828561505f565b91506150a8828461505f565b91508190509392505050565b7f4f6e6c79206974656d206f776e65722063616e20706572666f726d207468697360008201527f206f7065726174696f6e00000000000000000000000000000000000000000000602082015250565b6000615110602a83613bbe565b915061511b826150b4565b604082019050919050565b6000602082019050818103600083015261513f81615103565b9050919050565b7f5072696365206d75737420626520657175616c20746f206c697374696e67207060008201527f7269636500000000000000000000000000000000000000000000000000000000602082015250565b60006151a2602483613bbe565b91506151ad82615146565b604082019050919050565b600060208201905081810360008301526151d181615195565b9050919050565b7f4552433732313a207472616e736665722066726f6d20696e636f72726563742060008201527f6f776e6572000000000000000000000000000000000000000000000000000000602082015250565b6000615234602583613bbe565b915061523f826151d8565b604082019050919050565b6000602082019050818103600083015261526381615227565b9050919050565b7f4552433732313a207472616e7366657220746f20746865207a65726f2061646460008201527f7265737300000000000000000000000000000000000000000000000000000000602082015250565b60006152c6602483613bbe565b91506152d18261526a565b604082019050919050565b600060208201905081810360008301526152f5816152b9565b9050919050565b7f4552433732313a206d696e7420746f20746865207a65726f2061646472657373600082015250565b6000615332602083613bbe565b915061533d826152fc565b602082019050919050565b6000602082019050818103600083015261536181615325565b9050919050565b7f4552433732313a20746f6b656e20616c7265616479206d696e74656400000000600082015250565b600061539e601c83613bbe565b91506153a982615368565b602082019050919050565b600060208201905081810360008301526153cd81615391565b9050919050565b7f45524337323155524953746f726167653a2055524920736574206f66206e6f6e60008201527f6578697374656e7420746f6b656e000000000000000000000000000000000000602082015250565b6000615430602e83613bbe565b915061543b826153d4565b604082019050919050565b6000602082019050818103600083015261545f81615423565b9050919050565b7f5072696365206d757374206265206174206c6561737420312077656900000000600082015250565b600061549c601c83613bbe565b91506154a782615466565b602082019050919050565b600060208201905081810360008301526154cb8161548f565b9050919050565b60006080820190506154e76000830187613cfa565b6154f46020830186613cfa565b6155016040830185613f08565b61550e6060830184613b89565b95945050505050565b7f4552433732313a20617070726f766520746f2063616c6c657200000000000000600082015250565b600061554d601983613bbe565b915061555882615517565b602082019050919050565b6000602082019050818103600083015261557c81615540565b9050919050565b7f4552433732313a207472616e7366657220746f206e6f6e20455243373231526560008201527f63656976657220696d706c656d656e7465720000000000000000000000000000602082015250565b60006155df603283613bbe565b91506155ea82615583565b604082019050919050565b6000602082019050818103600083015261560e816155d2565b9050919050565b7f436f756e7465723a2064656372656d656e74206f766572666c6f770000000000600082015250565b600061564b601b83613bbe565b915061565682615615565b602082019050919050565b6000602082019050818103600083015261567a8161563e565b9050919050565b600081519050919050565b600082825260208201905092915050565b60006156a882615681565b6156b2818561568c565b93506156c2818560208601613bcf565b6156cb81613bf9565b840191505092915050565b60006080820190506156eb6000830187613cfa565b6156f86020830186613cfa565b6157056040830185613f08565b8181036060830152615717818461569d565b905095945050505050565b60008151905061573181613b24565b92915050565b60006020828403121561574d5761574c613aee565b5b600061575b84828501615722565b91505092915050565b7f4e487b7100000000000000000000000000000000000000000000000000000000600052601260045260246000fdfea26469706673582212208108157cebf33aa658b50606cc9ff1bf000d3adfe5002220e4a892d7bcb0795d64736f6c634300081c0033",
  "linkReferences": {},
  "deployedLinkReferences": {}
}