{
  "_format": "hh-sol-artifact-1",
  "contractName": "NFTMarketPlace",
  "sourceName": "contracts/NFTMarketPlace.sol",
  "abi": [
    {
      "inputs": [],
      "stateMutability": "nonpayable",
      "type": "constructor"
    },
    {
      "anonymous": false,
      "inputs": [
        {
          "indexed": true,
          "internalType": "address",
          "name": "owner",
          "type": "address"
        },
        {
          "indexed": true,
          "internalType": "address",
          "name": "approved",
          "type": "address"
        },
        {
          "indexed": true,
          "internalType": "uint256",
          "name": "tokenId",
          "type": "uint256"
        }
      ],
      "name": "Approval",
      "type": "event"
    },
    {
      "anonymous": false,
      "inputs": [
        {
          "indexed": true,
          "internalType": "address",
          "name": "owner",
          "type": "address"
        },
        {
          "indexed": true,
          "internalType": "address",
          "name": "operator",
          "type": "address"
        },
        {
          "indexed": false,
          "internalType": "bool",
          "name": "approved",
          "type": "bool"
        }
      ],
      "name": "ApprovalForAll",
      "type": "event"
    },
    {
      "anonymous": false,
      "inputs": [
        {
          "indexed": true,
          "internalType": "uint256",
          "name": "tokenId",
          "type": "uint256"
        },
        {
          "indexed": false,
          "internalType": "address",
          "name": "bidder",
          "type": "address"
        },
        {
          "indexed": false,
          "internalType": "uint256",
          "name": "amount",
          "type": "uint256"
        }
      ],
      "name": "AuctionBidPlaced",
      "type": "event"
    },
    {
      "anonymous": false,
      "inputs": [
        {
          "indexed": true,
          "internalType": "uint256",
          "name": "tokenId",
          "type": "uint256"
        },
        {
          "indexed": false,
          "internalType": "address",
          "name": "winner",
          "type": "address"
        },
        {
          "indexed": false,
          "internalType": "uint256",
          "name": "amount",
          "type": "uint256"
        }
      ],
      "name": "AuctionEnded",
      "type": "event"
    },
    {
      "anonymous": false,
      "inputs": [
        {
          "indexed": false,
          "internalType": "uint256",
          "name": "_fromTokenId",
          "type": "uint256"
        },
        {
          "indexed": false,
          "internalType": "uint256",
          "name": "_toTokenId",
          "type": "uint256"
        }
      ],
      "name": "BatchMetadataUpdate",
      "type": "event"
    },
    {
      "anonymous": false,
      "inputs": [
        {
          "indexed": true,
          "internalType": "uint256",
          "name": "tokenId",
          "type": "uint256"
        },
        {
          "indexed": false,
          "internalType": "address",
          "name": "seller",
          "type": "address"
        },
        {
          "indexed": false,
          "internalType": "address",
          "name": "owner",
          "type": "address"
        },
        {
          "indexed": false,
          "internalType": "uint256",
          "name": "price",
          "type": "uint256"
        },
        {
          "indexed": false,
          "internalType": "bool",
          "name": "sold",
          "type": "bool"
        }
      ],
      "name": "MarketItemCreated",
      "type": "event"
    },
    {
      "anonymous": false,
      "inputs": [
        {
          "indexed": false,
          "internalType": "uint256",
          "name": "_tokenId",
          "type": "uint256"
        }
      ],
      "name": "MetadataUpdate",
      "type": "event"
    },
    {
      "anonymous": false,
      "inputs": [
        {
          "indexed": true,
          "internalType": "address",
          "name": "from",
          "type": "address"
        },
        {
          "indexed": true,
          "internalType": "address",
          "name": "to",
          "type": "address"
        },
        {
          "indexed": true,
          "internalType": "uint256",
          "name": "tokenId",
          "type": "uint256"
        }
      ],
      "name": "Transfer",
      "type": "event"
    },
    {
      "inputs": [
        {
          "internalType": "address",
          "name": "to",
          "type": "address"
        },
        {
          "internalType": "uint256",
          "name": "tokenId",
          "type": "uint256"
        }
      ],
      "name": "approve",
      "outputs": [],
      "stateMutability": "nonpayable",
      "type": "function"
    },
    {
      "inputs": [
        {
          "internalType": "uint256",
          "name": "",
          "type": "uint256"
        }
      ],
      "name": "auctions",
      "outputs": [
        {
          "internalType": "uint256",
          "name": "auctionEndTime",
          "type": "uint256"
        },
        {
          "internalType": "uint256",
          "name": "highestBid",
          "type": "uint256"
        },
        {
          "internalType": "address payable",
          "name": "highestBidder",
          "type": "address"
        }
      ],
      "stateMutability": "view",
      "type": "function"
    },
    {
      "inputs": [
        {
          "internalType": "address",
          "name": "owner",
          "type": "address"
        }
      ],
      "name": "balanceOf",
      "outputs": [
        {
          "internalType": "uint256",
          "name": "",
          "type": "uint256"
        }
      ],
      "stateMutability": "view",
      "type": "function"
    },
    {
      "inputs": [
        {
          "internalType": "uint256",
          "name": "tokenId",
          "type": "uint256"
        }
      ],
      "name": "createMarketSale",
      "outputs": [],
      "stateMutability": "payable",
      "type": "function"
    },
    {
      "inputs": [
        {
          "internalType": "string",
          "name": "tokenURI",
          "type": "string"
        },
        {
          "internalType": "uint256",
          "name": "price",
          "type": "uint256"
        }
      ],
      "name": "createToken",
      "outputs": [
        {
          "internalType": "uint256",
          "name": "",
          "type": "uint256"
        }
      ],
      "stateMutability": "payable",
      "type": "function"
    },
    {
      "inputs": [
        {
          "internalType": "uint256",
          "name": "tokenId",
          "type": "uint256"
        }
      ],
      "name": "endAuction",
      "outputs": [],
      "stateMutability": "nonpayable",
      "type": "function"
    },
    {
      "inputs": [],
      "name": "fetchAuctions",
      "outputs": [
        {
          "components": [
            {
              "internalType": "uint256",
              "name": "tokenId",
              "type": "uint256"
            },
            {
              "internalType": "address payable",
              "name": "seller",
              "type": "address"
            },
            {
              "internalType": "address payable",
              "name": "owner",
              "type": "address"
            },
            {
              "internalType": "uint256",
              "name": "price",
              "type": "uint256"
            },
            {
              "internalType": "bool",
              "name": "sold",
              "type": "bool"
            }
          ],
          "internalType": "struct NFTMarketPlace.MarketItem[]",
          "name": "",
          "type": "tuple[]"
        },
        {
          "components": [
            {
              "internalType": "uint256",
              "name": "auctionEndTime",
              "type": "uint256"
            },
            {
              "internalType": "uint256",
              "name": "highestBid",
              "type": "uint256"
            },
            {
              "internalType": "address payable",
              "name": "highestBidder",
              "type": "address"
            }
          ],
          "internalType": "struct NFTMarketPlace.Auction[]",
          "name": "",
          "type": "tuple[]"
        }
      ],
      "stateMutability": "view",
      "type": "function"
    },
    {
      "inputs": [],
      "name": "fetchItemsListed",
      "outputs": [
        {
          "components": [
            {
              "internalType": "uint256",
              "name": "tokenId",
              "type": "uint256"
            },
            {
              "internalType": "address payable",
              "name": "seller",
              "type": "address"
            },
            {
              "internalType": "address payable",
              "name": "owner",
              "type": "address"
            },
            {
              "internalType": "uint256",
              "name": "price",
              "type": "uint256"
            },
            {
              "internalType": "bool",
              "name": "sold",
              "type": "bool"
            }
          ],
          "internalType": "struct NFTMarketPlace.MarketItem[]",
          "name": "",
          "type": "tuple[]"
        }
      ],
      "stateMutability": "view",
      "type": "function"
    },
    {
      "inputs": [],
      "name": "fetchMarketItems",
      "outputs": [
        {
          "components": [
            {
              "internalType": "uint256",
              "name": "tokenId",
              "type": "uint256"
            },
            {
              "internalType": "address payable",
              "name": "seller",
              "type": "address"
            },
            {
              "internalType": "address payable",
              "name": "owner",
              "type": "address"
            },
            {
              "internalType": "uint256",
              "name": "price",
              "type": "uint256"
            },
            {
              "internalType": "bool",
              "name": "sold",
              "type": "bool"
            }
          ],
          "internalType": "struct NFTMarketPlace.MarketItem[]",
          "name": "",
          "type": "tuple[]"
        }
      ],
      "stateMutability": "view",
      "type": "function"
    },
    {
      "inputs": [],
      "name": "fetchMyNFTs",
      "outputs": [
        {
          "components": [
            {
              "internalType": "uint256",
              "name": "tokenId",
              "type": "uint256"
            },
            {
              "internalType": "address payable",
              "name": "seller",
              "type": "address"
            },
            {
              "internalType": "address payable",
              "name": "owner",
              "type": "address"
            },
            {
              "internalType": "uint256",
              "name": "price",
              "type": "uint256"
            },
            {
              "internalType": "bool",
              "name": "sold",
              "type": "bool"
            }
          ],
          "internalType": "struct NFTMarketPlace.MarketItem[]",
          "name": "",
          "type": "tuple[]"
        }
      ],
      "stateMutability": "view",
      "type": "function"
    },
    {
      "inputs": [
        {
          "internalType": "uint256",
          "name": "tokenId",
          "type": "uint256"
        }
      ],
      "name": "getApproved",
      "outputs": [
        {
          "internalType": "address",
          "name": "",
          "type": "address"
        }
      ],
      "stateMutability": "view",
      "type": "function"
    },
    {
      "inputs": [],
      "name": "getListingPrice",
      "outputs": [
        {
          "internalType": "uint256",
          "name": "",
          "type": "uint256"
        }
      ],
      "stateMutability": "view",
      "type": "function"
    },
    {
      "inputs": [
        {
          "internalType": "address",
          "name": "owner",
          "type": "address"
        },
        {
          "internalType": "address",
          "name": "operator",
          "type": "address"
        }
      ],
      "name": "isApprovedForAll",
      "outputs": [
        {
          "internalType": "bool",
          "name": "",
          "type": "bool"
        }
      ],
      "stateMutability": "view",
      "type": "function"
    },
    {
      "inputs": [
        {
          "internalType": "uint256",
          "name": "",
          "type": "uint256"
        }
      ],
      "name": "items",
      "outputs": [
        {
          "internalType": "address",
          "name": "owner",
          "type": "address"
        },
        {
          "internalType": "address",
          "name": "seller",
          "type": "address"
        },
        {
          "internalType": "bool",
          "name": "sold",
          "type": "bool"
        },
        {
          "internalType": "uint256",
          "name": "price",
          "type": "uint256"
        }
      ],
      "stateMutability": "view",
      "type": "function"
    },
    {
      "inputs": [],
      "name": "name",
      "outputs": [
        {
          "internalType": "string",
          "name": "",
          "type": "string"
        }
      ],
      "stateMutability": "view",
      "type": "function"
    },
    {
      "inputs": [
        {
          "internalType": "uint256",
          "name": "tokenId",
          "type": "uint256"
        }
      ],
      "name": "ownerOf",
      "outputs": [
        {
          "internalType": "address",
          "name": "",
          "type": "address"
        }
      ],
      "stateMutability": "view",
      "type": "function"
    },
    {
      "inputs": [
        {
          "internalType": "uint256",
          "name": "tokenId",
          "type": "uint256"
        }
      ],
      "name": "placeBid",
      "outputs": [],
      "stateMutability": "payable",
      "type": "function"
    },
    {
      "inputs": [
        {
          "internalType": "uint256",
          "name": "tokenId",
          "type": "uint256"
        },
        {
          "internalType": "uint256",
          "name": "price",
          "type": "uint256"
        }
      ],
      "name": "resellToken",
      "outputs": [],
      "stateMutability": "payable",
      "type": "function"
    },
    {
      "inputs": [
        {
          "internalType": "address",
          "name": "from",
          "type": "address"
        },
        {
          "internalType": "address",
          "name": "to",
          "type": "address"
        },
        {
          "internalType": "uint256",
          "name": "tokenId",
          "type": "uint256"
        }
      ],
      "name": "safeTransferFrom",
      "outputs": [],
      "stateMutability": "nonpayable",
      "type": "function"
    },
    {
      "inputs": [
        {
          "internalType": "address",
          "name": "from",
          "type": "address"
        },
        {
          "internalType": "address",
          "name": "to",
          "type": "address"
        },
        {
          "internalType": "uint256",
          "name": "tokenId",
          "type": "uint256"
        },
        {
          "internalType": "bytes",
          "name": "data",
          "type": "bytes"
        }
      ],
      "name": "safeTransferFrom",
      "outputs": [],
      "stateMutability": "nonpayable",
      "type": "function"
    },
    {
      "inputs": [
        {
          "internalType": "address",
          "name": "operator",
          "type": "address"
        },
        {
          "internalType": "bool",
          "name": "approved",
          "type": "bool"
        }
      ],
      "name": "setApprovalForAll",
      "outputs": [],
      "stateMutability": "nonpayable",
      "type": "function"
    },
    {
      "inputs": [
        {
          "internalType": "uint256",
          "name": "tokenId",
          "type": "uint256"
        },
        {
          "internalType": "uint256",
          "name": "startingBid",
          "type": "uint256"
        },
        {
          "internalType": "uint256",
          "name": "duration",
          "type": "uint256"
        }
      ],
      "name": "startAuction",
      "outputs": [],
      "stateMutability": "nonpayable",
      "type": "function"
    },
    {
      "inputs": [
        {
          "internalType": "bytes4",
          "name": "interfaceId",
          "type": "bytes4"
        }
      ],
      "name": "supportsInterface",
      "outputs": [
        {
          "internalType": "bool",
          "name": "",
          "type": "bool"
        }
      ],
      "stateMutability": "view",
      "type": "function"
    },
    {
      "inputs": [],
      "name": "symbol",
      "outputs": [
        {
          "internalType": "string",
          "name": "",
          "type": "string"
        }
      ],
      "stateMutability": "view",
      "type": "function"
    },
    {
      "inputs": [
        {
          "internalType": "uint256",
          "name": "tokenId",
          "type": "uint256"
        }
      ],
      "name": "tokenURI",
      "outputs": [
        {
          "internalType": "string",
          "name": "",
          "type": "string"
        }
      ],
      "stateMutability": "view",
      "type": "function"
    },
    {
      "inputs": [
        {
          "internalType": "address",
          "name": "from",
          "type": "address"
        },
        {
          "internalType": "address",
          "name": "to",
          "type": "address"
        },
        {
          "internalType": "uint256",
          "name": "tokenId",
          "type": "uint256"
        }
      ],
      "name": "transferFrom",
      "outputs": [],
      "stateMutability": "nonpayable",
      "type": "function"
    },
    {
      "inputs": [
        {
          "internalType": "uint256",
          "name": "_listingPrice",
          "type": "uint256"
        }
      ],
      "name": "updateListingPrice",
      "outputs": [],
      "stateMutability": "payable",
      "type": "function"
    }
  ],
  "bytecode": "0x60806040526658d15e1762800060095534801561001b57600080fd5b506040518060400160405280601081526020017f4d657461766572736520546f6b656e73000000000000000000000000000000008152506040518060400160405280600481526020017f4d4554540000000000000000000000000000000000000000000000000000000081525081600090816100979190610340565b5080600190816100a79190610340565b50505033600a60006101000a81548173ffffffffffffffffffffffffffffffffffffffff021916908373ffffffffffffffffffffffffffffffffffffffff160217905550610412565b600081519050919050565b7f4e487b7100000000000000000000000000000000000000000000000000000000600052604160045260246000fd5b7f4e487b7100000000000000000000000000000000000000000000000000000000600052602260045260246000fd5b6000600282049050600182168061017157607f821691505b6020821081036101845761018361012a565b5b50919050565b60008190508160005260206000209050919050565b60006020601f8301049050919050565b600082821b905092915050565b6000600883026101ec7fffffffffffffffffffffffffffffffffffffffffffffffffffffffffffffffff826101af565b6101f686836101af565b95508019841693508086168417925050509392505050565b6000819050919050565b6000819050919050565b600061023d6102386102338461020e565b610218565b61020e565b9050919050565b6000819050919050565b61025783610222565b61026b61026382610244565b8484546101bc565b825550505050565b600090565b610280610273565b61028b81848461024e565b505050565b5b818110156102af576102a4600082610278565b600181019050610291565b5050565b601f8211156102f4576102c58161018a565b6102ce8461019f565b810160208510156102dd578190505b6102f16102e98561019f565b830182610290565b50505b505050565b600082821c905092915050565b6000610317600019846008026102f9565b1980831691505092915050565b60006103308383610306565b9150826002028217905092915050565b610349826100f0565b67ffffffffffffffff811115610362576103616100fb565b5b61036c8254610159565b6103778282856102b3565b600060209050601f8311600181146103aa5760008415610398578287015190505b6103a28582610324565b86555061040a565b601f1984166103b88661018a565b60005b828110156103e0578489015182556001820191506020850194506020810190506103bb565b868310156103fd57848901516103f9601f891682610306565b8355505b6001600288020188555050505b505050505050565b61507b806104216000396000f3fe60806040526004361061019c5760003560e01c806370a08231116100ec578063b88d4fde1161008a578063bfb231d211610064578063bfb231d2146105a5578063c87b56dd146105e5578063e219fc7514610622578063e985e9c51461063e5761019c565b8063b88d4fde14610537578063b9a2de3a14610560578063be9af536146105895761019c565b806395d89b41116100c657806395d89b41146104ab5780639979ef45146104d6578063a22cb465146104f2578063ae677aa31461051b5761019c565b806370a082311461041557806372b3b6201461045257806391e078bb146104825761019c565b80631b2fcf481161015957806342842e0e1161013357806342842e0e1461034557806345f8fa801461036e578063571a26a0146103995780636352211e146103d85761019c565b80631b2fcf48146102c5578063202e3740146102f157806323b872dd1461031c5761019c565b806301ffc9a7146101a157806306fdde03146101de578063081812fc14610209578063095ea7b3146102465780630f08efe01461026f57806312e855851461029a575b600080fd5b3480156101ad57600080fd5b506101c860048036038101906101c391906135d1565b61067b565b6040516101d59190613619565b60405180910390f35b3480156101ea57600080fd5b506101f36106dc565b60405161020091906136c4565b60405180910390f35b34801561021557600080fd5b50610230600480360381019061022b919061371c565b61076e565b60405161023d919061378a565b60405180910390f35b34801561025257600080fd5b5061026d600480360381019061026891906137d1565b6107b4565b005b34801561027b57600080fd5b506102846108cb565b6040516102919190613967565b60405180910390f35b3480156102a657600080fd5b506102af610b2d565b6040516102bc9190613998565b60405180910390f35b3480156102d157600080fd5b506102da610b37565b6040516102e8929190613aa4565b60405180910390f35b3480156102fd57600080fd5b50610306610e6c565b6040516103139190613967565b60405180910390f35b34801561032857600080fd5b50610343600480360381019061033e9190613adb565b61114c565b005b34801561035157600080fd5b5061036c60048036038101906103679190613adb565b6111ac565b005b34801561037a57600080fd5b506103836111cc565b6040516103909190613967565b60405180910390f35b3480156103a557600080fd5b506103c060048036038101906103bb919061371c565b6114ac565b6040516103cf93929190613b3d565b60405180910390f35b3480156103e457600080fd5b506103ff60048036038101906103fa919061371c565b6114f6565b60405161040c919061378a565b60405180910390f35b34801561042157600080fd5b5061043c60048036038101906104379190613b74565b61157c565b6040516104499190613998565b60405180910390f35b61046c60048036038101906104679190613cd6565b611633565b6040516104799190613998565b60405180910390f35b34801561048e57600080fd5b506104a960048036038101906104a49190613d32565b611675565b005b3480156104b757600080fd5b506104c061178c565b6040516104cd91906136c4565b60405180910390f35b6104f060048036038101906104eb919061371c565b61181e565b005b3480156104fe57600080fd5b5061051960048036038101906105149190613db1565b61198e565b005b6105356004803603810190610530919061371c565b6119a4565b005b34801561054357600080fd5b5061055e60048036038101906105599190613e92565b611a3e565b005b34801561056c57600080fd5b506105876004803603810190610582919061371c565b611aa0565b005b6105a3600480360381019061059e919061371c565b611cbb565b005b3480156105b157600080fd5b506105cc60048036038101906105c7919061371c565b611ef3565b6040516105dc9493929190613f15565b60405180910390f35b3480156105f157600080fd5b5061060c6004803603810190610607919061371c565b611f70565b60405161061991906136c4565b60405180910390f35b61063c60048036038101906106379190613f5a565b612082565b005b34801561064a57600080fd5b5061066560048036038101906106609190613f9a565b612277565b6040516106729190613619565b60405180910390f35b6000634906490660e01b7bffffffffffffffffffffffffffffffffffffffffffffffffffffffff1916827bffffffffffffffffffffffffffffffffffffffffffffffffffffffff191614806106d557506106d48261230b565b5b9050919050565b6060600080546106eb90614009565b80601f016020809104026020016040519081016040528092919081815260200182805461071790614009565b80156107645780601f1061073957610100808354040283529160200191610764565b820191906000526020600020905b81548152906001019060200180831161074757829003601f168201915b5050505050905090565b6000610779826123ed565b6004600083815260200190815260200160002060009054906101000a900473ffffffffffffffffffffffffffffffffffffffff169050919050565b60006107bf826114f6565b90508073ffffffffffffffffffffffffffffffffffffffff168373ffffffffffffffffffffffffffffffffffffffff160361082f576040517f08c379a0000000000000000000000000000000000000000000000000000000008152600401610826906140ac565b60405180910390fd5b8073ffffffffffffffffffffffffffffffffffffffff1661084e612438565b73ffffffffffffffffffffffffffffffffffffffff16148061087d575061087c81610877612438565b612277565b5b6108bc576040517f08c379a00000000000000000000000000000000000000000000000000000000081526004016108b39061413e565b60405180910390fd5b6108c68383612440565b505050565b606060006108d960076124f9565b905060006108e760086124f9565b6108f160076124f9565b6108fb919061418d565b90506000808267ffffffffffffffff81111561091a57610919613bab565b5b60405190808252806020026020018201604052801561095357816020015b6109406134d1565b8152602001906001900390816109385790505b50905060005b84811015610b22573073ffffffffffffffffffffffffffffffffffffffff16600b600060018461098991906141c1565b815260200190815260200160002060020160009054906101000a900473ffffffffffffffffffffffffffffffffffffffff1673ffffffffffffffffffffffffffffffffffffffff1603610b155760006001826109e591906141c1565b90506000600b60008381526020019081526020016000209050806040518060a0016040529081600082015481526020016001820160009054906101000a900473ffffffffffffffffffffffffffffffffffffffff1673ffffffffffffffffffffffffffffffffffffffff1673ffffffffffffffffffffffffffffffffffffffff1681526020016002820160009054906101000a900473ffffffffffffffffffffffffffffffffffffffff1673ffffffffffffffffffffffffffffffffffffffff1673ffffffffffffffffffffffffffffffffffffffff168152602001600382015481526020016004820160009054906101000a900460ff161515151581525050848681518110610af857610af76141f5565b5b6020026020010181905250600185610b1091906141c1565b945050505b8080600101915050610959565b508094505050505090565b6000600954905090565b6060806000610b4660076124f9565b90506000805b82811015610ba1576000600182610b6391906141c1565b905042600c6000838152602001908152602001600020600001541115610b9357600183610b9091906141c1565b92505b508080600101915050610b4c565b5060008167ffffffffffffffff811115610bbe57610bbd613bab565b5b604051908082528060200260200182016040528015610bf757816020015b610be46134d1565b815260200190600190039081610bdc5790505b50905060008267ffffffffffffffff811115610c1657610c15613bab565b5b604051908082528060200260200182016040528015610c4f57816020015b610c3c61352e565b815260200190600190039081610c345790505b5090506000805b85811015610e5c576000600182610c6d91906141c1565b90506000600c600083815260200190815260200160002090504281600001541115610e4d57600b60008381526020019081526020016000206040518060a0016040529081600082015481526020016001820160009054906101000a900473ffffffffffffffffffffffffffffffffffffffff1673ffffffffffffffffffffffffffffffffffffffff1673ffffffffffffffffffffffffffffffffffffffff1681526020016002820160009054906101000a900473ffffffffffffffffffffffffffffffffffffffff1673ffffffffffffffffffffffffffffffffffffffff1673ffffffffffffffffffffffffffffffffffffffff168152602001600382015481526020016004820160009054906101000a900460ff161515151581525050868581518110610d9e57610d9d6141f5565b5b60200260200101819052508060405180606001604052908160008201548152602001600182015481526020016002820160009054906101000a900473ffffffffffffffffffffffffffffffffffffffff1673ffffffffffffffffffffffffffffffffffffffff1673ffffffffffffffffffffffffffffffffffffffff1681525050858581518110610e3257610e316141f5565b5b6020026020010181905250600184610e4a91906141c1565b93505b50508080600101915050610c56565b5082829650965050505050509091565b60606000610e7a60076124f9565b905060008060005b83811015610f1c573373ffffffffffffffffffffffffffffffffffffffff16600b6000600184610eb291906141c1565b815260200190815260200160002060020160009054906101000a900473ffffffffffffffffffffffffffffffffffffffff1673ffffffffffffffffffffffffffffffffffffffff1603610f0f57600183610f0c91906141c1565b92505b8080600101915050610e82565b5060008267ffffffffffffffff811115610f3957610f38613bab565b5b604051908082528060200260200182016040528015610f7257816020015b610f5f6134d1565b815260200190600190039081610f575790505b50905060005b84811015611141573373ffffffffffffffffffffffffffffffffffffffff16600b6000600184610fa891906141c1565b815260200190815260200160002060020160009054906101000a900473ffffffffffffffffffffffffffffffffffffffff1673ffffffffffffffffffffffffffffffffffffffff160361113457600060018261100491906141c1565b90506000600b60008381526020019081526020016000209050806040518060a0016040529081600082015481526020016001820160009054906101000a900473ffffffffffffffffffffffffffffffffffffffff1673ffffffffffffffffffffffffffffffffffffffff1673ffffffffffffffffffffffffffffffffffffffff1681526020016002820160009054906101000a900473ffffffffffffffffffffffffffffffffffffffff1673ffffffffffffffffffffffffffffffffffffffff1673ffffffffffffffffffffffffffffffffffffffff168152602001600382015481526020016004820160009054906101000a900460ff161515151581525050848681518110611117576111166141f5565b5b602002602001018190525060018561112f91906141c1565b945050505b8080600101915050610f78565b508094505050505090565b61115d611157612438565b82612507565b61119c576040517f08c379a000000000000000000000000000000000000000000000000000000000815260040161119390614296565b60405180910390fd5b6111a783838361259c565b505050565b6111c783838360405180602001604052806000815250611a3e565b505050565b606060006111da60076124f9565b905060008060005b8381101561127c573373ffffffffffffffffffffffffffffffffffffffff16600b600060018461121291906141c1565b815260200190815260200160002060010160009054906101000a900473ffffffffffffffffffffffffffffffffffffffff1673ffffffffffffffffffffffffffffffffffffffff160361126f5760018361126c91906141c1565b92505b80806001019150506111e2565b5060008267ffffffffffffffff81111561129957611298613bab565b5b6040519080825280602002602001820160405280156112d257816020015b6112bf6134d1565b8152602001906001900390816112b75790505b50905060005b848110156114a1573373ffffffffffffffffffffffffffffffffffffffff16600b600060018461130891906141c1565b815260200190815260200160002060010160009054906101000a900473ffffffffffffffffffffffffffffffffffffffff1673ffffffffffffffffffffffffffffffffffffffff160361149457600060018261136491906141c1565b90506000600b60008381526020019081526020016000209050806040518060a0016040529081600082015481526020016001820160009054906101000a900473ffffffffffffffffffffffffffffffffffffffff1673ffffffffffffffffffffffffffffffffffffffff1673ffffffffffffffffffffffffffffffffffffffff1681526020016002820160009054906101000a900473ffffffffffffffffffffffffffffffffffffffff1673ffffffffffffffffffffffffffffffffffffffff1673ffffffffffffffffffffffffffffffffffffffff168152602001600382015481526020016004820160009054906101000a900460ff161515151581525050848681518110611477576114766141f5565b5b602002602001018190525060018561148f91906141c1565b945050505b80806001019150506112d8565b508094505050505090565b600c6020528060005260406000206000915090508060000154908060010154908060020160009054906101000a900473ffffffffffffffffffffffffffffffffffffffff16905083565b60008061150283612895565b9050600073ffffffffffffffffffffffffffffffffffffffff168173ffffffffffffffffffffffffffffffffffffffff1603611573576040517f08c379a000000000000000000000000000000000000000000000000000000000815260040161156a90614302565b60405180910390fd5b80915050919050565b60008073ffffffffffffffffffffffffffffffffffffffff168273ffffffffffffffffffffffffffffffffffffffff16036115ec576040517f08c379a00000000000000000000000000000000000000000000000000000000081526004016115e390614394565b60405180910390fd5b600360008373ffffffffffffffffffffffffffffffffffffffff1673ffffffffffffffffffffffffffffffffffffffff168152602001908152602001600020549050919050565b600061163f60076128d2565b600061164b60076124f9565b905061165733826128e8565b6116618185612b05565b61166b8184612ba9565b8091505092915050565b600d600084815260200190815260200160002060010160149054906101000a900460ff16156116d9576040517f08c379a00000000000000000000000000000000000000000000000000000000081526004016116d090614400565b60405180910390fd5b604051806060016040528082426116f091906141c1565b8152602001838152602001600073ffffffffffffffffffffffffffffffffffffffff16815250600c6000858152602001908152602001600020600082015181600001556020820151816001015560408201518160020160006101000a81548173ffffffffffffffffffffffffffffffffffffffff021916908373ffffffffffffffffffffffffffffffffffffffff160217905550905050505050565b60606001805461179b90614009565b80601f01602080910402602001604051908101604052809291908181526020018280546117c790614009565b80156118145780601f106117e957610100808354040283529160200191611814565b820191906000526020600020905b8154815290600101906020018083116117f757829003601f168201915b5050505050905090565b6000600c600083815260200190815260200160002090508060000154421061187b576040517f08c379a00000000000000000000000000000000000000000000000000000000081526004016118729061446c565b60405180910390fd5b806001015434116118c1576040517f08c379a00000000000000000000000000000000000000000000000000000000081526004016118b8906144d8565b60405180910390fd5b60008160010154111561193e578060020160009054906101000a900473ffffffffffffffffffffffffffffffffffffffff1673ffffffffffffffffffffffffffffffffffffffff166108fc82600101549081150290604051600060405180830381858888f1935050505015801561193c573d6000803e3d6000fd5b505b348160010181905550338160020160006101000a81548173ffffffffffffffffffffffffffffffffffffffff021916908373ffffffffffffffffffffffffffffffffffffffff1602179055505050565b6119a0611999612438565b8383612dac565b5050565b3373ffffffffffffffffffffffffffffffffffffffff16600a60009054906101000a900473ffffffffffffffffffffffffffffffffffffffff1673ffffffffffffffffffffffffffffffffffffffff1614611a34576040517f08c379a0000000000000000000000000000000000000000000000000000000008152600401611a2b9061456a565b60405180910390fd5b8060098190555050565b611a4f611a49612438565b83612507565b611a8e576040517f08c379a0000000000000000000000000000000000000000000000000000000008152600401611a8590614296565b60405180910390fd5b611a9a84848484612f18565b50505050565b6000600b600083815260200190815260200160002060010160009054906101000a900473ffffffffffffffffffffffffffffffffffffffff1690506000600c60008481526020019081526020016000209050600b600084815260200190815260200160002060040160009054906101000a900460ff1615611b56576040517f08c379a0000000000000000000000000000000000000000000000000000000008152600401611b4d906145d6565b60405180910390fd5b33600b600085815260200190815260200160002060020160006101000a81548173ffffffffffffffffffffffffffffffffffffffff021916908373ffffffffffffffffffffffffffffffffffffffff1602179055506001600b600085815260200190815260200160002060040160006101000a81548160ff0219169083151502179055506000600b600085815260200190815260200160002060010160006101000a81548173ffffffffffffffffffffffffffffffffffffffff021916908373ffffffffffffffffffffffffffffffffffffffff160217905550611c3a60086128d2565b611c69308260020160009054906101000a900473ffffffffffffffffffffffffffffffffffffffff168561259c565b600c600084815260200190815260200160002060008082016000905560018201600090556002820160006101000a81549073ffffffffffffffffffffffffffffffffffffffff02191690555050505050565b6000600b6000838152602001908152602001600020600301549050803414611d18576040517f08c379a0000000000000000000000000000000000000000000000000000000008152600401611d0f90614668565b60405180910390fd5b33600b600084815260200190815260200160002060020160006101000a81548173ffffffffffffffffffffffffffffffffffffffff021916908373ffffffffffffffffffffffffffffffffffffffff1602179055506001600b600084815260200190815260200160002060040160006101000a81548160ff0219169083151502179055506000600b600084815260200190815260200160002060010160006101000a81548173ffffffffffffffffffffffffffffffffffffffff021916908373ffffffffffffffffffffffffffffffffffffffff160217905550611dfc60086128d2565b611e0730338461259c565b600a60009054906101000a900473ffffffffffffffffffffffffffffffffffffffff1673ffffffffffffffffffffffffffffffffffffffff166108fc6009549081150290604051600060405180830381858888f19350505050158015611e71573d6000803e3d6000fd5b50600b600083815260200190815260200160002060010160009054906101000a900473ffffffffffffffffffffffffffffffffffffffff1673ffffffffffffffffffffffffffffffffffffffff166108fc349081150290604051600060405180830381858888f19350505050158015611eee573d6000803e3d6000fd5b505050565b600d6020528060005260406000206000915090508060000160009054906101000a900473ffffffffffffffffffffffffffffffffffffffff16908060010160009054906101000a900473ffffffffffffffffffffffffffffffffffffffff16908060010160149054906101000a900460ff16908060020154905084565b6060611f7b826123ed565b6000600660008481526020019081526020016000208054611f9b90614009565b80601f0160208091040260200160405190810160405280929190818152602001828054611fc790614009565b80156120145780601f10611fe957610100808354040283529160200191612014565b820191906000526020600020905b815481529060010190602001808311611ff757829003601f168201915b505050505090506000612025612f74565b9050600081510361203a57819250505061207d565b60008251111561206f5780826040516020016120579291906146c4565b6040516020818303038152906040529250505061207d565b61207884612f8b565b925050505b919050565b3373ffffffffffffffffffffffffffffffffffffffff16600b600084815260200190815260200160002060020160009054906101000a900473ffffffffffffffffffffffffffffffffffffffff1673ffffffffffffffffffffffffffffffffffffffff1614612126576040517f08c379a000000000000000000000000000000000000000000000000000000000815260040161211d9061475a565b60405180910390fd5b600954341461216a576040517f08c379a0000000000000000000000000000000000000000000000000000000008152600401612161906147ec565b60405180910390fd5b6000600b600084815260200190815260200160002060040160006101000a81548160ff02191690831515021790555080600b60008481526020019081526020016000206003018190555033600b600084815260200190815260200160002060010160006101000a81548173ffffffffffffffffffffffffffffffffffffffff021916908373ffffffffffffffffffffffffffffffffffffffff16021790555030600b600084815260200190815260200160002060020160006101000a81548173ffffffffffffffffffffffffffffffffffffffff021916908373ffffffffffffffffffffffffffffffffffffffff1602179055506122686008612ff3565b61227333308461259c565b5050565b6000600560008473ffffffffffffffffffffffffffffffffffffffff1673ffffffffffffffffffffffffffffffffffffffff16815260200190815260200160002060008373ffffffffffffffffffffffffffffffffffffffff1673ffffffffffffffffffffffffffffffffffffffff16815260200190815260200160002060009054906101000a900460ff16905092915050565b60007f80ac58cd000000000000000000000000000000000000000000000000000000007bffffffffffffffffffffffffffffffffffffffffffffffffffffffff1916827bffffffffffffffffffffffffffffffffffffffffffffffffffffffff191614806123d657507f5b5e139f000000000000000000000000000000000000000000000000000000007bffffffffffffffffffffffffffffffffffffffffffffffffffffffff1916827bffffffffffffffffffffffffffffffffffffffffffffffffffffffff1916145b806123e657506123e58261304f565b5b9050919050565b6123f6816130b9565b612435576040517f08c379a000000000000000000000000000000000000000000000000000000000815260040161242c90614302565b60405180910390fd5b50565b600033905090565b816004600083815260200190815260200160002060006101000a81548173ffffffffffffffffffffffffffffffffffffffff021916908373ffffffffffffffffffffffffffffffffffffffff160217905550808273ffffffffffffffffffffffffffffffffffffffff166124b3836114f6565b73ffffffffffffffffffffffffffffffffffffffff167f8c5be1e5ebec7d5bd14f71427d1e84f3dd0314c0f7b2291e5b200ac8c7c3b92560405160405180910390a45050565b600081600001549050919050565b600080612513836114f6565b90508073ffffffffffffffffffffffffffffffffffffffff168473ffffffffffffffffffffffffffffffffffffffff16148061255557506125548185612277565b5b8061259357508373ffffffffffffffffffffffffffffffffffffffff1661257b8461076e565b73ffffffffffffffffffffffffffffffffffffffff16145b91505092915050565b8273ffffffffffffffffffffffffffffffffffffffff166125bc826114f6565b73ffffffffffffffffffffffffffffffffffffffff1614612612576040517f08c379a00000000000000000000000000000000000000000000000000000000081526004016126099061487e565b60405180910390fd5b600073ffffffffffffffffffffffffffffffffffffffff168273ffffffffffffffffffffffffffffffffffffffff1603612681576040517f08c379a000000000000000000000000000000000000000000000000000000000815260040161267890614910565b60405180910390fd5b61268e83838360016130fa565b8273ffffffffffffffffffffffffffffffffffffffff166126ae826114f6565b73ffffffffffffffffffffffffffffffffffffffff1614612704576040517f08c379a00000000000000000000000000000000000000000000000000000000081526004016126fb9061487e565b60405180910390fd5b6004600082815260200190815260200160002060006101000a81549073ffffffffffffffffffffffffffffffffffffffff02191690556001600360008573ffffffffffffffffffffffffffffffffffffffff1673ffffffffffffffffffffffffffffffffffffffff168152602001908152602001600020600082825403925050819055506001600360008473ffffffffffffffffffffffffffffffffffffffff1673ffffffffffffffffffffffffffffffffffffffff16815260200190815260200160002060008282540192505081905550816002600083815260200190815260200160002060006101000a81548173ffffffffffffffffffffffffffffffffffffffff021916908373ffffffffffffffffffffffffffffffffffffffff160217905550808273ffffffffffffffffffffffffffffffffffffffff168473ffffffffffffffffffffffffffffffffffffffff167fddf252ad1be2c89b69c2b068fc378daa952ba7f163c4a11628f55a4df523b3ef60405160405180910390a46128908383836001613100565b505050565b60006002600083815260200190815260200160002060009054906101000a900473ffffffffffffffffffffffffffffffffffffffff169050919050565b6001816000016000828254019250508190555050565b600073ffffffffffffffffffffffffffffffffffffffff168273ffffffffffffffffffffffffffffffffffffffff1603612957576040517f08c379a000000000000000000000000000000000000000000000000000000000815260040161294e9061497c565b60405180910390fd5b612960816130b9565b156129a0576040517f08c379a0000000000000000000000000000000000000000000000000000000008152600401612997906149e8565b60405180910390fd5b6129ae6000838360016130fa565b6129b7816130b9565b156129f7576040517f08c379a00000000000000000000000000000000000000000000000000000000081526004016129ee906149e8565b60405180910390fd5b6001600360008473ffffffffffffffffffffffffffffffffffffffff1673ffffffffffffffffffffffffffffffffffffffff16815260200190815260200160002060008282540192505081905550816002600083815260200190815260200160002060006101000a81548173ffffffffffffffffffffffffffffffffffffffff021916908373ffffffffffffffffffffffffffffffffffffffff160217905550808273ffffffffffffffffffffffffffffffffffffffff16600073ffffffffffffffffffffffffffffffffffffffff167fddf252ad1be2c89b69c2b068fc378daa952ba7f163c4a11628f55a4df523b3ef60405160405180910390a4612b01600083836001613100565b5050565b612b0e826130b9565b612b4d576040517f08c379a0000000000000000000000000000000000000000000000000000000008152600401612b4490614a7a565b60405180910390fd5b80600660008481526020019081526020016000209081612b6d9190614c46565b507ff8e1a15aba9398e019f0b49df1a4fde98ee17ae345cb5f6b5e2c27f5033e8ce782604051612b9d9190613998565b60405180910390a15050565b60008111612bec576040517f08c379a0000000000000000000000000000000000000000000000000000000008152600401612be390614d64565b60405180910390fd5b6009543414612c30576040517f08c379a0000000000000000000000000000000000000000000000000000000008152600401612c27906147ec565b60405180910390fd5b6040518060a001604052808381526020013373ffffffffffffffffffffffffffffffffffffffff1681526020013073ffffffffffffffffffffffffffffffffffffffff16815260200182815260200160001515815250600b60008481526020019081526020016000206000820151816000015560208201518160010160006101000a81548173ffffffffffffffffffffffffffffffffffffffff021916908373ffffffffffffffffffffffffffffffffffffffff16021790555060408201518160020160006101000a81548173ffffffffffffffffffffffffffffffffffffffff021916908373ffffffffffffffffffffffffffffffffffffffff1602179055506060820151816003015560808201518160040160006101000a81548160ff021916908315150217905550905050612d6933308461259c565b817fb640004f1d14576d0c209e240cad0410e0d8c0c33a09375861fbadae2588a98d3330846000604051612da09493929190614d84565b60405180910390a25050565b8173ffffffffffffffffffffffffffffffffffffffff168373ffffffffffffffffffffffffffffffffffffffff1603612e1a576040517f08c379a0000000000000000000000000000000000000000000000000000000008152600401612e1190614e15565b60405180910390fd5b80600560008573ffffffffffffffffffffffffffffffffffffffff1673ffffffffffffffffffffffffffffffffffffffff16815260200190815260200160002060008473ffffffffffffffffffffffffffffffffffffffff1673ffffffffffffffffffffffffffffffffffffffff16815260200190815260200160002060006101000a81548160ff0219169083151502179055508173ffffffffffffffffffffffffffffffffffffffff168373ffffffffffffffffffffffffffffffffffffffff167f17307eab39ab6107e8899845ad3d59bd9653f200f220920489ca2b5937696c3183604051612f0b9190613619565b60405180910390a3505050565b612f2384848461259c565b612f2f84848484613106565b612f6e576040517f08c379a0000000000000000000000000000000000000000000000000000000008152600401612f6590614ea7565b60405180910390fd5b50505050565b606060405180602001604052806000815250905090565b6060612f96826123ed565b6000612fa0612f74565b90506000815111612fc05760405180602001604052806000815250612feb565b80612fca8461328d565b604051602001612fdb9291906146c4565b6040516020818303038152906040525b915050919050565b6000816000015490506000811161303f576040517f08c379a000000000000000000000000000000000000000000000000000000000815260040161303690614f13565b60405180910390fd5b6001810382600001819055505050565b60007f01ffc9a7000000000000000000000000000000000000000000000000000000007bffffffffffffffffffffffffffffffffffffffffffffffffffffffff1916827bffffffffffffffffffffffffffffffffffffffffffffffffffffffff1916149050919050565b60008073ffffffffffffffffffffffffffffffffffffffff166130db83612895565b73ffffffffffffffffffffffffffffffffffffffff1614159050919050565b50505050565b50505050565b60006131278473ffffffffffffffffffffffffffffffffffffffff1661335b565b15613280578373ffffffffffffffffffffffffffffffffffffffff1663150b7a02613150612438565b8786866040518563ffffffff1660e01b81526004016131729493929190614f88565b6020604051808303816000875af19250505080156131ae57506040513d601f19601f820116820180604052508101906131ab9190614fe9565b60015b613230573d80600081146131de576040519150601f19603f3d011682016040523d82523d6000602084013e6131e3565b606091505b506000815103613228576040517f08c379a000000000000000000000000000000000000000000000000000000000815260040161321f90614ea7565b60405180910390fd5b805181602001fd5b63150b7a0260e01b7bffffffffffffffffffffffffffffffffffffffffffffffffffffffff1916817bffffffffffffffffffffffffffffffffffffffffffffffffffffffff191614915050613285565b600190505b949350505050565b60606000600161329c8461337e565b01905060008167ffffffffffffffff8111156132bb576132ba613bab565b5b6040519080825280601f01601f1916602001820160405280156132ed5781602001600182028036833780820191505090505b509050600082602001820190505b600115613350578080600190039150507f3031323334353637383961626364656600000000000000000000000000000000600a86061a8153600a858161334457613343615016565b5b049450600085036132fb575b819350505050919050565b6000808273ffffffffffffffffffffffffffffffffffffffff163b119050919050565b600080600090507a184f03e93ff9f4daa797ed6e38ed64bf6a1f01000000000000000083106133dc577a184f03e93ff9f4daa797ed6e38ed64bf6a1f01000000000000000083816133d2576133d1615016565b5b0492506040810190505b6d04ee2d6d415b85acef81000000008310613419576d04ee2d6d415b85acef8100000000838161340f5761340e615016565b5b0492506020810190505b662386f26fc10000831061344857662386f26fc10000838161343e5761343d615016565b5b0492506010810190505b6305f5e1008310613471576305f5e100838161346757613466615016565b5b0492506008810190505b612710831061349657612710838161348c5761348b615016565b5b0492506004810190505b606483106134b957606483816134af576134ae615016565b5b0492506002810190505b600a83106134c8576001810190505b80915050919050565b6040518060a0016040528060008152602001600073ffffffffffffffffffffffffffffffffffffffff168152602001600073ffffffffffffffffffffffffffffffffffffffff168152602001600081526020016000151581525090565b60405180606001604052806000815260200160008152602001600073ffffffffffffffffffffffffffffffffffffffff1681525090565b6000604051905090565b600080fd5b600080fd5b60007fffffffff0000000000000000000000000000000000000000000000000000000082169050919050565b6135ae81613579565b81146135b957600080fd5b50565b6000813590506135cb816135a5565b92915050565b6000602082840312156135e7576135e661356f565b5b60006135f5848285016135bc565b91505092915050565b60008115159050919050565b613613816135fe565b82525050565b600060208201905061362e600083018461360a565b92915050565b600081519050919050565b600082825260208201905092915050565b60005b8381101561366e578082015181840152602081019050613653565b60008484015250505050565b6000601f19601f8301169050919050565b600061369682613634565b6136a0818561363f565b93506136b0818560208601613650565b6136b98161367a565b840191505092915050565b600060208201905081810360008301526136de818461368b565b905092915050565b6000819050919050565b6136f9816136e6565b811461370457600080fd5b50565b600081359050613716816136f0565b92915050565b6000602082840312156137325761373161356f565b5b600061374084828501613707565b91505092915050565b600073ffffffffffffffffffffffffffffffffffffffff82169050919050565b600061377482613749565b9050919050565b61378481613769565b82525050565b600060208201905061379f600083018461377b565b92915050565b6137ae81613769565b81146137b957600080fd5b50565b6000813590506137cb816137a5565b92915050565b600080604083850312156137e8576137e761356f565b5b60006137f6858286016137bc565b925050602061380785828601613707565b9150509250929050565b600081519050919050565b600082825260208201905092915050565b6000819050602082019050919050565b613846816136e6565b82525050565b600061385782613749565b9050919050565b6138678161384c565b82525050565b613876816135fe565b82525050565b60a082016000820151613892600085018261383d565b5060208201516138a5602085018261385e565b5060408201516138b8604085018261385e565b5060608201516138cb606085018261383d565b5060808201516138de608085018261386d565b50505050565b60006138f0838361387c565b60a08301905092915050565b6000602082019050919050565b600061391482613811565b61391e818561381c565b93506139298361382d565b8060005b8381101561395a57815161394188826138e4565b975061394c836138fc565b92505060018101905061392d565b5085935050505092915050565b600060208201905081810360008301526139818184613909565b905092915050565b613992816136e6565b82525050565b60006020820190506139ad6000830184613989565b92915050565b600081519050919050565b600082825260208201905092915050565b6000819050602082019050919050565b6060820160008201516139f5600085018261383d565b506020820151613a08602085018261383d565b506040820151613a1b604085018261385e565b50505050565b6000613a2d83836139df565b60608301905092915050565b6000602082019050919050565b6000613a51826139b3565b613a5b81856139be565b9350613a66836139cf565b8060005b83811015613a97578151613a7e8882613a21565b9750613a8983613a39565b925050600181019050613a6a565b5085935050505092915050565b60006040820190508181036000830152613abe8185613909565b90508181036020830152613ad28184613a46565b90509392505050565b600080600060608486031215613af457613af361356f565b5b6000613b02868287016137bc565b9350506020613b13868287016137bc565b9250506040613b2486828701613707565b9150509250925092565b613b378161384c565b82525050565b6000606082019050613b526000830186613989565b613b5f6020830185613989565b613b6c6040830184613b2e565b949350505050565b600060208284031215613b8a57613b8961356f565b5b6000613b98848285016137bc565b91505092915050565b600080fd5b600080fd5b7f4e487b7100000000000000000000000000000000000000000000000000000000600052604160045260246000fd5b613be38261367a565b810181811067ffffffffffffffff82111715613c0257613c01613bab565b5b80604052505050565b6000613c15613565565b9050613c218282613bda565b919050565b600067ffffffffffffffff821115613c4157613c40613bab565b5b613c4a8261367a565b9050602081019050919050565b82818337600083830152505050565b6000613c79613c7484613c26565b613c0b565b905082815260208101848484011115613c9557613c94613ba6565b5b613ca0848285613c57565b509392505050565b600082601f830112613cbd57613cbc613ba1565b5b8135613ccd848260208601613c66565b91505092915050565b60008060408385031215613ced57613cec61356f565b5b600083013567ffffffffffffffff811115613d0b57613d0a613574565b5b613d1785828601613ca8565b9250506020613d2885828601613707565b9150509250929050565b600080600060608486031215613d4b57613d4a61356f565b5b6000613d5986828701613707565b9350506020613d6a86828701613707565b9250506040613d7b86828701613707565b9150509250925092565b613d8e816135fe565b8114613d9957600080fd5b50565b600081359050613dab81613d85565b92915050565b60008060408385031215613dc857613dc761356f565b5b6000613dd6858286016137bc565b9250506020613de785828601613d9c565b9150509250929050565b600067ffffffffffffffff821115613e0c57613e0b613bab565b5b613e158261367a565b9050602081019050919050565b6000613e35613e3084613df1565b613c0b565b905082815260208101848484011115613e5157613e50613ba6565b5b613e5c848285613c57565b509392505050565b600082601f830112613e7957613e78613ba1565b5b8135613e89848260208601613e22565b91505092915050565b60008060008060808587031215613eac57613eab61356f565b5b6000613eba878288016137bc565b9450506020613ecb878288016137bc565b9350506040613edc87828801613707565b925050606085013567ffffffffffffffff811115613efd57613efc613574565b5b613f0987828801613e64565b91505092959194509250565b6000608082019050613f2a600083018761377b565b613f37602083018661377b565b613f44604083018561360a565b613f516060830184613989565b95945050505050565b60008060408385031215613f7157613f7061356f565b5b6000613f7f85828601613707565b9250506020613f9085828601613707565b9150509250929050565b60008060408385031215613fb157613fb061356f565b5b6000613fbf858286016137bc565b9250506020613fd0858286016137bc565b9150509250929050565b7f4e487b7100000000000000000000000000000000000000000000000000000000600052602260045260246000fd5b6000600282049050600182168061402157607f821691505b60208210810361403457614033613fda565b5b50919050565b7f4552433732313a20617070726f76616c20746f2063757272656e74206f776e6560008201527f7200000000000000000000000000000000000000000000000000000000000000602082015250565b600061409660218361363f565b91506140a18261403a565b604082019050919050565b600060208201905081810360008301526140c581614089565b9050919050565b7f4552433732313a20617070726f76652063616c6c6572206973206e6f7420746f60008201527f6b656e206f776e6572206f7220617070726f76656420666f7220616c6c000000602082015250565b6000614128603d8361363f565b9150614133826140cc565b604082019050919050565b600060208201905081810360008301526141578161411b565b9050919050565b7f4e487b7100000000000000000000000000000000000000000000000000000000600052601160045260246000fd5b6000614198826136e6565b91506141a3836136e6565b92508282039050818111156141bb576141ba61415e565b5b92915050565b60006141cc826136e6565b91506141d7836136e6565b92508282019050808211156141ef576141ee61415e565b5b92915050565b7f4e487b7100000000000000000000000000000000000000000000000000000000600052603260045260246000fd5b7f4552433732313a2063616c6c6572206973206e6f7420746f6b656e206f776e6560008201527f72206f7220617070726f76656400000000000000000000000000000000000000602082015250565b6000614280602d8361363f565b915061428b82614224565b604082019050919050565b600060208201905081810360008301526142af81614273565b9050919050565b7f4552433732313a20696e76616c696420746f6b656e2049440000000000000000600082015250565b60006142ec60188361363f565b91506142f7826142b6565b602082019050919050565b6000602082019050818103600083015261431b816142df565b9050919050565b7f4552433732313a2061646472657373207a65726f206973206e6f74206120766160008201527f6c6964206f776e65720000000000000000000000000000000000000000000000602082015250565b600061437e60298361363f565b915061438982614322565b604082019050919050565b600060208201905081810360008301526143ad81614371565b9050919050565b7f4974656d20616c726561647920736f6c64000000000000000000000000000000600082015250565b60006143ea60118361363f565b91506143f5826143b4565b602082019050919050565b60006020820190508181036000830152614419816143dd565b9050919050565b7f41756374696f6e20656e64656400000000000000000000000000000000000000600082015250565b6000614456600d8361363f565b915061446182614420565b602082019050919050565b6000602082019050818103600083015261448581614449565b9050919050565b7f546865726520616c726561647920697320612068696768657220626964000000600082015250565b60006144c2601d8361363f565b91506144cd8261448c565b602082019050919050565b600060208201905081810360008301526144f1816144b5565b9050919050565b7f4f6e6c79206d61726b6574706c616365206f776e65722063616e20757064617460008201527f65206c697374696e672070726963652e00000000000000000000000000000000602082015250565b600061455460308361363f565b915061455f826144f8565b604082019050919050565b6000602082019050818103600083015261458381614547565b9050919050565b7f41756374696f6e2068617320616c726561647920656e64656400000000000000600082015250565b60006145c060198361363f565b91506145cb8261458a565b602082019050919050565b600060208201905081810360008301526145ef816145b3565b9050919050565b7f506c65617365207375626d6974207468652061736b696e67207072696365206960008201527f6e206f7264657220746f20636f6d706c65746520746865207075726368617365602082015250565b600061465260408361363f565b915061465d826145f6565b604082019050919050565b6000602082019050818103600083015261468181614645565b9050919050565b600081905092915050565b600061469e82613634565b6146a88185614688565b93506146b8818560208601613650565b80840191505092915050565b60006146d08285614693565b91506146dc8284614693565b91508190509392505050565b7f4f6e6c79206974656d206f776e65722063616e20706572666f726d207468697360008201527f206f7065726174696f6e00000000000000000000000000000000000000000000602082015250565b6000614744602a8361363f565b915061474f826146e8565b604082019050919050565b6000602082019050818103600083015261477381614737565b9050919050565b7f5072696365206d75737420626520657175616c20746f206c697374696e67207060008201527f7269636500000000000000000000000000000000000000000000000000000000602082015250565b60006147d660248361363f565b91506147e18261477a565b604082019050919050565b60006020820190508181036000830152614805816147c9565b9050919050565b7f4552433732313a207472616e736665722066726f6d20696e636f72726563742060008201527f6f776e6572000000000000000000000000000000000000000000000000000000602082015250565b600061486860258361363f565b91506148738261480c565b604082019050919050565b600060208201905081810360008301526148978161485b565b9050919050565b7f4552433732313a207472616e7366657220746f20746865207a65726f2061646460008201527f7265737300000000000000000000000000000000000000000000000000000000602082015250565b60006148fa60248361363f565b91506149058261489e565b604082019050919050565b60006020820190508181036000830152614929816148ed565b9050919050565b7f4552433732313a206d696e7420746f20746865207a65726f2061646472657373600082015250565b600061496660208361363f565b915061497182614930565b602082019050919050565b6000602082019050818103600083015261499581614959565b9050919050565b7f4552433732313a20746f6b656e20616c7265616479206d696e74656400000000600082015250565b60006149d2601c8361363f565b91506149dd8261499c565b602082019050919050565b60006020820190508181036000830152614a01816149c5565b9050919050565b7f45524337323155524953746f726167653a2055524920736574206f66206e6f6e60008201527f6578697374656e7420746f6b656e000000000000000000000000000000000000602082015250565b6000614a64602e8361363f565b9150614a6f82614a08565b604082019050919050565b60006020820190508181036000830152614a9381614a57565b9050919050565b60008190508160005260206000209050919050565b60006020601f8301049050919050565b600082821b905092915050565b600060088302614afc7fffffffffffffffffffffffffffffffffffffffffffffffffffffffffffffffff82614abf565b614b068683614abf565b95508019841693508086168417925050509392505050565b6000819050919050565b6000614b43614b3e614b39846136e6565b614b1e565b6136e6565b9050919050565b6000819050919050565b614b5d83614b28565b614b71614b6982614b4a565b848454614acc565b825550505050565b600090565b614b86614b79565b614b91818484614b54565b505050565b5b81811015614bb557614baa600082614b7e565b600181019050614b97565b5050565b601f821115614bfa57614bcb81614a9a565b614bd484614aaf565b81016020851015614be3578190505b614bf7614bef85614aaf565b830182614b96565b50505b505050565b600082821c905092915050565b6000614c1d60001984600802614bff565b1980831691505092915050565b6000614c368383614c0c565b9150826002028217905092915050565b614c4f82613634565b67ffffffffffffffff811115614c6857614c67613bab565b5b614c728254614009565b614c7d828285614bb9565b600060209050601f831160018114614cb05760008415614c9e578287015190505b614ca88582614c2a565b865550614d10565b601f198416614cbe86614a9a565b60005b82811015614ce657848901518255600182019150602085019450602081019050614cc1565b86831015614d035784890151614cff601f891682614c0c565b8355505b6001600288020188555050505b505050505050565b7f5072696365206d757374206265206174206c6561737420312077656900000000600082015250565b6000614d4e601c8361363f565b9150614d5982614d18565b602082019050919050565b60006020820190508181036000830152614d7d81614d41565b9050919050565b6000608082019050614d99600083018761377b565b614da6602083018661377b565b614db36040830185613989565b614dc0606083018461360a565b95945050505050565b7f4552433732313a20617070726f766520746f2063616c6c657200000000000000600082015250565b6000614dff60198361363f565b9150614e0a82614dc9565b602082019050919050565b60006020820190508181036000830152614e2e81614df2565b9050919050565b7f4552433732313a207472616e7366657220746f206e6f6e20455243373231526560008201527f63656976657220696d706c656d656e7465720000000000000000000000000000602082015250565b6000614e9160328361363f565b9150614e9c82614e35565b604082019050919050565b60006020820190508181036000830152614ec081614e84565b9050919050565b7f436f756e7465723a2064656372656d656e74206f766572666c6f770000000000600082015250565b6000614efd601b8361363f565b9150614f0882614ec7565b602082019050919050565b60006020820190508181036000830152614f2c81614ef0565b9050919050565b600081519050919050565b600082825260208201905092915050565b6000614f5a82614f33565b614f648185614f3e565b9350614f74818560208601613650565b614f7d8161367a565b840191505092915050565b6000608082019050614f9d600083018761377b565b614faa602083018661377b565b614fb76040830185613989565b8181036060830152614fc98184614f4f565b905095945050505050565b600081519050614fe3816135a5565b92915050565b600060208284031215614fff57614ffe61356f565b5b600061500d84828501614fd4565b91505092915050565b7f4e487b7100000000000000000000000000000000000000000000000000000000600052601260045260246000fdfea2646970667358221220a491c2faa747e3276d0b92a333fe492fafecf6adf3eaead838f283364611351664736f6c634300081c0033",
  "linkReferences": {},
  "deployedLinkReferences": {}
}