{
  "_format": "hh-sol-artifact-1",
  "contractName": "NFTMarketPlace",
  "sourceName": "contracts/NFTMarketPlace.sol",
  "abi": [
    {
      "inputs": [],
      "stateMutability": "nonpayable",
      "type": "constructor"
    },
    {
      "anonymous": false,
      "inputs": [
        {
          "indexed": true,
          "internalType": "address",
          "name": "owner",
          "type": "address"
        },
        {
          "indexed": true,
          "internalType": "address",
          "name": "approved",
          "type": "address"
        },
        {
          "indexed": true,
          "internalType": "uint256",
          "name": "tokenId",
          "type": "uint256"
        }
      ],
      "name": "Approval",
      "type": "event"
    },
    {
      "anonymous": false,
      "inputs": [
        {
          "indexed": true,
          "internalType": "address",
          "name": "owner",
          "type": "address"
        },
        {
          "indexed": true,
          "internalType": "address",
          "name": "operator",
          "type": "address"
        },
        {
          "indexed": false,
          "internalType": "bool",
          "name": "approved",
          "type": "bool"
        }
      ],
      "name": "ApprovalForAll",
      "type": "event"
    },
    {
      "anonymous": false,
      "inputs": [
        {
          "indexed": true,
          "internalType": "uint256",
          "name": "tokenId",
          "type": "uint256"
        },
        {
          "indexed": false,
          "internalType": "address",
          "name": "bidder",
          "type": "address"
        },
        {
          "indexed": false,
          "internalType": "uint256",
          "name": "amount",
          "type": "uint256"
        }
      ],
      "name": "AuctionBidPlaced",
      "type": "event"
    },
    {
      "anonymous": false,
      "inputs": [
        {
          "indexed": true,
          "internalType": "uint256",
          "name": "tokenId",
          "type": "uint256"
        },
        {
          "indexed": false,
          "internalType": "address",
          "name": "winner",
          "type": "address"
        },
        {
          "indexed": false,
          "internalType": "uint256",
          "name": "amount",
          "type": "uint256"
        }
      ],
      "name": "AuctionEnded",
      "type": "event"
    },
    {
      "anonymous": false,
      "inputs": [
        {
          "indexed": false,
          "internalType": "uint256",
          "name": "_fromTokenId",
          "type": "uint256"
        },
        {
          "indexed": false,
          "internalType": "uint256",
          "name": "_toTokenId",
          "type": "uint256"
        }
      ],
      "name": "BatchMetadataUpdate",
      "type": "event"
    },
    {
      "anonymous": false,
      "inputs": [
        {
          "indexed": true,
          "internalType": "uint256",
          "name": "tokenId",
          "type": "uint256"
        },
        {
          "indexed": false,
          "internalType": "address",
          "name": "seller",
          "type": "address"
        },
        {
          "indexed": false,
          "internalType": "address",
          "name": "owner",
          "type": "address"
        },
        {
          "indexed": false,
          "internalType": "uint256",
          "name": "price",
          "type": "uint256"
        },
        {
          "indexed": false,
          "internalType": "bool",
          "name": "sold",
          "type": "bool"
        }
      ],
      "name": "MarketItemCreated",
      "type": "event"
    },
    {
      "anonymous": false,
      "inputs": [
        {
          "indexed": false,
          "internalType": "uint256",
          "name": "_tokenId",
          "type": "uint256"
        }
      ],
      "name": "MetadataUpdate",
      "type": "event"
    },
    {
      "anonymous": false,
      "inputs": [
        {
          "indexed": true,
          "internalType": "address",
          "name": "from",
          "type": "address"
        },
        {
          "indexed": true,
          "internalType": "address",
          "name": "to",
          "type": "address"
        },
        {
          "indexed": true,
          "internalType": "uint256",
          "name": "tokenId",
          "type": "uint256"
        }
      ],
      "name": "Transfer",
      "type": "event"
    },
    {
      "inputs": [
        {
          "internalType": "address",
          "name": "to",
          "type": "address"
        },
        {
          "internalType": "uint256",
          "name": "tokenId",
          "type": "uint256"
        }
      ],
      "name": "approve",
      "outputs": [],
      "stateMutability": "nonpayable",
      "type": "function"
    },
    {
      "inputs": [
        {
          "internalType": "uint256",
          "name": "",
          "type": "uint256"
        }
      ],
      "name": "auctions",
      "outputs": [
        {
          "internalType": "uint256",
          "name": "auctionEndTime",
          "type": "uint256"
        },
        {
          "internalType": "uint256",
          "name": "highestBid",
          "type": "uint256"
        },
        {
          "internalType": "address payable",
          "name": "highestBidder",
          "type": "address"
        },
        {
          "internalType": "string",
          "name": "metadataHash",
          "type": "string"
        }
      ],
      "stateMutability": "view",
      "type": "function"
    },
    {
      "inputs": [
        {
          "internalType": "address",
          "name": "owner",
          "type": "address"
        }
      ],
      "name": "balanceOf",
      "outputs": [
        {
          "internalType": "uint256",
          "name": "",
          "type": "uint256"
        }
      ],
      "stateMutability": "view",
      "type": "function"
    },
    {
      "inputs": [
        {
          "internalType": "uint256",
          "name": "tokenId",
          "type": "uint256"
        }
      ],
      "name": "createMarketSale",
      "outputs": [],
      "stateMutability": "payable",
      "type": "function"
    },
    {
      "inputs": [
        {
          "internalType": "string",
          "name": "tokenURI",
          "type": "string"
        },
        {
          "internalType": "uint256",
          "name": "price",
          "type": "uint256"
        }
      ],
      "name": "createToken",
      "outputs": [
        {
          "internalType": "uint256",
          "name": "",
          "type": "uint256"
        }
      ],
      "stateMutability": "payable",
      "type": "function"
    },
    {
      "inputs": [
        {
          "internalType": "uint256",
          "name": "tokenId",
          "type": "uint256"
        }
      ],
      "name": "endAuction",
      "outputs": [],
      "stateMutability": "nonpayable",
      "type": "function"
    },
    {
      "inputs": [],
      "name": "fetchAuctions",
      "outputs": [
        {
          "components": [
            {
              "internalType": "uint256",
              "name": "tokenId",
              "type": "uint256"
            },
            {
              "internalType": "address payable",
              "name": "seller",
              "type": "address"
            },
            {
              "internalType": "address payable",
              "name": "owner",
              "type": "address"
            },
            {
              "internalType": "uint256",
              "name": "price",
              "type": "uint256"
            },
            {
              "internalType": "bool",
              "name": "sold",
              "type": "bool"
            }
          ],
          "internalType": "struct NFTMarketPlace.MarketItem[]",
          "name": "",
          "type": "tuple[]"
        },
        {
          "components": [
            {
              "internalType": "uint256",
              "name": "auctionEndTime",
              "type": "uint256"
            },
            {
              "internalType": "uint256",
              "name": "highestBid",
              "type": "uint256"
            },
            {
              "internalType": "address payable",
              "name": "highestBidder",
              "type": "address"
            },
            {
              "internalType": "string",
              "name": "metadataHash",
              "type": "string"
            }
          ],
          "internalType": "struct NFTMarketPlace.Auction[]",
          "name": "",
          "type": "tuple[]"
        }
      ],
      "stateMutability": "view",
      "type": "function"
    },
    {
      "inputs": [],
      "name": "fetchItemsListed",
      "outputs": [
        {
          "components": [
            {
              "internalType": "uint256",
              "name": "tokenId",
              "type": "uint256"
            },
            {
              "internalType": "address payable",
              "name": "seller",
              "type": "address"
            },
            {
              "internalType": "address payable",
              "name": "owner",
              "type": "address"
            },
            {
              "internalType": "uint256",
              "name": "price",
              "type": "uint256"
            },
            {
              "internalType": "bool",
              "name": "sold",
              "type": "bool"
            }
          ],
          "internalType": "struct NFTMarketPlace.MarketItem[]",
          "name": "",
          "type": "tuple[]"
        }
      ],
      "stateMutability": "view",
      "type": "function"
    },
    {
      "inputs": [],
      "name": "fetchMarketItems",
      "outputs": [
        {
          "components": [
            {
              "internalType": "uint256",
              "name": "tokenId",
              "type": "uint256"
            },
            {
              "internalType": "address payable",
              "name": "seller",
              "type": "address"
            },
            {
              "internalType": "address payable",
              "name": "owner",
              "type": "address"
            },
            {
              "internalType": "uint256",
              "name": "price",
              "type": "uint256"
            },
            {
              "internalType": "bool",
              "name": "sold",
              "type": "bool"
            }
          ],
          "internalType": "struct NFTMarketPlace.MarketItem[]",
          "name": "",
          "type": "tuple[]"
        }
      ],
      "stateMutability": "view",
      "type": "function"
    },
    {
      "inputs": [],
      "name": "fetchMyNFTs",
      "outputs": [
        {
          "components": [
            {
              "internalType": "uint256",
              "name": "tokenId",
              "type": "uint256"
            },
            {
              "internalType": "address payable",
              "name": "seller",
              "type": "address"
            },
            {
              "internalType": "address payable",
              "name": "owner",
              "type": "address"
            },
            {
              "internalType": "uint256",
              "name": "price",
              "type": "uint256"
            },
            {
              "internalType": "bool",
              "name": "sold",
              "type": "bool"
            }
          ],
          "internalType": "struct NFTMarketPlace.MarketItem[]",
          "name": "",
          "type": "tuple[]"
        }
      ],
      "stateMutability": "view",
      "type": "function"
    },
    {
      "inputs": [
        {
          "internalType": "uint256",
          "name": "tokenId",
          "type": "uint256"
        }
      ],
      "name": "getApproved",
      "outputs": [
        {
          "internalType": "address",
          "name": "",
          "type": "address"
        }
      ],
      "stateMutability": "view",
      "type": "function"
    },
    {
      "inputs": [],
      "name": "getListingPrice",
      "outputs": [
        {
          "internalType": "uint256",
          "name": "",
          "type": "uint256"
        }
      ],
      "stateMutability": "view",
      "type": "function"
    },
    {
      "inputs": [
        {
          "internalType": "address",
          "name": "owner",
          "type": "address"
        },
        {
          "internalType": "address",
          "name": "operator",
          "type": "address"
        }
      ],
      "name": "isApprovedForAll",
      "outputs": [
        {
          "internalType": "bool",
          "name": "",
          "type": "bool"
        }
      ],
      "stateMutability": "view",
      "type": "function"
    },
    {
      "inputs": [
        {
          "internalType": "uint256",
          "name": "",
          "type": "uint256"
        }
      ],
      "name": "items",
      "outputs": [
        {
          "internalType": "address",
          "name": "owner",
          "type": "address"
        },
        {
          "internalType": "address",
          "name": "seller",
          "type": "address"
        },
        {
          "internalType": "bool",
          "name": "sold",
          "type": "bool"
        },
        {
          "internalType": "uint256",
          "name": "price",
          "type": "uint256"
        }
      ],
      "stateMutability": "view",
      "type": "function"
    },
    {
      "inputs": [],
      "name": "name",
      "outputs": [
        {
          "internalType": "string",
          "name": "",
          "type": "string"
        }
      ],
      "stateMutability": "view",
      "type": "function"
    },
    {
      "inputs": [
        {
          "internalType": "uint256",
          "name": "tokenId",
          "type": "uint256"
        }
      ],
      "name": "ownerOf",
      "outputs": [
        {
          "internalType": "address",
          "name": "",
          "type": "address"
        }
      ],
      "stateMutability": "view",
      "type": "function"
    },
    {
      "inputs": [
        {
          "internalType": "uint256",
          "name": "tokenId",
          "type": "uint256"
        }
      ],
      "name": "placeBid",
      "outputs": [],
      "stateMutability": "payable",
      "type": "function"
    },
    {
      "inputs": [
        {
          "internalType": "uint256",
          "name": "tokenId",
          "type": "uint256"
        },
        {
          "internalType": "uint256",
          "name": "price",
          "type": "uint256"
        }
      ],
      "name": "resellToken",
      "outputs": [],
      "stateMutability": "payable",
      "type": "function"
    },
    {
      "inputs": [
        {
          "internalType": "address",
          "name": "from",
          "type": "address"
        },
        {
          "internalType": "address",
          "name": "to",
          "type": "address"
        },
        {
          "internalType": "uint256",
          "name": "tokenId",
          "type": "uint256"
        }
      ],
      "name": "safeTransferFrom",
      "outputs": [],
      "stateMutability": "nonpayable",
      "type": "function"
    },
    {
      "inputs": [
        {
          "internalType": "address",
          "name": "from",
          "type": "address"
        },
        {
          "internalType": "address",
          "name": "to",
          "type": "address"
        },
        {
          "internalType": "uint256",
          "name": "tokenId",
          "type": "uint256"
        },
        {
          "internalType": "bytes",
          "name": "data",
          "type": "bytes"
        }
      ],
      "name": "safeTransferFrom",
      "outputs": [],
      "stateMutability": "nonpayable",
      "type": "function"
    },
    {
      "inputs": [
        {
          "internalType": "address",
          "name": "operator",
          "type": "address"
        },
        {
          "internalType": "bool",
          "name": "approved",
          "type": "bool"
        }
      ],
      "name": "setApprovalForAll",
      "outputs": [],
      "stateMutability": "nonpayable",
      "type": "function"
    },
    {
      "inputs": [
        {
          "internalType": "uint256",
          "name": "tokenId",
          "type": "uint256"
        },
        {
          "internalType": "uint256",
          "name": "startingBid",
          "type": "uint256"
        },
        {
          "internalType": "uint256",
          "name": "duration",
          "type": "uint256"
        },
        {
          "internalType": "string",
          "name": "url",
          "type": "string"
        }
      ],
      "name": "startAuction",
      "outputs": [],
      "stateMutability": "nonpayable",
      "type": "function"
    },
    {
      "inputs": [
        {
          "internalType": "bytes4",
          "name": "interfaceId",
          "type": "bytes4"
        }
      ],
      "name": "supportsInterface",
      "outputs": [
        {
          "internalType": "bool",
          "name": "",
          "type": "bool"
        }
      ],
      "stateMutability": "view",
      "type": "function"
    },
    {
      "inputs": [],
      "name": "symbol",
      "outputs": [
        {
          "internalType": "string",
          "name": "",
          "type": "string"
        }
      ],
      "stateMutability": "view",
      "type": "function"
    },
    {
      "inputs": [
        {
          "internalType": "uint256",
          "name": "tokenId",
          "type": "uint256"
        }
      ],
      "name": "tokenURI",
      "outputs": [
        {
          "internalType": "string",
          "name": "",
          "type": "string"
        }
      ],
      "stateMutability": "view",
      "type": "function"
    },
    {
      "inputs": [
        {
          "internalType": "address",
          "name": "add1",
          "type": "address"
        },
        {
          "internalType": "uint256",
          "name": "token1",
          "type": "uint256"
        },
        {
          "internalType": "address",
          "name": "add2",
          "type": "address"
        },
        {
          "internalType": "uint256",
          "name": "token2",
          "type": "uint256"
        }
      ],
      "name": "tradeNFT",
      "outputs": [],
      "stateMutability": "nonpayable",
      "type": "function"
    },
    {
      "inputs": [
        {
          "internalType": "address",
          "name": "from",
          "type": "address"
        },
        {
          "internalType": "address",
          "name": "to",
          "type": "address"
        },
        {
          "internalType": "uint256",
          "name": "tokenId",
          "type": "uint256"
        }
      ],
      "name": "transferFrom",
      "outputs": [],
      "stateMutability": "nonpayable",
      "type": "function"
    },
    {
      "inputs": [
        {
          "internalType": "uint256",
          "name": "tokenId",
          "type": "uint256"
        },
        {
          "internalType": "address",
          "name": "sender",
          "type": "address"
        },
        {
          "internalType": "address",
          "name": "recvAdd",
          "type": "address"
        }
      ],
      "name": "transferNFT",
      "outputs": [],
      "stateMutability": "nonpayable",
      "type": "function"
    },
    {
      "inputs": [
        {
          "internalType": "uint256",
          "name": "_listingPrice",
          "type": "uint256"
        }
      ],
      "name": "updateListingPrice",
      "outputs": [],
      "stateMutability": "payable",
      "type": "function"
    }
  ],
  "bytecode": "0x60806040526658d15e1762800060095534801561001b57600080fd5b506040518060400160405280601081526020017f4d657461766572736520546f6b656e73000000000000000000000000000000008152506040518060400160405280600481526020017f4d4554540000000000000000000000000000000000000000000000000000000081525081600090816100979190610340565b5080600190816100a79190610340565b50505033600a60006101000a81548173ffffffffffffffffffffffffffffffffffffffff021916908373ffffffffffffffffffffffffffffffffffffffff160217905550610412565b600081519050919050565b7f4e487b7100000000000000000000000000000000000000000000000000000000600052604160045260246000fd5b7f4e487b7100000000000000000000000000000000000000000000000000000000600052602260045260246000fd5b6000600282049050600182168061017157607f821691505b6020821081036101845761018361012a565b5b50919050565b60008190508160005260206000209050919050565b60006020601f8301049050919050565b600082821b905092915050565b6000600883026101ec7fffffffffffffffffffffffffffffffffffffffffffffffffffffffffffffffff826101af565b6101f686836101af565b95508019841693508086168417925050509392505050565b6000819050919050565b6000819050919050565b600061023d6102386102338461020e565b610218565b61020e565b9050919050565b6000819050919050565b61025783610222565b61026b61026382610244565b8484546101bc565b825550505050565b600090565b610280610273565b61028b81848461024e565b505050565b5b818110156102af576102a4600082610278565b600181019050610291565b5050565b601f8211156102f4576102c58161018a565b6102ce8461019f565b810160208510156102dd578190505b6102f16102e98561019f565b830182610290565b50505b505050565b600082821c905092915050565b6000610317600019846008026102f9565b1980831691505092915050565b60006103308383610306565b9150826002028217905092915050565b610349826100f0565b67ffffffffffffffff811115610362576103616100fb565b5b61036c8254610159565b6103778282856102b3565b600060209050601f8311600181146103aa5760008415610398578287015190505b6103a28582610324565b86555061040a565b601f1984166103b88661018a565b60005b828110156103e0578489015182556001820191506020850194506020810190506103bb565b868310156103fd57848901516103f9601f891682610306565b8355505b6001600288020188555050505b505050505050565b6157d3806104216000396000f3fe6080604052600436106101c25760003560e01c80636352211e116100f7578063ae677aa311610095578063bfb231d211610064578063bfb231d21461061e578063c87b56dd1461065e578063e219fc751461069b578063e985e9c5146106b7576101c2565b8063ae677aa314610594578063b88d4fde146105b0578063b9a2de3a146105d9578063be9af53614610602576101c2565b806372b3b620116100d157806372b3b620146104f457806395d89b41146105245780639979ef451461054f578063a22cb4651461056b576101c2565b80636352211e14610451578063680ed24f1461048e57806370a08231146104b7576101c2565b8063202e37401161016457806339ef8e871161013e57806339ef8e871461039457806342842e0e146103bd57806345f8fa80146103e6578063571a26a014610411576101c2565b8063202e37401461031757806323b872dd146103425780632aafe1321461036b576101c2565b8063095ea7b3116101a0578063095ea7b31461026c5780630f08efe01461029557806312e85585146102c05780631b2fcf48146102eb576101c2565b806301ffc9a7146101c757806306fdde0314610204578063081812fc1461022f575b600080fd5b3480156101d357600080fd5b506101ee60048036038101906101e99190613b47565b6106f4565b6040516101fb9190613b8f565b60405180910390f35b34801561021057600080fd5b50610219610755565b6040516102269190613c3a565b60405180910390f35b34801561023b57600080fd5b5061025660048036038101906102519190613c92565b6107e7565b6040516102639190613d00565b60405180910390f35b34801561027857600080fd5b50610293600480360381019061028e9190613d47565b61082d565b005b3480156102a157600080fd5b506102aa610944565b6040516102b79190613edd565b60405180910390f35b3480156102cc57600080fd5b506102d5610ba6565b6040516102e29190613f0e565b60405180910390f35b3480156102f757600080fd5b50610300610bb0565b60405161030e929190614098565b60405180910390f35b34801561032357600080fd5b5061032c610f77565b6040516103399190613edd565b60405180910390f35b34801561034e57600080fd5b50610369600480360381019061036491906140cf565b611257565b005b34801561037757600080fd5b50610392600480360381019061038d9190614122565b6112b7565b005b3480156103a057600080fd5b506103bb60048036038101906103b69190614175565b6113a1565b005b3480156103c957600080fd5b506103e460048036038101906103df91906140cf565b611571565b005b3480156103f257600080fd5b506103fb611591565b6040516104089190613edd565b60405180910390f35b34801561041d57600080fd5b5061043860048036038101906104339190613c92565b611871565b60405161044894939291906141eb565b60405180910390f35b34801561045d57600080fd5b5061047860048036038101906104739190613c92565b611949565b6040516104859190613d00565b60405180910390f35b34801561049a57600080fd5b506104b560048036038101906104b0919061429c565b6119cf565b005b3480156104c357600080fd5b506104de60048036038101906104d99190614324565b611b48565b6040516104eb9190613f0e565b60405180910390f35b61050e60048036038101906105099190614481565b611bff565b60405161051b9190613f0e565b60405180910390f35b34801561053057600080fd5b50610539611c41565b6040516105469190613c3a565b60405180910390f35b61056960048036038101906105649190613c92565b611cd3565b005b34801561057757600080fd5b50610592600480360381019061058d9190614509565b611dc6565b005b6105ae60048036038101906105a99190613c92565b611ddc565b005b3480156105bc57600080fd5b506105d760048036038101906105d291906145ea565b611e76565b005b3480156105e557600080fd5b5061060060048036038101906105fb9190613c92565b611ed8565b005b61061c60048036038101906106179190613c92565b6121cd565b005b34801561062a57600080fd5b5061064560048036038101906106409190613c92565b612405565b604051610655949392919061466d565b60405180910390f35b34801561066a57600080fd5b5061068560048036038101906106809190613c92565b612482565b6040516106929190613c3a565b60405180910390f35b6106b560048036038101906106b091906146b2565b612594565b005b3480156106c357600080fd5b506106de60048036038101906106d991906146f2565b612789565b6040516106eb9190613b8f565b60405180910390f35b6000634906490660e01b7bffffffffffffffffffffffffffffffffffffffffffffffffffffffff1916827bffffffffffffffffffffffffffffffffffffffffffffffffffffffff1916148061074e575061074d8261281d565b5b9050919050565b60606000805461076490614761565b80601f016020809104026020016040519081016040528092919081815260200182805461079090614761565b80156107dd5780601f106107b2576101008083540402835291602001916107dd565b820191906000526020600020905b8154815290600101906020018083116107c057829003601f168201915b5050505050905090565b60006107f2826128ff565b6004600083815260200190815260200160002060009054906101000a900473ffffffffffffffffffffffffffffffffffffffff169050919050565b600061083882611949565b90508073ffffffffffffffffffffffffffffffffffffffff168373ffffffffffffffffffffffffffffffffffffffff16036108a8576040517f08c379a000000000000000000000000000000000000000000000000000000000815260040161089f90614804565b60405180910390fd5b8073ffffffffffffffffffffffffffffffffffffffff166108c761294a565b73ffffffffffffffffffffffffffffffffffffffff1614806108f657506108f5816108f061294a565b612789565b5b610935576040517f08c379a000000000000000000000000000000000000000000000000000000000815260040161092c90614896565b60405180910390fd5b61093f8383612952565b505050565b606060006109526007612a0b565b905060006109606008612a0b565b61096a6007612a0b565b61097491906148e5565b90506000808267ffffffffffffffff81111561099357610992614356565b5b6040519080825280602002602001820160405280156109cc57816020015b6109b96139e3565b8152602001906001900390816109b15790505b50905060005b84811015610b9b573073ffffffffffffffffffffffffffffffffffffffff16600b6000600184610a029190614919565b815260200190815260200160002060020160009054906101000a900473ffffffffffffffffffffffffffffffffffffffff1673ffffffffffffffffffffffffffffffffffffffff1603610b8e576000600182610a5e9190614919565b90506000600b60008381526020019081526020016000209050806040518060a0016040529081600082015481526020016001820160009054906101000a900473ffffffffffffffffffffffffffffffffffffffff1673ffffffffffffffffffffffffffffffffffffffff1673ffffffffffffffffffffffffffffffffffffffff1681526020016002820160009054906101000a900473ffffffffffffffffffffffffffffffffffffffff1673ffffffffffffffffffffffffffffffffffffffff1673ffffffffffffffffffffffffffffffffffffffff168152602001600382015481526020016004820160009054906101000a900460ff161515151581525050848681518110610b7157610b7061494d565b5b6020026020010181905250600185610b899190614919565b945050505b80806001019150506109d2565b508094505050505090565b6000600954905090565b6060806000610bbf6007612a0b565b90506000805b82811015610c1a576000600182610bdc9190614919565b905042600c6000838152602001908152602001600020600001541115610c0c57600183610c099190614919565b92505b508080600101915050610bc5565b5060008167ffffffffffffffff811115610c3757610c36614356565b5b604051908082528060200260200182016040528015610c7057816020015b610c5d6139e3565b815260200190600190039081610c555790505b50905060008267ffffffffffffffff811115610c8f57610c8e614356565b5b604051908082528060200260200182016040528015610cc857816020015b610cb5613a40565b815260200190600190039081610cad5790505b5090506000805b85811015610f67576000600182610ce69190614919565b90506000600c600083815260200190815260200160002090504281600001541115610f5857600b60008381526020019081526020016000206040518060a0016040529081600082015481526020016001820160009054906101000a900473ffffffffffffffffffffffffffffffffffffffff1673ffffffffffffffffffffffffffffffffffffffff1673ffffffffffffffffffffffffffffffffffffffff1681526020016002820160009054906101000a900473ffffffffffffffffffffffffffffffffffffffff1673ffffffffffffffffffffffffffffffffffffffff1673ffffffffffffffffffffffffffffffffffffffff168152602001600382015481526020016004820160009054906101000a900460ff161515151581525050868581518110610e1757610e1661494d565b5b60200260200101819052508060405180608001604052908160008201548152602001600182015481526020016002820160009054906101000a900473ffffffffffffffffffffffffffffffffffffffff1673ffffffffffffffffffffffffffffffffffffffff1673ffffffffffffffffffffffffffffffffffffffff168152602001600382018054610ea890614761565b80601f0160208091040260200160405190810160405280929190818152602001828054610ed490614761565b8015610f215780601f10610ef657610100808354040283529160200191610f21565b820191906000526020600020905b815481529060010190602001808311610f0457829003601f168201915b505050505081525050858581518110610f3d57610f3c61494d565b5b6020026020010181905250600184610f559190614919565b93505b50508080600101915050610ccf565b5082829650965050505050509091565b60606000610f856007612a0b565b905060008060005b83811015611027573373ffffffffffffffffffffffffffffffffffffffff16600b6000600184610fbd9190614919565b815260200190815260200160002060020160009054906101000a900473ffffffffffffffffffffffffffffffffffffffff1673ffffffffffffffffffffffffffffffffffffffff160361101a576001836110179190614919565b92505b8080600101915050610f8d565b5060008267ffffffffffffffff81111561104457611043614356565b5b60405190808252806020026020018201604052801561107d57816020015b61106a6139e3565b8152602001906001900390816110625790505b50905060005b8481101561124c573373ffffffffffffffffffffffffffffffffffffffff16600b60006001846110b39190614919565b815260200190815260200160002060020160009054906101000a900473ffffffffffffffffffffffffffffffffffffffff1673ffffffffffffffffffffffffffffffffffffffff160361123f57600060018261110f9190614919565b90506000600b60008381526020019081526020016000209050806040518060a0016040529081600082015481526020016001820160009054906101000a900473ffffffffffffffffffffffffffffffffffffffff1673ffffffffffffffffffffffffffffffffffffffff1673ffffffffffffffffffffffffffffffffffffffff1681526020016002820160009054906101000a900473ffffffffffffffffffffffffffffffffffffffff1673ffffffffffffffffffffffffffffffffffffffff1673ffffffffffffffffffffffffffffffffffffffff168152602001600382015481526020016004820160009054906101000a900460ff1615151515815250508486815181106112225761122161494d565b5b602002602001018190525060018561123a9190614919565b945050505b8080600101915050611083565b508094505050505090565b61126861126261294a565b82612a19565b6112a7576040517f08c379a000000000000000000000000000000000000000000000000000000000815260040161129e906149ee565b60405180910390fd5b6112b2838383612aae565b505050565b80600b600085815260200190815260200160002060020160006101000a81548173ffffffffffffffffffffffffffffffffffffffff021916908373ffffffffffffffffffffffffffffffffffffffff1602179055506001600b600085815260200190815260200160002060040160006101000a81548160ff0219169083151502179055506000600b600085815260200190815260200160002060010160006101000a81548173ffffffffffffffffffffffffffffffffffffffff021916908373ffffffffffffffffffffffffffffffffffffffff16021790555061139c828285612aae565b505050565b81600b600085815260200190815260200160002060020160006101000a81548173ffffffffffffffffffffffffffffffffffffffff021916908373ffffffffffffffffffffffffffffffffffffffff1602179055506001600b600085815260200190815260200160002060040160006101000a81548160ff0219169083151502179055506000600b600085815260200190815260200160002060010160006101000a81548173ffffffffffffffffffffffffffffffffffffffff021916908373ffffffffffffffffffffffffffffffffffffffff160217905550611486848385612aae565b83600b600083815260200190815260200160002060020160006101000a81548173ffffffffffffffffffffffffffffffffffffffff021916908373ffffffffffffffffffffffffffffffffffffffff1602179055506001600b600083815260200190815260200160002060040160006101000a81548160ff0219169083151502179055506000600b600083815260200190815260200160002060010160006101000a81548173ffffffffffffffffffffffffffffffffffffffff021916908373ffffffffffffffffffffffffffffffffffffffff16021790555061156b828583612aae565b50505050565b61158c83838360405180602001604052806000815250611e76565b505050565b6060600061159f6007612a0b565b905060008060005b83811015611641573373ffffffffffffffffffffffffffffffffffffffff16600b60006001846115d79190614919565b815260200190815260200160002060010160009054906101000a900473ffffffffffffffffffffffffffffffffffffffff1673ffffffffffffffffffffffffffffffffffffffff1603611634576001836116319190614919565b92505b80806001019150506115a7565b5060008267ffffffffffffffff81111561165e5761165d614356565b5b60405190808252806020026020018201604052801561169757816020015b6116846139e3565b81526020019060019003908161167c5790505b50905060005b84811015611866573373ffffffffffffffffffffffffffffffffffffffff16600b60006001846116cd9190614919565b815260200190815260200160002060010160009054906101000a900473ffffffffffffffffffffffffffffffffffffffff1673ffffffffffffffffffffffffffffffffffffffff16036118595760006001826117299190614919565b90506000600b60008381526020019081526020016000209050806040518060a0016040529081600082015481526020016001820160009054906101000a900473ffffffffffffffffffffffffffffffffffffffff1673ffffffffffffffffffffffffffffffffffffffff1673ffffffffffffffffffffffffffffffffffffffff1681526020016002820160009054906101000a900473ffffffffffffffffffffffffffffffffffffffff1673ffffffffffffffffffffffffffffffffffffffff1673ffffffffffffffffffffffffffffffffffffffff168152602001600382015481526020016004820160009054906101000a900460ff16151515158152505084868151811061183c5761183b61494d565b5b60200260200101819052506001856118549190614919565b945050505b808060010191505061169d565b508094505050505090565b600c6020528060005260406000206000915090508060000154908060010154908060020160009054906101000a900473ffffffffffffffffffffffffffffffffffffffff16908060030180546118c690614761565b80601f01602080910402602001604051908101604052809291908181526020018280546118f290614761565b801561193f5780601f106119145761010080835404028352916020019161193f565b820191906000526020600020905b81548152906001019060200180831161192257829003601f168201915b5050505050905084565b60008061195583612da7565b9050600073ffffffffffffffffffffffffffffffffffffffff168173ffffffffffffffffffffffffffffffffffffffff16036119c6576040517f08c379a00000000000000000000000000000000000000000000000000000000081526004016119bd90614a5a565b60405180910390fd5b80915050919050565b600d600086815260200190815260200160002060010160149054906101000a900460ff1615611a33576040517f08c379a0000000000000000000000000000000000000000000000000000000008152600401611a2a90614ac6565b60405180910390fd5b60405180608001604052808442611a4a9190614919565b8152602001858152602001600073ffffffffffffffffffffffffffffffffffffffff16815260200183838080601f016020809104026020016040519081016040528093929190818152602001838380828437600081840152601f19601f82011690508083019250505050505050815250600c6000878152602001908152602001600020600082015181600001556020820151816001015560408201518160020160006101000a81548173ffffffffffffffffffffffffffffffffffffffff021916908373ffffffffffffffffffffffffffffffffffffffff1602179055506060820151816003019081611b3d9190614c92565b509050505050505050565b60008073ffffffffffffffffffffffffffffffffffffffff168273ffffffffffffffffffffffffffffffffffffffff1603611bb8576040517f08c379a0000000000000000000000000000000000000000000000000000000008152600401611baf90614dd6565b60405180910390fd5b600360008373ffffffffffffffffffffffffffffffffffffffff1673ffffffffffffffffffffffffffffffffffffffff168152602001908152602001600020549050919050565b6000611c0b6007612de4565b6000611c176007612a0b565b9050611c233382612dfa565b611c2d8185613017565b611c3781846130bb565b8091505092915050565b606060018054611c5090614761565b80601f0160208091040260200160405190810160405280929190818152602001828054611c7c90614761565b8015611cc95780601f10611c9e57610100808354040283529160200191611cc9565b820191906000526020600020905b815481529060010190602001808311611cac57829003601f168201915b5050505050905090565b6000600c6000838152602001908152602001600020905080600001544210611d30576040517f08c379a0000000000000000000000000000000000000000000000000000000008152600401611d2790614e42565b60405180910390fd5b80600101543411611d76576040517f08c379a0000000000000000000000000000000000000000000000000000000008152600401611d6d90614eae565b60405180910390fd5b348160010181905550338160020160006101000a81548173ffffffffffffffffffffffffffffffffffffffff021916908373ffffffffffffffffffffffffffffffffffffffff1602179055505050565b611dd8611dd161294a565b83836132be565b5050565b3373ffffffffffffffffffffffffffffffffffffffff16600a60009054906101000a900473ffffffffffffffffffffffffffffffffffffffff1673ffffffffffffffffffffffffffffffffffffffff1614611e6c576040517f08c379a0000000000000000000000000000000000000000000000000000000008152600401611e6390614f40565b60405180910390fd5b8060098190555050565b611e87611e8161294a565b83612a19565b611ec6576040517f08c379a0000000000000000000000000000000000000000000000000000000008152600401611ebd906149ee565b60405180910390fd5b611ed28484848461342a565b50505050565b6000600c60008381526020019081526020016000209050600081600101549050600b600084815260200190815260200160002060040160009054906101000a900460ff1615611f5c576040517f08c379a0000000000000000000000000000000000000000000000000000000008152600401611f5390614fac565b60405180910390fd5b6000600b600085815260200190815260200160002060010160009054906101000a900473ffffffffffffffffffffffffffffffffffffffff169050600b600085815260200190815260200160002060010160009054906101000a900473ffffffffffffffffffffffffffffffffffffffff1673ffffffffffffffffffffffffffffffffffffffff166108fc84600101549081150290604051600060405180830381858888f19350505050158015612017573d6000803e3d6000fd5b508260020160009054906101000a900473ffffffffffffffffffffffffffffffffffffffff16600b600086815260200190815260200160002060020160006101000a81548173ffffffffffffffffffffffffffffffffffffffff021916908373ffffffffffffffffffffffffffffffffffffffff1602179055506001600b600086815260200190815260200160002060040160006101000a81548160ff0219169083151502179055506000600b600086815260200190815260200160002060010160006101000a81548173ffffffffffffffffffffffffffffffffffffffff021916908373ffffffffffffffffffffffffffffffffffffffff16021790555081600b60008681526020019081526020016000206003018190555061213b6008612de4565b61216a308460020160009054906101000a900473ffffffffffffffffffffffffffffffffffffffff1686612aae565b600c600085815260200190815260200160002060008082016000905560018201600090556002820160006101000a81549073ffffffffffffffffffffffffffffffffffffffff02191690556003820160006121c59190613a7e565b505050505050565b6000600b600083815260200190815260200160002060030154905080341461222a576040517f08c379a00000000000000000000000000000000000000000000000000000000081526004016122219061503e565b60405180910390fd5b600a60009054906101000a900473ffffffffffffffffffffffffffffffffffffffff1673ffffffffffffffffffffffffffffffffffffffff166108fc6009549081150290604051600060405180830381858888f19350505050158015612294573d6000803e3d6000fd5b50600b600083815260200190815260200160002060010160009054906101000a900473ffffffffffffffffffffffffffffffffffffffff1673ffffffffffffffffffffffffffffffffffffffff166108fc349081150290604051600060405180830381858888f19350505050158015612311573d6000803e3d6000fd5b5033600b600084815260200190815260200160002060020160006101000a81548173ffffffffffffffffffffffffffffffffffffffff021916908373ffffffffffffffffffffffffffffffffffffffff1602179055506001600b600084815260200190815260200160002060040160006101000a81548160ff0219169083151502179055506000600b600084815260200190815260200160002060010160006101000a81548173ffffffffffffffffffffffffffffffffffffffff021916908373ffffffffffffffffffffffffffffffffffffffff1602179055506123f66008612de4565b612401303384612aae565b5050565b600d6020528060005260406000206000915090508060000160009054906101000a900473ffffffffffffffffffffffffffffffffffffffff16908060010160009054906101000a900473ffffffffffffffffffffffffffffffffffffffff16908060010160149054906101000a900460ff16908060020154905084565b606061248d826128ff565b60006006600084815260200190815260200160002080546124ad90614761565b80601f01602080910402602001604051908101604052809291908181526020018280546124d990614761565b80156125265780601f106124fb57610100808354040283529160200191612526565b820191906000526020600020905b81548152906001019060200180831161250957829003601f168201915b505050505090506000612537613486565b9050600081510361254c57819250505061258f565b60008251111561258157808260405160200161256992919061509a565b6040516020818303038152906040529250505061258f565b61258a8461349d565b925050505b919050565b3373ffffffffffffffffffffffffffffffffffffffff16600b600084815260200190815260200160002060020160009054906101000a900473ffffffffffffffffffffffffffffffffffffffff1673ffffffffffffffffffffffffffffffffffffffff1614612638576040517f08c379a000000000000000000000000000000000000000000000000000000000815260040161262f90615130565b60405180910390fd5b600954341461267c576040517f08c379a0000000000000000000000000000000000000000000000000000000008152600401612673906151c2565b60405180910390fd5b6000600b600084815260200190815260200160002060040160006101000a81548160ff02191690831515021790555080600b60008481526020019081526020016000206003018190555033600b600084815260200190815260200160002060010160006101000a81548173ffffffffffffffffffffffffffffffffffffffff021916908373ffffffffffffffffffffffffffffffffffffffff16021790555030600b600084815260200190815260200160002060020160006101000a81548173ffffffffffffffffffffffffffffffffffffffff021916908373ffffffffffffffffffffffffffffffffffffffff16021790555061277a6008613505565b612785333084612aae565b5050565b6000600560008473ffffffffffffffffffffffffffffffffffffffff1673ffffffffffffffffffffffffffffffffffffffff16815260200190815260200160002060008373ffffffffffffffffffffffffffffffffffffffff1673ffffffffffffffffffffffffffffffffffffffff16815260200190815260200160002060009054906101000a900460ff16905092915050565b60007f80ac58cd000000000000000000000000000000000000000000000000000000007bffffffffffffffffffffffffffffffffffffffffffffffffffffffff1916827bffffffffffffffffffffffffffffffffffffffffffffffffffffffff191614806128e857507f5b5e139f000000000000000000000000000000000000000000000000000000007bffffffffffffffffffffffffffffffffffffffffffffffffffffffff1916827bffffffffffffffffffffffffffffffffffffffffffffffffffffffff1916145b806128f857506128f782613561565b5b9050919050565b612908816135cb565b612947576040517f08c379a000000000000000000000000000000000000000000000000000000000815260040161293e90614a5a565b60405180910390fd5b50565b600033905090565b816004600083815260200190815260200160002060006101000a81548173ffffffffffffffffffffffffffffffffffffffff021916908373ffffffffffffffffffffffffffffffffffffffff160217905550808273ffffffffffffffffffffffffffffffffffffffff166129c583611949565b73ffffffffffffffffffffffffffffffffffffffff167f8c5be1e5ebec7d5bd14f71427d1e84f3dd0314c0f7b2291e5b200ac8c7c3b92560405160405180910390a45050565b600081600001549050919050565b600080612a2583611949565b90508073ffffffffffffffffffffffffffffffffffffffff168473ffffffffffffffffffffffffffffffffffffffff161480612a675750612a668185612789565b5b80612aa557508373ffffffffffffffffffffffffffffffffffffffff16612a8d846107e7565b73ffffffffffffffffffffffffffffffffffffffff16145b91505092915050565b8273ffffffffffffffffffffffffffffffffffffffff16612ace82611949565b73ffffffffffffffffffffffffffffffffffffffff1614612b24576040517f08c379a0000000000000000000000000000000000000000000000000000000008152600401612b1b90615254565b60405180910390fd5b600073ffffffffffffffffffffffffffffffffffffffff168273ffffffffffffffffffffffffffffffffffffffff1603612b93576040517f08c379a0000000000000000000000000000000000000000000000000000000008152600401612b8a906152e6565b60405180910390fd5b612ba0838383600161360c565b8273ffffffffffffffffffffffffffffffffffffffff16612bc082611949565b73ffffffffffffffffffffffffffffffffffffffff1614612c16576040517f08c379a0000000000000000000000000000000000000000000000000000000008152600401612c0d90615254565b60405180910390fd5b6004600082815260200190815260200160002060006101000a81549073ffffffffffffffffffffffffffffffffffffffff02191690556001600360008573ffffffffffffffffffffffffffffffffffffffff1673ffffffffffffffffffffffffffffffffffffffff168152602001908152602001600020600082825403925050819055506001600360008473ffffffffffffffffffffffffffffffffffffffff1673ffffffffffffffffffffffffffffffffffffffff16815260200190815260200160002060008282540192505081905550816002600083815260200190815260200160002060006101000a81548173ffffffffffffffffffffffffffffffffffffffff021916908373ffffffffffffffffffffffffffffffffffffffff160217905550808273ffffffffffffffffffffffffffffffffffffffff168473ffffffffffffffffffffffffffffffffffffffff167fddf252ad1be2c89b69c2b068fc378daa952ba7f163c4a11628f55a4df523b3ef60405160405180910390a4612da28383836001613612565b505050565b60006002600083815260200190815260200160002060009054906101000a900473ffffffffffffffffffffffffffffffffffffffff169050919050565b6001816000016000828254019250508190555050565b600073ffffffffffffffffffffffffffffffffffffffff168273ffffffffffffffffffffffffffffffffffffffff1603612e69576040517f08c379a0000000000000000000000000000000000000000000000000000000008152600401612e6090615352565b60405180910390fd5b612e72816135cb565b15612eb2576040517f08c379a0000000000000000000000000000000000000000000000000000000008152600401612ea9906153be565b60405180910390fd5b612ec060008383600161360c565b612ec9816135cb565b15612f09576040517f08c379a0000000000000000000000000000000000000000000000000000000008152600401612f00906153be565b60405180910390fd5b6001600360008473ffffffffffffffffffffffffffffffffffffffff1673ffffffffffffffffffffffffffffffffffffffff16815260200190815260200160002060008282540192505081905550816002600083815260200190815260200160002060006101000a81548173ffffffffffffffffffffffffffffffffffffffff021916908373ffffffffffffffffffffffffffffffffffffffff160217905550808273ffffffffffffffffffffffffffffffffffffffff16600073ffffffffffffffffffffffffffffffffffffffff167fddf252ad1be2c89b69c2b068fc378daa952ba7f163c4a11628f55a4df523b3ef60405160405180910390a4613013600083836001613612565b5050565b613020826135cb565b61305f576040517f08c379a000000000000000000000000000000000000000000000000000000000815260040161305690615450565b60405180910390fd5b8060066000848152602001908152602001600020908161307f9190614c92565b507ff8e1a15aba9398e019f0b49df1a4fde98ee17ae345cb5f6b5e2c27f5033e8ce7826040516130af9190613f0e565b60405180910390a15050565b600081116130fe576040517f08c379a00000000000000000000000000000000000000000000000000000000081526004016130f5906154bc565b60405180910390fd5b6009543414613142576040517f08c379a0000000000000000000000000000000000000000000000000000000008152600401613139906151c2565b60405180910390fd5b6040518060a001604052808381526020013373ffffffffffffffffffffffffffffffffffffffff1681526020013073ffffffffffffffffffffffffffffffffffffffff16815260200182815260200160001515815250600b60008481526020019081526020016000206000820151816000015560208201518160010160006101000a81548173ffffffffffffffffffffffffffffffffffffffff021916908373ffffffffffffffffffffffffffffffffffffffff16021790555060408201518160020160006101000a81548173ffffffffffffffffffffffffffffffffffffffff021916908373ffffffffffffffffffffffffffffffffffffffff1602179055506060820151816003015560808201518160040160006101000a81548160ff02191690831515021790555090505061327b333084612aae565b817fb640004f1d14576d0c209e240cad0410e0d8c0c33a09375861fbadae2588a98d33308460006040516132b294939291906154dc565b60405180910390a25050565b8173ffffffffffffffffffffffffffffffffffffffff168373ffffffffffffffffffffffffffffffffffffffff160361332c576040517f08c379a00000000000000000000000000000000000000000000000000000000081526004016133239061556d565b60405180910390fd5b80600560008573ffffffffffffffffffffffffffffffffffffffff1673ffffffffffffffffffffffffffffffffffffffff16815260200190815260200160002060008473ffffffffffffffffffffffffffffffffffffffff1673ffffffffffffffffffffffffffffffffffffffff16815260200190815260200160002060006101000a81548160ff0219169083151502179055508173ffffffffffffffffffffffffffffffffffffffff168373ffffffffffffffffffffffffffffffffffffffff167f17307eab39ab6107e8899845ad3d59bd9653f200f220920489ca2b5937696c318360405161341d9190613b8f565b60405180910390a3505050565b613435848484612aae565b61344184848484613618565b613480576040517f08c379a0000000000000000000000000000000000000000000000000000000008152600401613477906155ff565b60405180910390fd5b50505050565b606060405180602001604052806000815250905090565b60606134a8826128ff565b60006134b2613486565b905060008151116134d257604051806020016040528060008152506134fd565b806134dc8461379f565b6040516020016134ed92919061509a565b6040516020818303038152906040525b915050919050565b60008160000154905060008111613551576040517f08c379a00000000000000000000000000000000000000000000000000000000081526004016135489061566b565b60405180910390fd5b6001810382600001819055505050565b60007f01ffc9a7000000000000000000000000000000000000000000000000000000007bffffffffffffffffffffffffffffffffffffffffffffffffffffffff1916827bffffffffffffffffffffffffffffffffffffffffffffffffffffffff1916149050919050565b60008073ffffffffffffffffffffffffffffffffffffffff166135ed83612da7565b73ffffffffffffffffffffffffffffffffffffffff1614159050919050565b50505050565b50505050565b60006136398473ffffffffffffffffffffffffffffffffffffffff1661386d565b15613792578373ffffffffffffffffffffffffffffffffffffffff1663150b7a0261366261294a565b8786866040518563ffffffff1660e01b815260040161368494939291906156e0565b6020604051808303816000875af19250505080156136c057506040513d601f19601f820116820180604052508101906136bd9190615741565b60015b613742573d80600081146136f0576040519150601f19603f3d011682016040523d82523d6000602084013e6136f5565b606091505b50600081510361373a576040517f08c379a0000000000000000000000000000000000000000000000000000000008152600401613731906155ff565b60405180910390fd5b805181602001fd5b63150b7a0260e01b7bffffffffffffffffffffffffffffffffffffffffffffffffffffffff1916817bffffffffffffffffffffffffffffffffffffffffffffffffffffffff191614915050613797565b600190505b949350505050565b6060600060016137ae84613890565b01905060008167ffffffffffffffff8111156137cd576137cc614356565b5b6040519080825280601f01601f1916602001820160405280156137ff5781602001600182028036833780820191505090505b509050600082602001820190505b600115613862578080600190039150507f3031323334353637383961626364656600000000000000000000000000000000600a86061a8153600a85816138565761385561576e565b5b0494506000850361380d575b819350505050919050565b6000808273ffffffffffffffffffffffffffffffffffffffff163b119050919050565b600080600090507a184f03e93ff9f4daa797ed6e38ed64bf6a1f01000000000000000083106138ee577a184f03e93ff9f4daa797ed6e38ed64bf6a1f01000000000000000083816138e4576138e361576e565b5b0492506040810190505b6d04ee2d6d415b85acef8100000000831061392b576d04ee2d6d415b85acef810000000083816139215761392061576e565b5b0492506020810190505b662386f26fc10000831061395a57662386f26fc1000083816139505761394f61576e565b5b0492506010810190505b6305f5e1008310613983576305f5e10083816139795761397861576e565b5b0492506008810190505b61271083106139a857612710838161399e5761399d61576e565b5b0492506004810190505b606483106139cb57606483816139c1576139c061576e565b5b0492506002810190505b600a83106139da576001810190505b80915050919050565b6040518060a0016040528060008152602001600073ffffffffffffffffffffffffffffffffffffffff168152602001600073ffffffffffffffffffffffffffffffffffffffff168152602001600081526020016000151581525090565b60405180608001604052806000815260200160008152602001600073ffffffffffffffffffffffffffffffffffffffff168152602001606081525090565b508054613a8a90614761565b6000825580601f10613a9c5750613abb565b601f016020900490600052602060002090810190613aba9190613abe565b5b50565b5b80821115613ad7576000816000905550600101613abf565b5090565b6000604051905090565b600080fd5b600080fd5b60007fffffffff0000000000000000000000000000000000000000000000000000000082169050919050565b613b2481613aef565b8114613b2f57600080fd5b50565b600081359050613b4181613b1b565b92915050565b600060208284031215613b5d57613b5c613ae5565b5b6000613b6b84828501613b32565b91505092915050565b60008115159050919050565b613b8981613b74565b82525050565b6000602082019050613ba46000830184613b80565b92915050565b600081519050919050565b600082825260208201905092915050565b60005b83811015613be4578082015181840152602081019050613bc9565b60008484015250505050565b6000601f19601f8301169050919050565b6000613c0c82613baa565b613c168185613bb5565b9350613c26818560208601613bc6565b613c2f81613bf0565b840191505092915050565b60006020820190508181036000830152613c548184613c01565b905092915050565b6000819050919050565b613c6f81613c5c565b8114613c7a57600080fd5b50565b600081359050613c8c81613c66565b92915050565b600060208284031215613ca857613ca7613ae5565b5b6000613cb684828501613c7d565b91505092915050565b600073ffffffffffffffffffffffffffffffffffffffff82169050919050565b6000613cea82613cbf565b9050919050565b613cfa81613cdf565b82525050565b6000602082019050613d156000830184613cf1565b92915050565b613d2481613cdf565b8114613d2f57600080fd5b50565b600081359050613d4181613d1b565b92915050565b60008060408385031215613d5e57613d5d613ae5565b5b6000613d6c85828601613d32565b9250506020613d7d85828601613c7d565b9150509250929050565b600081519050919050565b600082825260208201905092915050565b6000819050602082019050919050565b613dbc81613c5c565b82525050565b6000613dcd82613cbf565b9050919050565b613ddd81613dc2565b82525050565b613dec81613b74565b82525050565b60a082016000820151613e086000850182613db3565b506020820151613e1b6020850182613dd4565b506040820151613e2e6040850182613dd4565b506060820151613e416060850182613db3565b506080820151613e546080850182613de3565b50505050565b6000613e668383613df2565b60a08301905092915050565b6000602082019050919050565b6000613e8a82613d87565b613e948185613d92565b9350613e9f83613da3565b8060005b83811015613ed0578151613eb78882613e5a565b9750613ec283613e72565b925050600181019050613ea3565b5085935050505092915050565b60006020820190508181036000830152613ef78184613e7f565b905092915050565b613f0881613c5c565b82525050565b6000602082019050613f236000830184613eff565b92915050565b600081519050919050565b600082825260208201905092915050565b6000819050602082019050919050565b600082825260208201905092915050565b6000613f7182613baa565b613f7b8185613f55565b9350613f8b818560208601613bc6565b613f9481613bf0565b840191505092915050565b6000608083016000830151613fb76000860182613db3565b506020830151613fca6020860182613db3565b506040830151613fdd6040860182613dd4565b5060608301518482036060860152613ff58282613f66565b9150508091505092915050565b600061400e8383613f9f565b905092915050565b6000602082019050919050565b600061402e82613f29565b6140388185613f34565b93508360208202850161404a85613f45565b8060005b8581101561408657848403895281516140678582614002565b945061407283614016565b925060208a0199505060018101905061404e565b50829750879550505050505092915050565b600060408201905081810360008301526140b28185613e7f565b905081810360208301526140c68184614023565b90509392505050565b6000806000606084860312156140e8576140e7613ae5565b5b60006140f686828701613d32565b935050602061410786828701613d32565b925050604061411886828701613c7d565b9150509250925092565b60008060006060848603121561413b5761413a613ae5565b5b600061414986828701613c7d565b935050602061415a86828701613d32565b925050604061416b86828701613d32565b9150509250925092565b6000806000806080858703121561418f5761418e613ae5565b5b600061419d87828801613d32565b94505060206141ae87828801613c7d565b93505060406141bf87828801613d32565b92505060606141d087828801613c7d565b91505092959194509250565b6141e581613dc2565b82525050565b60006080820190506142006000830187613eff565b61420d6020830186613eff565b61421a60408301856141dc565b818103606083015261422c8184613c01565b905095945050505050565b600080fd5b600080fd5b600080fd5b60008083601f84011261425c5761425b614237565b5b8235905067ffffffffffffffff8111156142795761427861423c565b5b60208301915083600182028301111561429557614294614241565b5b9250929050565b6000806000806000608086880312156142b8576142b7613ae5565b5b60006142c688828901613c7d565b95505060206142d788828901613c7d565b94505060406142e888828901613c7d565b935050606086013567ffffffffffffffff81111561430957614308613aea565b5b61431588828901614246565b92509250509295509295909350565b60006020828403121561433a57614339613ae5565b5b600061434884828501613d32565b91505092915050565b600080fd5b7f4e487b7100000000000000000000000000000000000000000000000000000000600052604160045260246000fd5b61438e82613bf0565b810181811067ffffffffffffffff821117156143ad576143ac614356565b5b80604052505050565b60006143c0613adb565b90506143cc8282614385565b919050565b600067ffffffffffffffff8211156143ec576143eb614356565b5b6143f582613bf0565b9050602081019050919050565b82818337600083830152505050565b600061442461441f846143d1565b6143b6565b9050828152602081018484840111156144405761443f614351565b5b61444b848285614402565b509392505050565b600082601f83011261446857614467614237565b5b8135614478848260208601614411565b91505092915050565b6000806040838503121561449857614497613ae5565b5b600083013567ffffffffffffffff8111156144b6576144b5613aea565b5b6144c285828601614453565b92505060206144d385828601613c7d565b9150509250929050565b6144e681613b74565b81146144f157600080fd5b50565b600081359050614503816144dd565b92915050565b600080604083850312156145205761451f613ae5565b5b600061452e85828601613d32565b925050602061453f858286016144f4565b9150509250929050565b600067ffffffffffffffff82111561456457614563614356565b5b61456d82613bf0565b9050602081019050919050565b600061458d61458884614549565b6143b6565b9050828152602081018484840111156145a9576145a8614351565b5b6145b4848285614402565b509392505050565b600082601f8301126145d1576145d0614237565b5b81356145e184826020860161457a565b91505092915050565b6000806000806080858703121561460457614603613ae5565b5b600061461287828801613d32565b945050602061462387828801613d32565b935050604061463487828801613c7d565b925050606085013567ffffffffffffffff81111561465557614654613aea565b5b614661878288016145bc565b91505092959194509250565b60006080820190506146826000830187613cf1565b61468f6020830186613cf1565b61469c6040830185613b80565b6146a96060830184613eff565b95945050505050565b600080604083850312156146c9576146c8613ae5565b5b60006146d785828601613c7d565b92505060206146e885828601613c7d565b9150509250929050565b6000806040838503121561470957614708613ae5565b5b600061471785828601613d32565b925050602061472885828601613d32565b9150509250929050565b7f4e487b7100000000000000000000000000000000000000000000000000000000600052602260045260246000fd5b6000600282049050600182168061477957607f821691505b60208210810361478c5761478b614732565b5b50919050565b7f4552433732313a20617070726f76616c20746f2063757272656e74206f776e6560008201527f7200000000000000000000000000000000000000000000000000000000000000602082015250565b60006147ee602183613bb5565b91506147f982614792565b604082019050919050565b6000602082019050818103600083015261481d816147e1565b9050919050565b7f4552433732313a20617070726f76652063616c6c6572206973206e6f7420746f60008201527f6b656e206f776e6572206f7220617070726f76656420666f7220616c6c000000602082015250565b6000614880603d83613bb5565b915061488b82614824565b604082019050919050565b600060208201905081810360008301526148af81614873565b9050919050565b7f4e487b7100000000000000000000000000000000000000000000000000000000600052601160045260246000fd5b60006148f082613c5c565b91506148fb83613c5c565b9250828203905081811115614913576149126148b6565b5b92915050565b600061492482613c5c565b915061492f83613c5c565b9250828201905080821115614947576149466148b6565b5b92915050565b7f4e487b7100000000000000000000000000000000000000000000000000000000600052603260045260246000fd5b7f4552433732313a2063616c6c6572206973206e6f7420746f6b656e206f776e6560008201527f72206f7220617070726f76656400000000000000000000000000000000000000602082015250565b60006149d8602d83613bb5565b91506149e38261497c565b604082019050919050565b60006020820190508181036000830152614a07816149cb565b9050919050565b7f4552433732313a20696e76616c696420746f6b656e2049440000000000000000600082015250565b6000614a44601883613bb5565b9150614a4f82614a0e565b602082019050919050565b60006020820190508181036000830152614a7381614a37565b9050919050565b7f4974656d20616c726561647920736f6c64000000000000000000000000000000600082015250565b6000614ab0601183613bb5565b9150614abb82614a7a565b602082019050919050565b60006020820190508181036000830152614adf81614aa3565b9050919050565b60008190508160005260206000209050919050565b60006020601f8301049050919050565b600082821b905092915050565b600060088302614b487fffffffffffffffffffffffffffffffffffffffffffffffffffffffffffffffff82614b0b565b614b528683614b0b565b95508019841693508086168417925050509392505050565b6000819050919050565b6000614b8f614b8a614b8584613c5c565b614b6a565b613c5c565b9050919050565b6000819050919050565b614ba983614b74565b614bbd614bb582614b96565b848454614b18565b825550505050565b600090565b614bd2614bc5565b614bdd818484614ba0565b505050565b5b81811015614c0157614bf6600082614bca565b600181019050614be3565b5050565b601f821115614c4657614c1781614ae6565b614c2084614afb565b81016020851015614c2f578190505b614c43614c3b85614afb565b830182614be2565b50505b505050565b600082821c905092915050565b6000614c6960001984600802614c4b565b1980831691505092915050565b6000614c828383614c58565b9150826002028217905092915050565b614c9b82613baa565b67ffffffffffffffff811115614cb457614cb3614356565b5b614cbe8254614761565b614cc9828285614c05565b600060209050601f831160018114614cfc5760008415614cea578287015190505b614cf48582614c76565b865550614d5c565b601f198416614d0a86614ae6565b60005b82811015614d3257848901518255600182019150602085019450602081019050614d0d565b86831015614d4f5784890151614d4b601f891682614c58565b8355505b6001600288020188555050505b505050505050565b7f4552433732313a2061646472657373207a65726f206973206e6f74206120766160008201527f6c6964206f776e65720000000000000000000000000000000000000000000000602082015250565b6000614dc0602983613bb5565b9150614dcb82614d64565b604082019050919050565b60006020820190508181036000830152614def81614db3565b9050919050565b7f41756374696f6e20656e64656400000000000000000000000000000000000000600082015250565b6000614e2c600d83613bb5565b9150614e3782614df6565b602082019050919050565b60006020820190508181036000830152614e5b81614e1f565b9050919050565b7f546865726520616c726561647920697320612068696768657220626964000000600082015250565b6000614e98601d83613bb5565b9150614ea382614e62565b602082019050919050565b60006020820190508181036000830152614ec781614e8b565b9050919050565b7f4f6e6c79206d61726b6574706c616365206f776e65722063616e20757064617460008201527f65206c697374696e672070726963652e00000000000000000000000000000000602082015250565b6000614f2a603083613bb5565b9150614f3582614ece565b604082019050919050565b60006020820190508181036000830152614f5981614f1d565b9050919050565b7f41756374696f6e2068617320616c726561647920656e64656400000000000000600082015250565b6000614f96601983613bb5565b9150614fa182614f60565b602082019050919050565b60006020820190508181036000830152614fc581614f89565b9050919050565b7f506c65617365207375626d6974207468652061736b696e67207072696365206960008201527f6e206f7264657220746f20636f6d706c65746520746865207075726368617365602082015250565b6000615028604083613bb5565b915061503382614fcc565b604082019050919050565b600060208201905081810360008301526150578161501b565b9050919050565b600081905092915050565b600061507482613baa565b61507e818561505e565b935061508e818560208601613bc6565b80840191505092915050565b60006150a68285615069565b91506150b28284615069565b91508190509392505050565b7f4f6e6c79206974656d206f776e65722063616e20706572666f726d207468697360008201527f206f7065726174696f6e00000000000000000000000000000000000000000000602082015250565b600061511a602a83613bb5565b9150615125826150be565b604082019050919050565b600060208201905081810360008301526151498161510d565b9050919050565b7f5072696365206d75737420626520657175616c20746f206c697374696e67207060008201527f7269636500000000000000000000000000000000000000000000000000000000602082015250565b60006151ac602483613bb5565b91506151b782615150565b604082019050919050565b600060208201905081810360008301526151db8161519f565b9050919050565b7f4552433732313a207472616e736665722066726f6d20696e636f72726563742060008201527f6f776e6572000000000000000000000000000000000000000000000000000000602082015250565b600061523e602583613bb5565b9150615249826151e2565b604082019050919050565b6000602082019050818103600083015261526d81615231565b9050919050565b7f4552433732313a207472616e7366657220746f20746865207a65726f2061646460008201527f7265737300000000000000000000000000000000000000000000000000000000602082015250565b60006152d0602483613bb5565b91506152db82615274565b604082019050919050565b600060208201905081810360008301526152ff816152c3565b9050919050565b7f4552433732313a206d696e7420746f20746865207a65726f2061646472657373600082015250565b600061533c602083613bb5565b915061534782615306565b602082019050919050565b6000602082019050818103600083015261536b8161532f565b9050919050565b7f4552433732313a20746f6b656e20616c7265616479206d696e74656400000000600082015250565b60006153a8601c83613bb5565b91506153b382615372565b602082019050919050565b600060208201905081810360008301526153d78161539b565b9050919050565b7f45524337323155524953746f726167653a2055524920736574206f66206e6f6e60008201527f6578697374656e7420746f6b656e000000000000000000000000000000000000602082015250565b600061543a602e83613bb5565b9150615445826153de565b604082019050919050565b600060208201905081810360008301526154698161542d565b9050919050565b7f5072696365206d757374206265206174206c6561737420312077656900000000600082015250565b60006154a6601c83613bb5565b91506154b182615470565b602082019050919050565b600060208201905081810360008301526154d581615499565b9050919050565b60006080820190506154f16000830187613cf1565b6154fe6020830186613cf1565b61550b6040830185613eff565b6155186060830184613b80565b95945050505050565b7f4552433732313a20617070726f766520746f2063616c6c657200000000000000600082015250565b6000615557601983613bb5565b915061556282615521565b602082019050919050565b600060208201905081810360008301526155868161554a565b9050919050565b7f4552433732313a207472616e7366657220746f206e6f6e20455243373231526560008201527f63656976657220696d706c656d656e7465720000000000000000000000000000602082015250565b60006155e9603283613bb5565b91506155f48261558d565b604082019050919050565b60006020820190508181036000830152615618816155dc565b9050919050565b7f436f756e7465723a2064656372656d656e74206f766572666c6f770000000000600082015250565b6000615655601b83613bb5565b91506156608261561f565b602082019050919050565b6000602082019050818103600083015261568481615648565b9050919050565b600081519050919050565b600082825260208201905092915050565b60006156b28261568b565b6156bc8185615696565b93506156cc818560208601613bc6565b6156d581613bf0565b840191505092915050565b60006080820190506156f56000830187613cf1565b6157026020830186613cf1565b61570f6040830185613eff565b818103606083015261572181846156a7565b905095945050505050565b60008151905061573b81613b1b565b92915050565b60006020828403121561575757615756613ae5565b5b60006157658482850161572c565b91505092915050565b7f4e487b7100000000000000000000000000000000000000000000000000000000600052601260045260246000fdfea2646970667358221220b22f32386d2af9ec6f04d3c3dabddeae5b04ed05365421b9e1255f93b499303064736f6c634300081c0033",
  "linkReferences": {},
  "deployedLinkReferences": {}
}